{
  "contractName": "_gitorg",
  "abi": [
    {
      "inputs": [
        {
          "internalType": "address",
          "name": "gitarg_",
          "type": "address"
        },
        {
          "internalType": "address",
          "name": "gitarray_",
          "type": "address"
        }
      ],
      "stateMutability": "nonpayable",
      "type": "constructor"
    },
    {
      "inputs": [],
      "name": "_gitarray",
      "outputs": [
        {
          "internalType": "address",
          "name": "",
          "type": "address"
        }
      ],
      "stateMutability": "view",
      "type": "function"
    },
    {
      "inputs": [
        {
          "internalType": "uint256",
          "name": "rate_",
          "type": "uint256"
        }
      ],
      "name": "rate",
      "outputs": [],
      "stateMutability": "nonpayable",
      "type": "function"
    },
    {
      "inputs": [],
      "name": "listing",
      "outputs": [],
      "stateMutability": "nonpayable",
      "type": "function"
    },
    {
      "inputs": [
        {
          "internalType": "address",
          "name": "_proposal",
          "type": "address"
        }
      ],
      "name": "list",
      "outputs": [],
      "stateMutability": "nonpayable",
      "type": "function"
    },
    {
      "inputs": [
        {
          "internalType": "address",
          "name": "_proposal",
          "type": "address"
        }
      ],
      "name": "open",
      "outputs": [],
      "stateMutability": "nonpayable",
      "type": "function"
    }
  ],
  "bytecode": "0x608060405234801561000f575f80fd5b5060405161051338038061051383398181016040528101906100319190610189565b815f806101000a81548173ffffffffffffffffffffffffffffffffffffffff021916908373ffffffffffffffffffffffffffffffffffffffff1602179055508060015f6101000a81548173ffffffffffffffffffffffffffffffffffffffff021916908373ffffffffffffffffffffffffffffffffffffffff1602179055505f8190508073ffffffffffffffffffffffffffffffffffffffff1663cc1e2cb06040518163ffffffff1660e01b81526004016020604051808303815f875af11580156100fe573d5f803e3d5ffd5b505050506040513d601f19601f8201168201806040525081019061012291906101fc565b50505050610227565b5f80fd5b5f73ffffffffffffffffffffffffffffffffffffffff82169050919050565b5f6101588261012f565b9050919050565b6101688161014e565b8114610172575f80fd5b50565b5f815190506101838161015f565b92915050565b5f806040838503121561019f5761019e61012b565b5b5f6101ac85828601610175565b92505060206101bd85828601610175565b9150509250929050565b5f8115159050919050565b6101db816101c7565b81146101e5575f80fd5b50565b5f815190506101f6816101d2565b92915050565b5f602082840312156102115761021061012b565b5b5f61021e848285016101e8565b91505092915050565b6102df806102345f395ff3fe608060405234801561000f575f80fd5b5060043610610055575f3560e01c8063b95460f814610059578063bb032a6614610075578063bc7c55ed14610091578063e7ee6ad61461009b578063e8c94ba1146100b7575b5f80fd5b610073600480360381019061006e91906101f8565b6100d5565b005b61008f600480360381019061008a91906101f8565b6100d8565b005b6100996100db565b005b6100b560048036038101906100b09190610256565b6100dd565b005b6100bf610175565b6040516100cc9190610290565b60405180910390f35b50565b50565b565b5f73ffffffffffffffffffffffffffffffffffffffff1660025f9054906101000a900473ffffffffffffffffffffffffffffffffffffffff1673ffffffffffffffffffffffffffffffffffffffff1603610172573060025f6101000a81548173ffffffffffffffffffffffffffffffffffffffff021916908373ffffffffffffffffffffffffffffffffffffffff1602179055505b50565b60015f9054906101000a900473ffffffffffffffffffffffffffffffffffffffff1681565b5f80fd5b5f73ffffffffffffffffffffffffffffffffffffffff82169050919050565b5f6101c78261019e565b9050919050565b6101d7816101bd565b81146101e1575f80fd5b50565b5f813590506101f2816101ce565b92915050565b5f6020828403121561020d5761020c61019a565b5b5f61021a848285016101e4565b91505092915050565b5f819050919050565b61023581610223565b811461023f575f80fd5b50565b5f813590506102508161022c565b92915050565b5f6020828403121561026b5761026a61019a565b5b5f61027884828501610242565b91505092915050565b61028a816101bd565b82525050565b5f6020820190506102a35f830184610281565b9291505056fea2646970667358221220356841ed7d85edacafae74613a6fd0a700c83d2bc3af8b14bca49e5ceb7c898664736f6c63430008140033",
  "immutableReferences": {},
  "source": "// SPDX-License-Identifier: UNLICENSED\nimport \"./gitarg.sol\";\nimport \"./gitarray.sol\";\nimport \"./objects/Proposal.sol\";\nimport \"./objects/Handshakes.sol\";\npragma solidity >= \"0.8.20\";\n\ncontract _gitorg {\n  // sales/market/voting\n  address private _gitarg;\n  address public _gitarray;\n  address private _rate;\n  // trope - gitarray needed?\n  constructor(address gitarg_, address gitarray_) {\n  //constructor(address gitarg_) {\n    _gitarg = gitarg_;\n    _gitarray = gitarray_;\n    gitarray _gitarray_ = gitarray(gitarray_);\n    _gitarray_.org();\n  }\n  function rate (uint rate_) public {\n    if (_rate == address(0)) {\n      //constructor(uint _proposal, string memory _value, address _object) {\n      // TODO - _uint object\n      _rate = address(Proposal(address(this)));\n    }\n  }\n  //function listing (address _repo, uint price) public {\n  function listing () public {\n  }\n  //function list (address _repo) public {\n\n  function list (address _proposal) public {\n    // TODO - call?\n  }\n  function open (address _proposal) public {\n    // TODO - send _type from proposal\n  }\n  //function _gitarray_\n}\n",
  "sourcePath": "/home/gitarg/gitarg/solidity_ico/contracts/gitorg.sol",
  "compiler": {
    "name": "solc",
    "version": "0.8.20+commit.a1b79de6.Emscripten.clang"
  },
  "schemaVersion": "3.4.16",
  "updatedAt": "2024-03-06T12:48:02.380Z",
  "devdoc": {
    "kind": "dev",
    "methods": {},
    "version": 1
  },
  "userdoc": {
    "kind": "user",
    "methods": {},
    "version": 1
  }
}