{
  "contractName": "_gitorg",
  "abi": [
    {
      "inputs": [
        {
          "internalType": "address",
          "name": "gitarg_",
          "type": "address"
        },
        {
          "internalType": "address",
          "name": "gitarray_",
          "type": "address"
        }
      ],
      "stateMutability": "nonpayable",
      "type": "constructor"
    },
    {
      "inputs": [],
      "name": "_gitarray",
      "outputs": [
        {
          "internalType": "address",
          "name": "",
          "type": "address"
        }
      ],
      "stateMutability": "view",
      "type": "function"
    },
    {
      "inputs": [
        {
          "internalType": "uint256",
          "name": "rate_",
          "type": "uint256"
        }
      ],
      "name": "rate",
      "outputs": [],
      "stateMutability": "nonpayable",
      "type": "function"
    },
    {
      "inputs": [
        {
          "internalType": "address",
          "name": "_repo",
          "type": "address"
        },
        {
          "internalType": "uint256",
          "name": "price",
          "type": "uint256"
        }
      ],
      "name": "listing",
      "outputs": [],
      "stateMutability": "nonpayable",
      "type": "function"
    },
    {
      "inputs": [
        {
          "internalType": "address",
          "name": "_repo",
          "type": "address"
        }
      ],
      "name": "list",
      "outputs": [],
      "stateMutability": "nonpayable",
      "type": "function"
    }
  ],
  "bytecode": "0x608060405234801561000f575f80fd5b5060405161053b38038061053b83398181016040528101906100319190610189565b815f806101000a81548173ffffffffffffffffffffffffffffffffffffffff021916908373ffffffffffffffffffffffffffffffffffffffff1602179055508060015f6101000a81548173ffffffffffffffffffffffffffffffffffffffff021916908373ffffffffffffffffffffffffffffffffffffffff1602179055505f8190508073ffffffffffffffffffffffffffffffffffffffff1663cc1e2cb06040518163ffffffff1660e01b81526004016020604051808303815f875af11580156100fe573d5f803e3d5ffd5b505050506040513d601f19601f8201168201806040525081019061012291906101fc565b50505050610227565b5f80fd5b5f73ffffffffffffffffffffffffffffffffffffffff82169050919050565b5f6101588261012f565b9050919050565b6101688161014e565b8114610172575f80fd5b50565b5f815190506101838161015f565b92915050565b5f806040838503121561019f5761019e61012b565b5b5f6101ac85828601610175565b92505060206101bd85828601610175565b9150509250929050565b5f8115159050919050565b6101db816101c7565b81146101e5575f80fd5b50565b5f815190506101f6816101d2565b92915050565b5f602082840312156102115761021061012b565b5b5f61021e848285016101e8565b91505092915050565b610307806102345f395ff3fe608060405234801561000f575f80fd5b506004361061004a575f3560e01c80638de820f61461004e578063bb032a661461006a578063e7ee6ad614610086578063e8c94ba1146100a2575b5f80fd5b61006860048036038101906100639190610215565b6100c0565b005b610084600480360381019061007f9190610253565b6100c4565b005b6100a0600480360381019061009b919061027e565b6100c7565b005b6100aa61015f565b6040516100b791906102b8565b60405180910390f35b5050565b50565b5f73ffffffffffffffffffffffffffffffffffffffff1660025f9054906101000a900473ffffffffffffffffffffffffffffffffffffffff1673ffffffffffffffffffffffffffffffffffffffff160361015c573060025f6101000a81548173ffffffffffffffffffffffffffffffffffffffff021916908373ffffffffffffffffffffffffffffffffffffffff1602179055505b50565b60015f9054906101000a900473ffffffffffffffffffffffffffffffffffffffff1681565b5f80fd5b5f73ffffffffffffffffffffffffffffffffffffffff82169050919050565b5f6101b182610188565b9050919050565b6101c1816101a7565b81146101cb575f80fd5b50565b5f813590506101dc816101b8565b92915050565b5f819050919050565b6101f4816101e2565b81146101fe575f80fd5b50565b5f8135905061020f816101eb565b92915050565b5f806040838503121561022b5761022a610184565b5b5f610238858286016101ce565b925050602061024985828601610201565b9150509250929050565b5f6020828403121561026857610267610184565b5b5f610275848285016101ce565b91505092915050565b5f6020828403121561029357610292610184565b5b5f6102a084828501610201565b91505092915050565b6102b2816101a7565b82525050565b5f6020820190506102cb5f8301846102a9565b9291505056fea2646970667358221220dff1c7b9c1a31edfcba018002dc39b112ea003d4f7d226e8fbc7e4f874efbf9764736f6c63430008140033",
  "immutableReferences": {},
  "source": "// SPDX-License-Identifier: UNLICENSED\nimport \"./gitarg.sol\";\nimport \"./gitarray.sol\";\nimport \"./objects/Proposal.sol\";\nimport \"./objects/Handshakes.sol\";\npragma solidity >= \"0.8.20\";\n\ncontract _gitorg {\n  // sales/market/voting\n  address private _gitarg;\n  address public _gitarray;\n  address private _rate;\n  // trope - gitarray needed?\n  constructor(address gitarg_, address gitarray_) {\n  //constructor(address gitarg_) {\n    _gitarg = gitarg_;\n    _gitarray = gitarray_;\n    gitarray _gitarray_ = gitarray(gitarray_);\n    _gitarray_.org();\n  }\n  function rate (uint rate_) public {\n    if (_rate == address(0)) {\n      //constructor(uint _proposal, string memory _value, address _object) {\n      // TODO - _uint object\n      _rate = address(Proposal(address(this)));\n    }\n  }\n  function listing (address _repo, uint price) public {\n  }\n  function list (address _repo) public {\n    // TODO - call?\n  }\n  //function _gitarray_\n}\n",
  "sourcePath": "/Users/davidkamer/gitarg_eth_ico/contracts/gitorg.sol",
  "compiler": {
    "name": "solc",
    "version": "0.8.20+commit.a1b79de6.Emscripten.clang"
  },
  "schemaVersion": "3.4.16",
  "updatedAt": "2023-10-11T03:28:40.543Z",
  "devdoc": {
    "kind": "dev",
    "methods": {},
    "version": 1
  },
  "userdoc": {
    "kind": "user",
    "methods": {},
    "version": 1
  }
}