{
  "contractName": "_string",
  "abi": [
    {
      "inputs": [
        {
          "internalType": "string",
          "name": "N",
          "type": "string"
        }
      ],
      "stateMutability": "nonpayable",
      "type": "constructor"
    },
    {
      "anonymous": false,
      "inputs": [
        {
          "indexed": false,
          "internalType": "bytes",
          "name": "T",
          "type": "bytes"
        }
      ],
      "name": "dens",
      "type": "event"
    },
    {
      "inputs": [],
      "name": "O",
      "outputs": [
        {
          "internalType": "address",
          "name": "",
          "type": "address"
        }
      ],
      "stateMutability": "view",
      "type": "function",
      "constant": true
    },
    {
      "inputs": [
        {
          "internalType": "address",
          "name": "U",
          "type": "address"
        }
      ],
      "name": "send",
      "outputs": [],
      "stateMutability": "nonpayable",
      "type": "function"
    },
    {
      "inputs": [],
      "name": "time",
      "outputs": [],
      "stateMutability": "nonpayable",
      "type": "function"
    }
  ],
  "bytecode": "0x608060405234801562000010575f80fd5b5060405162000b0238038062000b02833981810160405281019062000036919062000213565b335f806101000a81548173ffffffffffffffffffffffffffffffffffffffff021916908373ffffffffffffffffffffffffffffffffffffffff160217905550806001908162000086919062000499565b50506200057d565b5f604051905090565b5f80fd5b5f80fd5b5f80fd5b5f80fd5b5f601f19601f8301169050919050565b7f4e487b71000000000000000000000000000000000000000000000000000000005f52604160045260245ffd5b620000ef82620000a7565b810181811067ffffffffffffffff82111715620001115762000110620000b7565b5b80604052505050565b5f620001256200008e565b9050620001338282620000e4565b919050565b5f67ffffffffffffffff821115620001555762000154620000b7565b5b6200016082620000a7565b9050602081019050919050565b5f5b838110156200018c5780820151818401526020810190506200016f565b5f8484015250505050565b5f620001ad620001a78462000138565b6200011a565b905082815260208101848484011115620001cc57620001cb620000a3565b5b620001d98482856200016d565b509392505050565b5f82601f830112620001f857620001f76200009f565b5b81516200020a84826020860162000197565b91505092915050565b5f602082840312156200022b576200022a62000097565b5b5f82015167ffffffffffffffff8111156200024b576200024a6200009b565b5b6200025984828501620001e1565b91505092915050565b5f81519050919050565b7f4e487b71000000000000000000000000000000000000000000000000000000005f52602260045260245ffd5b5f6002820490506001821680620002b157607f821691505b602082108103620002c757620002c66200026c565b5b50919050565b5f819050815f5260205f209050919050565b5f6020601f8301049050919050565b5f82821b905092915050565b5f600883026200032b7fffffffffffffffffffffffffffffffffffffffffffffffffffffffffffffffff82620002ee565b620003378683620002ee565b95508019841693508086168417925050509392505050565b5f819050919050565b5f819050919050565b5f620003816200037b62000375846200034f565b62000358565b6200034f565b9050919050565b5f819050919050565b6200039c8362000361565b620003b4620003ab8262000388565b848454620002fa565b825550505050565b5f90565b620003ca620003bc565b620003d781848462000391565b505050565b5b81811015620003fe57620003f25f82620003c0565b600181019050620003dd565b5050565b601f8211156200044d576200041781620002cd565b6200042284620002df565b8101602085101562000432578190505b6200044a6200044185620002df565b830182620003dc565b50505b505050565b5f82821c905092915050565b5f6200046f5f198460080262000452565b1980831691505092915050565b5f6200048983836200045e565b9150826002028217905092915050565b620004a48262000262565b67ffffffffffffffff811115620004c057620004bf620000b7565b5b620004cc825462000299565b620004d982828562000402565b5f60209050601f8311600181146200050f575f8415620004fa578287015190505b6200050685826200047c565b86555062000575565b601f1984166200051f86620002cd565b5f5b82811015620005485784890151825560018201915060208501945060208101905062000521565b8683101562000568578489015162000564601f8916826200045e565b8355505b6001600288020188555050505b505050505050565b610577806200058b5f395ff3fe608060405234801561000f575f80fd5b506004361061003f575f3560e01c806316ada547146100435780633e58c58c1461004d578063a0ea32de14610069575b5f80fd5b61004b610087565b005b610067600480360381019061006291906102bd565b61016d565b005b61007161023c565b60405161007e91906102f7565b60405180910390f35b3373ffffffffffffffffffffffffffffffffffffffff165f8054906101000a900473ffffffffffffffffffffffffffffffffffffffff1673ffffffffffffffffffffffffffffffffffffffff1614610114576040517f08c379a000000000000000000000000000000000000000000000000000000000815260040161010b9061036a565b60405180910390fd5b7ff2d4f0fa6267fd7f540ca3f0520a543d190ee2ad3babdf258c4f28d450de509360016040516020016101479190610481565b6040516020818303038152906040526040516101639190610521565b60405180910390a1565b3373ffffffffffffffffffffffffffffffffffffffff165f8054906101000a900473ffffffffffffffffffffffffffffffffffffffff1673ffffffffffffffffffffffffffffffffffffffff16146101fa576040517f08c379a00000000000000000000000000000000000000000000000000000000081526004016101f19061036a565b60405180910390fd5b805f806101000a81548173ffffffffffffffffffffffffffffffffffffffff021916908373ffffffffffffffffffffffffffffffffffffffff16021790555050565b5f8054906101000a900473ffffffffffffffffffffffffffffffffffffffff1681565b5f80fd5b5f73ffffffffffffffffffffffffffffffffffffffff82169050919050565b5f61028c82610263565b9050919050565b61029c81610282565b81146102a6575f80fd5b50565b5f813590506102b781610293565b92915050565b5f602082840312156102d2576102d161025f565b5b5f6102df848285016102a9565b91505092915050565b6102f181610282565b82525050565b5f60208201905061030a5f8301846102e8565b92915050565b5f82825260208201905092915050565b7f736f7572000000000000000000000000000000000000000000000000000000005f82015250565b5f610354600483610310565b915061035f82610320565b602082019050919050565b5f6020820190508181035f83015261038181610348565b9050919050565b7f4e487b71000000000000000000000000000000000000000000000000000000005f52602260045260245ffd5b5f60028204905060018216806103cc57607f821691505b6020821081036103df576103de610388565b5b50919050565b5f81905092915050565b5f819050815f5260205f209050919050565b5f815461040d816103b5565b61041781866103e5565b9450600182165f8114610431576001811461044657610478565b60ff1983168652811515820286019350610478565b61044f856103ef565b5f5b8381101561047057815481890152600182019150602081019050610451565b838801955050505b50505092915050565b5f61048c8284610401565b915081905092915050565b5f81519050919050565b5f82825260208201905092915050565b5f5b838110156104ce5780820151818401526020810190506104b3565b5f8484015250505050565b5f601f19601f8301169050919050565b5f6104f382610497565b6104fd81856104a1565b935061050d8185602086016104b1565b610516816104d9565b840191505092915050565b5f6020820190508181035f83015261053981846104e9565b90509291505056fea2646970667358221220739d04779698c75e380086ed46445c7ab675a030cba909f6eab50ff21ec8fa2264736f6c63430008140033",
  "immutableReferences": {},
  "source": "// SPDX-License-Identifier: UNLICENSED\npragma solidity >= \"0.8.20\";\nimport \"./_type.sol\";\n\ncontract _string is _type {\n  string private S;\n  constructor (string memory N) {\n    S = N;\n  }\n  function time () public OUR {\n    emit dens(abi.encodePacked(S)); \n  } \n}\n",
  "sourcePath": "/Users/davidkamer/gitarg_eth_ico/contracts/objects/_string.sol",
  "compiler": {
    "name": "solc",
    "version": "0.8.20+commit.a1b79de6.Emscripten.clang"
  },
  "schemaVersion": "3.4.16",
  "updatedAt": "2023-10-11T03:20:24.502Z",
  "networkType": "ethereum",
  "devdoc": {
    "kind": "dev",
    "methods": {},
    "version": 1
  },
  "userdoc": {
    "kind": "user",
    "methods": {},
    "version": 1
  }
}