{
  "contractName": "_string",
  "abi": [
    {
      "inputs": [
        {
          "internalType": "string",
          "name": "N",
          "type": "string"
        }
      ],
      "stateMutability": "nonpayable",
      "type": "constructor"
    },
    {
      "anonymous": false,
      "inputs": [
        {
          "indexed": false,
          "internalType": "bytes",
          "name": "T",
          "type": "bytes"
        }
      ],
      "name": "dens",
      "type": "event"
    },
    {
      "inputs": [],
      "name": "O",
      "outputs": [
        {
          "internalType": "address",
          "name": "",
          "type": "address"
        }
      ],
      "stateMutability": "view",
      "type": "function",
      "constant": true
    },
    {
      "inputs": [],
      "name": "address_",
      "outputs": [
        {
          "internalType": "address",
          "name": "",
          "type": "address"
        }
      ],
      "stateMutability": "nonpayable",
      "type": "function"
    },
    {
      "inputs": [],
      "name": "int_",
      "outputs": [
        {
          "internalType": "int256",
          "name": "",
          "type": "int256"
        }
      ],
      "stateMutability": "nonpayable",
      "type": "function"
    },
    {
      "inputs": [
        {
          "internalType": "address",
          "name": "U",
          "type": "address"
        }
      ],
      "name": "send",
      "outputs": [],
      "stateMutability": "nonpayable",
      "type": "function"
    },
    {
      "inputs": [],
      "name": "uint_",
      "outputs": [
        {
          "internalType": "uint256",
          "name": "",
          "type": "uint256"
        }
      ],
      "stateMutability": "nonpayable",
      "type": "function"
    },
    {
      "inputs": [],
      "name": "time",
      "outputs": [],
      "stateMutability": "nonpayable",
      "type": "function"
    },
    {
      "inputs": [],
      "name": "string_",
      "outputs": [
        {
          "internalType": "string",
          "name": "",
          "type": "string"
        }
      ],
      "stateMutability": "nonpayable",
      "type": "function"
    }
  ],
  "bytecode": "0x608060405234801562000010575f80fd5b5060405162000da338038062000da3833981810160405281019062000036919062000213565b335f806101000a81548173ffffffffffffffffffffffffffffffffffffffff021916908373ffffffffffffffffffffffffffffffffffffffff160217905550806001908162000086919062000499565b50506200057d565b5f604051905090565b5f80fd5b5f80fd5b5f80fd5b5f80fd5b5f601f19601f8301169050919050565b7f4e487b71000000000000000000000000000000000000000000000000000000005f52604160045260245ffd5b620000ef82620000a7565b810181811067ffffffffffffffff82111715620001115762000110620000b7565b5b80604052505050565b5f620001256200008e565b9050620001338282620000e4565b919050565b5f67ffffffffffffffff821115620001555762000154620000b7565b5b6200016082620000a7565b9050602081019050919050565b5f5b838110156200018c5780820151818401526020810190506200016f565b5f8484015250505050565b5f620001ad620001a78462000138565b6200011a565b905082815260208101848484011115620001cc57620001cb620000a3565b5b620001d98482856200016d565b509392505050565b5f82601f830112620001f857620001f76200009f565b5b81516200020a84826020860162000197565b91505092915050565b5f602082840312156200022b576200022a62000097565b5b5f82015167ffffffffffffffff8111156200024b576200024a6200009b565b5b6200025984828501620001e1565b91505092915050565b5f81519050919050565b7f4e487b71000000000000000000000000000000000000000000000000000000005f52602260045260245ffd5b5f6002820490506001821680620002b157607f821691505b602082108103620002c757620002c66200026c565b5b50919050565b5f819050815f5260205f209050919050565b5f6020601f8301049050919050565b5f82821b905092915050565b5f600883026200032b7fffffffffffffffffffffffffffffffffffffffffffffffffffffffffffffffff82620002ee565b620003378683620002ee565b95508019841693508086168417925050509392505050565b5f819050919050565b5f819050919050565b5f620003816200037b62000375846200034f565b62000358565b6200034f565b9050919050565b5f819050919050565b6200039c8362000361565b620003b4620003ab8262000388565b848454620002fa565b825550505050565b5f90565b620003ca620003bc565b620003d781848462000391565b505050565b5b81811015620003fe57620003f25f82620003c0565b600181019050620003dd565b5050565b601f8211156200044d576200041781620002cd565b6200042284620002df565b8101602085101562000432578190505b6200044a6200044185620002df565b830182620003dc565b50505b505050565b5f82821c905092915050565b5f6200046f5f198460080262000452565b1980831691505092915050565b5f6200048983836200045e565b9150826002028217905092915050565b620004a48262000262565b67ffffffffffffffff811115620004c057620004bf620000b7565b5b620004cc825462000299565b620004d982828562000402565b5f60209050601f8311600181146200050f575f8415620004fa578287015190505b6200050685826200047c565b86555062000575565b601f1984166200051f86620002cd565b5f5b82811015620005485784890151825560018201915060208501945060208101905062000521565b8683101562000568578489015162000564601f8916826200045e565b8355505b6001600288020188555050505b505050505050565b610818806200058b5f395ff3fe608060405234801561000f575f80fd5b506004361061007b575f3560e01c806381c228811161005957806381c22881146100c357806391754123146100e1578063a0ea32de146100ff578063e930a2791461011d5761007b565b806316ada5471461007f5780633e58c58c14610089578063758aa8ad146100a5575b5f80fd5b61008761013b565b005b6100a3600480360381019061009e919061049a565b610221565b005b6100ad6102f0565b6040516100ba91906104d4565b60405180910390f35b6100cb6102f4565b6040516100d89190610577565b60405180910390f35b6100e9610411565b6040516100f691906105af565b60405180910390f35b610107610415565b60405161011491906104d4565b60405180910390f35b610125610438565b60405161013291906105e0565b60405180910390f35b3373ffffffffffffffffffffffffffffffffffffffff165f8054906101000a900473ffffffffffffffffffffffffffffffffffffffff1673ffffffffffffffffffffffffffffffffffffffff16146101c8576040517f08c379a00000000000000000000000000000000000000000000000000000000081526004016101bf90610643565b60405180910390fd5b7ff2d4f0fa6267fd7f540ca3f0520a543d190ee2ad3babdf258c4f28d450de509360016040516020016101fb919061075a565b60405160208183030381529060405260405161021791906107c2565b60405180910390a1565b3373ffffffffffffffffffffffffffffffffffffffff165f8054906101000a900473ffffffffffffffffffffffffffffffffffffffff1673ffffffffffffffffffffffffffffffffffffffff16146102ae576040517f08c379a00000000000000000000000000000000000000000000000000000000081526004016102a590610643565b60405180910390fd5b805f806101000a81548173ffffffffffffffffffffffffffffffffffffffff021916908373ffffffffffffffffffffffffffffffffffffffff16021790555050565b5f90565b60603373ffffffffffffffffffffffffffffffffffffffff165f8054906101000a900473ffffffffffffffffffffffffffffffffffffffff1673ffffffffffffffffffffffffffffffffffffffff1614610383576040517f08c379a000000000000000000000000000000000000000000000000000000000815260040161037a90610643565b60405180910390fd5b600180546103909061068e565b80601f01602080910402602001604051908101604052809291908181526020018280546103bc9061068e565b80156104075780601f106103de57610100808354040283529160200191610407565b820191905f5260205f20905b8154815290600101906020018083116103ea57829003601f168201915b5050505050905090565b5f90565b5f8054906101000a900473ffffffffffffffffffffffffffffffffffffffff1681565b5f90565b5f80fd5b5f73ffffffffffffffffffffffffffffffffffffffff82169050919050565b5f61046982610440565b9050919050565b6104798161045f565b8114610483575f80fd5b50565b5f8135905061049481610470565b92915050565b5f602082840312156104af576104ae61043c565b5b5f6104bc84828501610486565b91505092915050565b6104ce8161045f565b82525050565b5f6020820190506104e75f8301846104c5565b92915050565b5f81519050919050565b5f82825260208201905092915050565b5f5b83811015610524578082015181840152602081019050610509565b5f8484015250505050565b5f601f19601f8301169050919050565b5f610549826104ed565b61055381856104f7565b9350610563818560208601610507565b61056c8161052f565b840191505092915050565b5f6020820190508181035f83015261058f818461053f565b905092915050565b5f819050919050565b6105a981610597565b82525050565b5f6020820190506105c25f8301846105a0565b92915050565b5f819050919050565b6105da816105c8565b82525050565b5f6020820190506105f35f8301846105d1565b92915050565b7f736f7572000000000000000000000000000000000000000000000000000000005f82015250565b5f61062d6004836104f7565b9150610638826105f9565b602082019050919050565b5f6020820190508181035f83015261065a81610621565b9050919050565b7f4e487b71000000000000000000000000000000000000000000000000000000005f52602260045260245ffd5b5f60028204905060018216806106a557607f821691505b6020821081036106b8576106b7610661565b5b50919050565b5f81905092915050565b5f819050815f5260205f209050919050565b5f81546106e68161068e565b6106f081866106be565b9450600182165f811461070a576001811461071f57610751565b60ff1983168652811515820286019350610751565b610728856106c8565b5f5b838110156107495781548189015260018201915060208101905061072a565b838801955050505b50505092915050565b5f61076582846106da565b915081905092915050565b5f81519050919050565b5f82825260208201905092915050565b5f61079482610770565b61079e818561077a565b93506107ae818560208601610507565b6107b78161052f565b840191505092915050565b5f6020820190508181035f8301526107da818461078a565b90509291505056fea2646970667358221220bd33c2d4b5d57d71b4d5036e74d5a320615c02fea9eba9c8ee2431e984c0f56364736f6c63430008140033",
  "immutableReferences": {},
  "source": "// SPDX-License-Identifier: UNLICENSED\npragma solidity >= \"0.8.20\";\nimport \"./_type.sol\";\n\ncontract _string is _type {\n  string private S;\n  constructor (string memory N) {\n    S = N;\n  }\n  function time () public override OUR {\n    emit dens(abi.encodePacked(S)); \n  } \n  function string_ () public override OUR returns (string memory) {\n    return S;\n  }\n}\n",
  "sourcePath": "/home/gitarg/gitarg/solidity_ico/contracts/objects/_string.sol",
  "compiler": {
    "name": "solc",
    "version": "0.8.20+commit.a1b79de6.Emscripten.clang"
  },
  "schemaVersion": "3.4.16",
  "updatedAt": "2024-03-06T12:50:18.525Z",
  "networkType": "ethereum",
  "devdoc": {
    "kind": "dev",
    "methods": {},
    "version": 1
  },
  "userdoc": {
    "kind": "user",
    "methods": {},
    "version": 1
  }
}