{
  "contractName": "_uint",
  "abi": [
    {
      "inputs": [
        {
          "internalType": "uint256",
          "name": "R",
          "type": "uint256"
        }
      ],
      "stateMutability": "nonpayable",
      "type": "constructor"
    },
    {
      "anonymous": false,
      "inputs": [
        {
          "indexed": false,
          "internalType": "bytes",
          "name": "T",
          "type": "bytes"
        }
      ],
      "name": "dens",
      "type": "event"
    },
    {
      "inputs": [],
      "name": "O",
      "outputs": [
        {
          "internalType": "address",
          "name": "",
          "type": "address"
        }
      ],
      "stateMutability": "view",
      "type": "function",
      "constant": true
    },
    {
      "inputs": [],
      "name": "address_",
      "outputs": [
        {
          "internalType": "address",
          "name": "",
          "type": "address"
        }
      ],
      "stateMutability": "nonpayable",
      "type": "function"
    },
    {
      "inputs": [],
      "name": "int_",
      "outputs": [
        {
          "internalType": "int256",
          "name": "",
          "type": "int256"
        }
      ],
      "stateMutability": "nonpayable",
      "type": "function"
    },
    {
      "inputs": [
        {
          "internalType": "address",
          "name": "U",
          "type": "address"
        }
      ],
      "name": "send",
      "outputs": [],
      "stateMutability": "nonpayable",
      "type": "function"
    },
    {
      "inputs": [],
      "name": "string_",
      "outputs": [
        {
          "internalType": "string",
          "name": "",
          "type": "string"
        }
      ],
      "stateMutability": "nonpayable",
      "type": "function"
    },
    {
      "inputs": [],
      "name": "time",
      "outputs": [],
      "stateMutability": "nonpayable",
      "type": "function"
    },
    {
      "inputs": [],
      "name": "uint_",
      "outputs": [
        {
          "internalType": "uint256",
          "name": "",
          "type": "uint256"
        }
      ],
      "stateMutability": "nonpayable",
      "type": "function"
    }
  ],
  "bytecode": "0x608060405234801561000f575f80fd5b506040516107aa3803806107aa833981810160405281019061003191906100b4565b335f806101000a81548173ffffffffffffffffffffffffffffffffffffffff021916908373ffffffffffffffffffffffffffffffffffffffff16021790555080600181905550506100df565b5f80fd5b5f819050919050565b61009381610081565b811461009d575f80fd5b50565b5f815190506100ae8161008a565b92915050565b5f602082840312156100c9576100c861007d565b5b5f6100d6848285016100a0565b91505092915050565b6106be806100ec5f395ff3fe608060405234801561000f575f80fd5b506004361061007b575f3560e01c806381c228811161005957806381c22881146100c357806391754123146100e1578063a0ea32de146100ff578063e930a2791461011d5761007b565b806316ada5471461007f5780633e58c58c14610089578063758aa8ad146100a5575b5f80fd5b61008761013b565b005b6100a3600480360381019061009e9190610415565b610222565b005b6100ad6102f1565b6040516100ba919061044f565b60405180910390f35b6100cb6102f5565b6040516100d891906104f2565b60405180910390f35b6100e96102fa565b6040516100f6919061052a565b60405180910390f35b610107610390565b604051610114919061044f565b60405180910390f35b6101256103b3565b604051610132919061055b565b60405180910390f35b3373ffffffffffffffffffffffffffffffffffffffff165f8054906101000a900473ffffffffffffffffffffffffffffffffffffffff1673ffffffffffffffffffffffffffffffffffffffff16146101c8576040517f08c379a00000000000000000000000000000000000000000000000000000000081526004016101bf906105be565b60405180910390fd5b7ff2d4f0fa6267fd7f540ca3f0520a543d190ee2ad3babdf258c4f28d450de50936001546040516020016101fc91906105fc565b6040516020818303038152906040526040516102189190610668565b60405180910390a1565b3373ffffffffffffffffffffffffffffffffffffffff165f8054906101000a900473ffffffffffffffffffffffffffffffffffffffff1673ffffffffffffffffffffffffffffffffffffffff16146102af576040517f08c379a00000000000000000000000000000000000000000000000000000000081526004016102a6906105be565b60405180910390fd5b805f806101000a81548173ffffffffffffffffffffffffffffffffffffffff021916908373ffffffffffffffffffffffffffffffffffffffff16021790555050565b5f90565b606090565b5f3373ffffffffffffffffffffffffffffffffffffffff165f8054906101000a900473ffffffffffffffffffffffffffffffffffffffff1673ffffffffffffffffffffffffffffffffffffffff1614610388576040517f08c379a000000000000000000000000000000000000000000000000000000000815260040161037f906105be565b60405180910390fd5b600154905090565b5f8054906101000a900473ffffffffffffffffffffffffffffffffffffffff1681565b5f90565b5f80fd5b5f73ffffffffffffffffffffffffffffffffffffffff82169050919050565b5f6103e4826103bb565b9050919050565b6103f4816103da565b81146103fe575f80fd5b50565b5f8135905061040f816103eb565b92915050565b5f6020828403121561042a576104296103b7565b5b5f61043784828501610401565b91505092915050565b610449816103da565b82525050565b5f6020820190506104625f830184610440565b92915050565b5f81519050919050565b5f82825260208201905092915050565b5f5b8381101561049f578082015181840152602081019050610484565b5f8484015250505050565b5f601f19601f8301169050919050565b5f6104c482610468565b6104ce8185610472565b93506104de818560208601610482565b6104e7816104aa565b840191505092915050565b5f6020820190508181035f83015261050a81846104ba565b905092915050565b5f819050919050565b61052481610512565b82525050565b5f60208201905061053d5f83018461051b565b92915050565b5f819050919050565b61055581610543565b82525050565b5f60208201905061056e5f83018461054c565b92915050565b7f736f7572000000000000000000000000000000000000000000000000000000005f82015250565b5f6105a8600483610472565b91506105b382610574565b602082019050919050565b5f6020820190508181035f8301526105d58161059c565b9050919050565b5f819050919050565b6105f66105f182610512565b6105dc565b82525050565b5f61060782846105e5565b60208201915081905092915050565b5f81519050919050565b5f82825260208201905092915050565b5f61063a82610616565b6106448185610620565b9350610654818560208601610482565b61065d816104aa565b840191505092915050565b5f6020820190508181035f8301526106808184610630565b90509291505056fea2646970667358221220161c37c0fd3a1e2e0ec57bde12814459cddefe42badd80058df39416200d3ede64736f6c63430008140033",
  "immutableReferences": {},
  "source": "// SPDX-License-Identifier: UNLICENSED\npragma solidity >= \"0.8.20\";\nimport \"./_type.sol\";\n\ncontract _uint is _type {\n  uint private xy; \n  constructor(uint R) {\n    xy = R;\n  }\n  function time () public override OUR {\n    emit dens(abi.encodePacked(xy)); \n  }\n  function uint_ () public override OUR returns (uint) {\n    return xy;\n  }\n}\n",
  "sourcePath": "/home/gitarg/gitarg/solidity_ico/contracts/objects/_uint.sol",
  "compiler": {
    "name": "solc",
    "version": "0.8.20+commit.a1b79de6.Emscripten.clang"
  },
  "schemaVersion": "3.4.16",
  "updatedAt": "2024-02-26T21:52:38.889Z",
  "networkType": "ethereum",
  "devdoc": {
    "kind": "dev",
    "methods": {},
    "version": 1
  },
  "userdoc": {
    "kind": "user",
    "methods": {},
    "version": 1
  }
}