{
  "contractName": "_uint",
  "abi": [
    {
      "inputs": [
        {
          "internalType": "uint256",
          "name": "R",
          "type": "uint256"
        }
      ],
      "stateMutability": "nonpayable",
      "type": "constructor"
    },
    {
      "anonymous": false,
      "inputs": [
        {
          "indexed": false,
          "internalType": "bytes",
          "name": "T",
          "type": "bytes"
        }
      ],
      "name": "dens",
      "type": "event"
    },
    {
      "inputs": [],
      "name": "O",
      "outputs": [
        {
          "internalType": "address",
          "name": "",
          "type": "address"
        }
      ],
      "stateMutability": "view",
      "type": "function",
      "constant": true
    },
    {
      "inputs": [
        {
          "internalType": "address",
          "name": "U",
          "type": "address"
        }
      ],
      "name": "send",
      "outputs": [],
      "stateMutability": "nonpayable",
      "type": "function"
    },
    {
      "inputs": [],
      "name": "time",
      "outputs": [],
      "stateMutability": "nonpayable",
      "type": "function"
    }
  ],
  "bytecode": "0x608060405234801561000f575f80fd5b50604051610598380380610598833981810160405281019061003191906100b4565b335f806101000a81548173ffffffffffffffffffffffffffffffffffffffff021916908373ffffffffffffffffffffffffffffffffffffffff16021790555080600181905550506100df565b5f80fd5b5f819050919050565b61009381610081565b811461009d575f80fd5b50565b5f815190506100ae8161008a565b92915050565b5f602082840312156100c9576100c861007d565b5b5f6100d6848285016100a0565b91505092915050565b6104ac806100ec5f395ff3fe608060405234801561000f575f80fd5b506004361061003f575f3560e01c806316ada547146100435780633e58c58c1461004d578063a0ea32de14610069575b5f80fd5b61004b610087565b005b610067600480360381019061006291906102be565b61016e565b005b61007161023d565b60405161007e91906102f8565b60405180910390f35b3373ffffffffffffffffffffffffffffffffffffffff165f8054906101000a900473ffffffffffffffffffffffffffffffffffffffff1673ffffffffffffffffffffffffffffffffffffffff1614610114576040517f08c379a000000000000000000000000000000000000000000000000000000000815260040161010b9061036b565b60405180910390fd5b7ff2d4f0fa6267fd7f540ca3f0520a543d190ee2ad3babdf258c4f28d450de509360015460405160200161014891906103b2565b6040516020818303038152906040526040516101649190610456565b60405180910390a1565b3373ffffffffffffffffffffffffffffffffffffffff165f8054906101000a900473ffffffffffffffffffffffffffffffffffffffff1673ffffffffffffffffffffffffffffffffffffffff16146101fb576040517f08c379a00000000000000000000000000000000000000000000000000000000081526004016101f29061036b565b60405180910390fd5b805f806101000a81548173ffffffffffffffffffffffffffffffffffffffff021916908373ffffffffffffffffffffffffffffffffffffffff16021790555050565b5f8054906101000a900473ffffffffffffffffffffffffffffffffffffffff1681565b5f80fd5b5f73ffffffffffffffffffffffffffffffffffffffff82169050919050565b5f61028d82610264565b9050919050565b61029d81610283565b81146102a7575f80fd5b50565b5f813590506102b881610294565b92915050565b5f602082840312156102d3576102d2610260565b5b5f6102e0848285016102aa565b91505092915050565b6102f281610283565b82525050565b5f60208201905061030b5f8301846102e9565b92915050565b5f82825260208201905092915050565b7f736f7572000000000000000000000000000000000000000000000000000000005f82015250565b5f610355600483610311565b915061036082610321565b602082019050919050565b5f6020820190508181035f83015261038281610349565b9050919050565b5f819050919050565b5f819050919050565b6103ac6103a782610389565b610392565b82525050565b5f6103bd828461039b565b60208201915081905092915050565b5f81519050919050565b5f82825260208201905092915050565b5f5b838110156104035780820151818401526020810190506103e8565b5f8484015250505050565b5f601f19601f8301169050919050565b5f610428826103cc565b61043281856103d6565b93506104428185602086016103e6565b61044b8161040e565b840191505092915050565b5f6020820190508181035f83015261046e818461041e565b90509291505056fea26469706673582212206d4c9a805bf4dfb6b2ca3c7702ad03f40c6b674107d029b724378e9a7640111164736f6c63430008140033",
  "immutableReferences": {},
  "source": "// SPDX-License-Identifier: UNLICENSED\npragma solidity >= \"0.8.20\";\nimport \"./_type.sol\";\n\ncontract _uint is _type {\n  uint private xy; \n  constructor(uint R) {\n    xy = R;\n  }\n  function time () public OUR {\n    emit dens(abi.encodePacked(xy)); \n  }\n}\n",
  "sourcePath": "/Users/davidkamer/gitarg_eth_ico/contracts/objects/_uint.sol",
  "compiler": {
    "name": "solc",
    "version": "0.8.20+commit.a1b79de6.Emscripten.clang"
  },
  "schemaVersion": "3.4.16",
  "updatedAt": "2023-10-11T03:20:24.498Z",
  "networkType": "ethereum",
  "devdoc": {
    "kind": "dev",
    "methods": {},
    "version": 1
  },
  "userdoc": {
    "kind": "user",
    "methods": {},
    "version": 1
  }
}