{
  "contractName": "argctl",
  "abi": [
    {
      "inputs": [
        {
          "internalType": "address",
          "name": "handshakes_",
          "type": "address"
        },
        {
          "internalType": "address",
          "name": "gitorg_",
          "type": "address"
        },
        {
          "internalType": "address",
          "name": "gitarg_",
          "type": "address"
        },
        {
          "internalType": "address",
          "name": "_gitarray",
          "type": "address"
        }
      ],
      "stateMutability": "nonpayable",
      "type": "constructor"
    },
    {
      "inputs": [],
      "name": "_gitarg",
      "outputs": [
        {
          "internalType": "address",
          "name": "",
          "type": "address"
        }
      ],
      "stateMutability": "view",
      "type": "function"
    },
    {
      "inputs": [],
      "name": "proof",
      "outputs": [
        {
          "internalType": "address",
          "name": "",
          "type": "address"
        }
      ],
      "stateMutability": "view",
      "type": "function"
    },
    {
      "inputs": [
        {
          "internalType": "address",
          "name": "repo",
          "type": "address"
        },
        {
          "internalType": "address",
          "name": "handshakes",
          "type": "address"
        }
      ],
      "name": "checkin",
      "outputs": [],
      "stateMutability": "nonpayable",
      "type": "function"
    },
    {
      "inputs": [
        {
          "internalType": "address",
          "name": "_repo",
          "type": "address"
        },
        {
          "internalType": "string",
          "name": "_message",
          "type": "string"
        },
        {
          "internalType": "string",
          "name": "_author",
          "type": "string"
        },
        {
          "internalType": "string",
          "name": "_date",
          "type": "string"
        }
      ],
      "name": "commit",
      "outputs": [
        {
          "internalType": "uint256",
          "name": "",
          "type": "uint256"
        }
      ],
      "stateMutability": "nonpayable",
      "type": "function"
    },
    {
      "inputs": [
        {
          "internalType": "uint256",
          "name": "amount",
          "type": "uint256"
        }
      ],
      "name": "tar",
      "outputs": [
        {
          "internalType": "uint256",
          "name": "price",
          "type": "uint256"
        }
      ],
      "stateMutability": "nonpayable",
      "type": "function"
    }
  ],
  "bytecode": "0x608060405234801562000010575f80fd5b5060405162000d3c38038062000d3c8339818101604052810190620000369190620002b7565b8160025f6101000a81548173ffffffffffffffffffffffffffffffffffffffff021916908373ffffffffffffffffffffffffffffffffffffffff160217905550825f806101000a81548173ffffffffffffffffffffffffffffffffffffffff021916908373ffffffffffffffffffffffffffffffffffffffff1602179055508260015f6101000a81548173ffffffffffffffffffffffffffffffffffffffff021916908373ffffffffffffffffffffffffffffffffffffffff1602179055508360035f6101000a81548173ffffffffffffffffffffffffffffffffffffffff021916908373ffffffffffffffffffffffffffffffffffffffff1602179055508360045f6101000a81548173ffffffffffffffffffffffffffffffffffffffff021916908373ffffffffffffffffffffffffffffffffffffffff1602179055508060055f6101000a81548173ffffffffffffffffffffffffffffffffffffffff021916908373ffffffffffffffffffffffffffffffffffffffff16021790555060055f9054906101000a900473ffffffffffffffffffffffffffffffffffffffff1673ffffffffffffffffffffffffffffffffffffffff16631328182b6040518163ffffffff1660e01b81526004016020604051808303815f875af115801562000221573d5f803e3d5ffd5b505050506040513d601f19601f8201168201806040525081019062000247919062000360565b505050505062000390565b5f80fd5b5f73ffffffffffffffffffffffffffffffffffffffff82169050919050565b5f620002818262000256565b9050919050565b620002938162000275565b81146200029e575f80fd5b50565b5f81519050620002b18162000288565b92915050565b5f805f8060808587031215620002d257620002d162000252565b5b5f620002e187828801620002a1565b9450506020620002f487828801620002a1565b93505060406200030787828801620002a1565b92505060606200031a87828801620002a1565b91505092959194509250565b5f8115159050919050565b6200033c8162000326565b811462000347575f80fd5b50565b5f815190506200035a8162000331565b92915050565b5f6020828403121562000378576200037762000252565b5b5f62000387848285016200034a565b91505092915050565b61099e806200039e5f395ff3fe608060405234801561000f575f80fd5b5060043610610055575f3560e01c806303f2d8fe146100595780631aaf972d1461007757806322bb79d0146100935780638ed0f737146100c3578063faf924cf146100f3575b5f80fd5b610061610111565b60405161006e919061051c565b60405180910390f35b610091600480360381019061008c9190610570565b610136565b005b6100ad60048036038101906100a891906106ea565b6102a7565b6040516100ba91906107ba565b60405180910390f35b6100dd60048036038101906100d891906107fd565b6103d5565b6040516100ea91906107ba565b60405180910390f35b6100fb6103df565b604051610108919061051c565b60405180910390f35b60025f9054906101000a900473ffffffffffffffffffffffffffffffffffffffff1681565b60405180606001604052808373ffffffffffffffffffffffffffffffffffffffff1681526020013373ffffffffffffffffffffffffffffffffffffffff1681526020018273ffffffffffffffffffffffffffffffffffffffff1681525060075f8473ffffffffffffffffffffffffffffffffffffffff1673ffffffffffffffffffffffffffffffffffffffff1681526020019081526020015f205f820151815f015f6101000a81548173ffffffffffffffffffffffffffffffffffffffff021916908373ffffffffffffffffffffffffffffffffffffffff1602179055506020820151816001015f6101000a81548173ffffffffffffffffffffffffffffffffffffffff021916908373ffffffffffffffffffffffffffffffffffffffff1602179055506040820151816002015f6101000a81548173ffffffffffffffffffffffffffffffffffffffff021916908373ffffffffffffffffffffffffffffffffffffffff1602179055509050505050565b5f8060075f8773ffffffffffffffffffffffffffffffffffffffff1673ffffffffffffffffffffffffffffffffffffffff1681526020019081526020015f206002015f9054906101000a900473ffffffffffffffffffffffffffffffffffffffff1690505f8690505f8273ffffffffffffffffffffffffffffffffffffffff166316395120336040518263ffffffff1660e01b8152600401610349919061051c565b602060405180830381865afa158015610364573d5f803e3d5ffd5b505050506040513d601f19601f82011682018060405250810190610388919061085d565b9050806103ca576040517f08c379a00000000000000000000000000000000000000000000000000000000081526004016103c1906108e2565b60405180910390fd5b505050949350505050565b5f60019050919050565b5f60045f9054906101000a900473ffffffffffffffffffffffffffffffffffffffff1673ffffffffffffffffffffffffffffffffffffffff166316395120336040518263ffffffff1660e01b815260040161043a919061051c565b602060405180830381865afa158015610455573d5f803e3d5ffd5b505050506040513d601f19601f82011682018060405250810190610479919061085d565b6104b8576040517f08c379a00000000000000000000000000000000000000000000000000000000081526004016104af9061094a565b60405180910390fd5b5f8054906101000a900473ffffffffffffffffffffffffffffffffffffffff16905090565b5f73ffffffffffffffffffffffffffffffffffffffff82169050919050565b5f610506826104dd565b9050919050565b610516816104fc565b82525050565b5f60208201905061052f5f83018461050d565b92915050565b5f604051905090565b5f80fd5b5f80fd5b61054f816104fc565b8114610559575f80fd5b50565b5f8135905061056a81610546565b92915050565b5f80604083850312156105865761058561053e565b5b5f6105938582860161055c565b92505060206105a48582860161055c565b9150509250929050565b5f80fd5b5f80fd5b5f601f19601f8301169050919050565b7f4e487b71000000000000000000000000000000000000000000000000000000005f52604160045260245ffd5b6105fc826105b6565b810181811067ffffffffffffffff8211171561061b5761061a6105c6565b5b80604052505050565b5f61062d610535565b905061063982826105f3565b919050565b5f67ffffffffffffffff821115610658576106576105c6565b5b610661826105b6565b9050602081019050919050565b828183375f83830152505050565b5f61068e6106898461063e565b610624565b9050828152602081018484840111156106aa576106a96105b2565b5b6106b584828561066e565b509392505050565b5f82601f8301126106d1576106d06105ae565b5b81356106e184826020860161067c565b91505092915050565b5f805f80608085870312156107025761070161053e565b5b5f61070f8782880161055c565b945050602085013567ffffffffffffffff8111156107305761072f610542565b5b61073c878288016106bd565b935050604085013567ffffffffffffffff81111561075d5761075c610542565b5b610769878288016106bd565b925050606085013567ffffffffffffffff81111561078a57610789610542565b5b610796878288016106bd565b91505092959194509250565b5f819050919050565b6107b4816107a2565b82525050565b5f6020820190506107cd5f8301846107ab565b92915050565b6107dc816107a2565b81146107e6575f80fd5b50565b5f813590506107f7816107d3565b92915050565b5f602082840312156108125761081161053e565b5b5f61081f848285016107e9565b91505092915050565b5f8115159050919050565b61083c81610828565b8114610846575f80fd5b50565b5f8151905061085781610833565b92915050565b5f602082840312156108725761087161053e565b5b5f61087f84828501610849565b91505092915050565b5f82825260208201905092915050565b7f6d73672e73656e646572206973206e6f7420612068616e647368616b650000005f82015250565b5f6108cc601d83610888565b91506108d782610898565b602082019050919050565b5f6020820190508181035f8301526108f9816108c0565b9050919050565b7f64656665720000000000000000000000000000000000000000000000000000005f82015250565b5f610934600583610888565b915061093f82610900565b602082019050919050565b5f6020820190508181035f83015261096181610928565b905091905056fea2646970667358221220cf347cf36ea49c9ca7a1a40fcdae19a5e6e9181ace4188557edca889090551ec64736f6c63430008140033",
  "immutableReferences": {},
  "source": "// SPDX-License-Identifier: BUSL-1.1\nimport \"./gitorg.sol\";\nimport \"./libraries/gitorg.sol\";\nimport \"./gitarg.sol\";\nimport \"./objects/Proposal.sol\";\nimport \"./objects/Handshakes.sol\";\nimport \"./gitarray.sol\";\n\npragma solidity >= \"0.8.20\";\n\n//spawner\ncontract argctl {\n  address private _gitorg_;\n  _gitorg  private Gitorg;\n  address public _gitarg;\n  address private _handshakes;\n  Handshakes handshakes;\n  gitarray Gitarray;\n  gitarg Gitarg;\n  struct Sign {\n    address repo;\n    address gitarray;\n    address handshakes;\n  }\n  mapping(address => Sign) private repos;\n  // interface\n  /// trope\n  constructor (address handshakes_, address gitorg_, address gitarg_, address _gitarray) {\n    _gitarg = gitarg_;\n    _gitorg_ = gitorg_;\n    Gitorg = _gitorg(gitorg_);\n    _handshakes = handshakes_;\n    handshakes = Handshakes(handshakes_);\n    Gitarray = gitarray(_gitarray);\n    Gitarray.ctl();\n  }\n  \n\n  function proof () public view returns (address) {\n    require(handshakes.isHandshake(msg.sender), \"defer\");\n    return _gitorg_;\n  }\n  function checkin (address repo, address handshakes) public {\n    repos[repo] = Sign(repo, msg.sender, handshakes);\n  }\n  function commit(address _repo, string memory _message, string memory _author, string memory _date) public returns(uint) {\n    Handshakes handshakes = Handshakes(repos[_repo].handshakes);\n    Repo _repo = Repo(_repo);\n    bool shook = handshakes.isHandshake(msg.sender);\n    require(shook, \"msg.sender is not a handshake\");\n    //uint extTimestamp = gitorg.timestamp();\n    //function stamp (string memory _hash, uint timestamp, address _msgSender) public pure returns (bytes32)\n    //bytes32 hash = gitorg.stamp(_message, extTimestamp, msg.sender);\n    //return block.timestamp;\n  }\n  function tar (uint amount) public returns (uint price) {\n    return 1; \n  }\n}\n\n",
  "sourcePath": "/Users/davidkamer/gitarg_eth_ico/contracts/argctl.sol",
  "compiler": {
    "name": "solc",
    "version": "0.8.20+commit.a1b79de6.Emscripten.clang"
  },
  "schemaVersion": "3.4.16",
  "updatedAt": "2023-10-11T03:28:40.519Z",
  "devdoc": {
    "kind": "dev",
    "methods": {},
    "version": 1
  },
  "userdoc": {
    "kind": "user",
    "methods": {
      "constructor": {
        "notice": "trope"
      }
    },
    "version": 1
  }
}