{
  "contractName": "argctl",
  "abi": [
    {
      "inputs": [
        {
          "internalType": "address",
          "name": "handshakes_",
          "type": "address"
        },
        {
          "internalType": "address",
          "name": "gitorg_",
          "type": "address"
        },
        {
          "internalType": "address",
          "name": "gitarg_",
          "type": "address"
        },
        {
          "internalType": "address",
          "name": "_gitarray",
          "type": "address"
        },
        {
          "internalType": "address",
          "name": "_giteta",
          "type": "address"
        }
      ],
      "stateMutability": "nonpayable",
      "type": "constructor"
    },
    {
      "inputs": [],
      "name": "_gitarg",
      "outputs": [
        {
          "internalType": "address",
          "name": "",
          "type": "address"
        }
      ],
      "stateMutability": "view",
      "type": "function",
      "constant": true
    },
    {
      "inputs": [],
      "name": "proof",
      "outputs": [
        {
          "internalType": "address",
          "name": "",
          "type": "address"
        }
      ],
      "stateMutability": "view",
      "type": "function",
      "constant": true
    },
    {
      "inputs": [
        {
          "internalType": "address[]",
          "name": "_handshakes",
          "type": "address[]"
        },
        {
          "internalType": "string",
          "name": "_name",
          "type": "string"
        },
        {
          "internalType": "string",
          "name": "_url",
          "type": "string"
        },
        {
          "internalType": "address",
          "name": "_argctl",
          "type": "address"
        }
      ],
      "name": "repo",
      "outputs": [
        {
          "internalType": "address",
          "name": "",
          "type": "address"
        }
      ],
      "stateMutability": "nonpayable",
      "type": "function"
    },
    {
      "inputs": [
        {
          "internalType": "address",
          "name": "repo",
          "type": "address"
        },
        {
          "internalType": "address",
          "name": "handshakes",
          "type": "address"
        },
        {
          "internalType": "address",
          "name": "handshake",
          "type": "address"
        }
      ],
      "name": "checkin",
      "outputs": [],
      "stateMutability": "nonpayable",
      "type": "function"
    },
    {
      "inputs": [
        {
          "internalType": "address",
          "name": "_repo",
          "type": "address"
        },
        {
          "internalType": "string",
          "name": "_message",
          "type": "string"
        },
        {
          "internalType": "string",
          "name": "_author",
          "type": "string"
        },
        {
          "internalType": "string",
          "name": "_date",
          "type": "string"
        }
      ],
      "name": "commit",
      "outputs": [
        {
          "internalType": "uint256",
          "name": "",
          "type": "uint256"
        }
      ],
      "stateMutability": "nonpayable",
      "type": "function"
    },
    {
      "inputs": [
        {
          "internalType": "uint256",
          "name": "amount",
          "type": "uint256"
        }
      ],
      "name": "tar",
      "outputs": [
        {
          "internalType": "uint256",
          "name": "price",
          "type": "uint256"
        }
      ],
      "stateMutability": "nonpayable",
      "type": "function"
    }
  ],
  "bytecode": "0x608060405234801562000010575f80fd5b50604051620016af380380620016af8339818101604052810190620000369190620002c5565b8260025f6101000a81548173ffffffffffffffffffffffffffffffffffffffff021916908373ffffffffffffffffffffffffffffffffffffffff160217905550835f806101000a81548173ffffffffffffffffffffffffffffffffffffffff021916908373ffffffffffffffffffffffffffffffffffffffff1602179055508360015f6101000a81548173ffffffffffffffffffffffffffffffffffffffff021916908373ffffffffffffffffffffffffffffffffffffffff1602179055508460035f6101000a81548173ffffffffffffffffffffffffffffffffffffffff021916908373ffffffffffffffffffffffffffffffffffffffff1602179055508460045f6101000a81548173ffffffffffffffffffffffffffffffffffffffff021916908373ffffffffffffffffffffffffffffffffffffffff1602179055508160055f6101000a81548173ffffffffffffffffffffffffffffffffffffffff021916908373ffffffffffffffffffffffffffffffffffffffff16021790555060055f9054906101000a900473ffffffffffffffffffffffffffffffffffffffff1673ffffffffffffffffffffffffffffffffffffffff16630b977960336040518263ffffffff1660e01b81526004016200021191906200035a565b6020604051808303815f875af11580156200022e573d5f803e3d5ffd5b505050506040513d601f19601f82011682018060405250810190620002549190620003af565b505050505050620003df565b5f80fd5b5f73ffffffffffffffffffffffffffffffffffffffff82169050919050565b5f6200028f8262000264565b9050919050565b620002a18162000283565b8114620002ac575f80fd5b50565b5f81519050620002bf8162000296565b92915050565b5f805f805f60a08688031215620002e157620002e062000260565b5b5f620002f088828901620002af565b95505060206200030388828901620002af565b94505060406200031688828901620002af565b93505060606200032988828901620002af565b92505060806200033c88828901620002af565b9150509295509295909350565b620003548162000283565b82525050565b5f6020820190506200036f5f83018462000349565b92915050565b5f8115159050919050565b6200038b8162000375565b811462000396575f80fd5b50565b5f81519050620003a98162000380565b92915050565b5f60208284031215620003c757620003c662000260565b5b5f620003d68482850162000399565b91505092915050565b6112c280620003ed5f395ff3fe608060405234801561000f575f80fd5b5060043610610060575f3560e01c806303f2d8fe1461006457806322bb79d0146100825780638ed0f737146100b2578063c494a318146100e2578063d4218963146100fe578063faf924cf1461012e575b5f80fd5b61006c61014c565b60405161007991906108a4565b60405180910390f35b61009c60048036038101906100979190610a34565b610171565b6040516100a99190610b04565b60405180910390f35b6100cc60048036038101906100c79190610b47565b61038a565b6040516100d99190610b04565b60405180910390f35b6100fc60048036038101906100f79190610b72565b610394565b005b61011860048036038101906101139190610c86565b6105a1565b60405161012591906108a4565b60405180910390f35b610136610767565b60405161014391906108a4565b60405180910390f35b60025f9054906101000a900473ffffffffffffffffffffffffffffffffffffffff1681565b5f8060075f8773ffffffffffffffffffffffffffffffffffffffff1673ffffffffffffffffffffffffffffffffffffffff1681526020019081526020015f206002015f9054906101000a900473ffffffffffffffffffffffffffffffffffffffff1690505f8690508173ffffffffffffffffffffffffffffffffffffffff166316395120336040518263ffffffff1660e01b815260040161021291906108a4565b602060405180830381865afa15801561022d573d5f803e3d5ffd5b505050506040513d601f19601f820116820180604052508101906102519190610d73565b610290576040517f08c379a000000000000000000000000000000000000000000000000000000000815260040161028790610df8565b60405180910390fd5b5f73__gitorg________________________________63b80777ea6040518163ffffffff1660e01b8152600401602060405180830381865af41580156102d8573d5f803e3d5ffd5b505050506040513d601f19601f820116820180604052508101906102fc9190610e2a565b90505f73__gitorg________________________________638ee0cd2e8984336040518463ffffffff1660e01b815260040161033a93929190610eed565b602060405180830381865af4158015610355573d5f803e3d5ffd5b505050506040513d601f19601f820116820180604052508101906103799190610f5c565b905042945050505050949350505050565b5f60019050919050565b60405180606001604052808473ffffffffffffffffffffffffffffffffffffffff1681526020013373ffffffffffffffffffffffffffffffffffffffff1681526020018373ffffffffffffffffffffffffffffffffffffffff1681525060075f8573ffffffffffffffffffffffffffffffffffffffff1673ffffffffffffffffffffffffffffffffffffffff1681526020019081526020015f205f820151815f015f6101000a81548173ffffffffffffffffffffffffffffffffffffffff021916908373ffffffffffffffffffffffffffffffffffffffff1602179055506020820151816001015f6101000a81548173ffffffffffffffffffffffffffffffffffffffff021916908373ffffffffffffffffffffffffffffffffffffffff1602179055506040820151816002015f6101000a81548173ffffffffffffffffffffffffffffffffffffffff021916908373ffffffffffffffffffffffffffffffffffffffff16021790555090505060055f9054906101000a900473ffffffffffffffffffffffffffffffffffffffff1673ffffffffffffffffffffffffffffffffffffffff16630b977960826040518263ffffffff1660e01b815260040161055b91906108a4565b6020604051808303815f875af1158015610577573d5f803e3d5ffd5b505050506040513d601f19601f8201168201806040525081019061059b9190610d73565b50505050565b5f805f90505b85518110156106b55760045f9054906101000a900473ffffffffffffffffffffffffffffffffffffffff1673ffffffffffffffffffffffffffffffffffffffff166316395120878381518110610600576105ff610f87565b5b60200260200101516040518263ffffffff1660e01b815260040161062491906108a4565b602060405180830381865afa15801561063f573d5f803e3d5ffd5b505050506040513d601f19601f820116820180604052508101906106639190610d73565b6106a2576040517f08c379a000000000000000000000000000000000000000000000000000000000815260040161069990610ffe565b60405180910390fd5b80806106ad90611049565b9150506105a7565b505f60055f9054906101000a900473ffffffffffffffffffffffffffffffffffffffff1673ffffffffffffffffffffffffffffffffffffffff1663e770fdef87878733886040518663ffffffff1660e01b815260040161071995949392919061117f565b6020604051808303815f875af1158015610735573d5f803e3d5ffd5b505050506040513d601f19601f8201168201806040525081019061075991906111f9565b905080915050949350505050565b5f60045f9054906101000a900473ffffffffffffffffffffffffffffffffffffffff1673ffffffffffffffffffffffffffffffffffffffff166316395120336040518263ffffffff1660e01b81526004016107c291906108a4565b602060405180830381865afa1580156107dd573d5f803e3d5ffd5b505050506040513d601f19601f820116820180604052508101906108019190610d73565b610840576040517f08c379a00000000000000000000000000000000000000000000000000000000081526004016108379061126e565b60405180910390fd5b5f8054906101000a900473ffffffffffffffffffffffffffffffffffffffff16905090565b5f73ffffffffffffffffffffffffffffffffffffffff82169050919050565b5f61088e82610865565b9050919050565b61089e81610884565b82525050565b5f6020820190506108b75f830184610895565b92915050565b5f604051905090565b5f80fd5b5f80fd5b6108d781610884565b81146108e1575f80fd5b50565b5f813590506108f2816108ce565b92915050565b5f80fd5b5f80fd5b5f601f19601f8301169050919050565b7f4e487b71000000000000000000000000000000000000000000000000000000005f52604160045260245ffd5b61094682610900565b810181811067ffffffffffffffff8211171561096557610964610910565b5b80604052505050565b5f6109776108bd565b9050610983828261093d565b919050565b5f67ffffffffffffffff8211156109a2576109a1610910565b5b6109ab82610900565b9050602081019050919050565b828183375f83830152505050565b5f6109d86109d384610988565b61096e565b9050828152602081018484840111156109f4576109f36108fc565b5b6109ff8482856109b8565b509392505050565b5f82601f830112610a1b57610a1a6108f8565b5b8135610a2b8482602086016109c6565b91505092915050565b5f805f8060808587031215610a4c57610a4b6108c6565b5b5f610a59878288016108e4565b945050602085013567ffffffffffffffff811115610a7a57610a796108ca565b5b610a8687828801610a07565b935050604085013567ffffffffffffffff811115610aa757610aa66108ca565b5b610ab387828801610a07565b925050606085013567ffffffffffffffff811115610ad457610ad36108ca565b5b610ae087828801610a07565b91505092959194509250565b5f819050919050565b610afe81610aec565b82525050565b5f602082019050610b175f830184610af5565b92915050565b610b2681610aec565b8114610b30575f80fd5b50565b5f81359050610b4181610b1d565b92915050565b5f60208284031215610b5c57610b5b6108c6565b5b5f610b6984828501610b33565b91505092915050565b5f805f60608486031215610b8957610b886108c6565b5b5f610b96868287016108e4565b9350506020610ba7868287016108e4565b9250506040610bb8868287016108e4565b9150509250925092565b5f67ffffffffffffffff821115610bdc57610bdb610910565b5b602082029050602081019050919050565b5f80fd5b5f610c03610bfe84610bc2565b61096e565b90508083825260208201905060208402830185811115610c2657610c25610bed565b5b835b81811015610c4f5780610c3b88826108e4565b845260208401935050602081019050610c28565b5050509392505050565b5f82601f830112610c6d57610c6c6108f8565b5b8135610c7d848260208601610bf1565b91505092915050565b5f805f8060808587031215610c9e57610c9d6108c6565b5b5f85013567ffffffffffffffff811115610cbb57610cba6108ca565b5b610cc787828801610c59565b945050602085013567ffffffffffffffff811115610ce857610ce76108ca565b5b610cf487828801610a07565b935050604085013567ffffffffffffffff811115610d1557610d146108ca565b5b610d2187828801610a07565b9250506060610d32878288016108e4565b91505092959194509250565b5f8115159050919050565b610d5281610d3e565b8114610d5c575f80fd5b50565b5f81519050610d6d81610d49565b92915050565b5f60208284031215610d8857610d876108c6565b5b5f610d9584828501610d5f565b91505092915050565b5f82825260208201905092915050565b7f7265706f7369746f7279000000000000000000000000000000000000000000005f82015250565b5f610de2600a83610d9e565b9150610ded82610dae565b602082019050919050565b5f6020820190508181035f830152610e0f81610dd6565b9050919050565b5f81519050610e2481610b1d565b92915050565b5f60208284031215610e3f57610e3e6108c6565b5b5f610e4c84828501610e16565b91505092915050565b5f81519050919050565b5f82825260208201905092915050565b5f5b83811015610e8c578082015181840152602081019050610e71565b5f8484015250505050565b5f610ea182610e55565b610eab8185610e5f565b9350610ebb818560208601610e6f565b610ec481610900565b840191505092915050565b610ed881610aec565b82525050565b610ee781610884565b82525050565b5f6060820190508181035f830152610f058186610e97565b9050610f146020830185610ecf565b610f216040830184610ede565b949350505050565b5f819050919050565b610f3b81610f29565b8114610f45575f80fd5b50565b5f81519050610f5681610f32565b92915050565b5f60208284031215610f7157610f706108c6565b5b5f610f7e84828501610f48565b91505092915050565b7f4e487b71000000000000000000000000000000000000000000000000000000005f52603260045260245ffd5b7f6261636b68616e646564000000000000000000000000000000000000000000005f82015250565b5f610fe8600a83610d9e565b9150610ff382610fb4565b602082019050919050565b5f6020820190508181035f83015261101581610fdc565b9050919050565b7f4e487b71000000000000000000000000000000000000000000000000000000005f52601160045260245ffd5b5f61105382610aec565b91507fffffffffffffffffffffffffffffffffffffffffffffffffffffffffffffffff82036110855761108461101c565b5b600182019050919050565b5f81519050919050565b5f82825260208201905092915050565b5f819050602082019050919050565b6110c281610884565b82525050565b5f6110d383836110b9565b60208301905092915050565b5f602082019050919050565b5f6110f582611090565b6110ff818561109a565b935061110a836110aa565b805f5b8381101561113a57815161112188826110c8565b975061112c836110df565b92505060018101905061110d565b5085935050505092915050565b5f61115182610e55565b61115b8185610d9e565b935061116b818560208601610e6f565b61117481610900565b840191505092915050565b5f60a0820190508181035f83015261119781886110eb565b905081810360208301526111ab8187611147565b905081810360408301526111bf8186611147565b90506111ce6060830185610895565b6111db6080830184610895565b9695505050505050565b5f815190506111f3816108ce565b92915050565b5f6020828403121561120e5761120d6108c6565b5b5f61121b848285016111e5565b91505092915050565b7f64656665720000000000000000000000000000000000000000000000000000005f82015250565b5f611258600583610d9e565b915061126382611224565b602082019050919050565b5f6020820190508181035f8301526112858161124c565b905091905056fea26469706673582212208dc90a21c8558cb68dac583739de5d2ba5069700eb1358ccffa396370c5d897c64736f6c63430008140033",
  "immutableReferences": {},
  "source": "// SPDX-License-Identifier: BUSL-1.1\npragma solidity >= \"0.8.20\";\nimport \"./gitorg.sol\";\nimport \"./libraries/gitorg.sol\";\nimport \"./gitarg.sol\";\n//import \"./giteta.sol\";\nimport \"./objects/Proposal.sol\";\nimport \"./objects/Handshakes.sol\";\nimport \"./gitarray.sol\";\nimport \"./ltcgra.sol\";\nimport \"./objects/Repo.sol\";\n\n\n//spawner\ncontract argctl {\n  address private _gitorg_;\n  _gitorg  private Gitorg;\n  address public _gitarg;\n  address private _handshakes;\n  Handshakes handshakes;\n  gitarray Gitarray;\n  gitarg Gitarg;\n  struct Sign {\n    address repo;\n    address gitarray;\n    address handshakes;\n  }\n  mapping(address => Sign) private repos;\n\n  // TODO - handshake checkmarks for preverification or creation from gitarray?\n  // interface\n  /// trope\n  constructor (address handshakes_, address gitorg_, address gitarg_, address _gitarray, address _giteta) {\n  //constructor (address handshakes_, address gitorg_, address gitarg_, address _gitarray) {\n    _gitarg = gitarg_;\n    _gitorg_ = gitorg_;\n    Gitorg = _gitorg(gitorg_);\n    _handshakes = handshakes_;\n    handshakes = Handshakes(handshakes_);\n    Gitarray = gitarray(_gitarray);\n    Gitarray.ctl(msg.sender);\n  }\n\n  function proof () public view returns (address) {\n    require(handshakes.isHandshake(msg.sender), \"defer\");\n    return _gitorg_;\n  }\n  \n  function repo(address[] memory _handshakes, string memory _name, string memory _url, address _argctl) public returns(address) {\n    for (uint i = 0; i < _handshakes.length; i++) {\n      require(handshakes.isHandshake(_handshakes[i]), \"backhanded\");\n    }\n    address repo_ = Gitarray.repo(_handshakes, _name, _url, msg.sender, _argctl);\n    return repo_;\n  }\n  /*\n  function repo(address repo) public returns(Repo) {\n    Sign memory sign = repos[repo];\n    Handshakes signers = Handshakes(sign.handshakes);\n    require(signers.isHandshake(msg.sender), \"signer\");\n    Repo _repo = Repo(sign.repo);\n    return _repo;\n  }\n  */\n  // NOT A SHORT SELL INTERFACE\n  function checkin (address repo, address handshakes, address handshake) public {\n    repos[repo] = Sign(repo, msg.sender, handshakes);\n    Gitarray.ctl(handshake);\n  }\n  /*\n  function check () public returns ( {\n    //by msg.sender or handshake? starting with msg.sender for review\n    // TODO - repos from msg.sender handshake?\n    Sign repo_ = repos[_repo];\n    Handshakes handshakes_ = Handshakes(repo_.handshakes);\n    require(msg.sender == handshakes_.isHandshake(msg.sender), \"checker\");\n    return\n  }\n  */\n  function commit(address _repo, string memory _message, string memory _author, string memory _date) public returns(uint) {\n    Handshakes _handshakes = Handshakes(repos[_repo].handshakes);\n    Repo _repo = Repo(_repo);\n    //bool shook = handshakes.isHandshake(msg.sender);\n\n    require(_handshakes.isHandshake(msg.sender), \"repository\");\n    uint extTimestamp = gitorg.timestamp();\n    //function stamp (string memory _hash, uint timestamp, address _msgSender) public pure returns (bytes32)\n    bytes32 hash = gitorg.stamp(_message, extTimestamp, msg.sender);\n    return block.timestamp;\n  }\n  function tar (uint amount) public returns (uint price) {\n    return 1; \n  }\n}\n\n",
  "sourcePath": "/Users/davidkamer/gitarg_eth_ico/contracts/argctl.sol",
  "compiler": {
    "name": "solc",
    "version": "0.8.20+commit.a1b79de6.Emscripten.clang"
  },
  "schemaVersion": "3.4.16",
  "updatedAt": "2023-11-15T22:23:30.921Z",
  "networkType": "ethereum",
  "devdoc": {
    "kind": "dev",
    "methods": {},
    "version": 1
  },
  "userdoc": {
    "kind": "user",
    "methods": {
      "constructor": {
        "notice": "trope"
      }
    },
    "version": 1
  }
}