{
  "contractName": "argctl",
  "abi": [
    {
      "inputs": [
        {
          "internalType": "address",
          "name": "handshakes_",
          "type": "address"
        },
        {
          "internalType": "address",
          "name": "gitorg_",
          "type": "address"
        },
        {
          "internalType": "address",
          "name": "gitarg_",
          "type": "address"
        },
        {
          "internalType": "address",
          "name": "_gitarray",
          "type": "address"
        },
        {
          "internalType": "address",
          "name": "_giteta",
          "type": "address"
        }
      ],
      "stateMutability": "nonpayable",
      "type": "constructor"
    },
    {
      "inputs": [],
      "name": "_gitarg",
      "outputs": [
        {
          "internalType": "address",
          "name": "",
          "type": "address"
        }
      ],
      "stateMutability": "view",
      "type": "function",
      "constant": true
    },
    {
      "inputs": [],
      "name": "proof",
      "outputs": [
        {
          "internalType": "address",
          "name": "",
          "type": "address"
        }
      ],
      "stateMutability": "view",
      "type": "function",
      "constant": true
    },
    {
      "inputs": [
        {
          "internalType": "address[]",
          "name": "_handshakes",
          "type": "address[]"
        },
        {
          "internalType": "string",
          "name": "_name",
          "type": "string"
        },
        {
          "internalType": "string",
          "name": "_url",
          "type": "string"
        },
        {
          "internalType": "address",
          "name": "_argctl",
          "type": "address"
        }
      ],
      "name": "repo",
      "outputs": [
        {
          "internalType": "address",
          "name": "",
          "type": "address"
        }
      ],
      "stateMutability": "nonpayable",
      "type": "function"
    },
    {
      "inputs": [
        {
          "internalType": "address",
          "name": "repo",
          "type": "address"
        },
        {
          "internalType": "address",
          "name": "handshakes",
          "type": "address"
        },
        {
          "internalType": "address",
          "name": "handshake",
          "type": "address"
        }
      ],
      "name": "checkin",
      "outputs": [],
      "stateMutability": "nonpayable",
      "type": "function"
    },
    {
      "inputs": [
        {
          "internalType": "address",
          "name": "_repo",
          "type": "address"
        },
        {
          "internalType": "string",
          "name": "_message",
          "type": "string"
        },
        {
          "internalType": "string",
          "name": "_author",
          "type": "string"
        },
        {
          "internalType": "string",
          "name": "_date",
          "type": "string"
        }
      ],
      "name": "commit",
      "outputs": [
        {
          "internalType": "uint256",
          "name": "",
          "type": "uint256"
        }
      ],
      "stateMutability": "nonpayable",
      "type": "function"
    },
    {
      "inputs": [
        {
          "internalType": "uint256",
          "name": "amount",
          "type": "uint256"
        }
      ],
      "name": "tar",
      "outputs": [
        {
          "internalType": "uint256",
          "name": "price",
          "type": "uint256"
        }
      ],
      "stateMutability": "nonpayable",
      "type": "function"
    }
  ],
  "bytecode": "0x608060405234801562000010575f80fd5b50604051620016b4380380620016b48339818101604052810190620000369190620002c5565b8260025f6101000a81548173ffffffffffffffffffffffffffffffffffffffff021916908373ffffffffffffffffffffffffffffffffffffffff160217905550835f806101000a81548173ffffffffffffffffffffffffffffffffffffffff021916908373ffffffffffffffffffffffffffffffffffffffff1602179055508360015f6101000a81548173ffffffffffffffffffffffffffffffffffffffff021916908373ffffffffffffffffffffffffffffffffffffffff1602179055508460035f6101000a81548173ffffffffffffffffffffffffffffffffffffffff021916908373ffffffffffffffffffffffffffffffffffffffff1602179055508460045f6101000a81548173ffffffffffffffffffffffffffffffffffffffff021916908373ffffffffffffffffffffffffffffffffffffffff1602179055508160055f6101000a81548173ffffffffffffffffffffffffffffffffffffffff021916908373ffffffffffffffffffffffffffffffffffffffff16021790555060055f9054906101000a900473ffffffffffffffffffffffffffffffffffffffff1673ffffffffffffffffffffffffffffffffffffffff16630b977960336040518263ffffffff1660e01b81526004016200021191906200035a565b6020604051808303815f875af11580156200022e573d5f803e3d5ffd5b505050506040513d601f19601f82011682018060405250810190620002549190620003af565b505050505050620003df565b5f80fd5b5f73ffffffffffffffffffffffffffffffffffffffff82169050919050565b5f6200028f8262000264565b9050919050565b620002a18162000283565b8114620002ac575f80fd5b50565b5f81519050620002bf8162000296565b92915050565b5f805f805f60a08688031215620002e157620002e062000260565b5b5f620002f088828901620002af565b95505060206200030388828901620002af565b94505060406200031688828901620002af565b93505060606200032988828901620002af565b92505060806200033c88828901620002af565b9150509295509295909350565b620003548162000283565b82525050565b5f6020820190506200036f5f83018462000349565b92915050565b5f8115159050919050565b6200038b8162000375565b811462000396575f80fd5b50565b5f81519050620003a98162000380565b92915050565b5f60208284031215620003c757620003c662000260565b5b5f620003d68482850162000399565b91505092915050565b6112c780620003ed5f395ff3fe608060405234801561000f575f80fd5b5060043610610060575f3560e01c806303f2d8fe1461006457806322bb79d0146100825780638ed0f737146100b2578063c494a318146100e2578063d4218963146100fe578063faf924cf1461012e575b5f80fd5b61006c61014c565b60405161007991906108a9565b60405180910390f35b61009c60048036038101906100979190610a39565b610171565b6040516100a99190610b09565b60405180910390f35b6100cc60048036038101906100c79190610b4c565b61038f565b6040516100d99190610b09565b60405180910390f35b6100fc60048036038101906100f79190610b77565b610399565b005b61011860048036038101906101139190610c8b565b6105a6565b60405161012591906108a9565b60405180910390f35b61013661076c565b60405161014391906108a9565b60405180910390f35b60025f9054906101000a900473ffffffffffffffffffffffffffffffffffffffff1681565b5f8060075f8773ffffffffffffffffffffffffffffffffffffffff1673ffffffffffffffffffffffffffffffffffffffff1681526020019081526020015f206002015f9054906101000a900473ffffffffffffffffffffffffffffffffffffffff1690505f8690505f8273ffffffffffffffffffffffffffffffffffffffff166316395120336040518263ffffffff1660e01b815260040161021391906108a9565b602060405180830381865afa15801561022e573d5f803e3d5ffd5b505050506040513d601f19601f820116820180604052508101906102529190610d78565b905080610294576040517f08c379a000000000000000000000000000000000000000000000000000000000815260040161028b90610dfd565b60405180910390fd5b5f73__gitorg________________________________63b80777ea6040518163ffffffff1660e01b8152600401602060405180830381865af41580156102dc573d5f803e3d5ffd5b505050506040513d601f19601f820116820180604052508101906103009190610e2f565b90505f73__gitorg________________________________638ee0cd2e8a84336040518463ffffffff1660e01b815260040161033e93929190610ef2565b602060405180830381865af4158015610359573d5f803e3d5ffd5b505050506040513d601f19601f8201168201806040525081019061037d9190610f61565b90504295505050505050949350505050565b5f60019050919050565b60405180606001604052808473ffffffffffffffffffffffffffffffffffffffff1681526020013373ffffffffffffffffffffffffffffffffffffffff1681526020018373ffffffffffffffffffffffffffffffffffffffff1681525060075f8573ffffffffffffffffffffffffffffffffffffffff1673ffffffffffffffffffffffffffffffffffffffff1681526020019081526020015f205f820151815f015f6101000a81548173ffffffffffffffffffffffffffffffffffffffff021916908373ffffffffffffffffffffffffffffffffffffffff1602179055506020820151816001015f6101000a81548173ffffffffffffffffffffffffffffffffffffffff021916908373ffffffffffffffffffffffffffffffffffffffff1602179055506040820151816002015f6101000a81548173ffffffffffffffffffffffffffffffffffffffff021916908373ffffffffffffffffffffffffffffffffffffffff16021790555090505060055f9054906101000a900473ffffffffffffffffffffffffffffffffffffffff1673ffffffffffffffffffffffffffffffffffffffff16630b977960826040518263ffffffff1660e01b815260040161056091906108a9565b6020604051808303815f875af115801561057c573d5f803e3d5ffd5b505050506040513d601f19601f820116820180604052508101906105a09190610d78565b50505050565b5f805f90505b85518110156106ba5760045f9054906101000a900473ffffffffffffffffffffffffffffffffffffffff1673ffffffffffffffffffffffffffffffffffffffff16631639512087838151811061060557610604610f8c565b5b60200260200101516040518263ffffffff1660e01b815260040161062991906108a9565b602060405180830381865afa158015610644573d5f803e3d5ffd5b505050506040513d601f19601f820116820180604052508101906106689190610d78565b6106a7576040517f08c379a000000000000000000000000000000000000000000000000000000000815260040161069e90611003565b60405180910390fd5b80806106b29061104e565b9150506105ac565b505f60055f9054906101000a900473ffffffffffffffffffffffffffffffffffffffff1673ffffffffffffffffffffffffffffffffffffffff1663e770fdef87878733886040518663ffffffff1660e01b815260040161071e959493929190611184565b6020604051808303815f875af115801561073a573d5f803e3d5ffd5b505050506040513d601f19601f8201168201806040525081019061075e91906111fe565b905080915050949350505050565b5f60045f9054906101000a900473ffffffffffffffffffffffffffffffffffffffff1673ffffffffffffffffffffffffffffffffffffffff166316395120336040518263ffffffff1660e01b81526004016107c791906108a9565b602060405180830381865afa1580156107e2573d5f803e3d5ffd5b505050506040513d601f19601f820116820180604052508101906108069190610d78565b610845576040517f08c379a000000000000000000000000000000000000000000000000000000000815260040161083c90611273565b60405180910390fd5b5f8054906101000a900473ffffffffffffffffffffffffffffffffffffffff16905090565b5f73ffffffffffffffffffffffffffffffffffffffff82169050919050565b5f6108938261086a565b9050919050565b6108a381610889565b82525050565b5f6020820190506108bc5f83018461089a565b92915050565b5f604051905090565b5f80fd5b5f80fd5b6108dc81610889565b81146108e6575f80fd5b50565b5f813590506108f7816108d3565b92915050565b5f80fd5b5f80fd5b5f601f19601f8301169050919050565b7f4e487b71000000000000000000000000000000000000000000000000000000005f52604160045260245ffd5b61094b82610905565b810181811067ffffffffffffffff8211171561096a57610969610915565b5b80604052505050565b5f61097c6108c2565b90506109888282610942565b919050565b5f67ffffffffffffffff8211156109a7576109a6610915565b5b6109b082610905565b9050602081019050919050565b828183375f83830152505050565b5f6109dd6109d88461098d565b610973565b9050828152602081018484840111156109f9576109f8610901565b5b610a048482856109bd565b509392505050565b5f82601f830112610a2057610a1f6108fd565b5b8135610a308482602086016109cb565b91505092915050565b5f805f8060808587031215610a5157610a506108cb565b5b5f610a5e878288016108e9565b945050602085013567ffffffffffffffff811115610a7f57610a7e6108cf565b5b610a8b87828801610a0c565b935050604085013567ffffffffffffffff811115610aac57610aab6108cf565b5b610ab887828801610a0c565b925050606085013567ffffffffffffffff811115610ad957610ad86108cf565b5b610ae587828801610a0c565b91505092959194509250565b5f819050919050565b610b0381610af1565b82525050565b5f602082019050610b1c5f830184610afa565b92915050565b610b2b81610af1565b8114610b35575f80fd5b50565b5f81359050610b4681610b22565b92915050565b5f60208284031215610b6157610b606108cb565b5b5f610b6e84828501610b38565b91505092915050565b5f805f60608486031215610b8e57610b8d6108cb565b5b5f610b9b868287016108e9565b9350506020610bac868287016108e9565b9250506040610bbd868287016108e9565b9150509250925092565b5f67ffffffffffffffff821115610be157610be0610915565b5b602082029050602081019050919050565b5f80fd5b5f610c08610c0384610bc7565b610973565b90508083825260208201905060208402830185811115610c2b57610c2a610bf2565b5b835b81811015610c545780610c4088826108e9565b845260208401935050602081019050610c2d565b5050509392505050565b5f82601f830112610c7257610c716108fd565b5b8135610c82848260208601610bf6565b91505092915050565b5f805f8060808587031215610ca357610ca26108cb565b5b5f85013567ffffffffffffffff811115610cc057610cbf6108cf565b5b610ccc87828801610c5e565b945050602085013567ffffffffffffffff811115610ced57610cec6108cf565b5b610cf987828801610a0c565b935050604085013567ffffffffffffffff811115610d1a57610d196108cf565b5b610d2687828801610a0c565b9250506060610d37878288016108e9565b91505092959194509250565b5f8115159050919050565b610d5781610d43565b8114610d61575f80fd5b50565b5f81519050610d7281610d4e565b92915050565b5f60208284031215610d8d57610d8c6108cb565b5b5f610d9a84828501610d64565b91505092915050565b5f82825260208201905092915050565b7f6d73672e73656e646572206973206e6f7420612068616e647368616b650000005f82015250565b5f610de7601d83610da3565b9150610df282610db3565b602082019050919050565b5f6020820190508181035f830152610e1481610ddb565b9050919050565b5f81519050610e2981610b22565b92915050565b5f60208284031215610e4457610e436108cb565b5b5f610e5184828501610e1b565b91505092915050565b5f81519050919050565b5f82825260208201905092915050565b5f5b83811015610e91578082015181840152602081019050610e76565b5f8484015250505050565b5f610ea682610e5a565b610eb08185610e64565b9350610ec0818560208601610e74565b610ec981610905565b840191505092915050565b610edd81610af1565b82525050565b610eec81610889565b82525050565b5f6060820190508181035f830152610f0a8186610e9c565b9050610f196020830185610ed4565b610f266040830184610ee3565b949350505050565b5f819050919050565b610f4081610f2e565b8114610f4a575f80fd5b50565b5f81519050610f5b81610f37565b92915050565b5f60208284031215610f7657610f756108cb565b5b5f610f8384828501610f4d565b91505092915050565b7f4e487b71000000000000000000000000000000000000000000000000000000005f52603260045260245ffd5b7f6261636b68616e646564000000000000000000000000000000000000000000005f82015250565b5f610fed600a83610da3565b9150610ff882610fb9565b602082019050919050565b5f6020820190508181035f83015261101a81610fe1565b9050919050565b7f4e487b71000000000000000000000000000000000000000000000000000000005f52601160045260245ffd5b5f61105882610af1565b91507fffffffffffffffffffffffffffffffffffffffffffffffffffffffffffffffff820361108a57611089611021565b5b600182019050919050565b5f81519050919050565b5f82825260208201905092915050565b5f819050602082019050919050565b6110c781610889565b82525050565b5f6110d883836110be565b60208301905092915050565b5f602082019050919050565b5f6110fa82611095565b611104818561109f565b935061110f836110af565b805f5b8381101561113f57815161112688826110cd565b9750611131836110e4565b925050600181019050611112565b5085935050505092915050565b5f61115682610e5a565b6111608185610da3565b9350611170818560208601610e74565b61117981610905565b840191505092915050565b5f60a0820190508181035f83015261119c81886110f0565b905081810360208301526111b0818761114c565b905081810360408301526111c4818661114c565b90506111d3606083018561089a565b6111e0608083018461089a565b9695505050505050565b5f815190506111f8816108d3565b92915050565b5f60208284031215611213576112126108cb565b5b5f611220848285016111ea565b91505092915050565b7f64656665720000000000000000000000000000000000000000000000000000005f82015250565b5f61125d600583610da3565b915061126882611229565b602082019050919050565b5f6020820190508181035f83015261128a81611251565b905091905056fea264697066735822122093e07e94edc73d6bc7288ca6064125617178e21c14cbc02bd3d064ceabc226c564736f6c63430008140033",
  "immutableReferences": {},
  "source": "// SPDX-License-Identifier: BUSL-1.1\npragma solidity >= \"0.8.20\";\nimport \"./gitorg.sol\";\nimport \"./libraries/gitorg.sol\";\nimport \"./gitarg.sol\";\n//import \"./giteta.sol\";\nimport \"./objects/Proposal.sol\";\nimport \"./objects/Handshakes.sol\";\nimport \"./gitarray.sol\";\nimport \"./ltcgra.sol\";\nimport \"./objects/Repo.sol\";\n\n\n//spawner\ncontract argctl {\n  address private _gitorg_;\n  _gitorg  private Gitorg;\n  address public _gitarg;\n  address private _handshakes;\n  Handshakes handshakes;\n  gitarray Gitarray;\n  gitarg Gitarg;\n  struct Sign {\n    address repo;\n    address gitarray;\n    address handshakes;\n  }\n  mapping(address => Sign) private repos;\n\n  // TODO - handshake checkmarks for preverification or creation from gitarray?\n  // interface\n  /// trope\n  constructor (address handshakes_, address gitorg_, address gitarg_, address _gitarray, address _giteta) {\n  //constructor (address handshakes_, address gitorg_, address gitarg_, address _gitarray) {\n    _gitarg = gitarg_;\n    _gitorg_ = gitorg_;\n    Gitorg = _gitorg(gitorg_);\n    _handshakes = handshakes_;\n    handshakes = Handshakes(handshakes_);\n    Gitarray = gitarray(_gitarray);\n    Gitarray.ctl(msg.sender);\n  }\n\n  function proof () public view returns (address) {\n    require(handshakes.isHandshake(msg.sender), \"defer\");\n    return _gitorg_;\n  }\n  \n  function repo(address[] memory _handshakes, string memory _name, string memory _url, address _argctl) public returns(address) {\n    for (uint i = 0; i < _handshakes.length; i++) {\n      require(handshakes.isHandshake(_handshakes[i]), \"backhanded\");\n    }\n    address repo_ = Gitarray.repo(_handshakes, _name, _url, msg.sender, _argctl);\n    return repo_;\n  }\n  /*\n  function repo(address repo) public returns(Repo) {\n    Sign memory sign = repos[repo];\n    Handshakes signers = Handshakes(sign.handshakes);\n    require(signers.isHandshake(msg.sender), \"signer\");\n    Repo _repo = Repo(sign.repo);\n    return _repo;\n  }\n  */\n  // NOT A SHORT SELL INTERFACE\n  function checkin (address repo, address handshakes, address handshake) public {\n    repos[repo] = Sign(repo, msg.sender, handshakes);\n    Gitarray.ctl(handshake);\n  }\n  /*\n  function check () public returns ( {\n    //by msg.sender or handshake? starting with msg.sender for review\n    // TODO - repos from msg.sender handshake?\n    Sign repo_ = repos[_repo];\n    Handshakes handshakes_ = Handshakes(repo_.handshakes);\n    require(msg.sender == handshakes_.isHandshake(msg.sender), \"checker\");\n    return\n  }\n  */\n  function commit(address _repo, string memory _message, string memory _author, string memory _date) public returns(uint) {\n    Handshakes handshakes = Handshakes(repos[_repo].handshakes);\n    Repo _repo = Repo(_repo);\n    bool shook = handshakes.isHandshake(msg.sender);\n    require(shook, \"msg.sender is not a handshake\");\n    uint extTimestamp = gitorg.timestamp();\n    //function stamp (string memory _hash, uint timestamp, address _msgSender) public pure returns (bytes32)\n    bytes32 hash = gitorg.stamp(_message, extTimestamp, msg.sender);\n    return block.timestamp;\n  }\n  function tar (uint amount) public returns (uint price) {\n    return 1; \n  }\n}\n\n",
  "sourcePath": "/Users/davidkamer/gitarg_eth_ico/contracts/argctl.sol",
  "compiler": {
    "name": "solc",
    "version": "0.8.20+commit.a1b79de6.Emscripten.clang"
  },
  "schemaVersion": "3.4.16",
  "updatedAt": "2023-11-10T08:07:08.555Z",
  "networkType": "ethereum",
  "devdoc": {
    "kind": "dev",
    "methods": {},
    "version": 1
  },
  "userdoc": {
    "kind": "user",
    "methods": {
      "constructor": {
        "notice": "trope"
      }
    },
    "version": 1
  }
}