{
  "contractName": "argctl",
  "abi": [
    {
      "inputs": [
        {
          "internalType": "address",
          "name": "handshakes_",
          "type": "address"
        },
        {
          "internalType": "address",
          "name": "gitorg_",
          "type": "address"
        },
        {
          "internalType": "address",
          "name": "gitarg_",
          "type": "address"
        },
        {
          "internalType": "address",
          "name": "_gitarray",
          "type": "address"
        },
        {
          "internalType": "address",
          "name": "_giteta",
          "type": "address"
        }
      ],
      "stateMutability": "nonpayable",
      "type": "constructor"
    },
    {
      "inputs": [],
      "name": "_gitarg",
      "outputs": [
        {
          "internalType": "address",
          "name": "",
          "type": "address"
        }
      ],
      "stateMutability": "view",
      "type": "function",
      "constant": true
    },
    {
      "inputs": [],
      "name": "proof",
      "outputs": [
        {
          "internalType": "address",
          "name": "",
          "type": "address"
        }
      ],
      "stateMutability": "view",
      "type": "function",
      "constant": true
    },
    {
      "inputs": [
        {
          "internalType": "address[]",
          "name": "_handshakes",
          "type": "address[]"
        },
        {
          "internalType": "string",
          "name": "_name",
          "type": "string"
        },
        {
          "internalType": "string",
          "name": "_url",
          "type": "string"
        },
        {
          "internalType": "address",
          "name": "_argctl",
          "type": "address"
        }
      ],
      "name": "repo",
      "outputs": [
        {
          "internalType": "address",
          "name": "",
          "type": "address"
        }
      ],
      "stateMutability": "nonpayable",
      "type": "function"
    },
    {
      "inputs": [
        {
          "internalType": "address",
          "name": "repo",
          "type": "address"
        },
        {
          "internalType": "address",
          "name": "handshakes",
          "type": "address"
        },
        {
          "internalType": "address",
          "name": "handshake",
          "type": "address"
        }
      ],
      "name": "checkin",
      "outputs": [],
      "stateMutability": "nonpayable",
      "type": "function"
    },
    {
      "inputs": [
        {
          "internalType": "address",
          "name": "_giteta",
          "type": "address"
        },
        {
          "internalType": "address",
          "name": "_repo",
          "type": "address"
        },
        {
          "internalType": "string",
          "name": "_message",
          "type": "string"
        },
        {
          "internalType": "string",
          "name": "_author",
          "type": "string"
        },
        {
          "internalType": "string",
          "name": "_date",
          "type": "string"
        }
      ],
      "name": "commit",
      "outputs": [
        {
          "internalType": "uint256",
          "name": "",
          "type": "uint256"
        }
      ],
      "stateMutability": "payable",
      "type": "function",
      "payable": true
    },
    {
      "inputs": [
        {
          "internalType": "uint256",
          "name": "amount",
          "type": "uint256"
        }
      ],
      "name": "tar",
      "outputs": [
        {
          "internalType": "uint256",
          "name": "price",
          "type": "uint256"
        }
      ],
      "stateMutability": "nonpayable",
      "type": "function"
    }
  ],
  "bytecode": "0x608060405234801562000010575f80fd5b506040516200192a3803806200192a833981810160405281019062000036919062000345565b8260035f6101000a81548173ffffffffffffffffffffffffffffffffffffffff021916908373ffffffffffffffffffffffffffffffffffffffff160217905550835f806101000a81548173ffffffffffffffffffffffffffffffffffffffff021916908373ffffffffffffffffffffffffffffffffffffffff1602179055508060015f6101000a81548173ffffffffffffffffffffffffffffffffffffffff021916908373ffffffffffffffffffffffffffffffffffffffff1602179055508260075f6101000a81548173ffffffffffffffffffffffffffffffffffffffff021916908373ffffffffffffffffffffffffffffffffffffffff1602179055508360025f6101000a81548173ffffffffffffffffffffffffffffffffffffffff021916908373ffffffffffffffffffffffffffffffffffffffff1602179055508460045f6101000a81548173ffffffffffffffffffffffffffffffffffffffff021916908373ffffffffffffffffffffffffffffffffffffffff1602179055508460055f6101000a81548173ffffffffffffffffffffffffffffffffffffffff021916908373ffffffffffffffffffffffffffffffffffffffff1602179055508160065f6101000a81548173ffffffffffffffffffffffffffffffffffffffff021916908373ffffffffffffffffffffffffffffffffffffffff16021790555060065f9054906101000a900473ffffffffffffffffffffffffffffffffffffffff1673ffffffffffffffffffffffffffffffffffffffff16630b977960336040518263ffffffff1660e01b8152600401620002919190620003da565b6020604051808303815f875af1158015620002ae573d5f803e3d5ffd5b505050506040513d601f19601f82011682018060405250810190620002d491906200042f565b5050505050506200045f565b5f80fd5b5f73ffffffffffffffffffffffffffffffffffffffff82169050919050565b5f6200030f82620002e4565b9050919050565b620003218162000303565b81146200032c575f80fd5b50565b5f815190506200033f8162000316565b92915050565b5f805f805f60a08688031215620003615762000360620002e0565b5b5f62000370888289016200032f565b955050602062000383888289016200032f565b945050604062000396888289016200032f565b9350506060620003a9888289016200032f565b9250506080620003bc888289016200032f565b9150509295509295909350565b620003d48162000303565b82525050565b5f602082019050620003ef5f830184620003c9565b92915050565b5f8115159050919050565b6200040b81620003f5565b811462000416575f80fd5b50565b5f81519050620004298162000400565b92915050565b5f60208284031215620004475762000446620002e0565b5b5f620004568482850162000419565b91505092915050565b6114bd806200046d5f395ff3fe608060405260043610610054575f3560e01c806303f2d8fe146100585780638ed0f73714610082578063c494a318146100be578063d4218963146100e6578063ed2af77e14610122578063faf924cf14610152575b5f80fd5b348015610063575f80fd5b5061006c61017c565b60405161007991906109ff565b60405180910390f35b34801561008d575f80fd5b506100a860048036038101906100a39190610a5c565b6101a1565b6040516100b59190610a96565b60405180910390f35b3480156100c9575f80fd5b506100e460048036038101906100df9190610ad9565b6101ab565b005b3480156100f1575f80fd5b5061010c60048036038101906101079190610d29565b6103b8565b60405161011991906109ff565b60405180910390f35b61013c60048036038101906101379190610de1565b61057e565b6040516101499190610a96565b60405180910390f35b34801561015d575f80fd5b506101666108c2565b60405161017391906109ff565b60405180910390f35b60035f9054906101000a900473ffffffffffffffffffffffffffffffffffffffff1681565b5f60019050919050565b60405180606001604052808473ffffffffffffffffffffffffffffffffffffffff1681526020013373ffffffffffffffffffffffffffffffffffffffff1681526020018373ffffffffffffffffffffffffffffffffffffffff1681525060085f8573ffffffffffffffffffffffffffffffffffffffff1673ffffffffffffffffffffffffffffffffffffffff1681526020019081526020015f205f820151815f015f6101000a81548173ffffffffffffffffffffffffffffffffffffffff021916908373ffffffffffffffffffffffffffffffffffffffff1602179055506020820151816001015f6101000a81548173ffffffffffffffffffffffffffffffffffffffff021916908373ffffffffffffffffffffffffffffffffffffffff1602179055506040820151816002015f6101000a81548173ffffffffffffffffffffffffffffffffffffffff021916908373ffffffffffffffffffffffffffffffffffffffff16021790555090505060065f9054906101000a900473ffffffffffffffffffffffffffffffffffffffff1673ffffffffffffffffffffffffffffffffffffffff16630b977960826040518263ffffffff1660e01b815260040161037291906109ff565b6020604051808303815f875af115801561038e573d5f803e3d5ffd5b505050506040513d601f19601f820116820180604052508101906103b29190610ee1565b50505050565b5f805f90505b85518110156104cc5760055f9054906101000a900473ffffffffffffffffffffffffffffffffffffffff1673ffffffffffffffffffffffffffffffffffffffff16631639512087838151811061041757610416610f0c565b5b60200260200101516040518263ffffffff1660e01b815260040161043b91906109ff565b602060405180830381865afa158015610456573d5f803e3d5ffd5b505050506040513d601f19601f8201168201806040525081019061047a9190610ee1565b6104b9576040517f08c379a00000000000000000000000000000000000000000000000000000000081526004016104b090610f93565b60405180910390fd5b80806104c490610fde565b9150506103be565b505f60065f9054906101000a900473ffffffffffffffffffffffffffffffffffffffff1673ffffffffffffffffffffffffffffffffffffffff1663e770fdef87878733886040518663ffffffff1660e01b8152600401610530959493929190611146565b6020604051808303815f875af115801561054c573d5f803e3d5ffd5b505050506040513d601f19601f8201168201806040525081019061057091906111c0565b905080915050949350505050565b5f8060085f8773ffffffffffffffffffffffffffffffffffffffff1673ffffffffffffffffffffffffffffffffffffffff1681526020019081526020015f206002015f9054906101000a900473ffffffffffffffffffffffffffffffffffffffff1690505f8690508173ffffffffffffffffffffffffffffffffffffffff166316395120336040518263ffffffff1660e01b815260040161061f91906109ff565b602060405180830381865afa15801561063a573d5f803e3d5ffd5b505050506040513d601f19601f8201168201806040525081019061065e9190610ee1565b61069d576040517f08c379a000000000000000000000000000000000000000000000000000000000815260040161069490611235565b60405180910390fd5b5f73__gitorg________________________________63b80777ea6040518163ffffffff1660e01b8152600401602060405180830381865af41580156106e5573d5f803e3d5ffd5b505050506040513d601f19601f820116820180604052508101906107099190611267565b90505f73__gitorg________________________________638ee0cd2e8984336040518463ffffffff1660e01b8152600401610747939291906112f8565b602060405180830381865af4158015610762573d5f803e3d5ffd5b505050506040513d601f19601f820116820180604052508101906107869190611367565b90505f8a90505f6001905060075f9054906101000a900473ffffffffffffffffffffffffffffffffffffffff1673ffffffffffffffffffffffffffffffffffffffff1663095ea7b383836040518363ffffffff1660e01b81526004016107ed929190611392565b6020604051808303815f875af1158015610809573d5f803e3d5ffd5b505050506040513d601f19601f8201168201806040525081019061082d9190610ee1565b508173ffffffffffffffffffffffffffffffffffffffff1663e3b139dc8c8c8c8c866040518663ffffffff1660e01b815260040161086f9594939291906113b9565b6020604051808303815f875af115801561088b573d5f803e3d5ffd5b505050506040513d601f19601f820116820180604052508101906108af9190611267565b5042965050505050505095945050505050565b5f60055f9054906101000a900473ffffffffffffffffffffffffffffffffffffffff1673ffffffffffffffffffffffffffffffffffffffff166316395120336040518263ffffffff1660e01b815260040161091d91906109ff565b602060405180830381865afa158015610938573d5f803e3d5ffd5b505050506040513d601f19601f8201168201806040525081019061095c9190610ee1565b61099b576040517f08c379a000000000000000000000000000000000000000000000000000000000815260040161099290611469565b60405180910390fd5b5f8054906101000a900473ffffffffffffffffffffffffffffffffffffffff16905090565b5f73ffffffffffffffffffffffffffffffffffffffff82169050919050565b5f6109e9826109c0565b9050919050565b6109f9816109df565b82525050565b5f602082019050610a125f8301846109f0565b92915050565b5f604051905090565b5f80fd5b5f80fd5b5f819050919050565b610a3b81610a29565b8114610a45575f80fd5b50565b5f81359050610a5681610a32565b92915050565b5f60208284031215610a7157610a70610a21565b5b5f610a7e84828501610a48565b91505092915050565b610a9081610a29565b82525050565b5f602082019050610aa95f830184610a87565b92915050565b610ab8816109df565b8114610ac2575f80fd5b50565b5f81359050610ad381610aaf565b92915050565b5f805f60608486031215610af057610aef610a21565b5b5f610afd86828701610ac5565b9350506020610b0e86828701610ac5565b9250506040610b1f86828701610ac5565b9150509250925092565b5f80fd5b5f601f19601f8301169050919050565b7f4e487b71000000000000000000000000000000000000000000000000000000005f52604160045260245ffd5b610b7382610b2d565b810181811067ffffffffffffffff82111715610b9257610b91610b3d565b5b80604052505050565b5f610ba4610a18565b9050610bb08282610b6a565b919050565b5f67ffffffffffffffff821115610bcf57610bce610b3d565b5b602082029050602081019050919050565b5f80fd5b5f610bf6610bf184610bb5565b610b9b565b90508083825260208201905060208402830185811115610c1957610c18610be0565b5b835b81811015610c425780610c2e8882610ac5565b845260208401935050602081019050610c1b565b5050509392505050565b5f82601f830112610c6057610c5f610b29565b5b8135610c70848260208601610be4565b91505092915050565b5f80fd5b5f67ffffffffffffffff821115610c9757610c96610b3d565b5b610ca082610b2d565b9050602081019050919050565b828183375f83830152505050565b5f610ccd610cc884610c7d565b610b9b565b905082815260208101848484011115610ce957610ce8610c79565b5b610cf4848285610cad565b509392505050565b5f82601f830112610d1057610d0f610b29565b5b8135610d20848260208601610cbb565b91505092915050565b5f805f8060808587031215610d4157610d40610a21565b5b5f85013567ffffffffffffffff811115610d5e57610d5d610a25565b5b610d6a87828801610c4c565b945050602085013567ffffffffffffffff811115610d8b57610d8a610a25565b5b610d9787828801610cfc565b935050604085013567ffffffffffffffff811115610db857610db7610a25565b5b610dc487828801610cfc565b9250506060610dd587828801610ac5565b91505092959194509250565b5f805f805f60a08688031215610dfa57610df9610a21565b5b5f610e0788828901610ac5565b9550506020610e1888828901610ac5565b945050604086013567ffffffffffffffff811115610e3957610e38610a25565b5b610e4588828901610cfc565b935050606086013567ffffffffffffffff811115610e6657610e65610a25565b5b610e7288828901610cfc565b925050608086013567ffffffffffffffff811115610e9357610e92610a25565b5b610e9f88828901610cfc565b9150509295509295909350565b5f8115159050919050565b610ec081610eac565b8114610eca575f80fd5b50565b5f81519050610edb81610eb7565b92915050565b5f60208284031215610ef657610ef5610a21565b5b5f610f0384828501610ecd565b91505092915050565b7f4e487b71000000000000000000000000000000000000000000000000000000005f52603260045260245ffd5b5f82825260208201905092915050565b7f6261636b68616e646564000000000000000000000000000000000000000000005f82015250565b5f610f7d600a83610f39565b9150610f8882610f49565b602082019050919050565b5f6020820190508181035f830152610faa81610f71565b9050919050565b7f4e487b71000000000000000000000000000000000000000000000000000000005f52601160045260245ffd5b5f610fe882610a29565b91507fffffffffffffffffffffffffffffffffffffffffffffffffffffffffffffffff820361101a57611019610fb1565b5b600182019050919050565b5f81519050919050565b5f82825260208201905092915050565b5f819050602082019050919050565b611057816109df565b82525050565b5f611068838361104e565b60208301905092915050565b5f602082019050919050565b5f61108a82611025565b611094818561102f565b935061109f8361103f565b805f5b838110156110cf5781516110b6888261105d565b97506110c183611074565b9250506001810190506110a2565b5085935050505092915050565b5f81519050919050565b5f5b838110156111035780820151818401526020810190506110e8565b5f8484015250505050565b5f611118826110dc565b6111228185610f39565b93506111328185602086016110e6565b61113b81610b2d565b840191505092915050565b5f60a0820190508181035f83015261115e8188611080565b90508181036020830152611172818761110e565b90508181036040830152611186818661110e565b905061119560608301856109f0565b6111a260808301846109f0565b9695505050505050565b5f815190506111ba81610aaf565b92915050565b5f602082840312156111d5576111d4610a21565b5b5f6111e2848285016111ac565b91505092915050565b7f7265706f7369746f7279000000000000000000000000000000000000000000005f82015250565b5f61121f600a83610f39565b915061122a826111eb565b602082019050919050565b5f6020820190508181035f83015261124c81611213565b9050919050565b5f8151905061126181610a32565b92915050565b5f6020828403121561127c5761127b610a21565b5b5f61128984828501611253565b91505092915050565b5f82825260208201905092915050565b5f6112ac826110dc565b6112b68185611292565b93506112c68185602086016110e6565b6112cf81610b2d565b840191505092915050565b6112e381610a29565b82525050565b6112f2816109df565b82525050565b5f6060820190508181035f83015261131081866112a2565b905061131f60208301856112da565b61132c60408301846112e9565b949350505050565b5f819050919050565b61134681611334565b8114611350575f80fd5b50565b5f815190506113618161133d565b92915050565b5f6020828403121561137c5761137b610a21565b5b5f61138984828501611353565b91505092915050565b5f6040820190506113a55f8301856109f0565b6113b26020830184610a87565b9392505050565b5f60a0820190506113cc5f8301886109f0565b81810360208301526113de818761110e565b905081810360408301526113f2818661110e565b90508181036060830152611406818561110e565b90506114156080830184610a87565b9695505050505050565b7f64656665720000000000000000000000000000000000000000000000000000005f82015250565b5f611453600583610f39565b915061145e8261141f565b602082019050919050565b5f6020820190508181035f83015261148081611447565b905091905056fea264697066735822122002b1d03e5e255d64f4f9f8707765082ab2ea67756af89d5daaca64136c125fea64736f6c63430008140033",
  "immutableReferences": {},
  "source": "// SPDX-License-Identifier: BUSL-1.1\npragma solidity >= \"0.8.20\";\nimport \"./gitorg.sol\";\nimport \"./libraries/gitorg.sol\";\nimport \"./gitarg.sol\";\nimport \"./objects/Proposal.sol\";\nimport \"./objects/Handshakes.sol\";\nimport \"./gitarray.sol\";\nimport \"./ltcgra.sol\";\nimport \"./objects/Repo.sol\";\nimport \"./giteta.sol\";\n\n\n//spawner\ncontract argctl {\n  address private _gitorg_;\n  address private _giteta_;\n  _gitorg  private Gitorg;\n  address public _gitarg;\n  address private _handshakes;\n  Handshakes handshakes;\n  gitarray Gitarray;\n  gitarg Gitarg;\n  struct Sign {\n    address repo;\n    address gitarray;\n    address handshakes;\n  }\n  mapping(address => Sign) private repos;\n\n  // TODO - handshake checkmarks for preverification or creation from gitarray?\n  // interface\n  /// trope\n  constructor (address handshakes_, address gitorg_, address gitarg_, address _gitarray, address _giteta) {\n  //constructor (address handshakes_, address gitorg_, address gitarg_, address _gitarray) {\n    _gitarg = gitarg_;\n    _gitorg_ = gitorg_;\n    _giteta_ = _giteta;\n    Gitarg = gitarg(gitarg_);\n    Gitorg = _gitorg(gitorg_);\n    _handshakes = handshakes_;\n    handshakes = Handshakes(handshakes_);\n    Gitarray = gitarray(_gitarray);\n    Gitarray.ctl(msg.sender);\n  }\n\n  function proof () public view returns (address) {\n    require(handshakes.isHandshake(msg.sender), \"defer\");\n    return _gitorg_;\n  }\n  \n  function repo(address[] memory _handshakes, string memory _name, string memory _url, address _argctl) public returns (address) {\n    for (uint i = 0; i < _handshakes.length; i++) {\n      require(handshakes.isHandshake(_handshakes[i]), \"backhanded\");\n    }\n    address repo_ = Gitarray.repo(_handshakes, _name, _url, msg.sender, _argctl);\n    return repo_;\n  }\n  /*\n  function repo(address repo) public returns(Repo) {\n    Sign memory sign = repos[repo];\n    Handshakes signers = Handshakes(sign.handshakes);\n    require(signers.isHandshake(msg.sender), \"signer\");\n    Repo _repo = Repo(sign.repo);\n    return _repo;\n  }\n  */\n  // NOT A SHORT SELL INTERFACE\n  function checkin (address repo, address handshakes, address handshake) public {\n    repos[repo] = Sign(repo, msg.sender, handshakes);\n    Gitarray.ctl(handshake);\n  }\n  /*\n  function check () public returns ( {\n    //by msg.sender or handshake? starting with msg.sender for review\n    // TODO - repos from msg.sender handshake?\n    Sign repo_ = repos[_repo];\n    Handshakes handshakes_ = Handshakes(repo_.handshakes);\n    require(msg.sender == handshakes_.isHandshake(msg.sender), \"checker\");\n    return\n  }\n  */\n  function commit(address _giteta, address _repo, string memory _message, string memory _author, string memory _date) public payable returns(uint) {\n    Handshakes _handshakes = Handshakes(repos[_repo].handshakes);\n    Repo repo_ = Repo(_repo);\n    //bool shook = handshakes.isHandshake(msg.sender);\n\n    require(_handshakes.isHandshake(msg.sender), \"repository\");\n    uint extTimestamp = gitorg.timestamp();\n    //function stamp (string memory _hash, uint timestamp, address _msgSender) public pure returns (bytes32)\n    bytes32 hash = gitorg.stamp(_message, extTimestamp, msg.sender);\n    giteta giteta_ = giteta(_giteta);\n    // TODO - review - stable coin of wei if msg.value is still used, may want to parameterize\n    //function commit(address _repo, string memory message, string memory author, string memory date, uint escrow) public returns (uint)\n    // TODO - issue is that commit always throws escrow errors from accounts[0], we might need to review giteta tests\n    // it's likely the issue is commit spend approval, even on commit address, there may just be an interface issue with\n    // the gitarg contract so redeclaration may also work. The fact that balanceOf is the revert trigger means\n    // that the interface issue may be the problem and an issue with ganache or something string related\n    uint escrow = 1;\n    Gitarg.approve(address(giteta_), escrow);\n    giteta_.commit(_repo, _message, _author, _date, escrow);\n    return block.timestamp;\n  }\n  function tar (uint amount) public returns (uint price) {\n    return 1; \n  }\n}\n\n",
  "sourcePath": "/home/gitarg/gitarg/solidity_ico/contracts/argctl.sol",
  "compiler": {
    "name": "solc",
    "version": "0.8.20+commit.a1b79de6.Emscripten.clang"
  },
  "schemaVersion": "3.4.16",
  "updatedAt": "2024-02-26T21:52:38.899Z",
  "networkType": "ethereum",
  "devdoc": {
    "kind": "dev",
    "methods": {},
    "version": 1
  },
  "userdoc": {
    "kind": "user",
    "methods": {
      "constructor": {
        "notice": "trope"
      }
    },
    "version": 1
  }
}