{
  "contractName": "bs",
  "abi": [
    {
      "inputs": [],
      "stateMutability": "nonpayable",
      "type": "constructor"
    },
    {
      "inputs": [],
      "name": "owner",
      "outputs": [
        {
          "internalType": "address",
          "name": "",
          "type": "address"
        }
      ],
      "stateMutability": "view",
      "type": "function"
    },
    {
      "inputs": [],
      "name": "t",
      "outputs": [],
      "stateMutability": "payable",
      "type": "function"
    }
  ],
  "bytecode": "0x608060405234801561000f575f80fd5b50335f806101000a81548173ffffffffffffffffffffffffffffffffffffffff021916908373ffffffffffffffffffffffffffffffffffffffff1602179055506101768061005c5f395ff3fe608060405260043610610028575f3560e01c80638da5cb5b1461002c57806392d0d15314610056575b5f80fd5b348015610037575f80fd5b50610040610060565b60405161004d9190610127565b60405180910390f35b61005e610083565b005b5f8054906101000a900473ffffffffffffffffffffffffffffffffffffffff1681565b5f8054906101000a900473ffffffffffffffffffffffffffffffffffffffff1673ffffffffffffffffffffffffffffffffffffffff166108fc3490811502906040515f60405180830381858888f193505050501580156100e5573d5f803e3d5ffd5b50565b5f73ffffffffffffffffffffffffffffffffffffffff82169050919050565b5f610111826100e8565b9050919050565b61012181610107565b82525050565b5f60208201905061013a5f830184610118565b9291505056fea264697066735822122045c4f19a1218932c76632d260e45b94fd34dca0175d160c3aea42014ee58bb7564736f6c63430008140033",
  "immutableReferences": {},
  "source": "pragma solidity >= \"0.8.20\";\n\ncontract bs {\n  address public owner;\n  constructor () {\n    owner = msg.sender;\n  }\n  function t () public payable {\n    payable(owner).transfer(msg.value); \n  } \n}\n",
  "sourcePath": "/home/gitarg/gitarg/solidity_ico/contracts/bs.sol",
  "compiler": {
    "name": "solc",
    "version": "0.8.20+commit.a1b79de6.Emscripten.clang"
  },
  "schemaVersion": "3.4.16",
  "updatedAt": "2024-03-06T12:48:02.360Z",
  "devdoc": {
    "kind": "dev",
    "methods": {},
    "version": 1
  },
  "userdoc": {
    "kind": "user",
    "methods": {},
    "version": 1
  }
}