{
  "contractName": "Commit",
  "abi": [
    {
      "inputs": [
        {
          "internalType": "address",
          "name": "_wallet",
          "type": "address"
        },
        {
          "internalType": "address",
          "name": "_repo",
          "type": "address"
        },
        {
          "internalType": "string",
          "name": "_message",
          "type": "string"
        },
        {
          "internalType": "string",
          "name": "_author",
          "type": "string"
        },
        {
          "internalType": "string",
          "name": "_date",
          "type": "string"
        }
      ],
      "stateMutability": "nonpayable",
      "type": "constructor"
    },
    {
      "inputs": [],
      "name": "creator",
      "outputs": [
        {
          "internalType": "address",
          "name": "",
          "type": "address"
        }
      ],
      "stateMutability": "view",
      "type": "function",
      "constant": true
    },
    {
      "inputs": [],
      "name": "repo",
      "outputs": [
        {
          "internalType": "address",
          "name": "",
          "type": "address"
        }
      ],
      "stateMutability": "view",
      "type": "function",
      "constant": true
    },
    {
      "inputs": [
        {
          "internalType": "bytes",
          "name": "_hash",
          "type": "bytes"
        }
      ],
      "name": "setCodeHash",
      "outputs": [
        {
          "internalType": "uint256",
          "name": "",
          "type": "uint256"
        }
      ],
      "stateMutability": "nonpayable",
      "type": "function"
    },
    {
      "inputs": [],
      "name": "getData",
      "outputs": [
        {
          "components": [
            {
              "internalType": "address",
              "name": "wallet",
              "type": "address"
            },
            {
              "internalType": "string",
              "name": "message",
              "type": "string"
            },
            {
              "internalType": "string",
              "name": "author",
              "type": "string"
            },
            {
              "internalType": "string",
              "name": "date",
              "type": "string"
            }
          ],
          "internalType": "struct Commit.Data",
          "name": "",
          "type": "tuple"
        }
      ],
      "stateMutability": "view",
      "type": "function",
      "constant": true
    },
    {
      "inputs": [
        {
          "internalType": "address",
          "name": "_gitarg",
          "type": "address"
        },
        {
          "internalType": "address",
          "name": "_wallet",
          "type": "address"
        }
      ],
      "name": "approve",
      "outputs": [],
      "stateMutability": "nonpayable",
      "type": "function"
    }
  ],
  "bytecode": "0x608060405234801562000010575f80fd5b506040516200161a3803806200161a83398181016040528101906200003691906200036e565b3360075f6101000a81548173ffffffffffffffffffffffffffffffffffffffff021916908373ffffffffffffffffffffffffffffffffffffffff160217905550835f806101000a81548173ffffffffffffffffffffffffffffffffffffffff021916908373ffffffffffffffffffffffffffffffffffffffff16021790555060405180608001604052808673ffffffffffffffffffffffffffffffffffffffff1681526020018481526020018381526020018281525060035f820151815f015f6101000a81548173ffffffffffffffffffffffffffffffffffffffff021916908373ffffffffffffffffffffffffffffffffffffffff160217905550602082015181600101908162000149919062000686565b50604082015181600201908162000161919062000686565b50606082015181600301908162000179919062000686565b5090505050505050506200076a565b5f604051905090565b5f80fd5b5f80fd5b5f73ffffffffffffffffffffffffffffffffffffffff82169050919050565b5f620001c48262000199565b9050919050565b620001d681620001b8565b8114620001e1575f80fd5b50565b5f81519050620001f481620001cb565b92915050565b5f80fd5b5f80fd5b5f601f19601f8301169050919050565b7f4e487b71000000000000000000000000000000000000000000000000000000005f52604160045260245ffd5b6200024a8262000202565b810181811067ffffffffffffffff821117156200026c576200026b62000212565b5b80604052505050565b5f6200028062000188565b90506200028e82826200023f565b919050565b5f67ffffffffffffffff821115620002b057620002af62000212565b5b620002bb8262000202565b9050602081019050919050565b5f5b83811015620002e7578082015181840152602081019050620002ca565b5f8484015250505050565b5f62000308620003028462000293565b62000275565b905082815260208101848484011115620003275762000326620001fe565b5b62000334848285620002c8565b509392505050565b5f82601f830112620003535762000352620001fa565b5b815162000365848260208601620002f2565b91505092915050565b5f805f805f60a086880312156200038a576200038962000191565b5b5f6200039988828901620001e4565b9550506020620003ac88828901620001e4565b945050604086015167ffffffffffffffff811115620003d057620003cf62000195565b5b620003de888289016200033c565b935050606086015167ffffffffffffffff81111562000402576200040162000195565b5b62000410888289016200033c565b925050608086015167ffffffffffffffff81111562000434576200043362000195565b5b62000442888289016200033c565b9150509295509295909350565b5f81519050919050565b7f4e487b71000000000000000000000000000000000000000000000000000000005f52602260045260245ffd5b5f60028204905060018216806200049e57607f821691505b602082108103620004b457620004b362000459565b5b50919050565b5f819050815f5260205f209050919050565b5f6020601f8301049050919050565b5f82821b905092915050565b5f60088302620005187fffffffffffffffffffffffffffffffffffffffffffffffffffffffffffffffff82620004db565b620005248683620004db565b95508019841693508086168417925050509392505050565b5f819050919050565b5f819050919050565b5f6200056e6200056862000562846200053c565b62000545565b6200053c565b9050919050565b5f819050919050565b62000589836200054e565b620005a1620005988262000575565b848454620004e7565b825550505050565b5f90565b620005b7620005a9565b620005c48184846200057e565b505050565b5b81811015620005eb57620005df5f82620005ad565b600181019050620005ca565b5050565b601f8211156200063a576200060481620004ba565b6200060f84620004cc565b810160208510156200061f578190505b620006376200062e85620004cc565b830182620005c9565b50505b505050565b5f82821c905092915050565b5f6200065c5f19846008026200063f565b1980831691505092915050565b5f6200067683836200064b565b9150826002028217905092915050565b62000691826200044f565b67ffffffffffffffff811115620006ad57620006ac62000212565b5b620006b9825462000486565b620006c6828285620005ef565b5f60209050601f831160018114620006fc575f8415620006e7578287015190505b620006f3858262000669565b86555062000762565b601f1984166200070c86620004ba565b5f5b8281101562000735578489015182556001820191506020850194506020810190506200070e565b8683101562000755578489015162000751601f8916826200064b565b8355505b6001600288020188555050505b505050505050565b610ea280620007785f395ff3fe608060405234801561000f575f80fd5b5060043610610055575f3560e01c806302d05d3f146100595780633bc5de301461007757806355a08b9a1461009557806356ff3122146100c55780637e5465ba146100e3575b5f80fd5b6100616100ff565b60405161006e91906106e8565b60405180910390f35b61007f610124565b60405161008c9190610808565b60405180910390f35b6100af60048036038101906100aa9190610965565b61042a565b6040516100bc91906109c4565b60405180910390f35b6100cd610465565b6040516100da91906106e8565b60405180910390f35b6100fd60048036038101906100f89190610a07565b610488565b005b60075f9054906101000a900473ffffffffffffffffffffffffffffffffffffffff1681565b61012c61066c565b3373ffffffffffffffffffffffffffffffffffffffff1660075f9054906101000a900473ffffffffffffffffffffffffffffffffffffffff1673ffffffffffffffffffffffffffffffffffffffff1614806101d557503373ffffffffffffffffffffffffffffffffffffffff1660035f015f9054906101000a900473ffffffffffffffffffffffffffffffffffffffff1673ffffffffffffffffffffffffffffffffffffffff16145b610214576040517f08c379a000000000000000000000000000000000000000000000000000000000815260040161020b90610a9f565b60405180910390fd5b60036040518060800160405290815f82015f9054906101000a900473ffffffffffffffffffffffffffffffffffffffff1673ffffffffffffffffffffffffffffffffffffffff1673ffffffffffffffffffffffffffffffffffffffff16815260200160018201805461028590610aea565b80601f01602080910402602001604051908101604052809291908181526020018280546102b190610aea565b80156102fc5780601f106102d3576101008083540402835291602001916102fc565b820191905f5260205f20905b8154815290600101906020018083116102df57829003601f168201915b5050505050815260200160028201805461031590610aea565b80601f016020809104026020016040519081016040528092919081815260200182805461034190610aea565b801561038c5780601f106103635761010080835404028352916020019161038c565b820191905f5260205f20905b81548152906001019060200180831161036f57829003601f168201915b505050505081526020016003820180546103a590610aea565b80601f01602080910402602001604051908101604052809291908181526020018280546103d190610aea565b801561041c5780601f106103f35761010080835404028352916020019161041c565b820191905f5260205f20905b8154815290600101906020018083116103ff57829003601f168201915b505050505081525050905090565b5f806002805461043990610aea565b905014610444575f80fd5b81600290816104539190610cc1565b50426001819055506001549050919050565b5f8054906101000a900473ffffffffffffffffffffffffffffffffffffffff1681565b3373ffffffffffffffffffffffffffffffffffffffff1660075f9054906101000a900473ffffffffffffffffffffffffffffffffffffffff1673ffffffffffffffffffffffffffffffffffffffff16148061053157503373ffffffffffffffffffffffffffffffffffffffff1660035f015f9054906101000a900473ffffffffffffffffffffffffffffffffffffffff1673ffffffffffffffffffffffffffffffffffffffff16145b610570576040517f08c379a000000000000000000000000000000000000000000000000000000000815260040161056790610a9f565b60405180910390fd5b5f8290508073ffffffffffffffffffffffffffffffffffffffff1663095ea7b3838373ffffffffffffffffffffffffffffffffffffffff166370a08231306040518263ffffffff1660e01b81526004016105ca91906106e8565b602060405180830381865afa1580156105e5573d5f803e3d5ffd5b505050506040513d601f19601f820116820180604052508101906106099190610dba565b6040518363ffffffff1660e01b8152600401610626929190610de5565b6020604051808303815f875af1158015610642573d5f803e3d5ffd5b505050506040513d601f19601f820116820180604052508101906106669190610e41565b50505050565b60405180608001604052805f73ffffffffffffffffffffffffffffffffffffffff1681526020016060815260200160608152602001606081525090565b5f73ffffffffffffffffffffffffffffffffffffffff82169050919050565b5f6106d2826106a9565b9050919050565b6106e2816106c8565b82525050565b5f6020820190506106fb5f8301846106d9565b92915050565b61070a816106c8565b82525050565b5f81519050919050565b5f82825260208201905092915050565b5f5b8381101561074757808201518184015260208101905061072c565b5f8484015250505050565b5f601f19601f8301169050919050565b5f61076c82610710565b610776818561071a565b935061078681856020860161072a565b61078f81610752565b840191505092915050565b5f608083015f8301516107af5f860182610701565b50602083015184820360208601526107c78282610762565b915050604083015184820360408601526107e18282610762565b915050606083015184820360608601526107fb8282610762565b9150508091505092915050565b5f6020820190508181035f830152610820818461079a565b905092915050565b5f604051905090565b5f80fd5b5f80fd5b5f80fd5b5f80fd5b7f4e487b71000000000000000000000000000000000000000000000000000000005f52604160045260245ffd5b61087782610752565b810181811067ffffffffffffffff8211171561089657610895610841565b5b80604052505050565b5f6108a8610828565b90506108b4828261086e565b919050565b5f67ffffffffffffffff8211156108d3576108d2610841565b5b6108dc82610752565b9050602081019050919050565b828183375f83830152505050565b5f610909610904846108b9565b61089f565b9050828152602081018484840111156109255761092461083d565b5b6109308482856108e9565b509392505050565b5f82601f83011261094c5761094b610839565b5b813561095c8482602086016108f7565b91505092915050565b5f6020828403121561097a57610979610831565b5b5f82013567ffffffffffffffff81111561099757610996610835565b5b6109a384828501610938565b91505092915050565b5f819050919050565b6109be816109ac565b82525050565b5f6020820190506109d75f8301846109b5565b92915050565b6109e6816106c8565b81146109f0575f80fd5b50565b5f81359050610a01816109dd565b92915050565b5f8060408385031215610a1d57610a1c610831565b5b5f610a2a858286016109f3565b9250506020610a3b858286016109f3565b9150509250929050565b5f82825260208201905092915050565b7f6e6f6e20617574686f72697a65642075736572000000000000000000000000005f82015250565b5f610a89601383610a45565b9150610a9482610a55565b602082019050919050565b5f6020820190508181035f830152610ab681610a7d565b9050919050565b7f4e487b71000000000000000000000000000000000000000000000000000000005f52602260045260245ffd5b5f6002820490506001821680610b0157607f821691505b602082108103610b1457610b13610abd565b5b50919050565b5f81519050919050565b5f819050815f5260205f209050919050565b5f6020601f8301049050919050565b5f82821b905092915050565b5f60088302610b807fffffffffffffffffffffffffffffffffffffffffffffffffffffffffffffffff82610b45565b610b8a8683610b45565b95508019841693508086168417925050509392505050565b5f819050919050565b5f610bc5610bc0610bbb846109ac565b610ba2565b6109ac565b9050919050565b5f819050919050565b610bde83610bab565b610bf2610bea82610bcc565b848454610b51565b825550505050565b5f90565b610c06610bfa565b610c11818484610bd5565b505050565b5b81811015610c3457610c295f82610bfe565b600181019050610c17565b5050565b601f821115610c7957610c4a81610b24565b610c5384610b36565b81016020851015610c62578190505b610c76610c6e85610b36565b830182610c16565b50505b505050565b5f82821c905092915050565b5f610c995f1984600802610c7e565b1980831691505092915050565b5f610cb18383610c8a565b9150826002028217905092915050565b610cca82610b1a565b67ffffffffffffffff811115610ce357610ce2610841565b5b610ced8254610aea565b610cf8828285610c38565b5f60209050601f831160018114610d29575f8415610d17578287015190505b610d218582610ca6565b865550610d88565b601f198416610d3786610b24565b5f5b82811015610d5e57848901518255600182019150602085019450602081019050610d39565b86831015610d7b5784890151610d77601f891682610c8a565b8355505b6001600288020188555050505b505050505050565b610d99816109ac565b8114610da3575f80fd5b50565b5f81519050610db481610d90565b92915050565b5f60208284031215610dcf57610dce610831565b5b5f610ddc84828501610da6565b91505092915050565b5f604082019050610df85f8301856106d9565b610e0560208301846109b5565b9392505050565b5f8115159050919050565b610e2081610e0c565b8114610e2a575f80fd5b50565b5f81519050610e3b81610e17565b92915050565b5f60208284031215610e5657610e55610831565b5b5f610e6384828501610e2d565b9150509291505056fea26469706673582212202304299c87682d228291e2fd57970a95219d7db0bc614cda10fed6671ad1862f64736f6c63430008140033",
  "immutableReferences": {},
  "source": "// SPDX-License-Identifier: UNLICENSED\npragma solidity >= \"0.8.20\";\nimport \"../gitarg.sol\";\n\ncontract Commit {\n  address public repo;\n  // private wallet that can be made public might just need a check\n  // the rest of the variables need access from repo\n  // could put it in a struct\n  struct Data {\n    address wallet;\n    string message;\n    string author;\n    string date;\n  }\n  uint private hashTime;\n  bytes private hash;\n  Data private data;\n  // should the hash time be public?\n\n  address public creator; // likely giteta contract\n  // code cost\n\n  modifier auth () {\n    require(creator == msg.sender || data.wallet == msg.sender, \"non authorized user\");\n    _;\n  }\n  constructor(address _wallet, address _repo, string memory _message, string memory _author, string memory _date) {\n    creator = msg.sender;\n    repo = _repo;\n    data = Data(_wallet, _message, _author, _date);\n  }\n\n  function setCodeHash(bytes memory _hash) public returns (uint) {\n    require(hash.length == 0);\n    hash = _hash;\n    hashTime = block.timestamp;\n    return hashTime;\n  }\n  function getData() public view auth returns (Data memory) {\n    return data;\n  }\n  // REVIEW - change parameter list to include value instead of approving full balance\n  function approve(address _gitarg, address _wallet) public auth {\n    gitarg Gitarg = gitarg(_gitarg);\n    //function approve(address _spender, uint256 _value) public returns (bool success)\n    Gitarg.approve(_wallet, Gitarg.balanceOf(address(this)));\n  }\n}\n",
  "sourcePath": "/Users/davidkamer/gitarg_eth_ico/contracts/objects/Commit.sol",
  "compiler": {
    "name": "solc",
    "version": "0.8.20+commit.a1b79de6.Emscripten.clang"
  },
  "schemaVersion": "3.4.16",
  "updatedAt": "2023-11-15T22:23:30.883Z",
  "networkType": "ethereum",
  "devdoc": {
    "kind": "dev",
    "methods": {},
    "version": 1
  },
  "userdoc": {
    "kind": "user",
    "methods": {},
    "version": 1
  }
}