{
  "contractName": "gitar",
  "abi": [
    {
      "inputs": [
        {
          "internalType": "address",
          "name": "gitarg_",
          "type": "address"
        },
        {
          "internalType": "uint256",
          "name": "_price",
          "type": "uint256"
        },
        {
          "internalType": "uint256",
          "name": "_threshold",
          "type": "uint256"
        },
        {
          "internalType": "uint256",
          "name": "_ratio",
          "type": "uint256"
        }
      ],
      "stateMutability": "nonpayable",
      "type": "constructor"
    },
    {
      "inputs": [],
      "name": "_gitarg",
      "outputs": [
        {
          "internalType": "address",
          "name": "",
          "type": "address"
        }
      ],
      "stateMutability": "view",
      "type": "function",
      "constant": true
    },
    {
      "inputs": [],
      "name": "locked",
      "outputs": [
        {
          "internalType": "bool",
          "name": "",
          "type": "bool"
        }
      ],
      "stateMutability": "view",
      "type": "function",
      "constant": true
    },
    {
      "inputs": [],
      "name": "owner",
      "outputs": [
        {
          "internalType": "address",
          "name": "",
          "type": "address"
        }
      ],
      "stateMutability": "view",
      "type": "function",
      "constant": true
    },
    {
      "inputs": [],
      "name": "price",
      "outputs": [
        {
          "internalType": "uint256",
          "name": "",
          "type": "uint256"
        }
      ],
      "stateMutability": "view",
      "type": "function",
      "constant": true
    },
    {
      "inputs": [],
      "name": "ratio",
      "outputs": [
        {
          "internalType": "uint256",
          "name": "",
          "type": "uint256"
        }
      ],
      "stateMutability": "view",
      "type": "function",
      "constant": true
    },
    {
      "inputs": [],
      "name": "safe",
      "outputs": [
        {
          "internalType": "bool",
          "name": "",
          "type": "bool"
        }
      ],
      "stateMutability": "view",
      "type": "function",
      "constant": true
    },
    {
      "inputs": [],
      "name": "threshold",
      "outputs": [
        {
          "internalType": "uint256",
          "name": "",
          "type": "uint256"
        }
      ],
      "stateMutability": "view",
      "type": "function",
      "constant": true
    },
    {
      "inputs": [
        {
          "internalType": "uint256",
          "name": "tar",
          "type": "uint256"
        }
      ],
      "name": "g",
      "outputs": [
        {
          "internalType": "bool",
          "name": "",
          "type": "bool"
        }
      ],
      "stateMutability": "payable",
      "type": "function",
      "payable": true
    }
  ],
  "bytecode": "0x60806040525f60045f6101000a81548160ff0219169083151502179055505f600460016101000a81548160ff02191690831515021790555034801562000043575f80fd5b5060405162000ead38038062000ead833981810160405281019062000069919062000354565b806006819055508360025f6101000a81548173ffffffffffffffffffffffffffffffffffffffff021916908373ffffffffffffffffffffffffffffffffffffffff16021790555060036006541015620000d757600160045f6101000a81548160ff0219169083151502179055505b60065460025f9054906101000a900473ffffffffffffffffffffffffffffffffffffffff1673ffffffffffffffffffffffffffffffffffffffff166318160ddd6040518163ffffffff1660e01b8152600401602060405180830381865afa15801562000145573d5f803e3d5ffd5b505050506040513d601f19601f820116820180604052508101906200016b9190620003c3565b62000177919062000420565b60025f9054906101000a900473ffffffffffffffffffffffffffffffffffffffff1673ffffffffffffffffffffffffffffffffffffffff166370a08231336040518263ffffffff1660e01b8152600401620001d3919062000468565b602060405180830381865afa158015620001ef573d5f803e3d5ffd5b505050506040513d601f19601f82011682018060405250810190620002159190620003c3565b101562000220575f80fd5b335f806101000a81548173ffffffffffffffffffffffffffffffffffffffff021916908373ffffffffffffffffffffffffffffffffffffffff1602179055508360015f6101000a81548173ffffffffffffffffffffffffffffffffffffffff021916908373ffffffffffffffffffffffffffffffffffffffff16021790555082600381905550816005819055505050505062000483565b5f80fd5b5f73ffffffffffffffffffffffffffffffffffffffff82169050919050565b5f620002e682620002bb565b9050919050565b620002f881620002da565b811462000303575f80fd5b50565b5f815190506200031681620002ed565b92915050565b5f819050919050565b62000330816200031c565b81146200033b575f80fd5b50565b5f815190506200034e8162000325565b92915050565b5f805f80608085870312156200036f576200036e620002b7565b5b5f6200037e8782880162000306565b945050602062000391878288016200033e565b9350506040620003a4878288016200033e565b9250506060620003b7878288016200033e565b91505092959194509250565b5f60208284031215620003db57620003da620002b7565b5b5f620003ea848285016200033e565b91505092915050565b7f4e487b71000000000000000000000000000000000000000000000000000000005f52601260045260245ffd5b5f6200042c826200031c565b915062000439836200031c565b9250826200044c576200044b620003f3565b5b828204905092915050565b6200046281620002da565b82525050565b5f6020820190506200047d5f83018462000457565b92915050565b610a1c80620004915f395ff3fe60806040526004361061007a575f3560e01c80638da5cb5b1161004d5780638da5cb5b14610126578063a035b1fe14610150578063cf3090121461017a578063e420264a146101a45761007a565b806303f2d8fe1461007e578063186f0354146100a857806342cde4e8146100d257806371ca337d146100fc575b5f80fd5b348015610089575f80fd5b506100926101d4565b60405161009f919061066a565b60405180910390f35b3480156100b3575f80fd5b506100bc6101f9565b6040516100c9919061069d565b60405180910390f35b3480156100dd575f80fd5b506100e661020b565b6040516100f391906106ce565b60405180910390f35b348015610107575f80fd5b50610110610211565b60405161011d91906106ce565b60405180910390f35b348015610131575f80fd5b5061013a610217565b604051610147919061066a565b60405180910390f35b34801561015b575f80fd5b5061016461023a565b60405161017191906106ce565b60405180910390f35b348015610185575f80fd5b5061018e610240565b60405161019b919061069d565b60405180910390f35b6101be60048036038101906101b99190610715565b610253565b6040516101cb919061069d565b60405180910390f35b60015f9054906101000a900473ffffffffffffffffffffffffffffffffffffffff1681565b60045f9054906101000a900460ff1681565b60055481565b60065481565b5f8054906101000a900473ffffffffffffffffffffffffffffffffffffffff1681565b60035481565b600460019054906101000a900460ff1681565b5f600460019054906101000a900460ff16156102a4576040517f08c379a000000000000000000000000000000000000000000000000000000000815260040161029b9061079a565b60405180910390fd5b60055460025f9054906101000a900473ffffffffffffffffffffffffffffffffffffffff1673ffffffffffffffffffffffffffffffffffffffff166370a082315f8054906101000a900473ffffffffffffffffffffffffffffffffffffffff166040518263ffffffff1660e01b8152600401610320919061066a565b602060405180830381865afa15801561033b573d5f803e3d5ffd5b505050506040513d601f19601f8201168201806040525081019061035f91906107cc565b10156103755761036d6105f0565b5f90506105eb565b5f600354836103849190610824565b90508034146103c8576040517f08c379a00000000000000000000000000000000000000000000000000000000081526004016103bf906108af565b60405180910390fd5b8260025f9054906101000a900473ffffffffffffffffffffffffffffffffffffffff1673ffffffffffffffffffffffffffffffffffffffff1663dd62ed3e5f8054906101000a900473ffffffffffffffffffffffffffffffffffffffff16306040518363ffffffff1660e01b81526004016104449291906108cd565b602060405180830381865afa15801561045f573d5f803e3d5ffd5b505050506040513d601f19601f8201168201806040525081019061048391906107cc565b10156104c4576040517f08c379a00000000000000000000000000000000000000000000000000000000081526004016104bb9061093e565b60405180910390fd5b60025f9054906101000a900473ffffffffffffffffffffffffffffffffffffffff1673ffffffffffffffffffffffffffffffffffffffff166323b872dd5f8054906101000a900473ffffffffffffffffffffffffffffffffffffffff1633866040518463ffffffff1660e01b81526004016105419392919061095c565b6020604051808303815f875af115801561055d573d5f803e3d5ffd5b505050506040513d601f19601f8201168201806040525081019061058191906109bb565b505f8054906101000a900473ffffffffffffffffffffffffffffffffffffffff1673ffffffffffffffffffffffffffffffffffffffff166108fc3490811502906040515f60405180830381858888f193505050501580156105e4573d5f803e3d5ffd5b5060019150505b919050565b600460019054906101000a900460ff161561060e5761060d6105f0565b5b6001600460016101000a81548160ff021916908315150217905550565b5f73ffffffffffffffffffffffffffffffffffffffff82169050919050565b5f6106548261062b565b9050919050565b6106648161064a565b82525050565b5f60208201905061067d5f83018461065b565b92915050565b5f8115159050919050565b61069781610683565b82525050565b5f6020820190506106b05f83018461068e565b92915050565b5f819050919050565b6106c8816106b6565b82525050565b5f6020820190506106e15f8301846106bf565b92915050565b5f80fd5b6106f4816106b6565b81146106fe575f80fd5b50565b5f8135905061070f816106eb565b92915050565b5f6020828403121561072a576107296106e7565b5b5f61073784828501610701565b91505092915050565b5f82825260208201905092915050565b7f4c6f636b650000000000000000000000000000000000000000000000000000005f82015250565b5f610784600583610740565b915061078f82610750565b602082019050919050565b5f6020820190508181035f8301526107b181610778565b9050919050565b5f815190506107c6816106eb565b92915050565b5f602082840312156107e1576107e06106e7565b5b5f6107ee848285016107b8565b91505092915050565b7f4e487b71000000000000000000000000000000000000000000000000000000005f52601160045260245ffd5b5f61082e826106b6565b9150610839836106b6565b9250828202610847816106b6565b9150828204841483151761085e5761085d6107f7565b5b5092915050565b7f70726963650000000000000000000000000000000000000000000000000000005f82015250565b5f610899600583610740565b91506108a482610865565b602082019050919050565b5f6020820190508181035f8301526108c68161088d565b9050919050565b5f6040820190506108e05f83018561065b565b6108ed602083018461065b565b9392505050565b7f616c6c6f77616e636500000000000000000000000000000000000000000000005f82015250565b5f610928600983610740565b9150610933826108f4565b602082019050919050565b5f6020820190508181035f8301526109558161091c565b9050919050565b5f60608201905061096f5f83018661065b565b61097c602083018561065b565b61098960408301846106bf565b949350505050565b61099a81610683565b81146109a4575f80fd5b50565b5f815190506109b581610991565b92915050565b5f602082840312156109d0576109cf6106e7565b5b5f6109dd848285016109a7565b9150509291505056fea2646970667358221220e8251a3070b36f5adf06295af82fc5fb34dd1915358b5f192148d754e598b81264736f6c63430008140033",
  "immutableReferences": {},
  "source": "// SPDX-License-Identifier: BUSL-1.1\npragma solidity >= \"0.8.20\";\nimport \"./gitarg.sol\";\n\ncontract gitar {\n  address public owner;\n  address public _gitarg;\n  gitarg private Gitarg;\n  uint public price;\n  bool public safe = false;\n  bool public locked = false;\n  uint public threshold;\n  uint public ratio;\n\n  constructor (address gitarg_, uint _price, uint _threshold, uint _ratio) {\n    ratio = _ratio;\n    Gitarg = gitarg(gitarg_);\n    if (ratio < 3) safe = true;\n    require(Gitarg.balanceOf(msg.sender) >= Gitarg.totalSupply() / ratio);\n    owner = msg.sender;\n    _gitarg = gitarg_;\n    price = _price;\n    threshold = _threshold;\n  }\n  function lock () private {\n    if (locked) lock();\n    locked = true;\n  }\n  function g (uint tar) public payable returns (bool) {\n    //require(locked == false, \"Locke\");\n    require(!locked, \"Locke\"); \n    if (Gitarg.balanceOf(owner) < threshold) {// || Gitarg.allowance(owner, address(this)) <= tar) {\n      lock();\n      return false;\n    }\n    uint targit = tar * price;\n    require(msg.value == targit, \"price\");\n    require(Gitarg.allowance(owner, address(this)) >= tar, \"allowance\");\n\n    Gitarg.transferFrom(owner, msg.sender, tar);\n    payable(owner).transfer(msg.value);\n    return true;\n  }\n}\n",
  "sourcePath": "/Users/davidkamer/gitarg_eth_ico/contracts/gitar.sol",
  "compiler": {
    "name": "solc",
    "version": "0.8.20+commit.a1b79de6.Emscripten.clang"
  },
  "schemaVersion": "3.4.16",
  "updatedAt": "2023-11-10T08:07:08.560Z",
  "networkType": "ethereum",
  "devdoc": {
    "kind": "dev",
    "methods": {},
    "version": 1
  },
  "userdoc": {
    "kind": "user",
    "methods": {},
    "version": 1
  }
}