{
  "contractName": "gitar",
  "abi": [
    {
      "inputs": [
        {
          "internalType": "address",
          "name": "gitarg_",
          "type": "address"
        },
        {
          "internalType": "uint256",
          "name": "_price",
          "type": "uint256"
        },
        {
          "internalType": "uint256",
          "name": "_threshold",
          "type": "uint256"
        },
        {
          "internalType": "uint256",
          "name": "_ratio",
          "type": "uint256"
        }
      ],
      "stateMutability": "nonpayable",
      "type": "constructor"
    },
    {
      "inputs": [],
      "name": "_gitarg",
      "outputs": [
        {
          "internalType": "address",
          "name": "",
          "type": "address"
        }
      ],
      "stateMutability": "view",
      "type": "function",
      "constant": true
    },
    {
      "inputs": [],
      "name": "locked",
      "outputs": [
        {
          "internalType": "bool",
          "name": "",
          "type": "bool"
        }
      ],
      "stateMutability": "view",
      "type": "function",
      "constant": true
    },
    {
      "inputs": [],
      "name": "owner",
      "outputs": [
        {
          "internalType": "address",
          "name": "",
          "type": "address"
        }
      ],
      "stateMutability": "view",
      "type": "function",
      "constant": true
    },
    {
      "inputs": [],
      "name": "price",
      "outputs": [
        {
          "internalType": "uint256",
          "name": "",
          "type": "uint256"
        }
      ],
      "stateMutability": "view",
      "type": "function",
      "constant": true
    },
    {
      "inputs": [],
      "name": "ratio",
      "outputs": [
        {
          "internalType": "uint256",
          "name": "",
          "type": "uint256"
        }
      ],
      "stateMutability": "view",
      "type": "function",
      "constant": true
    },
    {
      "inputs": [],
      "name": "safe",
      "outputs": [
        {
          "internalType": "bool",
          "name": "",
          "type": "bool"
        }
      ],
      "stateMutability": "view",
      "type": "function",
      "constant": true
    },
    {
      "inputs": [],
      "name": "threshold",
      "outputs": [
        {
          "internalType": "uint256",
          "name": "",
          "type": "uint256"
        }
      ],
      "stateMutability": "view",
      "type": "function",
      "constant": true
    },
    {
      "inputs": [
        {
          "internalType": "uint256",
          "name": "tar",
          "type": "uint256"
        }
      ],
      "name": "g",
      "outputs": [
        {
          "internalType": "bool",
          "name": "",
          "type": "bool"
        }
      ],
      "stateMutability": "payable",
      "type": "function",
      "payable": true
    },
    {
      "inputs": [
        {
          "internalType": "address",
          "name": "_purchaser",
          "type": "address"
        }
      ],
      "name": "gg",
      "outputs": [
        {
          "internalType": "uint256",
          "name": "",
          "type": "uint256"
        }
      ],
      "stateMutability": "view",
      "type": "function",
      "constant": true
    }
  ],
  "bytecode": "0x60806040525f60045f6101000a81548160ff0219169083151502179055505f600460016101000a81548160ff02191690831515021790555034801562000043575f80fd5b5060405162000fd138038062000fd1833981810160405281019062000069919062000354565b806006819055508360025f6101000a81548173ffffffffffffffffffffffffffffffffffffffff021916908373ffffffffffffffffffffffffffffffffffffffff16021790555060036006541015620000d757600160045f6101000a81548160ff0219169083151502179055505b60065460025f9054906101000a900473ffffffffffffffffffffffffffffffffffffffff1673ffffffffffffffffffffffffffffffffffffffff166318160ddd6040518163ffffffff1660e01b8152600401602060405180830381865afa15801562000145573d5f803e3d5ffd5b505050506040513d601f19601f820116820180604052508101906200016b9190620003c3565b62000177919062000420565b60025f9054906101000a900473ffffffffffffffffffffffffffffffffffffffff1673ffffffffffffffffffffffffffffffffffffffff166370a08231336040518263ffffffff1660e01b8152600401620001d3919062000468565b602060405180830381865afa158015620001ef573d5f803e3d5ffd5b505050506040513d601f19601f82011682018060405250810190620002159190620003c3565b101562000220575f80fd5b335f806101000a81548173ffffffffffffffffffffffffffffffffffffffff021916908373ffffffffffffffffffffffffffffffffffffffff1602179055508360015f6101000a81548173ffffffffffffffffffffffffffffffffffffffff021916908373ffffffffffffffffffffffffffffffffffffffff16021790555082600381905550816005819055505050505062000483565b5f80fd5b5f73ffffffffffffffffffffffffffffffffffffffff82169050919050565b5f620002e682620002bb565b9050919050565b620002f881620002da565b811462000303575f80fd5b50565b5f815190506200031681620002ed565b92915050565b5f819050919050565b62000330816200031c565b81146200033b575f80fd5b50565b5f815190506200034e8162000325565b92915050565b5f805f80608085870312156200036f576200036e620002b7565b5b5f6200037e8782880162000306565b945050602062000391878288016200033e565b9350506040620003a4878288016200033e565b9250506060620003b7878288016200033e565b91505092959194509250565b5f60208284031215620003db57620003da620002b7565b5b5f620003ea848285016200033e565b91505092915050565b7f4e487b71000000000000000000000000000000000000000000000000000000005f52601260045260245ffd5b5f6200042c826200031c565b915062000439836200031c565b9250826200044c576200044b620003f3565b5b828204905092915050565b6200046281620002da565b82525050565b5f6020820190506200047d5f83018462000457565b92915050565b610b4080620004915f395ff3fe608060405260043610610085575f3560e01c806371ca337d1161005857806371ca337d146101435780638da5cb5b1461016d578063a035b1fe14610197578063cf309012146101c1578063e420264a146101eb57610085565b806303f2d8fe14610089578063186f0354146100b35780631ff3cc52146100dd57806342cde4e814610119575b5f80fd5b348015610094575f80fd5b5061009d61021b565b6040516100aa9190610739565b60405180910390f35b3480156100be575f80fd5b506100c7610240565b6040516100d4919061076c565b60405180910390f35b3480156100e8575f80fd5b5061010360048036038101906100fe91906107b3565b610252565b60405161011091906107f6565b60405180910390f35b348015610124575f80fd5b5061012d610298565b60405161013a91906107f6565b60405180910390f35b34801561014e575f80fd5b5061015761029e565b60405161016491906107f6565b60405180910390f35b348015610178575f80fd5b506101816102a4565b60405161018e9190610739565b60405180910390f35b3480156101a2575f80fd5b506101ab6102c7565b6040516101b891906107f6565b60405180910390f35b3480156101cc575f80fd5b506101d56102cd565b6040516101e2919061076c565b60405180910390f35b61020560048036038101906102009190610839565b6102e0565b604051610212919061076c565b60405180910390f35b60015f9054906101000a900473ffffffffffffffffffffffffffffffffffffffff1681565b60045f9054906101000a900460ff1681565b5f60075f8373ffffffffffffffffffffffffffffffffffffffff1673ffffffffffffffffffffffffffffffffffffffff1681526020019081526020015f20549050919050565b60055481565b60065481565b5f8054906101000a900473ffffffffffffffffffffffffffffffffffffffff1681565b60035481565b600460019054906101000a900460ff1681565b5f600460019054906101000a900460ff1615610331576040517f08c379a0000000000000000000000000000000000000000000000000000000008152600401610328906108be565b60405180910390fd5b60055460025f9054906101000a900473ffffffffffffffffffffffffffffffffffffffff1673ffffffffffffffffffffffffffffffffffffffff166370a082315f8054906101000a900473ffffffffffffffffffffffffffffffffffffffff166040518263ffffffff1660e01b81526004016103ad9190610739565b602060405180830381865afa1580156103c8573d5f803e3d5ffd5b505050506040513d601f19601f820116820180604052508101906103ec91906108f0565b1015610402576103fa6106bf565b5f90506106ba565b5f600354836104119190610948565b9050803414610455576040517f08c379a000000000000000000000000000000000000000000000000000000000815260040161044c906109d3565b60405180910390fd5b8260025f9054906101000a900473ffffffffffffffffffffffffffffffffffffffff1673ffffffffffffffffffffffffffffffffffffffff1663dd62ed3e5f8054906101000a900473ffffffffffffffffffffffffffffffffffffffff16306040518363ffffffff1660e01b81526004016104d19291906109f1565b602060405180830381865afa1580156104ec573d5f803e3d5ffd5b505050506040513d601f19601f8201168201806040525081019061051091906108f0565b1015610551576040517f08c379a000000000000000000000000000000000000000000000000000000000815260040161054890610a62565b60405180910390fd5b60025f9054906101000a900473ffffffffffffffffffffffffffffffffffffffff1673ffffffffffffffffffffffffffffffffffffffff166323b872dd5f8054906101000a900473ffffffffffffffffffffffffffffffffffffffff1633866040518463ffffffff1660e01b81526004016105ce93929190610a80565b6020604051808303815f875af11580156105ea573d5f803e3d5ffd5b505050506040513d601f19601f8201168201806040525081019061060e9190610adf565b505f8054906101000a900473ffffffffffffffffffffffffffffffffffffffff1673ffffffffffffffffffffffffffffffffffffffff166108fc3490811502906040515f60405180830381858888f19350505050158015610671573d5f803e3d5ffd5b508260075f3373ffffffffffffffffffffffffffffffffffffffff1673ffffffffffffffffffffffffffffffffffffffff1681526020019081526020015f208190555060019150505b919050565b600460019054906101000a900460ff16156106dd576106dc6106bf565b5b6001600460016101000a81548160ff021916908315150217905550565b5f73ffffffffffffffffffffffffffffffffffffffff82169050919050565b5f610723826106fa565b9050919050565b61073381610719565b82525050565b5f60208201905061074c5f83018461072a565b92915050565b5f8115159050919050565b61076681610752565b82525050565b5f60208201905061077f5f83018461075d565b92915050565b5f80fd5b61079281610719565b811461079c575f80fd5b50565b5f813590506107ad81610789565b92915050565b5f602082840312156107c8576107c7610785565b5b5f6107d58482850161079f565b91505092915050565b5f819050919050565b6107f0816107de565b82525050565b5f6020820190506108095f8301846107e7565b92915050565b610818816107de565b8114610822575f80fd5b50565b5f813590506108338161080f565b92915050565b5f6020828403121561084e5761084d610785565b5b5f61085b84828501610825565b91505092915050565b5f82825260208201905092915050565b7f4c6f636b650000000000000000000000000000000000000000000000000000005f82015250565b5f6108a8600583610864565b91506108b382610874565b602082019050919050565b5f6020820190508181035f8301526108d58161089c565b9050919050565b5f815190506108ea8161080f565b92915050565b5f6020828403121561090557610904610785565b5b5f610912848285016108dc565b91505092915050565b7f4e487b71000000000000000000000000000000000000000000000000000000005f52601160045260245ffd5b5f610952826107de565b915061095d836107de565b925082820261096b816107de565b915082820484148315176109825761098161091b565b5b5092915050565b7f70726963650000000000000000000000000000000000000000000000000000005f82015250565b5f6109bd600583610864565b91506109c882610989565b602082019050919050565b5f6020820190508181035f8301526109ea816109b1565b9050919050565b5f604082019050610a045f83018561072a565b610a11602083018461072a565b9392505050565b7f616c6c6f77616e636500000000000000000000000000000000000000000000005f82015250565b5f610a4c600983610864565b9150610a5782610a18565b602082019050919050565b5f6020820190508181035f830152610a7981610a40565b9050919050565b5f606082019050610a935f83018661072a565b610aa0602083018561072a565b610aad60408301846107e7565b949350505050565b610abe81610752565b8114610ac8575f80fd5b50565b5f81519050610ad981610ab5565b92915050565b5f60208284031215610af457610af3610785565b5b5f610b0184828501610acb565b9150509291505056fea264697066735822122073b9b5d392bede6d12959cd08f29a3cf432f7ee7eca59979b2d8a7ac6d47afb464736f6c63430008140033",
  "immutableReferences": {},
  "source": "// SPDX-License-Identifier: BUSL-1.1\npragma solidity >= \"0.8.20\";\nimport \"./gitarg.sol\";\n\ncontract gitar {\n  address public owner;\n  address public _gitarg;\n  gitarg private Gitarg;\n  uint public price;\n  bool public safe = false;\n  bool public locked = false;\n  uint public threshold;\n  uint public ratio;\n\n  mapping(address => uint) purchaser;\n  // REVIEW - accept any erc 20 token with interface in future version? \n  constructor (address gitarg_, uint _price, uint _threshold, uint _ratio) {\n    ratio = _ratio;\n    Gitarg = gitarg(gitarg_);\n    if (ratio < 3) safe = true;\n    require(Gitarg.balanceOf(msg.sender) >= Gitarg.totalSupply() / ratio);\n    owner = msg.sender;\n    _gitarg = gitarg_;\n    price = _price;\n    threshold = _threshold;\n  }\n  function lock () private {\n    if (locked) lock();\n    locked = true;\n  }\n  function g (uint tar) public payable returns (bool) {\n    //require(locked == false, \"Locke\");\n    require(!locked, \"Locke\"); \n    if (Gitarg.balanceOf(owner) < threshold) {\n      lock();\n      return false;\n    }\n    uint targit = tar * price;\n    require(msg.value == targit, \"price\");\n    // TODO - tag version that pulls in full allowance even greater than tar.\n    // TODO - tag version that allowance less than a threshold creates gg alert to rig.\n    require(Gitarg.allowance(owner, address(this)) >= tar, \"allowance\");\n\n    Gitarg.transferFrom(owner, msg.sender, tar);\n    payable(owner).transfer(msg.value);\n    //purchaser[msg.sender] += tar; // issue with initialization, copy var?\n    //value identity force\n    purchaser[msg.sender] = tar; // design choice? Per purchase for contract collator\n    return true;\n  }\n  function gg (address _purchaser) public view returns (uint) {\n    return purchaser[_purchaser];\n  }\n}\n",
  "sourcePath": "/home/gitarg/gitarg/solidity_ico/contracts/gitar.sol",
  "compiler": {
    "name": "solc",
    "version": "0.8.20+commit.a1b79de6.Emscripten.clang"
  },
  "schemaVersion": "3.4.16",
  "updatedAt": "2024-02-26T21:52:38.903Z",
  "networkType": "ethereum",
  "devdoc": {
    "kind": "dev",
    "methods": {},
    "version": 1
  },
  "userdoc": {
    "kind": "user",
    "methods": {},
    "version": 1
  }
}