{
  "contractName": "gitarray",
  "abi": [
    {
      "inputs": [
        {
          "internalType": "address[]",
          "name": "_handshakes",
          "type": "address[]"
        },
        {
          "internalType": "address",
          "name": "_owner",
          "type": "address"
        },
        {
          "internalType": "address",
          "name": "_gitarg",
          "type": "address"
        },
        {
          "internalType": "address",
          "name": "_giteta",
          "type": "address"
        }
      ],
      "stateMutability": "nonpayable",
      "type": "constructor"
    },
    {
      "inputs": [],
      "name": "proof",
      "outputs": [
        {
          "internalType": "address",
          "name": "",
          "type": "address"
        }
      ],
      "stateMutability": "view",
      "type": "function"
    },
    {
      "inputs": [
        {
          "internalType": "address[]",
          "name": "_handshakes",
          "type": "address[]"
        },
        {
          "internalType": "string",
          "name": "_name",
          "type": "string"
        },
        {
          "internalType": "string",
          "name": "_url",
          "type": "string"
        },
        {
          "internalType": "address",
          "name": "_owner",
          "type": "address"
        },
        {
          "internalType": "address",
          "name": "_argctl",
          "type": "address"
        }
      ],
      "name": "repo",
      "outputs": [
        {
          "internalType": "uint256",
          "name": "",
          "type": "uint256"
        }
      ],
      "stateMutability": "nonpayable",
      "type": "function"
    },
    {
      "inputs": [
        {
          "internalType": "address",
          "name": "_org",
          "type": "address"
        }
      ],
      "name": "ctl",
      "outputs": [],
      "stateMutability": "nonpayable",
      "type": "function"
    },
    {
      "inputs": [],
      "name": "ctl",
      "outputs": [
        {
          "internalType": "bool",
          "name": "",
          "type": "bool"
        }
      ],
      "stateMutability": "nonpayable",
      "type": "function"
    },
    {
      "inputs": [],
      "name": "org",
      "outputs": [
        {
          "internalType": "bool",
          "name": "",
          "type": "bool"
        }
      ],
      "stateMutability": "nonpayable",
      "type": "function"
    },
    {
      "inputs": [],
      "name": "tar",
      "outputs": [],
      "stateMutability": "nonpayable",
      "type": "function"
    },
    {
      "inputs": [],
      "name": "git",
      "outputs": [],
      "stateMutability": "nonpayable",
      "type": "function"
    },
    {
      "inputs": [],
      "name": "down",
      "outputs": [],
      "stateMutability": "nonpayable",
      "type": "function"
    }
  ],
  "bytecode": "0x608060405234801562000010575f80fd5b5060405162008a5b38038062008a5b83398181016040528101906200003691906200044d565b8160085f6101000a81548173ffffffffffffffffffffffffffffffffffffffff021916908373ffffffffffffffffffffffffffffffffffffffff16021790555080600b5f6101000a81548173ffffffffffffffffffffffffffffffffffffffff021916908373ffffffffffffffffffffffffffffffffffffffff1602179055508351600281905550335f806101000a81548173ffffffffffffffffffffffffffffffffffffffff021916908373ffffffffffffffffffffffffffffffffffffffff1602179055508260015f6101000a81548173ffffffffffffffffffffffffffffffffffffffff021916908373ffffffffffffffffffffffffffffffffffffffff16021790555083836002546001604051620001529062000261565b620001619493929190620005e9565b604051809103905ff0801580156200017b573d5f803e3d5ffd5b5060045f6101000a81548173ffffffffffffffffffffffffffffffffffffffff021916908373ffffffffffffffffffffffffffffffffffffffff16021790555060045f9054906101000a900473ffffffffffffffffffffffffffffffffffffffff1660035f3373ffffffffffffffffffffffffffffffffffffffff1673ffffffffffffffffffffffffffffffffffffffff1681526020019081526020015f205f6101000a81548173ffffffffffffffffffffffffffffffffffffffff021916908373ffffffffffffffffffffffffffffffffffffffff160217905550505050506200063b565b611f5a8062006b0183390190565b5f604051905090565b5f80fd5b5f80fd5b5f80fd5b5f601f19601f8301169050919050565b7f4e487b71000000000000000000000000000000000000000000000000000000005f52604160045260245ffd5b620002cc8262000284565b810181811067ffffffffffffffff82111715620002ee57620002ed62000294565b5b80604052505050565b5f620003026200026f565b9050620003108282620002c1565b919050565b5f67ffffffffffffffff82111562000332576200033162000294565b5b602082029050602081019050919050565b5f80fd5b5f73ffffffffffffffffffffffffffffffffffffffff82169050919050565b5f620003728262000347565b9050919050565b620003848162000366565b81146200038f575f80fd5b50565b5f81519050620003a28162000379565b92915050565b5f620003be620003b88462000315565b620002f7565b90508083825260208201905060208402830185811115620003e457620003e362000343565b5b835b81811015620004115780620003fc888262000392565b845260208401935050602081019050620003e6565b5050509392505050565b5f82601f83011262000432576200043162000280565b5b815162000444848260208601620003a8565b91505092915050565b5f805f806080858703121562000468576200046762000278565b5b5f85015167ffffffffffffffff8111156200048857620004876200027c565b5b62000496878288016200041b565b9450506020620004a98782880162000392565b9350506040620004bc8782880162000392565b9250506060620004cf8782880162000392565b91505092959194509250565b5f81519050919050565b5f82825260208201905092915050565b5f819050602082019050919050565b6200050f8162000366565b82525050565b5f62000522838362000504565b60208301905092915050565b5f602082019050919050565b5f6200054682620004db565b620005528185620004e5565b93506200055f83620004f5565b805f5b838110156200059557815162000579888262000515565b975062000586836200052e565b92505060018101905062000562565b5085935050505092915050565b620005ad8162000366565b82525050565b5f819050919050565b620005c781620005b3565b82525050565b5f8115159050919050565b620005e381620005cd565b82525050565b5f6080820190508181035f8301526200060381876200053a565b9050620006146020830186620005a2565b620006236040830185620005bc565b620006326060830184620005d8565b95945050505050565b6164b880620006495f395ff3fe608060405234801562000010575f80fd5b506004361062000092575f3560e01c8063cc1e2cb01162000061578063cc1e2cb014620000f0578063d83379281462000112578063e770fdef146200011e578063faf924cf14620001545762000092565b80630b97796014620000965780631328182b14620000b65780636f93f50614620000d85780638d2d285e14620000e4575b5f80fd5b620000b46004803603810190620000ae919062000913565b62000176565b005b620000c06200035f565b604051620000cf91906200095f565b60405180910390f35b620000e262000367565b005b620000ee62000369565b005b620000fa6200036b565b6040516200010991906200095f565b60405180910390f35b6200011c620003ee565b005b6200013c600480360381019062000136919062000ba9565b620003f0565b6040516200014b919062000ca4565b60405180910390f35b6200015e6200076f565b6040516200016d919062000cd0565b60405180910390f35b60015f9054906101000a900473ffffffffffffffffffffffffffffffffffffffff1673ffffffffffffffffffffffffffffffffffffffff163373ffffffffffffffffffffffffffffffffffffffff161462000208576040517f08c379a0000000000000000000000000000000000000000000000000000000008152600401620001ff9062000d49565b60405180910390fd5b60035f3373ffffffffffffffffffffffffffffffffffffffff1673ffffffffffffffffffffffffffffffffffffffff1681526020019081526020015f205f9054906101000a900473ffffffffffffffffffffffffffffffffffffffff1660095f8373ffffffffffffffffffffffffffffffffffffffff1673ffffffffffffffffffffffffffffffffffffffff1681526020019081526020015f205f9054906101000a900473ffffffffffffffffffffffffffffffffffffffff1660085f9054906101000a900473ffffffffffffffffffffffffffffffffffffffff1630604051620002f39062000877565b62000302949392919062000d69565b604051809103905ff0801580156200031c573d5f803e3d5ffd5b50600a5f6101000a81548173ffffffffffffffffffffffffffffffffffffffff021916908373ffffffffffffffffffffffffffffffffffffffff16021790555050565b5f6001905090565b565b565b5f3360095f3373ffffffffffffffffffffffffffffffffffffffff1673ffffffffffffffffffffffffffffffffffffffff1681526020019081526020015f205f6101000a81548173ffffffffffffffffffffffffffffffffffffffff021916908373ffffffffffffffffffffffffffffffffffffffff1602179055506001905090565b565b5f8060065f73__gitorg________________________________6368d54aa7886040518263ffffffff1660e01b81526004016200042e919062000e38565b602060405180830381865af41580156200044a573d5f803e3d5ffd5b505050506040513d601f19601f8201168201806040525081019062000470919062000e92565b81526020019081526020015f205490505f8114620004c5576040517f08c379a0000000000000000000000000000000000000000000000000000000008152600401620004bc9062000f10565b60405180910390fd5b5f86868660085f9054906101000a900473ffffffffffffffffffffffffffffffffffffffff1630604051620004fa9062000885565b6200050a95949392919062000f70565b604051809103905ff08015801562000524573d5f803e3d5ffd5b5090505f888660025460016040516200053d9062000893565b6200054c9493929190620010a0565b604051809103905ff08015801562000566573d5f803e3d5ffd5b5090508160055f3373ffffffffffffffffffffffffffffffffffffffff1673ffffffffffffffffffffffffffffffffffffffff1681526020019081526020015f205f6101000a81548173ffffffffffffffffffffffffffffffffffffffff021916908373ffffffffffffffffffffffffffffffffffffffff1602179055505f8590508073ffffffffffffffffffffffffffffffffffffffff16631aaf972d84846040518363ffffffff1660e01b815260040162000625929190620010f2565b5f604051808303815f87803b1580156200063d575f80fd5b505af115801562000650573d5f803e3d5ffd5b505050508160035f8573ffffffffffffffffffffffffffffffffffffffff1673ffffffffffffffffffffffffffffffffffffffff1681526020019081526020015f205f6101000a81548173ffffffffffffffffffffffffffffffffffffffff021916908373ffffffffffffffffffffffffffffffffffffffff1602179055504260065f73__gitorg________________________________6368d54aa78c6040518263ffffffff1660e01b81526004016200070c919062000e38565b602060405180830381865af415801562000728573d5f803e3d5ffd5b505050506040513d601f19601f820116820180604052508101906200074e919062000e92565b81526020019081526020015f20819055504294505050505095945050505050565b5f60045f9054906101000a900473ffffffffffffffffffffffffffffffffffffffff1673ffffffffffffffffffffffffffffffffffffffff166316395120336040518263ffffffff1660e01b8152600401620007cc919062000cd0565b602060405180830381865afa158015620007e8573d5f803e3d5ffd5b505050506040513d601f19601f820116820180604052508101906200080e91906200114c565b62000850576040517f08c379a00000000000000000000000000000000000000000000000000000000081526004016200084790620011ca565b60405180910390fd5b60085f9054906101000a900473ffffffffffffffffffffffffffffffffffffffff16905090565b610d3c80620011eb83390190565b6126028062001f2783390190565b611f5a806200452983390190565b5f604051905090565b5f80fd5b5f80fd5b5f73ffffffffffffffffffffffffffffffffffffffff82169050919050565b5f620008dd82620008b2565b9050919050565b620008ef81620008d1565b8114620008fa575f80fd5b50565b5f813590506200090d81620008e4565b92915050565b5f602082840312156200092b576200092a620008aa565b5b5f6200093a84828501620008fd565b91505092915050565b5f8115159050919050565b620009598162000943565b82525050565b5f602082019050620009745f8301846200094e565b92915050565b5f80fd5b5f601f19601f8301169050919050565b7f4e487b71000000000000000000000000000000000000000000000000000000005f52604160045260245ffd5b620009c6826200097e565b810181811067ffffffffffffffff82111715620009e857620009e76200098e565b5b80604052505050565b5f620009fc620008a1565b905062000a0a8282620009bb565b919050565b5f67ffffffffffffffff82111562000a2c5762000a2b6200098e565b5b602082029050602081019050919050565b5f80fd5b5f62000a5762000a518462000a0f565b620009f1565b9050808382526020820190506020840283018581111562000a7d5762000a7c62000a3d565b5b835b8181101562000aaa578062000a958882620008fd565b84526020840193505060208101905062000a7f565b5050509392505050565b5f82601f83011262000acb5762000aca6200097a565b5b813562000add84826020860162000a41565b91505092915050565b5f80fd5b5f67ffffffffffffffff82111562000b075762000b066200098e565b5b62000b12826200097e565b9050602081019050919050565b828183375f83830152505050565b5f62000b4362000b3d8462000aea565b620009f1565b90508281526020810184848401111562000b625762000b6162000ae6565b5b62000b6f84828562000b1f565b509392505050565b5f82601f83011262000b8e5762000b8d6200097a565b5b813562000ba084826020860162000b2d565b91505092915050565b5f805f805f60a0868803121562000bc55762000bc4620008aa565b5b5f86013567ffffffffffffffff81111562000be55762000be4620008ae565b5b62000bf38882890162000ab4565b955050602086013567ffffffffffffffff81111562000c175762000c16620008ae565b5b62000c258882890162000b77565b945050604086013567ffffffffffffffff81111562000c495762000c48620008ae565b5b62000c578882890162000b77565b935050606062000c6a88828901620008fd565b925050608062000c7d88828901620008fd565b9150509295509295909350565b5f819050919050565b62000c9e8162000c8a565b82525050565b5f60208201905062000cb95f83018462000c93565b92915050565b62000cca81620008d1565b82525050565b5f60208201905062000ce55f83018462000cbf565b92915050565b5f82825260208201905092915050565b7f6f776e00000000000000000000000000000000000000000000000000000000005f82015250565b5f62000d3160038362000ceb565b915062000d3e8262000cfb565b602082019050919050565b5f6020820190508181035f83015262000d628162000d23565b9050919050565b5f60808201905062000d7e5f83018762000cbf565b62000d8d602083018662000cbf565b62000d9c604083018562000cbf565b62000dab606083018462000cbf565b95945050505050565b5f81519050919050565b5f82825260208201905092915050565b5f5b8381101562000ded57808201518184015260208101905062000dd0565b5f8484015250505050565b5f62000e048262000db4565b62000e10818562000dbe565b935062000e2281856020860162000dce565b62000e2d816200097e565b840191505092915050565b5f6020820190508181035f83015262000e52818462000df8565b905092915050565b5f819050919050565b62000e6e8162000e5a565b811462000e79575f80fd5b50565b5f8151905062000e8c8162000e63565b92915050565b5f6020828403121562000eaa5762000ea9620008aa565b5b5f62000eb98482850162000e7c565b91505092915050565b7f7265706f206e6f7420756e6971756500000000000000000000000000000000005f82015250565b5f62000ef8600f8362000ceb565b915062000f058262000ec2565b602082019050919050565b5f6020820190508181035f83015262000f298162000eea565b9050919050565b5f62000f3c8262000db4565b62000f48818562000ceb565b935062000f5a81856020860162000dce565b62000f65816200097e565b840191505092915050565b5f60a0820190508181035f83015262000f8a818862000f30565b9050818103602083015262000fa0818762000f30565b905062000fb1604083018662000cbf565b62000fc0606083018562000cbf565b62000fcf608083018462000cbf565b9695505050505050565b5f81519050919050565b5f82825260208201905092915050565b5f819050602082019050919050565b6200100d81620008d1565b82525050565b5f62001020838362001002565b60208301905092915050565b5f602082019050919050565b5f620010448262000fd9565b62001050818562000fe3565b93506200105d8362000ff3565b805f5b838110156200109357815162001077888262001013565b975062001084836200102c565b92505060018101905062001060565b5085935050505092915050565b5f6080820190508181035f830152620010ba818762001038565b9050620010cb602083018662000cbf565b620010da604083018562000c93565b620010e960608301846200094e565b95945050505050565b5f604082019050620011075f83018562000cbf565b62001116602083018462000cbf565b9392505050565b620011288162000943565b811462001133575f80fd5b50565b5f8151905062001146816200111d565b92915050565b5f60208284031215620011645762001163620008aa565b5b5f620011738482850162001136565b91505092915050565b7f626c756666616c6f0000000000000000000000000000000000000000000000005f82015250565b5f620011b260088362000ceb565b9150620011bf826200117c565b602082019050919050565b5f6020820190508181035f830152620011e381620011a4565b905091905056fe608060405234801562000010575f80fd5b5060405162000d3c38038062000d3c8339818101604052810190620000369190620002b7565b8160025f6101000a81548173ffffffffffffffffffffffffffffffffffffffff021916908373ffffffffffffffffffffffffffffffffffffffff160217905550825f806101000a81548173ffffffffffffffffffffffffffffffffffffffff021916908373ffffffffffffffffffffffffffffffffffffffff1602179055508260015f6101000a81548173ffffffffffffffffffffffffffffffffffffffff021916908373ffffffffffffffffffffffffffffffffffffffff1602179055508360035f6101000a81548173ffffffffffffffffffffffffffffffffffffffff021916908373ffffffffffffffffffffffffffffffffffffffff1602179055508360045f6101000a81548173ffffffffffffffffffffffffffffffffffffffff021916908373ffffffffffffffffffffffffffffffffffffffff1602179055508060055f6101000a81548173ffffffffffffffffffffffffffffffffffffffff021916908373ffffffffffffffffffffffffffffffffffffffff16021790555060055f9054906101000a900473ffffffffffffffffffffffffffffffffffffffff1673ffffffffffffffffffffffffffffffffffffffff16631328182b6040518163ffffffff1660e01b81526004016020604051808303815f875af115801562000221573d5f803e3d5ffd5b505050506040513d601f19601f8201168201806040525081019062000247919062000360565b505050505062000390565b5f80fd5b5f73ffffffffffffffffffffffffffffffffffffffff82169050919050565b5f620002818262000256565b9050919050565b620002938162000275565b81146200029e575f80fd5b50565b5f81519050620002b18162000288565b92915050565b5f805f8060808587031215620002d257620002d162000252565b5b5f620002e187828801620002a1565b9450506020620002f487828801620002a1565b93505060406200030787828801620002a1565b92505060606200031a87828801620002a1565b91505092959194509250565b5f8115159050919050565b6200033c8162000326565b811462000347575f80fd5b50565b5f815190506200035a8162000331565b92915050565b5f6020828403121562000378576200037762000252565b5b5f62000387848285016200034a565b91505092915050565b61099e806200039e5f395ff3fe608060405234801561000f575f80fd5b5060043610610055575f3560e01c806303f2d8fe146100595780631aaf972d1461007757806322bb79d0146100935780638ed0f737146100c3578063faf924cf146100f3575b5f80fd5b610061610111565b60405161006e919061051c565b60405180910390f35b610091600480360381019061008c9190610570565b610136565b005b6100ad60048036038101906100a891906106ea565b6102a7565b6040516100ba91906107ba565b60405180910390f35b6100dd60048036038101906100d891906107fd565b6103d5565b6040516100ea91906107ba565b60405180910390f35b6100fb6103df565b604051610108919061051c565b60405180910390f35b60025f9054906101000a900473ffffffffffffffffffffffffffffffffffffffff1681565b60405180606001604052808373ffffffffffffffffffffffffffffffffffffffff1681526020013373ffffffffffffffffffffffffffffffffffffffff1681526020018273ffffffffffffffffffffffffffffffffffffffff1681525060075f8473ffffffffffffffffffffffffffffffffffffffff1673ffffffffffffffffffffffffffffffffffffffff1681526020019081526020015f205f820151815f015f6101000a81548173ffffffffffffffffffffffffffffffffffffffff021916908373ffffffffffffffffffffffffffffffffffffffff1602179055506020820151816001015f6101000a81548173ffffffffffffffffffffffffffffffffffffffff021916908373ffffffffffffffffffffffffffffffffffffffff1602179055506040820151816002015f6101000a81548173ffffffffffffffffffffffffffffffffffffffff021916908373ffffffffffffffffffffffffffffffffffffffff1602179055509050505050565b5f8060075f8773ffffffffffffffffffffffffffffffffffffffff1673ffffffffffffffffffffffffffffffffffffffff1681526020019081526020015f206002015f9054906101000a900473ffffffffffffffffffffffffffffffffffffffff1690505f8690505f8273ffffffffffffffffffffffffffffffffffffffff166316395120336040518263ffffffff1660e01b8152600401610349919061051c565b602060405180830381865afa158015610364573d5f803e3d5ffd5b505050506040513d601f19601f82011682018060405250810190610388919061085d565b9050806103ca576040517f08c379a00000000000000000000000000000000000000000000000000000000081526004016103c1906108e2565b60405180910390fd5b505050949350505050565b5f60019050919050565b5f60045f9054906101000a900473ffffffffffffffffffffffffffffffffffffffff1673ffffffffffffffffffffffffffffffffffffffff166316395120336040518263ffffffff1660e01b815260040161043a919061051c565b602060405180830381865afa158015610455573d5f803e3d5ffd5b505050506040513d601f19601f82011682018060405250810190610479919061085d565b6104b8576040517f08c379a00000000000000000000000000000000000000000000000000000000081526004016104af9061094a565b60405180910390fd5b5f8054906101000a900473ffffffffffffffffffffffffffffffffffffffff16905090565b5f73ffffffffffffffffffffffffffffffffffffffff82169050919050565b5f610506826104dd565b9050919050565b610516816104fc565b82525050565b5f60208201905061052f5f83018461050d565b92915050565b5f604051905090565b5f80fd5b5f80fd5b61054f816104fc565b8114610559575f80fd5b50565b5f8135905061056a81610546565b92915050565b5f80604083850312156105865761058561053e565b5b5f6105938582860161055c565b92505060206105a48582860161055c565b9150509250929050565b5f80fd5b5f80fd5b5f601f19601f8301169050919050565b7f4e487b71000000000000000000000000000000000000000000000000000000005f52604160045260245ffd5b6105fc826105b6565b810181811067ffffffffffffffff8211171561061b5761061a6105c6565b5b80604052505050565b5f61062d610535565b905061063982826105f3565b919050565b5f67ffffffffffffffff821115610658576106576105c6565b5b610661826105b6565b9050602081019050919050565b828183375f83830152505050565b5f61068e6106898461063e565b610624565b9050828152602081018484840111156106aa576106a96105b2565b5b6106b584828561066e565b509392505050565b5f82601f8301126106d1576106d06105ae565b5b81356106e184826020860161067c565b91505092915050565b5f805f80608085870312156107025761070161053e565b5b5f61070f8782880161055c565b945050602085013567ffffffffffffffff8111156107305761072f610542565b5b61073c878288016106bd565b935050604085013567ffffffffffffffff81111561075d5761075c610542565b5b610769878288016106bd565b925050606085013567ffffffffffffffff81111561078a57610789610542565b5b610796878288016106bd565b91505092959194509250565b5f819050919050565b6107b4816107a2565b82525050565b5f6020820190506107cd5f8301846107ab565b92915050565b6107dc816107a2565b81146107e6575f80fd5b50565b5f813590506107f7816107d3565b92915050565b5f602082840312156108125761081161053e565b5b5f61081f848285016107e9565b91505092915050565b5f8115159050919050565b61083c81610828565b8114610846575f80fd5b50565b5f8151905061085781610833565b92915050565b5f602082840312156108725761087161053e565b5b5f61087f84828501610849565b91505092915050565b5f82825260208201905092915050565b7f6d73672e73656e646572206973206e6f7420612068616e647368616b650000005f82015250565b5f6108cc601d83610888565b91506108d782610898565b602082019050919050565b5f6020820190508181035f8301526108f9816108c0565b9050919050565b7f64656665720000000000000000000000000000000000000000000000000000005f82015250565b5f610934600583610888565b915061093f82610900565b602082019050919050565b5f6020820190508181035f83015261096181610928565b905091905056fea2646970667358221220cf347cf36ea49c9ca7a1a40fcdae19a5e6e9181ace4188557edca889090551ec64736f6c63430008140033608060405260405162002602380380620026028339818101604052810190620000299190620004ce565b3373ffffffffffffffffffffffffffffffffffffffff168173ffffffffffffffffffffffffffffffffffffffff161462000079576001600b60146101000a81548160ff0219169083151502179055505b33600b5f6101000a81548173ffffffffffffffffffffffffffffffffffffffff021916908373ffffffffffffffffffffffffffffffffffffffff160217905550845f9081620000c99190620007c7565b508360019081620000db9190620007c7565b508260025f6101000a81548173ffffffffffffffffffffffffffffffffffffffff021916908373ffffffffffffffffffffffffffffffffffffffff1602179055503360045f6101000a81548173ffffffffffffffffffffffffffffffffffffffff021916908373ffffffffffffffffffffffffffffffffffffffff1602179055508160055f6101000a81548173ffffffffffffffffffffffffffffffffffffffff021916908373ffffffffffffffffffffffffffffffffffffffff1602179055503460088190555042600c5f3373ffffffffffffffffffffffffffffffffffffffff1673ffffffffffffffffffffffffffffffffffffffff1681526020019081526020015f208190555042600c5f8573ffffffffffffffffffffffffffffffffffffffff1673ffffffffffffffffffffffffffffffffffffffff1681526020019081526020015f208190555042600c5f600b5f9054906101000a900473ffffffffffffffffffffffffffffffffffffffff1673ffffffffffffffffffffffffffffffffffffffff1673ffffffffffffffffffffffffffffffffffffffff1681526020019081526020015f2081905550600360014233604051602001620002a493929190620009b2565b60405160208183030381529060405280519060200120908060018154018082558091505060019003905f5260205f20015f90919091909150555050505050620009f0565b5f604051905090565b5f80fd5b5f80fd5b5f80fd5b5f80fd5b5f601f19601f8301169050919050565b7f4e487b71000000000000000000000000000000000000000000000000000000005f52604160045260245ffd5b620003498262000301565b810181811067ffffffffffffffff821117156200036b576200036a62000311565b5b80604052505050565b5f6200037f620002e8565b90506200038d82826200033e565b919050565b5f67ffffffffffffffff821115620003af57620003ae62000311565b5b620003ba8262000301565b9050602081019050919050565b5f5b83811015620003e6578082015181840152602081019050620003c9565b5f8484015250505050565b5f62000407620004018462000392565b62000374565b905082815260208101848484011115620004265762000425620002fd565b5b62000433848285620003c7565b509392505050565b5f82601f830112620004525762000451620002f9565b5b815162000464848260208601620003f1565b91505092915050565b5f73ffffffffffffffffffffffffffffffffffffffff82169050919050565b5f62000498826200046d565b9050919050565b620004aa816200048c565b8114620004b5575f80fd5b50565b5f81519050620004c8816200049f565b92915050565b5f805f805f60a08688031215620004ea57620004e9620002f1565b5b5f86015167ffffffffffffffff8111156200050a5762000509620002f5565b5b62000518888289016200043b565b955050602086015167ffffffffffffffff8111156200053c576200053b620002f5565b5b6200054a888289016200043b565b94505060406200055d88828901620004b8565b93505060606200057088828901620004b8565b92505060806200058388828901620004b8565b9150509295509295909350565b5f81519050919050565b7f4e487b71000000000000000000000000000000000000000000000000000000005f52602260045260245ffd5b5f6002820490506001821680620005df57607f821691505b602082108103620005f557620005f46200059a565b5b50919050565b5f819050815f5260205f209050919050565b5f6020601f8301049050919050565b5f82821b905092915050565b5f60088302620006597fffffffffffffffffffffffffffffffffffffffffffffffffffffffffffffffff826200061c565b6200066586836200061c565b95508019841693508086168417925050509392505050565b5f819050919050565b5f819050919050565b5f620006af620006a9620006a3846200067d565b62000686565b6200067d565b9050919050565b5f819050919050565b620006ca836200068f565b620006e2620006d982620006b6565b84845462000628565b825550505050565b5f90565b620006f8620006ea565b62000705818484620006bf565b505050565b5b818110156200072c57620007205f82620006ee565b6001810190506200070b565b5050565b601f8211156200077b576200074581620005fb565b62000750846200060d565b8101602085101562000760578190505b620007786200076f856200060d565b8301826200070a565b50505b505050565b5f82821c905092915050565b5f6200079d5f198460080262000780565b1980831691505092915050565b5f620007b783836200078c565b9150826002028217905092915050565b620007d28262000590565b67ffffffffffffffff811115620007ee57620007ed62000311565b5b620007fa8254620005c7565b6200080782828562000730565b5f60209050601f8311600181146200083d575f841562000828578287015190505b620008348582620007aa565b865550620008a3565b601f1984166200084d86620005fb565b5f5b8281101562000876578489015182556001820191506020850194506020810190506200084f565b8683101562000896578489015162000892601f8916826200078c565b8355505b6001600288020188555050505b505050505050565b5f81905092915050565b5f8154620008c381620005c7565b620008cf8186620008ab565b9450600182165f8114620008ec5760018114620009025762000938565b60ff198316865281151582028601935062000938565b6200090d85620005fb565b5f5b8381101562000930578154818901526001820191506020810190506200090f565b838801955050505b50505092915050565b5f819050919050565b6200095f62000959826200067d565b62000941565b82525050565b5f8160601b9050919050565b5f6200097d8262000965565b9050919050565b5f620009908262000971565b9050919050565b620009ac620009a6826200048c565b62000984565b82525050565b5f620009bf8286620008b5565b9150620009cd82856200094a565b602082019150620009df828462000997565b601482019150819050949350505050565b611c0480620009fe5f395ff3fe6080604052600436106100f2575f3560e01c8063bb82717b11610089578063ed5f07d911610058578063ed5f07d914610338578063f63c82fb14610360578063fc735e991461039c578063ff9913e8146103c6576100f2565b8063bb82717b1461025c578063c05a911c14610298578063d63a8e11146102d4578063e1f21c6714610310576100f2565b80635600f04f116100c55780635600f04f146101905780638da5cb5b146101ba57806395540b26146101e4578063a1f7d4c714610220576100f2565b806306fdde03146100f65780633fa4f245146101205780634ae4aefd1461014a5780634f2be91f14610186575b5f80fd5b348015610101575f80fd5b5061010a6103ee565b6040516101179190611192565b60405180910390f35b34801561012b575f80fd5b50610134610479565b60405161014191906111ca565b60405180910390f35b348015610155575f80fd5b50610170600480360381019061016b919061124e565b61047f565b60405161017d91906111ca565b60405180910390f35b61018e610581565b005b34801561019b575f80fd5b506101a4610693565b6040516101b19190611192565b60405180910390f35b3480156101c5575f80fd5b506101ce61071f565b6040516101db9190611288565b60405180910390f35b3480156101ef575f80fd5b5061020a600480360381019061020591906113f7565b610744565b6040516102179190611469565b60405180910390f35b34801561022b575f80fd5b50610246600480360381019061024191906114bd565b610870565b6040516102539190611469565b60405180910390f35b348015610267575f80fd5b50610282600480360381019061027d9190611536565b610a1d565b60405161028f91906111ca565b60405180910390f35b3480156102a3575f80fd5b506102be60048036038101906102b99190611574565b610b02565b6040516102cb9190611469565b60405180910390f35b3480156102df575f80fd5b506102fa60048036038101906102f5919061124e565b610c1f565b60405161030791906111ca565b60405180910390f35b34801561031b575f80fd5b506103366004803603810190610331919061159f565b610c34565b005b348015610343575f80fd5b5061035e60048036038101906103599190611624565b610d76565b005b34801561036b575f80fd5b5061038660048036038101906103819190611662565b610e95565b60405161039391906111ca565b60405180910390f35b3480156103a7575f80fd5b506103b0611030565b6040516103bd91906116b8565b60405180910390f35b3480156103d1575f80fd5b506103ec60048036038101906103e7919061124e565b611034565b005b5f80546103fa906116fe565b80601f0160208091040260200160405190810160405280929190818152602001828054610426906116fe565b80156104715780601f1061044857610100808354040283529160200191610471565b820191905f5260205f20905b81548152906001019060200180831161045457829003601f168201915b505050505081565b60085481565b5f600d5f3373ffffffffffffffffffffffffffffffffffffffff1673ffffffffffffffffffffffffffffffffffffffff1681526020019081526020015f2054600c5f3373ffffffffffffffffffffffffffffffffffffffff1673ffffffffffffffffffffffffffffffffffffffff1681526020019081526020015f20541161053c576040517f08c379a00000000000000000000000000000000000000000000000000000000081526004016105339061179e565b60405180910390fd5b60065f8373ffffffffffffffffffffffffffffffffffffffff1673ffffffffffffffffffffffffffffffffffffffff1681526020019081526020015f20549050919050565b5f60065f3373ffffffffffffffffffffffffffffffffffffffff1673ffffffffffffffffffffffffffffffffffffffff1681526020019081526020015f20540361062657600733908060018154018082558091505060019003905f5260205f20015f9091909190916101000a81548173ffffffffffffffffffffffffffffffffffffffff021916908373ffffffffffffffffffffffffffffffffffffffff1602179055505b3460065f3373ffffffffffffffffffffffffffffffffffffffff1673ffffffffffffffffffffffffffffffffffffffff1681526020019081526020015f205f82825461067291906117e9565b925050819055503460085f82825461068a91906117e9565b92505081905550565b600180546106a0906116fe565b80601f01602080910402602001604051908101604052809291908181526020018280546106cc906116fe565b80156107175780601f106106ee57610100808354040283529160200191610717565b820191905f5260205f20905b8154815290600101906020018083116106fa57829003601f168201915b505050505081565b60025f9054906101000a900473ffffffffffffffffffffffffffffffffffffffff1681565b5f600d5f3373ffffffffffffffffffffffffffffffffffffffff1673ffffffffffffffffffffffffffffffffffffffff1681526020019081526020015f2054600c5f3373ffffffffffffffffffffffffffffffffffffffff1673ffffffffffffffffffffffffffffffffffffffff1681526020019081526020015f205411610801576040517f08c379a00000000000000000000000000000000000000000000000000000000081526004016107f89061179e565b60405180910390fd5b5f838333604051602001610817939291906118bb565b6040516020818303038152906040528051906020012090507fa61b38417b09bc2bd845412017ff0bbba91d3aea7309c5d2e16bd4e1a125ff9a8160405161085e9190611469565b60405180910390a18091505092915050565b5f600d5f3373ffffffffffffffffffffffffffffffffffffffff1673ffffffffffffffffffffffffffffffffffffffff1681526020019081526020015f2054600c5f3373ffffffffffffffffffffffffffffffffffffffff1673ffffffffffffffffffffffffffffffffffffffff1681526020019081526020015f20541161092d576040517f08c379a00000000000000000000000000000000000000000000000000000000081526004016109249061179e565b60405180910390fd5b600b5f9054906101000a900473ffffffffffffffffffffffffffffffffffffffff1673ffffffffffffffffffffffffffffffffffffffff168373ffffffffffffffffffffffffffffffffffffffff16146109bc576040517f08c379a00000000000000000000000000000000000000000000000000000000081526004016109b390611963565b60405180910390fd5b5f600383815481106109d1576109d0611981565b5b905f5260205f20015490507fa61b38417b09bc2bd845412017ff0bbba91d3aea7309c5d2e16bd4e1a125ff9a81604051610a0b9190611469565b60405180910390a18091505092915050565b5f600983908060018154018082558091505060019003905f5260205f20015f9091909190916101000a81548173ffffffffffffffffffffffffffffffffffffffff021916908373ffffffffffffffffffffffffffffffffffffffff16021790555082600a5f8473ffffffffffffffffffffffffffffffffffffffff1673ffffffffffffffffffffffffffffffffffffffff1681526020019081526020015f205f6101000a81548173ffffffffffffffffffffffffffffffffffffffff021916908373ffffffffffffffffffffffffffffffffffffffff16021790555042905092915050565b5f600d5f3373ffffffffffffffffffffffffffffffffffffffff1673ffffffffffffffffffffffffffffffffffffffff1681526020019081526020015f2054600c5f3373ffffffffffffffffffffffffffffffffffffffff1673ffffffffffffffffffffffffffffffffffffffff1681526020019081526020015f205411610bbf576040517f08c379a0000000000000000000000000000000000000000000000000000000008152600401610bb69061179e565b60405180910390fd5b5f60038381548110610bd457610bd3611981565b5b905f5260205f20015490507fa61b38417b09bc2bd845412017ff0bbba91d3aea7309c5d2e16bd4e1a125ff9a81604051610c0e9190611469565b60405180910390a180915050919050565b600c602052805f5260405f205f915090505481565b600d5f3373ffffffffffffffffffffffffffffffffffffffff1673ffffffffffffffffffffffffffffffffffffffff1681526020019081526020015f2054600c5f3373ffffffffffffffffffffffffffffffffffffffff1673ffffffffffffffffffffffffffffffffffffffff1681526020019081526020015f205411610cf0576040517f08c379a0000000000000000000000000000000000000000000000000000000008152600401610ce79061179e565b60405180910390fd5b5f8390508073ffffffffffffffffffffffffffffffffffffffff1663095ea7b384846040518363ffffffff1660e01b8152600401610d2f929190611a09565b6020604051808303815f875af1158015610d4b573d5f803e3d5ffd5b505050506040513d601f19601f82011682018060405250810190610d6f9190611a44565b5050505050565b60025f9054906101000a900473ffffffffffffffffffffffffffffffffffffffff1673ffffffffffffffffffffffffffffffffffffffff163373ffffffffffffffffffffffffffffffffffffffff1614610e05576040517f08c379a0000000000000000000000000000000000000000000000000000000008152600401610dfc90611ab9565b60405180910390fd5b8015610e4f576001600c5f8473ffffffffffffffffffffffffffffffffffffffff1673ffffffffffffffffffffffffffffffffffffffff1681526020019081526020015f20819055505b42600d5f8473ffffffffffffffffffffffffffffffffffffffff1673ffffffffffffffffffffffffffffffffffffffff1681526020019081526020015f20819055505050565b5f600d5f3373ffffffffffffffffffffffffffffffffffffffff1673ffffffffffffffffffffffffffffffffffffffff1681526020019081526020015f2054600c5f3373ffffffffffffffffffffffffffffffffffffffff1673ffffffffffffffffffffffffffffffffffffffff1681526020019081526020015f205411610f52576040517f08c379a0000000000000000000000000000000000000000000000000000000008152600401610f499061179e565b60405180910390fd5b600373__gitorg________________________________638ee0cd2e8442336040518463ffffffff1660e01b8152600401610f8f93929190611b3d565b602060405180830381865af4158015610faa573d5f803e3d5ffd5b505050506040513d601f19601f82011682018060405250810190610fce9190611ba3565b908060018154018082558091505060019003905f5260205f20015f90919091909150557fcd41a3e784fc947ef5bbb922e2bd57447e5e3b389c45f5d24c210b1f82d7ebcc4260405161102091906111ca565b60405180910390a1429050919050565b5f90565b60025f9054906101000a900473ffffffffffffffffffffffffffffffffffffffff1673ffffffffffffffffffffffffffffffffffffffff163373ffffffffffffffffffffffffffffffffffffffff16146110c3576040517f08c379a00000000000000000000000000000000000000000000000000000000081526004016110ba90611ab9565b60405180910390fd5b42600c5f8373ffffffffffffffffffffffffffffffffffffffff1673ffffffffffffffffffffffffffffffffffffffff1681526020019081526020015f208190555050565b5f81519050919050565b5f82825260208201905092915050565b5f5b8381101561113f578082015181840152602081019050611124565b5f8484015250505050565b5f601f19601f8301169050919050565b5f61116482611108565b61116e8185611112565b935061117e818560208601611122565b6111878161114a565b840191505092915050565b5f6020820190508181035f8301526111aa818461115a565b905092915050565b5f819050919050565b6111c4816111b2565b82525050565b5f6020820190506111dd5f8301846111bb565b92915050565b5f604051905090565b5f80fd5b5f80fd5b5f73ffffffffffffffffffffffffffffffffffffffff82169050919050565b5f61121d826111f4565b9050919050565b61122d81611213565b8114611237575f80fd5b50565b5f8135905061124881611224565b92915050565b5f60208284031215611263576112626111ec565b5b5f6112708482850161123a565b91505092915050565b61128281611213565b82525050565b5f60208201905061129b5f830184611279565b92915050565b5f80fd5b5f80fd5b7f4e487b71000000000000000000000000000000000000000000000000000000005f52604160045260245ffd5b6112df8261114a565b810181811067ffffffffffffffff821117156112fe576112fd6112a9565b5b80604052505050565b5f6113106111e3565b905061131c82826112d6565b919050565b5f67ffffffffffffffff82111561133b5761133a6112a9565b5b6113448261114a565b9050602081019050919050565b828183375f83830152505050565b5f61137161136c84611321565b611307565b90508281526020810184848401111561138d5761138c6112a5565b5b611398848285611351565b509392505050565b5f82601f8301126113b4576113b36112a1565b5b81356113c484826020860161135f565b91505092915050565b6113d6816111b2565b81146113e0575f80fd5b50565b5f813590506113f1816113cd565b92915050565b5f806040838503121561140d5761140c6111ec565b5b5f83013567ffffffffffffffff81111561142a576114296111f0565b5b611436858286016113a0565b9250506020611447858286016113e3565b9150509250929050565b5f819050919050565b61146381611451565b82525050565b5f60208201905061147c5f83018461145a565b92915050565b5f61148c826111f4565b9050919050565b61149c81611482565b81146114a6575f80fd5b50565b5f813590506114b781611493565b92915050565b5f80604083850312156114d3576114d26111ec565b5b5f6114e0858286016114a9565b92505060206114f1858286016113e3565b9150509250929050565b5f61150582611213565b9050919050565b611515816114fb565b811461151f575f80fd5b50565b5f813590506115308161150c565b92915050565b5f806040838503121561154c5761154b6111ec565b5b5f61155985828601611522565b925050602061156a8582860161123a565b9150509250929050565b5f60208284031215611589576115886111ec565b5b5f611596848285016113e3565b91505092915050565b5f805f606084860312156115b6576115b56111ec565b5b5f6115c38682870161123a565b93505060206115d4868287016114a9565b92505060406115e5868287016113e3565b9150509250925092565b5f8115159050919050565b611603816115ef565b811461160d575f80fd5b50565b5f8135905061161e816115fa565b92915050565b5f806040838503121561163a576116396111ec565b5b5f6116478582860161123a565b925050602061165885828601611610565b9150509250929050565b5f60208284031215611677576116766111ec565b5b5f82013567ffffffffffffffff811115611694576116936111f0565b5b6116a0848285016113a0565b91505092915050565b6116b2816115ef565b82525050565b5f6020820190506116cb5f8301846116a9565b92915050565b7f4e487b71000000000000000000000000000000000000000000000000000000005f52602260045260245ffd5b5f600282049050600182168061171557607f821691505b602082108103611728576117276116d1565b5b50919050565b7f7468652073656e64657227732074696d657374616d7020776173207265766f6b5f8201527f6564206d6f726520726563656e746c7900000000000000000000000000000000602082015250565b5f611788603083611112565b91506117938261172e565b604082019050919050565b5f6020820190508181035f8301526117b58161177c565b9050919050565b7f4e487b71000000000000000000000000000000000000000000000000000000005f52601160045260245ffd5b5f6117f3826111b2565b91506117fe836111b2565b9250828201905080821115611816576118156117bc565b5b92915050565b5f81905092915050565b5f61183082611108565b61183a818561181c565b935061184a818560208601611122565b80840191505092915050565b5f819050919050565b61187061186b826111b2565b611856565b82525050565b5f8160601b9050919050565b5f61188c82611876565b9050919050565b5f61189d82611882565b9050919050565b6118b56118b082611213565b611893565b82525050565b5f6118c68286611826565b91506118d2828561185f565b6020820191506118e282846118a4565b601482019150819050949350505050565b7f766572696669636174696f6e2061646472657373206973206e6f7420637265615f8201527f746f720000000000000000000000000000000000000000000000000000000000602082015250565b5f61194d602383611112565b9150611958826118f3565b604082019050919050565b5f6020820190508181035f83015261197a81611941565b9050919050565b7f4e487b71000000000000000000000000000000000000000000000000000000005f52603260045260245ffd5b5f819050919050565b5f6119d16119cc6119c7846111f4565b6119ae565b6111f4565b9050919050565b5f6119e2826119b7565b9050919050565b5f6119f3826119d8565b9050919050565b611a03816119e9565b82525050565b5f604082019050611a1c5f8301856119fa565b611a2960208301846111bb565b9392505050565b5f81519050611a3e816115fa565b92915050565b5f60208284031215611a5957611a586111ec565b5b5f611a6684828501611a30565b91505092915050565b7f6f776e65722061757468206661696c75726500000000000000000000000000005f82015250565b5f611aa3601283611112565b9150611aae82611a6f565b602082019050919050565b5f6020820190508181035f830152611ad081611a97565b9050919050565b5f82825260208201905092915050565b5f611af182611108565b611afb8185611ad7565b9350611b0b818560208601611122565b611b148161114a565b840191505092915050565b611b28816111b2565b82525050565b611b3781611213565b82525050565b5f6060820190508181035f830152611b558186611ae7565b9050611b646020830185611b1f565b611b716040830184611b2e565b949350505050565b611b8281611451565b8114611b8c575f80fd5b50565b5f81519050611b9d81611b79565b92915050565b5f60208284031215611bb857611bb76111ec565b5b5f611bc584828501611b8f565b9150509291505056fea264697066735822122069cb9bc0ab69da79fedcb559a59e4a48d9b8231ff1c022f97f966c0354625db264736f6c63430008140033608060405243600a5534801562000014575f80fd5b5060405162001f5a38038062001f5a83398181016040528101906200003a9190620004f1565b335f806101000a81548173ffffffffffffffffffffffffffffffffffffffff021916908373ffffffffffffffffffffffffffffffffffffffff1602179055508260015f6101000a81548173ffffffffffffffffffffffffffffffffffffffff021916908373ffffffffffffffffffffffffffffffffffffffff16021790555060075f9054906101000a900473ffffffffffffffffffffffffffffffffffffffff1660075f6101000a81548173ffffffffffffffffffffffffffffffffffffffff021916908373ffffffffffffffffffffffffffffffffffffffff16021790555080600c5f6101000a81548160ff0219169083151502179055505f600654036200014b57835160068190555062000153565b816006819055505b5f5b8451811015620001d4574260025f8784815181106200017957620001786200057f565b5b602002602001015173ffffffffffffffffffffffffffffffffffffffff1673ffffffffffffffffffffffffffffffffffffffff1681526020019081526020015f20819055508080620001cb90620005d9565b91505062000155565b5083600b9080519060200190620001ed929190620001f8565b505050505062000625565b828054828255905f5260205f2090810192821562000271579160200282015b8281111562000270578251825f6101000a81548173ffffffffffffffffffffffffffffffffffffffff021916908373ffffffffffffffffffffffffffffffffffffffff1602179055509160200191906001019062000217565b5b50905062000280919062000284565b5090565b5b808211156200029d575f815f90555060010162000285565b5090565b5f604051905090565b5f80fd5b5f80fd5b5f80fd5b5f601f19601f8301169050919050565b7f4e487b71000000000000000000000000000000000000000000000000000000005f52604160045260245ffd5b620002fe82620002b6565b810181811067ffffffffffffffff8211171562000320576200031f620002c6565b5b80604052505050565b5f62000334620002a1565b9050620003428282620002f3565b919050565b5f67ffffffffffffffff821115620003645762000363620002c6565b5b602082029050602081019050919050565b5f80fd5b5f73ffffffffffffffffffffffffffffffffffffffff82169050919050565b5f620003a48262000379565b9050919050565b620003b68162000398565b8114620003c1575f80fd5b50565b5f81519050620003d481620003ab565b92915050565b5f620003f0620003ea8462000347565b62000329565b9050808382526020820190506020840283018581111562000416576200041562000375565b5b835b818110156200044357806200042e8882620003c4565b84526020840193505060208101905062000418565b5050509392505050565b5f82601f830112620004645762000463620002b2565b5b815162000476848260208601620003da565b91505092915050565b5f819050919050565b62000493816200047f565b81146200049e575f80fd5b50565b5f81519050620004b18162000488565b92915050565b5f8115159050919050565b620004cd81620004b7565b8114620004d8575f80fd5b50565b5f81519050620004eb81620004c2565b92915050565b5f805f80608085870312156200050c576200050b620002aa565b5b5f85015167ffffffffffffffff8111156200052c576200052b620002ae565b5b6200053a878288016200044d565b94505060206200054d87828801620003c4565b93505060406200056087828801620004a1565b92505060606200057387828801620004db565b91505092959194509250565b7f4e487b71000000000000000000000000000000000000000000000000000000005f52603260045260245ffd5b7f4e487b71000000000000000000000000000000000000000000000000000000005f52601160045260245ffd5b5f620005e5826200047f565b91507fffffffffffffffffffffffffffffffffffffffffffffffffffffffffffffffff82036200061a5762000619620005ac565b5b600182019050919050565b61192780620006335f395ff3fe608060405234801561000f575f80fd5b50600436106100a7575f3560e01c8063825f98d41161006f578063825f98d414610189578063900cf0cf1461019357806393f690e41461019d578063a7f43779146101bb578063cb15de5d146101d9578063e136156d146101f5576100a7565b8063054b0e7d146100ab5780630a3b0a4f146100c957806316395120146100f957806329092d0e1461012957806372686b1714610159575b5f80fd5b6100b3610225565b6040516100c091906113c7565b60405180910390f35b6100e360048036038101906100de919061144b565b61026c565b6040516100f0919061148e565b60405180910390f35b610113600480360381019061010e919061144b565b61059b565b60405161012091906113c7565b60405180910390f35b610143600480360381019061013e919061144b565b61062c565b604051610150919061148e565b60405180910390f35b610173600480360381019061016e919061144b565b610900565b604051610180919061148e565b60405180910390f35b610191610ad0565b005b61019b610b5c565b005b6101a5610ce5565b6040516101b291906113c7565b60405180910390f35b6101c3610cf7565b6040516101d0919061148e565b60405180910390f35b6101f360048036038101906101ee91906115f7565b610dca565b005b61020f600480360381019061020a9190611697565b611114565b60405161021c919061148e565b60405180910390f35b5f8060025f3373ffffffffffffffffffffffffffffffffffffffff1673ffffffffffffffffffffffffffffffffffffffff1681526020019081526020015f20541415905090565b5f600c5f9054906101000a900460ff16156103155760015f9054906101000a900473ffffffffffffffffffffffffffffffffffffffff1673ffffffffffffffffffffffffffffffffffffffff163373ffffffffffffffffffffffffffffffffffffffff1614610310576040517f08c379a00000000000000000000000000000000000000000000000000000000081526004016103079061172f565b60405180910390fd5b6103ed565b60015f9054906101000a900473ffffffffffffffffffffffffffffffffffffffff1673ffffffffffffffffffffffffffffffffffffffff163373ffffffffffffffffffffffffffffffffffffffff1614806103ad57505f60025f3373ffffffffffffffffffffffffffffffffffffffff1673ffffffffffffffffffffffffffffffffffffffff1681526020019081526020015f205414155b6103ec576040517f08c379a00000000000000000000000000000000000000000000000000000000081526004016103e390611797565b60405180910390fd5b5b5f60055f3373ffffffffffffffffffffffffffffffffffffffff1673ffffffffffffffffffffffffffffffffffffffff1681526020019081526020015f20541461046c576040517f08c379a0000000000000000000000000000000000000000000000000000000008152600401610463906117ff565b60405180910390fd5b4260025f8473ffffffffffffffffffffffffffffffffffffffff1673ffffffffffffffffffffffffffffffffffffffff1681526020019081526020015f2081905550600b82908060018154018082558091505060019003905f5260205f20015f9091909190916101000a81548173ffffffffffffffffffffffffffffffffffffffff021916908373ffffffffffffffffffffffffffffffffffffffff1602179055504260055f3373ffffffffffffffffffffffffffffffffffffffff1673ffffffffffffffffffffffffffffffffffffffff1681526020019081526020015f2081905550600160055f8473ffffffffffffffffffffffffffffffffffffffff1673ffffffffffffffffffffffffffffffffffffffff1681526020019081526020015f2081905550429050919050565b5f8060025f3373ffffffffffffffffffffffffffffffffffffffff1673ffffffffffffffffffffffffffffffffffffffff1681526020019081526020015f2054036105e4575f80fd5b5f60025f8473ffffffffffffffffffffffffffffffffffffffff1673ffffffffffffffffffffffffffffffffffffffff1681526020019081526020015f205414159050919050565b5f600c5f9054906101000a900460ff16156106d55760015f9054906101000a900473ffffffffffffffffffffffffffffffffffffffff1673ffffffffffffffffffffffffffffffffffffffff163373ffffffffffffffffffffffffffffffffffffffff16146106d0576040517f08c379a00000000000000000000000000000000000000000000000000000000081526004016106c79061172f565b60405180910390fd5b6107ad565b60015f9054906101000a900473ffffffffffffffffffffffffffffffffffffffff1673ffffffffffffffffffffffffffffffffffffffff163373ffffffffffffffffffffffffffffffffffffffff16148061076d57505f60025f3373ffffffffffffffffffffffffffffffffffffffff1673ffffffffffffffffffffffffffffffffffffffff1681526020019081526020015f205414155b6107ac576040517f08c379a00000000000000000000000000000000000000000000000000000000081526004016107a390611797565b60405180910390fd5b5b5f60055f3373ffffffffffffffffffffffffffffffffffffffff1673ffffffffffffffffffffffffffffffffffffffff1681526020019081526020015f20541461082c576040517f08c379a0000000000000000000000000000000000000000000000000000000008152600401610823906117ff565b60405180910390fd5b5f60025f8473ffffffffffffffffffffffffffffffffffffffff1673ffffffffffffffffffffffffffffffffffffffff1681526020019081526020015f205403610874575f80fd5b5f60025f8473ffffffffffffffffffffffffffffffffffffffff1673ffffffffffffffffffffffffffffffffffffffff1681526020019081526020015f20819055504260035f8473ffffffffffffffffffffffffffffffffffffffff1673ffffffffffffffffffffffffffffffffffffffff1681526020019081526020015f2081905550429050919050565b5f600c5f9054906101000a900460ff16156109a95760015f9054906101000a900473ffffffffffffffffffffffffffffffffffffffff1673ffffffffffffffffffffffffffffffffffffffff163373ffffffffffffffffffffffffffffffffffffffff16146109a4576040517f08c379a000000000000000000000000000000000000000000000000000000000815260040161099b9061172f565b60405180910390fd5b610a81565b60015f9054906101000a900473ffffffffffffffffffffffffffffffffffffffff1673ffffffffffffffffffffffffffffffffffffffff163373ffffffffffffffffffffffffffffffffffffffff161480610a4157505f60025f3373ffffffffffffffffffffffffffffffffffffffff1673ffffffffffffffffffffffffffffffffffffffff1681526020019081526020015f205414155b610a80576040517f08c379a0000000000000000000000000000000000000000000000000000000008152600401610a7790611797565b60405180910390fd5b5b8160075f6101000a81548173ffffffffffffffffffffffffffffffffffffffff021916908373ffffffffffffffffffffffffffffffffffffffff16021790555042600881905550429050919050565b5f60025f3373ffffffffffffffffffffffffffffffffffffffff1673ffffffffffffffffffffffffffffffffffffffff1681526020019081526020015f205403610b18575f80fd5b4260045f3373ffffffffffffffffffffffffffffffffffffffff1673ffffffffffffffffffffffffffffffffffffffff1681526020019081526020015f2081905550565b600c5f9054906101000a900460ff1615610c045760015f9054906101000a900473ffffffffffffffffffffffffffffffffffffffff1673ffffffffffffffffffffffffffffffffffffffff163373ffffffffffffffffffffffffffffffffffffffff1614610bff576040517f08c379a0000000000000000000000000000000000000000000000000000000008152600401610bf69061172f565b60405180910390fd5b610cdc565b60015f9054906101000a900473ffffffffffffffffffffffffffffffffffffffff1673ffffffffffffffffffffffffffffffffffffffff163373ffffffffffffffffffffffffffffffffffffffff161480610c9c57505f60025f3373ffffffffffffffffffffffffffffffffffffffff1673ffffffffffffffffffffffffffffffffffffffff1681526020019081526020015f205414155b610cdb576040517f08c379a0000000000000000000000000000000000000000000000000000000008152600401610cd290611797565b60405180910390fd5b5b43600a81905550565b600c5f9054906101000a900460ff1681565b5f8060025f3373ffffffffffffffffffffffffffffffffffffffff1673ffffffffffffffffffffffffffffffffffffffff1681526020019081526020015f205403610d40575f80fd5b5f60025f3373ffffffffffffffffffffffffffffffffffffffff1673ffffffffffffffffffffffffffffffffffffffff1681526020019081526020015f20819055504260035f3373ffffffffffffffffffffffffffffffffffffffff1673ffffffffffffffffffffffffffffffffffffffff1681526020019081526020015f208190555042905090565b600c5f9054906101000a900460ff1615610e725760015f9054906101000a900473ffffffffffffffffffffffffffffffffffffffff1673ffffffffffffffffffffffffffffffffffffffff163373ffffffffffffffffffffffffffffffffffffffff1614610e6d576040517f08c379a0000000000000000000000000000000000000000000000000000000008152600401610e649061172f565b60405180910390fd5b610f4a565b60015f9054906101000a900473ffffffffffffffffffffffffffffffffffffffff1673ffffffffffffffffffffffffffffffffffffffff163373ffffffffffffffffffffffffffffffffffffffff161480610f0a57505f60025f3373ffffffffffffffffffffffffffffffffffffffff1673ffffffffffffffffffffffffffffffffffffffff1681526020019081526020015f205414155b610f49576040517f08c379a0000000000000000000000000000000000000000000000000000000008152600401610f4090611797565b60405180910390fd5b5b5f5b825181101561102c575f60025f858481518110610f6c57610f6b61181d565b5b602002602001015173ffffffffffffffffffffffffffffffffffffffff1673ffffffffffffffffffffffffffffffffffffffff1681526020019081526020015f205403610fb7575f80fd5b5f60045f858481518110610fce57610fcd61181d565b5b602002602001015173ffffffffffffffffffffffffffffffffffffffff1673ffffffffffffffffffffffffffffffffffffffff1681526020019081526020015f205403611019575f80fd5b808061102490611877565b915050610f4c565b505f5b815181101561110f575f60025f84848151811061104f5761104e61181d565b5b602002602001015173ffffffffffffffffffffffffffffffffffffffff1673ffffffffffffffffffffffffffffffffffffffff1681526020019081526020015f20540361109a575f80fd5b5f60045f8484815181106110b1576110b061181d565b5b602002602001015173ffffffffffffffffffffffffffffffffffffffff1673ffffffffffffffffffffffffffffffffffffffff1681526020019081526020015f2054146110fc575f80fd5b808061110790611877565b91505061102f565b505050565b5f600c5f9054906101000a900460ff16156111bd5760015f9054906101000a900473ffffffffffffffffffffffffffffffffffffffff1673ffffffffffffffffffffffffffffffffffffffff163373ffffffffffffffffffffffffffffffffffffffff16146111b8576040517f08c379a00000000000000000000000000000000000000000000000000000000081526004016111af9061172f565b60405180910390fd5b611295565b60015f9054906101000a900473ffffffffffffffffffffffffffffffffffffffff1673ffffffffffffffffffffffffffffffffffffffff163373ffffffffffffffffffffffffffffffffffffffff16148061125557505f60025f3373ffffffffffffffffffffffffffffffffffffffff1673ffffffffffffffffffffffffffffffffffffffff1681526020019081526020015f205414155b611294576040517f08c379a000000000000000000000000000000000000000000000000000000000815260040161128b90611797565b60405180910390fd5b5b600b80549050600a54436112a991906118be565b116112b2575f80fd5b600160055f8573ffffffffffffffffffffffffffffffffffffffff1673ffffffffffffffffffffffffffffffffffffffff1681526020019081526020015f2054146112fb575f80fd5b5f60055f8573ffffffffffffffffffffffffffffffffffffffff1673ffffffffffffffffffffffffffffffffffffffff1681526020019081526020015f2081905550818015611396575060015f9054906101000a900473ffffffffffffffffffffffffffffffffffffffff1673ffffffffffffffffffffffffffffffffffffffff163373ffffffffffffffffffffffffffffffffffffffff16145b156113a4576113a3610b5c565b5b42905092915050565b5f8115159050919050565b6113c1816113ad565b82525050565b5f6020820190506113da5f8301846113b8565b92915050565b5f604051905090565b5f80fd5b5f80fd5b5f73ffffffffffffffffffffffffffffffffffffffff82169050919050565b5f61141a826113f1565b9050919050565b61142a81611410565b8114611434575f80fd5b50565b5f8135905061144581611421565b92915050565b5f602082840312156114605761145f6113e9565b5b5f61146d84828501611437565b91505092915050565b5f819050919050565b61148881611476565b82525050565b5f6020820190506114a15f83018461147f565b92915050565b5f80fd5b5f601f19601f8301169050919050565b7f4e487b71000000000000000000000000000000000000000000000000000000005f52604160045260245ffd5b6114f1826114ab565b810181811067ffffffffffffffff821117156115105761150f6114bb565b5b80604052505050565b5f6115226113e0565b905061152e82826114e8565b919050565b5f67ffffffffffffffff82111561154d5761154c6114bb565b5b602082029050602081019050919050565b5f80fd5b5f61157461156f84611533565b611519565b905080838252602082019050602084028301858111156115975761159661155e565b5b835b818110156115c057806115ac8882611437565b845260208401935050602081019050611599565b5050509392505050565b5f82601f8301126115de576115dd6114a7565b5b81356115ee848260208601611562565b91505092915050565b5f806040838503121561160d5761160c6113e9565b5b5f83013567ffffffffffffffff81111561162a576116296113ed565b5b611636858286016115ca565b925050602083013567ffffffffffffffff811115611657576116566113ed565b5b611663858286016115ca565b9150509250929050565b611676816113ad565b8114611680575f80fd5b50565b5f813590506116918161166d565b92915050565b5f80604083850312156116ad576116ac6113e9565b5b5f6116ba85828601611437565b92505060206116cb85828601611683565b9150509250929050565b5f82825260208201905092915050565b7f636f7270206f776e6572000000000000000000000000000000000000000000005f82015250565b5f611719600a836116d5565b9150611724826116e5565b602082019050919050565b5f6020820190508181035f8301526117468161170d565b9050919050565b7f6f776e65720000000000000000000000000000000000000000000000000000005f82015250565b5f6117816005836116d5565b915061178c8261174d565b602082019050919050565b5f6020820190508181035f8301526117ae81611775565b9050919050565b7f73746f70706572000000000000000000000000000000000000000000000000005f82015250565b5f6117e96007836116d5565b91506117f4826117b5565b602082019050919050565b5f6020820190508181035f830152611816816117dd565b9050919050565b7f4e487b71000000000000000000000000000000000000000000000000000000005f52603260045260245ffd5b7f4e487b71000000000000000000000000000000000000000000000000000000005f52601160045260245ffd5b5f61188182611476565b91507fffffffffffffffffffffffffffffffffffffffffffffffffffffffffffffffff82036118b3576118b261184a565b5b600182019050919050565b5f6118c882611476565b91506118d383611476565b92508282039050818111156118eb576118ea61184a565b5b9291505056fea2646970667358221220447ffc941fbc59f4ab11dce56b1c29382193ec27329f433bc0b7c987dba9a7d664736f6c63430008140033a264697066735822122068da7780f389839f161b5429920f1a7fbb6b3812a5f4157e50b61b831d509b9364736f6c63430008140033608060405243600a5534801562000014575f80fd5b5060405162001f5a38038062001f5a83398181016040528101906200003a9190620004f1565b335f806101000a81548173ffffffffffffffffffffffffffffffffffffffff021916908373ffffffffffffffffffffffffffffffffffffffff1602179055508260015f6101000a81548173ffffffffffffffffffffffffffffffffffffffff021916908373ffffffffffffffffffffffffffffffffffffffff16021790555060075f9054906101000a900473ffffffffffffffffffffffffffffffffffffffff1660075f6101000a81548173ffffffffffffffffffffffffffffffffffffffff021916908373ffffffffffffffffffffffffffffffffffffffff16021790555080600c5f6101000a81548160ff0219169083151502179055505f600654036200014b57835160068190555062000153565b816006819055505b5f5b8451811015620001d4574260025f8784815181106200017957620001786200057f565b5b602002602001015173ffffffffffffffffffffffffffffffffffffffff1673ffffffffffffffffffffffffffffffffffffffff1681526020019081526020015f20819055508080620001cb90620005d9565b91505062000155565b5083600b9080519060200190620001ed929190620001f8565b505050505062000625565b828054828255905f5260205f2090810192821562000271579160200282015b8281111562000270578251825f6101000a81548173ffffffffffffffffffffffffffffffffffffffff021916908373ffffffffffffffffffffffffffffffffffffffff1602179055509160200191906001019062000217565b5b50905062000280919062000284565b5090565b5b808211156200029d575f815f90555060010162000285565b5090565b5f604051905090565b5f80fd5b5f80fd5b5f80fd5b5f601f19601f8301169050919050565b7f4e487b71000000000000000000000000000000000000000000000000000000005f52604160045260245ffd5b620002fe82620002b6565b810181811067ffffffffffffffff8211171562000320576200031f620002c6565b5b80604052505050565b5f62000334620002a1565b9050620003428282620002f3565b919050565b5f67ffffffffffffffff821115620003645762000363620002c6565b5b602082029050602081019050919050565b5f80fd5b5f73ffffffffffffffffffffffffffffffffffffffff82169050919050565b5f620003a48262000379565b9050919050565b620003b68162000398565b8114620003c1575f80fd5b50565b5f81519050620003d481620003ab565b92915050565b5f620003f0620003ea8462000347565b62000329565b9050808382526020820190506020840283018581111562000416576200041562000375565b5b835b818110156200044357806200042e8882620003c4565b84526020840193505060208101905062000418565b5050509392505050565b5f82601f830112620004645762000463620002b2565b5b815162000476848260208601620003da565b91505092915050565b5f819050919050565b62000493816200047f565b81146200049e575f80fd5b50565b5f81519050620004b18162000488565b92915050565b5f8115159050919050565b620004cd81620004b7565b8114620004d8575f80fd5b50565b5f81519050620004eb81620004c2565b92915050565b5f805f80608085870312156200050c576200050b620002aa565b5b5f85015167ffffffffffffffff8111156200052c576200052b620002ae565b5b6200053a878288016200044d565b94505060206200054d87828801620003c4565b93505060406200056087828801620004a1565b92505060606200057387828801620004db565b91505092959194509250565b7f4e487b71000000000000000000000000000000000000000000000000000000005f52603260045260245ffd5b7f4e487b71000000000000000000000000000000000000000000000000000000005f52601160045260245ffd5b5f620005e5826200047f565b91507fffffffffffffffffffffffffffffffffffffffffffffffffffffffffffffffff82036200061a5762000619620005ac565b5b600182019050919050565b61192780620006335f395ff3fe608060405234801561000f575f80fd5b50600436106100a7575f3560e01c8063825f98d41161006f578063825f98d414610189578063900cf0cf1461019357806393f690e41461019d578063a7f43779146101bb578063cb15de5d146101d9578063e136156d146101f5576100a7565b8063054b0e7d146100ab5780630a3b0a4f146100c957806316395120146100f957806329092d0e1461012957806372686b1714610159575b5f80fd5b6100b3610225565b6040516100c091906113c7565b60405180910390f35b6100e360048036038101906100de919061144b565b61026c565b6040516100f0919061148e565b60405180910390f35b610113600480360381019061010e919061144b565b61059b565b60405161012091906113c7565b60405180910390f35b610143600480360381019061013e919061144b565b61062c565b604051610150919061148e565b60405180910390f35b610173600480360381019061016e919061144b565b610900565b604051610180919061148e565b60405180910390f35b610191610ad0565b005b61019b610b5c565b005b6101a5610ce5565b6040516101b291906113c7565b60405180910390f35b6101c3610cf7565b6040516101d0919061148e565b60405180910390f35b6101f360048036038101906101ee91906115f7565b610dca565b005b61020f600480360381019061020a9190611697565b611114565b60405161021c919061148e565b60405180910390f35b5f8060025f3373ffffffffffffffffffffffffffffffffffffffff1673ffffffffffffffffffffffffffffffffffffffff1681526020019081526020015f20541415905090565b5f600c5f9054906101000a900460ff16156103155760015f9054906101000a900473ffffffffffffffffffffffffffffffffffffffff1673ffffffffffffffffffffffffffffffffffffffff163373ffffffffffffffffffffffffffffffffffffffff1614610310576040517f08c379a00000000000000000000000000000000000000000000000000000000081526004016103079061172f565b60405180910390fd5b6103ed565b60015f9054906101000a900473ffffffffffffffffffffffffffffffffffffffff1673ffffffffffffffffffffffffffffffffffffffff163373ffffffffffffffffffffffffffffffffffffffff1614806103ad57505f60025f3373ffffffffffffffffffffffffffffffffffffffff1673ffffffffffffffffffffffffffffffffffffffff1681526020019081526020015f205414155b6103ec576040517f08c379a00000000000000000000000000000000000000000000000000000000081526004016103e390611797565b60405180910390fd5b5b5f60055f3373ffffffffffffffffffffffffffffffffffffffff1673ffffffffffffffffffffffffffffffffffffffff1681526020019081526020015f20541461046c576040517f08c379a0000000000000000000000000000000000000000000000000000000008152600401610463906117ff565b60405180910390fd5b4260025f8473ffffffffffffffffffffffffffffffffffffffff1673ffffffffffffffffffffffffffffffffffffffff1681526020019081526020015f2081905550600b82908060018154018082558091505060019003905f5260205f20015f9091909190916101000a81548173ffffffffffffffffffffffffffffffffffffffff021916908373ffffffffffffffffffffffffffffffffffffffff1602179055504260055f3373ffffffffffffffffffffffffffffffffffffffff1673ffffffffffffffffffffffffffffffffffffffff1681526020019081526020015f2081905550600160055f8473ffffffffffffffffffffffffffffffffffffffff1673ffffffffffffffffffffffffffffffffffffffff1681526020019081526020015f2081905550429050919050565b5f8060025f3373ffffffffffffffffffffffffffffffffffffffff1673ffffffffffffffffffffffffffffffffffffffff1681526020019081526020015f2054036105e4575f80fd5b5f60025f8473ffffffffffffffffffffffffffffffffffffffff1673ffffffffffffffffffffffffffffffffffffffff1681526020019081526020015f205414159050919050565b5f600c5f9054906101000a900460ff16156106d55760015f9054906101000a900473ffffffffffffffffffffffffffffffffffffffff1673ffffffffffffffffffffffffffffffffffffffff163373ffffffffffffffffffffffffffffffffffffffff16146106d0576040517f08c379a00000000000000000000000000000000000000000000000000000000081526004016106c79061172f565b60405180910390fd5b6107ad565b60015f9054906101000a900473ffffffffffffffffffffffffffffffffffffffff1673ffffffffffffffffffffffffffffffffffffffff163373ffffffffffffffffffffffffffffffffffffffff16148061076d57505f60025f3373ffffffffffffffffffffffffffffffffffffffff1673ffffffffffffffffffffffffffffffffffffffff1681526020019081526020015f205414155b6107ac576040517f08c379a00000000000000000000000000000000000000000000000000000000081526004016107a390611797565b60405180910390fd5b5b5f60055f3373ffffffffffffffffffffffffffffffffffffffff1673ffffffffffffffffffffffffffffffffffffffff1681526020019081526020015f20541461082c576040517f08c379a0000000000000000000000000000000000000000000000000000000008152600401610823906117ff565b60405180910390fd5b5f60025f8473ffffffffffffffffffffffffffffffffffffffff1673ffffffffffffffffffffffffffffffffffffffff1681526020019081526020015f205403610874575f80fd5b5f60025f8473ffffffffffffffffffffffffffffffffffffffff1673ffffffffffffffffffffffffffffffffffffffff1681526020019081526020015f20819055504260035f8473ffffffffffffffffffffffffffffffffffffffff1673ffffffffffffffffffffffffffffffffffffffff1681526020019081526020015f2081905550429050919050565b5f600c5f9054906101000a900460ff16156109a95760015f9054906101000a900473ffffffffffffffffffffffffffffffffffffffff1673ffffffffffffffffffffffffffffffffffffffff163373ffffffffffffffffffffffffffffffffffffffff16146109a4576040517f08c379a000000000000000000000000000000000000000000000000000000000815260040161099b9061172f565b60405180910390fd5b610a81565b60015f9054906101000a900473ffffffffffffffffffffffffffffffffffffffff1673ffffffffffffffffffffffffffffffffffffffff163373ffffffffffffffffffffffffffffffffffffffff161480610a4157505f60025f3373ffffffffffffffffffffffffffffffffffffffff1673ffffffffffffffffffffffffffffffffffffffff1681526020019081526020015f205414155b610a80576040517f08c379a0000000000000000000000000000000000000000000000000000000008152600401610a7790611797565b60405180910390fd5b5b8160075f6101000a81548173ffffffffffffffffffffffffffffffffffffffff021916908373ffffffffffffffffffffffffffffffffffffffff16021790555042600881905550429050919050565b5f60025f3373ffffffffffffffffffffffffffffffffffffffff1673ffffffffffffffffffffffffffffffffffffffff1681526020019081526020015f205403610b18575f80fd5b4260045f3373ffffffffffffffffffffffffffffffffffffffff1673ffffffffffffffffffffffffffffffffffffffff1681526020019081526020015f2081905550565b600c5f9054906101000a900460ff1615610c045760015f9054906101000a900473ffffffffffffffffffffffffffffffffffffffff1673ffffffffffffffffffffffffffffffffffffffff163373ffffffffffffffffffffffffffffffffffffffff1614610bff576040517f08c379a0000000000000000000000000000000000000000000000000000000008152600401610bf69061172f565b60405180910390fd5b610cdc565b60015f9054906101000a900473ffffffffffffffffffffffffffffffffffffffff1673ffffffffffffffffffffffffffffffffffffffff163373ffffffffffffffffffffffffffffffffffffffff161480610c9c57505f60025f3373ffffffffffffffffffffffffffffffffffffffff1673ffffffffffffffffffffffffffffffffffffffff1681526020019081526020015f205414155b610cdb576040517f08c379a0000000000000000000000000000000000000000000000000000000008152600401610cd290611797565b60405180910390fd5b5b43600a81905550565b600c5f9054906101000a900460ff1681565b5f8060025f3373ffffffffffffffffffffffffffffffffffffffff1673ffffffffffffffffffffffffffffffffffffffff1681526020019081526020015f205403610d40575f80fd5b5f60025f3373ffffffffffffffffffffffffffffffffffffffff1673ffffffffffffffffffffffffffffffffffffffff1681526020019081526020015f20819055504260035f3373ffffffffffffffffffffffffffffffffffffffff1673ffffffffffffffffffffffffffffffffffffffff1681526020019081526020015f208190555042905090565b600c5f9054906101000a900460ff1615610e725760015f9054906101000a900473ffffffffffffffffffffffffffffffffffffffff1673ffffffffffffffffffffffffffffffffffffffff163373ffffffffffffffffffffffffffffffffffffffff1614610e6d576040517f08c379a0000000000000000000000000000000000000000000000000000000008152600401610e649061172f565b60405180910390fd5b610f4a565b60015f9054906101000a900473ffffffffffffffffffffffffffffffffffffffff1673ffffffffffffffffffffffffffffffffffffffff163373ffffffffffffffffffffffffffffffffffffffff161480610f0a57505f60025f3373ffffffffffffffffffffffffffffffffffffffff1673ffffffffffffffffffffffffffffffffffffffff1681526020019081526020015f205414155b610f49576040517f08c379a0000000000000000000000000000000000000000000000000000000008152600401610f4090611797565b60405180910390fd5b5b5f5b825181101561102c575f60025f858481518110610f6c57610f6b61181d565b5b602002602001015173ffffffffffffffffffffffffffffffffffffffff1673ffffffffffffffffffffffffffffffffffffffff1681526020019081526020015f205403610fb7575f80fd5b5f60045f858481518110610fce57610fcd61181d565b5b602002602001015173ffffffffffffffffffffffffffffffffffffffff1673ffffffffffffffffffffffffffffffffffffffff1681526020019081526020015f205403611019575f80fd5b808061102490611877565b915050610f4c565b505f5b815181101561110f575f60025f84848151811061104f5761104e61181d565b5b602002602001015173ffffffffffffffffffffffffffffffffffffffff1673ffffffffffffffffffffffffffffffffffffffff1681526020019081526020015f20540361109a575f80fd5b5f60045f8484815181106110b1576110b061181d565b5b602002602001015173ffffffffffffffffffffffffffffffffffffffff1673ffffffffffffffffffffffffffffffffffffffff1681526020019081526020015f2054146110fc575f80fd5b808061110790611877565b91505061102f565b505050565b5f600c5f9054906101000a900460ff16156111bd5760015f9054906101000a900473ffffffffffffffffffffffffffffffffffffffff1673ffffffffffffffffffffffffffffffffffffffff163373ffffffffffffffffffffffffffffffffffffffff16146111b8576040517f08c379a00000000000000000000000000000000000000000000000000000000081526004016111af9061172f565b60405180910390fd5b611295565b60015f9054906101000a900473ffffffffffffffffffffffffffffffffffffffff1673ffffffffffffffffffffffffffffffffffffffff163373ffffffffffffffffffffffffffffffffffffffff16148061125557505f60025f3373ffffffffffffffffffffffffffffffffffffffff1673ffffffffffffffffffffffffffffffffffffffff1681526020019081526020015f205414155b611294576040517f08c379a000000000000000000000000000000000000000000000000000000000815260040161128b90611797565b60405180910390fd5b5b600b80549050600a54436112a991906118be565b116112b2575f80fd5b600160055f8573ffffffffffffffffffffffffffffffffffffffff1673ffffffffffffffffffffffffffffffffffffffff1681526020019081526020015f2054146112fb575f80fd5b5f60055f8573ffffffffffffffffffffffffffffffffffffffff1673ffffffffffffffffffffffffffffffffffffffff1681526020019081526020015f2081905550818015611396575060015f9054906101000a900473ffffffffffffffffffffffffffffffffffffffff1673ffffffffffffffffffffffffffffffffffffffff163373ffffffffffffffffffffffffffffffffffffffff16145b156113a4576113a3610b5c565b5b42905092915050565b5f8115159050919050565b6113c1816113ad565b82525050565b5f6020820190506113da5f8301846113b8565b92915050565b5f604051905090565b5f80fd5b5f80fd5b5f73ffffffffffffffffffffffffffffffffffffffff82169050919050565b5f61141a826113f1565b9050919050565b61142a81611410565b8114611434575f80fd5b50565b5f8135905061144581611421565b92915050565b5f602082840312156114605761145f6113e9565b5b5f61146d84828501611437565b91505092915050565b5f819050919050565b61148881611476565b82525050565b5f6020820190506114a15f83018461147f565b92915050565b5f80fd5b5f601f19601f8301169050919050565b7f4e487b71000000000000000000000000000000000000000000000000000000005f52604160045260245ffd5b6114f1826114ab565b810181811067ffffffffffffffff821117156115105761150f6114bb565b5b80604052505050565b5f6115226113e0565b905061152e82826114e8565b919050565b5f67ffffffffffffffff82111561154d5761154c6114bb565b5b602082029050602081019050919050565b5f80fd5b5f61157461156f84611533565b611519565b905080838252602082019050602084028301858111156115975761159661155e565b5b835b818110156115c057806115ac8882611437565b845260208401935050602081019050611599565b5050509392505050565b5f82601f8301126115de576115dd6114a7565b5b81356115ee848260208601611562565b91505092915050565b5f806040838503121561160d5761160c6113e9565b5b5f83013567ffffffffffffffff81111561162a576116296113ed565b5b611636858286016115ca565b925050602083013567ffffffffffffffff811115611657576116566113ed565b5b611663858286016115ca565b9150509250929050565b611676816113ad565b8114611680575f80fd5b50565b5f813590506116918161166d565b92915050565b5f80604083850312156116ad576116ac6113e9565b5b5f6116ba85828601611437565b92505060206116cb85828601611683565b9150509250929050565b5f82825260208201905092915050565b7f636f7270206f776e6572000000000000000000000000000000000000000000005f82015250565b5f611719600a836116d5565b9150611724826116e5565b602082019050919050565b5f6020820190508181035f8301526117468161170d565b9050919050565b7f6f776e65720000000000000000000000000000000000000000000000000000005f82015250565b5f6117816005836116d5565b915061178c8261174d565b602082019050919050565b5f6020820190508181035f8301526117ae81611775565b9050919050565b7f73746f70706572000000000000000000000000000000000000000000000000005f82015250565b5f6117e96007836116d5565b91506117f4826117b5565b602082019050919050565b5f6020820190508181035f830152611816816117dd565b9050919050565b7f4e487b71000000000000000000000000000000000000000000000000000000005f52603260045260245ffd5b7f4e487b71000000000000000000000000000000000000000000000000000000005f52601160045260245ffd5b5f61188182611476565b91507fffffffffffffffffffffffffffffffffffffffffffffffffffffffffffffffff82036118b3576118b261184a565b5b600182019050919050565b5f6118c882611476565b91506118d383611476565b92508282039050818111156118eb576118ea61184a565b5b9291505056fea2646970667358221220447ffc941fbc59f4ab11dce56b1c29382193ec27329f433bc0b7c987dba9a7d664736f6c63430008140033",
  "immutableReferences": {},
  "source": "// SPDX-License-Identifier: BUSL-1.1\npragma solidity >= \"0.8.20\";\nimport \"./giteta.sol\";\nimport \"./ltcgra.sol\";\nimport \"./gitarg.sol\";\nimport \"./argctl.sol\";\nimport \"./objects/Repo.sol\";\n//import \"./objects/Proposal.sol\";\nimport \"./objects/Handshakes.sol\";\nimport \"./libraries/gitorg.sol\";\nimport \"./gitorg.sol\";\n\ncontract gitarray {\n\n  address creator;\n  address owner;\n  uint threshold;\n  mapping(address => Handshakes) signers;\n  Handshakes handshakes;\n  mapping(address => Repo) repos;\n  mapping(bytes32 => uint) unique;\n  // REVIEW - address only with check\n  mapping(address => argctl) private ctls;\n  address private arg;\n  //address private _argctl;\n  //address public _gitorg;\n  mapping(address => _gitorg) private orgs;\n  argctl private ARGCTL;\n  address private eta;\n  // !IMPORTANT\n  // !!!\n  // REVIEW - threshold divider \n  modifier own {\n    require(msg.sender == owner, \"own\");\n    _;\n  }\n  constructor(address[] memory _handshakes, address _owner, address _gitarg, address _giteta) {\n    arg = _gitarg;\n    eta = _giteta;\n    threshold = _handshakes.length;\n    creator = msg.sender;\n    owner = _owner;\n    //_gitorg = gitorg_;\n    // REVIEW - corp var\n    handshakes = new Handshakes(_handshakes, _owner, threshold, true);\n    signers[msg.sender] = handshakes;\n\n  }  \n  \n  function proof () public view returns (address) {\n    require(handshakes.isHandshake(msg.sender), \"bluffalo\");\n    return arg;\n  }\n  // REVIEW - customizable threshold?\n  function repo(address[] memory _handshakes, string memory _name, string memory _url, address _owner, address _argctl) public returns(uint) {\n    // REVIEW - corp var\n    uint _stamp = unique[gitorg.key(_url)];\n    require(_stamp == 0, \"repo not unique\"); \n    //require(msg.sender != creator);\n    //constructor(string memory _name, string memory _url, address _owner, address _gitarg, address _gitarray) payable \n    Repo _repo = new Repo(_name, _url, _owner, arg, address(this));\n    Handshakes handshakes = new Handshakes(_handshakes, _owner, threshold, true);\n    repos[msg.sender] = _repo;\n    argctl ctl = argctl(_argctl);\n    ctl.checkin(address(_repo), address(handshakes));\n    signers[address(_repo)] = handshakes;\n    // REVIEW - return repo object or address?\n    unique[gitorg.key(_url)] = block.timestamp;\n    return block.timestamp;\n  }\n  function ctl () public returns (bool) {\n    //ctls[msg.sender] = argctl(msg.sender);\n    //new ar\n    //new argctl(address(signers[msg.sender]), address(orgs[msg.sender]), arg, address(this));\n    return true;\n  }\n  function ctl (address _org) public own { //returns (argctl) {\n    //constructor (address handshakes_, address gitorg_, address gitarg_, address _gitarray) {\n    // TODO - org fee?\n    ARGCTL = new argctl(address(signers[msg.sender]), address(orgs[_org]), arg, address(this));\n    //return ARGCTL;\n  }\n  /*function l1 () public own {\n    //new argctl(address(signers[msg.sender]), address(orgs[msg.sender]), arg, address(this));\n    new ltcgra(address(signers[msg.sender]), address(orgs[msg.sender]), arg);\n  }\n  */\n  function org () public returns (bool) {\n    orgs[msg.sender] = _gitorg(msg.sender);\n    return true;\n  }\n  function tar () public {\n    //slow movement to prevent theft\n  }\n  function git () public {\n    //called on commit in argctl to drain tar\n  }\n  function down () public {\n    //place ether down to prove value\n  }\n  //function isHandshake(address repo, address handshake) public returns (bool) {\n    //require(msg.sender == _argctl, \"the argctl address equals the address of argctl\");\n    //Handshakes _handshakes = signers[handshake];\n    //return _handshakes.isHandshake(handshake);\n  //}\n}\n",
  "sourcePath": "/Users/davidkamer/gitarg_eth_ico/contracts/gitarray.sol",
  "compiler": {
    "name": "solc",
    "version": "0.8.20+commit.a1b79de6.Emscripten.clang"
  },
  "schemaVersion": "3.4.16",
  "updatedAt": "2023-10-11T03:28:40.525Z",
  "devdoc": {
    "kind": "dev",
    "methods": {},
    "version": 1
  },
  "userdoc": {
    "kind": "user",
    "methods": {},
    "version": 1
  }
}