{
  "contractName": "gitarg",
  "abi": [
    {
      "inputs": [],
      "stateMutability": "nonpayable",
      "type": "constructor"
    },
    {
      "anonymous": false,
      "inputs": [
        {
          "indexed": true,
          "internalType": "address",
          "name": "_owner",
          "type": "address"
        },
        {
          "indexed": true,
          "internalType": "address",
          "name": "_spender",
          "type": "address"
        },
        {
          "indexed": false,
          "internalType": "uint256",
          "name": "_value",
          "type": "uint256"
        }
      ],
      "name": "Approval",
      "type": "event"
    },
    {
      "anonymous": false,
      "inputs": [
        {
          "indexed": true,
          "internalType": "address",
          "name": "_from",
          "type": "address"
        },
        {
          "indexed": true,
          "internalType": "address",
          "name": "_to",
          "type": "address"
        },
        {
          "indexed": false,
          "internalType": "uint256",
          "name": "_value",
          "type": "uint256"
        }
      ],
      "name": "Transfer",
      "type": "event"
    },
    {
      "inputs": [],
      "name": "lock",
      "outputs": [
        {
          "internalType": "bool",
          "name": "",
          "type": "bool"
        }
      ],
      "stateMutability": "nonpayable",
      "type": "function"
    },
    {
      "inputs": [],
      "name": "unlock",
      "outputs": [
        {
          "internalType": "bool",
          "name": "",
          "type": "bool"
        }
      ],
      "stateMutability": "nonpayable",
      "type": "function"
    },
    {
      "inputs": [],
      "name": "name",
      "outputs": [
        {
          "internalType": "string",
          "name": "",
          "type": "string"
        }
      ],
      "stateMutability": "pure",
      "type": "function",
      "constant": true
    },
    {
      "inputs": [],
      "name": "symbol",
      "outputs": [
        {
          "internalType": "string",
          "name": "",
          "type": "string"
        }
      ],
      "stateMutability": "pure",
      "type": "function",
      "constant": true
    },
    {
      "inputs": [],
      "name": "decimals",
      "outputs": [
        {
          "internalType": "uint8",
          "name": "",
          "type": "uint8"
        }
      ],
      "stateMutability": "pure",
      "type": "function",
      "constant": true
    },
    {
      "inputs": [],
      "name": "totalSupply",
      "outputs": [
        {
          "internalType": "uint256",
          "name": "",
          "type": "uint256"
        }
      ],
      "stateMutability": "view",
      "type": "function",
      "constant": true
    },
    {
      "inputs": [
        {
          "internalType": "address",
          "name": "_owner",
          "type": "address"
        }
      ],
      "name": "balanceOf",
      "outputs": [
        {
          "internalType": "uint256",
          "name": "balance",
          "type": "uint256"
        }
      ],
      "stateMutability": "view",
      "type": "function",
      "constant": true
    },
    {
      "inputs": [
        {
          "internalType": "address",
          "name": "_to",
          "type": "address"
        },
        {
          "internalType": "uint256",
          "name": "_value",
          "type": "uint256"
        }
      ],
      "name": "transfer",
      "outputs": [
        {
          "internalType": "bool",
          "name": "success",
          "type": "bool"
        }
      ],
      "stateMutability": "nonpayable",
      "type": "function"
    },
    {
      "inputs": [
        {
          "internalType": "address",
          "name": "_from",
          "type": "address"
        },
        {
          "internalType": "address",
          "name": "_to",
          "type": "address"
        },
        {
          "internalType": "uint256",
          "name": "_value",
          "type": "uint256"
        }
      ],
      "name": "transferFrom",
      "outputs": [
        {
          "internalType": "bool",
          "name": "success",
          "type": "bool"
        }
      ],
      "stateMutability": "nonpayable",
      "type": "function"
    },
    {
      "inputs": [
        {
          "internalType": "address",
          "name": "_spender",
          "type": "address"
        },
        {
          "internalType": "uint256",
          "name": "_value",
          "type": "uint256"
        }
      ],
      "name": "approve",
      "outputs": [
        {
          "internalType": "bool",
          "name": "success",
          "type": "bool"
        }
      ],
      "stateMutability": "nonpayable",
      "type": "function"
    },
    {
      "inputs": [
        {
          "internalType": "address",
          "name": "_owner",
          "type": "address"
        },
        {
          "internalType": "address",
          "name": "_spender",
          "type": "address"
        }
      ],
      "name": "allowance",
      "outputs": [
        {
          "internalType": "uint256",
          "name": "remaining",
          "type": "uint256"
        }
      ],
      "stateMutability": "view",
      "type": "function",
      "constant": true
    }
  ],
  "bytecode": "0x6080604052683635c9adc5dea0000060035534801561001c575f80fd5b5060035460015f3373ffffffffffffffffffffffffffffffffffffffff1673ffffffffffffffffffffffffffffffffffffffff1681526020019081526020015f20819055506112608061006e5f395ff3fe608060405234801561000f575f80fd5b50600436106100a7575f3560e01c806370a082311161006f57806370a082311461016557806395d89b4114610195578063a69df4b5146101b3578063a9059cbb146101d1578063dd62ed3e14610201578063f83d08ba14610231576100a7565b806306fdde03146100ab578063095ea7b3146100c957806318160ddd146100f957806323b872dd14610117578063313ce56714610147575b5f80fd5b6100b361024f565b6040516100c09190610f60565b60405180910390f35b6100e360048036038101906100de9190611011565b61028c565b6040516100f09190611069565b60405180910390f35b61010161041e565b60405161010e9190611091565b60405180910390f35b610131600480360381019061012c91906110aa565b610427565b60405161013e9190611069565b60405180910390f35b61014f61086f565b60405161015c9190611115565b60405180910390f35b61017f600480360381019061017a919061112e565b610877565b60405161018c9190611091565b60405180910390f35b61019d610963565b6040516101aa9190610f60565b60405180910390f35b6101bb6109a0565b6040516101c89190611069565b60405180910390f35b6101eb60048036038101906101e69190611011565b610a44565b6040516101f89190611069565b60405180910390f35b61021b60048036038101906102169190611159565b610cb7565b6040516102289190611091565b60405180910390f35b610239610e31565b6040516102469190611069565b60405180910390f35b60606040518060400160405280600681526020017f6769746172670000000000000000000000000000000000000000000000000000815250905090565b5f60025f3373ffffffffffffffffffffffffffffffffffffffff1673ffffffffffffffffffffffffffffffffffffffff1681526020019081526020015f205f9054906101000a900460ff1615801561032b575060025f8473ffffffffffffffffffffffffffffffffffffffff1673ffffffffffffffffffffffffffffffffffffffff1681526020019081526020015f205f9054906101000a900460ff16155b610333575f80fd5b815f803373ffffffffffffffffffffffffffffffffffffffff1673ffffffffffffffffffffffffffffffffffffffff1681526020019081526020015f205f8573ffffffffffffffffffffffffffffffffffffffff1673ffffffffffffffffffffffffffffffffffffffff1681526020019081526020015f20819055508273ffffffffffffffffffffffffffffffffffffffff163373ffffffffffffffffffffffffffffffffffffffff167f8c5be1e5ebec7d5bd14f71427d1e84f3dd0314c0f7b2291e5b200ac8c7c3b9258460405161040c9190611091565b60405180910390a36001905092915050565b5f600354905090565b5f60025f3373ffffffffffffffffffffffffffffffffffffffff1673ffffffffffffffffffffffffffffffffffffffff1681526020019081526020015f205f9054906101000a900460ff161580156104c6575060025f8573ffffffffffffffffffffffffffffffffffffffff1673ffffffffffffffffffffffffffffffffffffffff1681526020019081526020015f205f9054906101000a900460ff16155b8015610519575060025f8473ffffffffffffffffffffffffffffffffffffffff1673ffffffffffffffffffffffffffffffffffffffff1681526020019081526020015f205f9054906101000a900460ff16155b610521575f80fd5b60015f8573ffffffffffffffffffffffffffffffffffffffff1673ffffffffffffffffffffffffffffffffffffffff1681526020019081526020015f205482111561056a575f80fd5b5f808573ffffffffffffffffffffffffffffffffffffffff1673ffffffffffffffffffffffffffffffffffffffff1681526020019081526020015f205f3373ffffffffffffffffffffffffffffffffffffffff1673ffffffffffffffffffffffffffffffffffffffff1681526020019081526020015f20548211156105ed575f80fd5b8160015f8673ffffffffffffffffffffffffffffffffffffffff1673ffffffffffffffffffffffffffffffffffffffff1681526020019081526020015f205461063691906111c4565b60015f8673ffffffffffffffffffffffffffffffffffffffff1673ffffffffffffffffffffffffffffffffffffffff1681526020019081526020015f2081905550815f808673ffffffffffffffffffffffffffffffffffffffff1673ffffffffffffffffffffffffffffffffffffffff1681526020019081526020015f205f3373ffffffffffffffffffffffffffffffffffffffff1673ffffffffffffffffffffffffffffffffffffffff1681526020019081526020015f20546106fa91906111c4565b5f808673ffffffffffffffffffffffffffffffffffffffff1673ffffffffffffffffffffffffffffffffffffffff1681526020019081526020015f205f3373ffffffffffffffffffffffffffffffffffffffff1673ffffffffffffffffffffffffffffffffffffffff1681526020019081526020015f20819055508160015f8573ffffffffffffffffffffffffffffffffffffffff1673ffffffffffffffffffffffffffffffffffffffff1681526020019081526020015f20546107be91906111f7565b60015f8573ffffffffffffffffffffffffffffffffffffffff1673ffffffffffffffffffffffffffffffffffffffff1681526020019081526020015f20819055508273ffffffffffffffffffffffffffffffffffffffff168473ffffffffffffffffffffffffffffffffffffffff167fddf252ad1be2c89b69c2b068fc378daa952ba7f163c4a11628f55a4df523b3ef8460405161085c9190611091565b60405180910390a3600190509392505050565b5f6006905090565b5f60025f3373ffffffffffffffffffffffffffffffffffffffff1673ffffffffffffffffffffffffffffffffffffffff1681526020019081526020015f205f9054906101000a900460ff16158015610916575060025f8373ffffffffffffffffffffffffffffffffffffffff1673ffffffffffffffffffffffffffffffffffffffff1681526020019081526020015f205f9054906101000a900460ff16155b61091e575f80fd5b60015f8373ffffffffffffffffffffffffffffffffffffffff1673ffffffffffffffffffffffffffffffffffffffff1681526020019081526020015f20549050919050565b60606040518060400160405280600381526020017f4749540000000000000000000000000000000000000000000000000000000000815250905090565b5f8060025f3373ffffffffffffffffffffffffffffffffffffffff1673ffffffffffffffffffffffffffffffffffffffff1681526020019081526020015f205f6101000a81548160ff02191690831515021790555060025f3373ffffffffffffffffffffffffffffffffffffffff1673ffffffffffffffffffffffffffffffffffffffff1681526020019081526020015f205f9054906101000a900460ff16905090565b5f60025f3373ffffffffffffffffffffffffffffffffffffffff1673ffffffffffffffffffffffffffffffffffffffff1681526020019081526020015f205f9054906101000a900460ff16158015610ae3575060025f8473ffffffffffffffffffffffffffffffffffffffff1673ffffffffffffffffffffffffffffffffffffffff1681526020019081526020015f205f9054906101000a900460ff16155b610aeb575f80fd5b60015f3373ffffffffffffffffffffffffffffffffffffffff1673ffffffffffffffffffffffffffffffffffffffff1681526020019081526020015f2054821115610b34575f80fd5b8160015f3373ffffffffffffffffffffffffffffffffffffffff1673ffffffffffffffffffffffffffffffffffffffff1681526020019081526020015f2054610b7d91906111c4565b60015f3373ffffffffffffffffffffffffffffffffffffffff1673ffffffffffffffffffffffffffffffffffffffff1681526020019081526020015f20819055508160015f8573ffffffffffffffffffffffffffffffffffffffff1673ffffffffffffffffffffffffffffffffffffffff1681526020019081526020015f2054610c0791906111f7565b60015f8573ffffffffffffffffffffffffffffffffffffffff1673ffffffffffffffffffffffffffffffffffffffff1681526020019081526020015f20819055508273ffffffffffffffffffffffffffffffffffffffff163373ffffffffffffffffffffffffffffffffffffffff167fddf252ad1be2c89b69c2b068fc378daa952ba7f163c4a11628f55a4df523b3ef84604051610ca59190611091565b60405180910390a36001905092915050565b5f60025f3373ffffffffffffffffffffffffffffffffffffffff1673ffffffffffffffffffffffffffffffffffffffff1681526020019081526020015f205f9054906101000a900460ff16158015610d56575060025f8473ffffffffffffffffffffffffffffffffffffffff1673ffffffffffffffffffffffffffffffffffffffff1681526020019081526020015f205f9054906101000a900460ff16155b8015610da9575060025f8373ffffffffffffffffffffffffffffffffffffffff1673ffffffffffffffffffffffffffffffffffffffff1681526020019081526020015f205f9054906101000a900460ff16155b610db1575f80fd5b5f808473ffffffffffffffffffffffffffffffffffffffff1673ffffffffffffffffffffffffffffffffffffffff1681526020019081526020015f205f8373ffffffffffffffffffffffffffffffffffffffff1673ffffffffffffffffffffffffffffffffffffffff1681526020019081526020015f2054905092915050565b5f600160025f3373ffffffffffffffffffffffffffffffffffffffff1673ffffffffffffffffffffffffffffffffffffffff1681526020019081526020015f205f6101000a81548160ff02191690831515021790555060025f3373ffffffffffffffffffffffffffffffffffffffff1673ffffffffffffffffffffffffffffffffffffffff1681526020019081526020015f205f9054906101000a900460ff16905090565b5f81519050919050565b5f82825260208201905092915050565b5f5b83811015610f0d578082015181840152602081019050610ef2565b5f8484015250505050565b5f601f19601f8301169050919050565b5f610f3282610ed6565b610f3c8185610ee0565b9350610f4c818560208601610ef0565b610f5581610f18565b840191505092915050565b5f6020820190508181035f830152610f788184610f28565b905092915050565b5f80fd5b5f73ffffffffffffffffffffffffffffffffffffffff82169050919050565b5f610fad82610f84565b9050919050565b610fbd81610fa3565b8114610fc7575f80fd5b50565b5f81359050610fd881610fb4565b92915050565b5f819050919050565b610ff081610fde565b8114610ffa575f80fd5b50565b5f8135905061100b81610fe7565b92915050565b5f806040838503121561102757611026610f80565b5b5f61103485828601610fca565b925050602061104585828601610ffd565b9150509250929050565b5f8115159050919050565b6110638161104f565b82525050565b5f60208201905061107c5f83018461105a565b92915050565b61108b81610fde565b82525050565b5f6020820190506110a45f830184611082565b92915050565b5f805f606084860312156110c1576110c0610f80565b5b5f6110ce86828701610fca565b93505060206110df86828701610fca565b92505060406110f086828701610ffd565b9150509250925092565b5f60ff82169050919050565b61110f816110fa565b82525050565b5f6020820190506111285f830184611106565b92915050565b5f6020828403121561114357611142610f80565b5b5f61115084828501610fca565b91505092915050565b5f806040838503121561116f5761116e610f80565b5b5f61117c85828601610fca565b925050602061118d85828601610fca565b9150509250929050565b7f4e487b71000000000000000000000000000000000000000000000000000000005f52601160045260245ffd5b5f6111ce82610fde565b91506111d983610fde565b92508282039050818111156111f1576111f0611197565b5b92915050565b5f61120182610fde565b915061120c83610fde565b925082820190508082111561122457611223611197565b5b9291505056fea2646970667358221220c7e0233ef730a0a72ccaba3fbf041786084a502beea248823c4c6a054f190e9164736f6c63430008140033",
  "immutableReferences": {},
  "source": "// SPDX-License-Identifier: UNLICENSED\npragma solidity >=\"0.8.20\";\n// Intended use: exchange for services on gitarg decentralized platform and ada NFTs (release date June 2nd - June 15th 2023)\n// NICE-TO-HAVES: \n// * lock password interface\n// * unlock password interface\n// * timestamp based lockout\n\ncontract gitarg {\n  /*struct SpendDown {\n    address owner;\n    address spender;\n    uint256 amount;\n  } */\n  event Transfer(address indexed _from, address indexed _to, uint256 _value);\n  event Approval(address indexed _owner, address indexed _spender, uint256 _value);\n\n\n  mapping(address => mapping (address => uint256)) allowed;\n\n  mapping(address => uint256) private balances;\n  mapping(address => bool) private locked;\n\n  uint256 totalSupply_ = 1000 ether;\n\n  constructor() {\n    balances[msg.sender] = totalSupply_;\n  }\n  function lock() public returns (bool) {\n    locked[msg.sender] = true;\n    return locked[msg.sender];\n  }\n  function unlock() public returns (bool) {\n    locked[msg.sender] = false;\n    return locked[msg.sender];\n  }\n\n  // ICO ERC-20 standard functions\n\n  //https://eips.ethereum.org/EIPS/eip-20#name\n  // function definition can be changed to pure - not in standard\n  function name() public pure returns (string memory) {\n    return \"gitarg\";  \n  }\n  //https://eips.ethereum.org/EIPS/eip-20#symbol\n  // function definition can be changed to pure - not in standard\n  function symbol() public pure returns (string memory) {\n    return \"GIT\";\n  }\n  //https://eips.ethereum.org/EIPS/eip-20#decimals\n  // function definition can be changed to pure - not in standard\n  function decimals() public pure returns (uint8) {\n    return 6;\n  }\n  //https://eips.ethereum.org/EIPS/eip-20#decimals\n  // function definition can be changed to pure - not in standard\n  function totalSupply() public view returns (uint256) {\n    return totalSupply_;\n  }\n  function balanceOf(address _owner) public view returns (uint256 balance) {\n    require(!locked[msg.sender] && !locked[_owner]);\n    return balances[_owner];\n  }\n  function transfer(address _to, uint256 _value) public returns (bool success) {\n    require(!locked[msg.sender] && !locked[_to]);\n    require(_value <= balances[msg.sender]);\n    balances[msg.sender] = balances[msg.sender] - _value;\n    balances[_to] = balances[_to] + _value;\n    emit Transfer(msg.sender, _to, _value);\n    return true;\n  }\n  function transferFrom(address _from, address _to, uint256 _value) public returns (bool success) {\n    require(!locked[msg.sender] && !locked[_from] && !locked[_to]);\n    require(_value <= balances[_from]);\n    require(_value <= allowed[_from][msg.sender]);\n    balances[_from] = balances[_from] - _value;\n    allowed[_from][msg.sender] = allowed[_from][msg.sender] - _value;\n    // _to should then be message sender\n    balances[_to] = balances[_to] + _value;\n    emit Transfer(_from, _to, _value);\n    return true;\n  }\n  function approve(address _spender, uint256 _value) public returns (bool success) {\n    require(!locked[msg.sender] && !locked[_spender]);\n    allowed[msg.sender][_spender] = _value;\n    emit Approval(msg.sender, _spender, _value);\n    return true;\n  }\n  function allowance(address _owner, address _spender) public view returns (uint256 remaining) {\n    // STYLEEE\n    //for (uint i = 0; i < spendDownFunds.length; i++) {\n     // if (spendDownFunds[i].spender == _spender && spendDownFunds[i].owner == _owner) {\n      //  return spendDownFunds[i].amount;\n      //}\n    //}\n    require(!locked[msg.sender] && !locked[_owner] && !locked[_spender]);\n    return allowed[_owner][_spender];\n  }\n}\n",
  "sourcePath": "/home/gitarg/gitarg/solidity_ico/contracts/gitarg.sol",
  "compiler": {
    "name": "solc",
    "version": "0.8.20+commit.a1b79de6.Emscripten.clang"
  },
  "schemaVersion": "3.4.16",
  "updatedAt": "2024-02-26T21:52:38.847Z",
  "networkType": "ethereum",
  "devdoc": {
    "kind": "dev",
    "methods": {},
    "version": 1
  },
  "userdoc": {
    "kind": "user",
    "methods": {},
    "version": 1
  }
}