{
  "contractName": "gitarray",
  "abi": [
    {
      "inputs": [
        {
          "internalType": "address[]",
          "name": "_handshakes",
          "type": "address[]"
        },
        {
          "internalType": "address",
          "name": "_owner",
          "type": "address"
        },
        {
          "internalType": "address",
          "name": "_gitarg",
          "type": "address"
        },
        {
          "internalType": "address",
          "name": "_giteta",
          "type": "address"
        }
      ],
      "stateMutability": "nonpayable",
      "type": "constructor"
    },
    {
      "inputs": [],
      "name": "proof",
      "outputs": [
        {
          "internalType": "address",
          "name": "",
          "type": "address"
        }
      ],
      "stateMutability": "view",
      "type": "function",
      "constant": true
    },
    {
      "inputs": [],
      "name": "repo",
      "outputs": [
        {
          "internalType": "address",
          "name": "",
          "type": "address"
        }
      ],
      "stateMutability": "view",
      "type": "function",
      "constant": true
    },
    {
      "inputs": [
        {
          "internalType": "address[]",
          "name": "_handshakes",
          "type": "address[]"
        },
        {
          "internalType": "string",
          "name": "_name",
          "type": "string"
        },
        {
          "internalType": "string",
          "name": "_url",
          "type": "string"
        },
        {
          "internalType": "address",
          "name": "_owner",
          "type": "address"
        },
        {
          "internalType": "address",
          "name": "_argctl",
          "type": "address"
        }
      ],
      "name": "repo",
      "outputs": [
        {
          "internalType": "address",
          "name": "",
          "type": "address"
        }
      ],
      "stateMutability": "nonpayable",
      "type": "function"
    },
    {
      "inputs": [
        {
          "internalType": "address",
          "name": "handshake",
          "type": "address"
        }
      ],
      "name": "ctl",
      "outputs": [
        {
          "internalType": "bool",
          "name": "",
          "type": "bool"
        }
      ],
      "stateMutability": "nonpayable",
      "type": "function"
    },
    {
      "inputs": [],
      "name": "org",
      "outputs": [
        {
          "internalType": "bool",
          "name": "",
          "type": "bool"
        }
      ],
      "stateMutability": "nonpayable",
      "type": "function"
    },
    {
      "inputs": [],
      "name": "tar",
      "outputs": [],
      "stateMutability": "payable",
      "type": "function",
      "payable": true
    },
    {
      "inputs": [
        {
          "internalType": "address",
          "name": "_repo",
          "type": "address"
        }
      ],
      "name": "git",
      "outputs": [],
      "stateMutability": "payable",
      "type": "function",
      "payable": true
    },
    {
      "inputs": [],
      "name": "down",
      "outputs": [],
      "stateMutability": "payable",
      "type": "function",
      "payable": true
    }
  ],
  "bytecode": "0x608060405234801562000010575f80fd5b506040516200892138038062008921833981810160405281019062000036919062000590565b8160085f6101000a81548173ffffffffffffffffffffffffffffffffffffffff021916908373ffffffffffffffffffffffffffffffffffffffff16021790555080600b5f6101000a81548173ffffffffffffffffffffffffffffffffffffffff021916908373ffffffffffffffffffffffffffffffffffffffff1602179055508351600281905550335f806101000a81548173ffffffffffffffffffffffffffffffffffffffff021916908373ffffffffffffffffffffffffffffffffffffffff1602179055508260015f6101000a81548173ffffffffffffffffffffffffffffffffffffffff021916908373ffffffffffffffffffffffffffffffffffffffff1602179055505f600185516200014e919062000654565b67ffffffffffffffff8111156200016a5762000169620003d7565b5b604051908082528060200260200182016040528015620001995781602001602082028036833780820191505090505b5090505f5b85518110156200022c57858181518110620001be57620001bd6200068e565b5b6020026020010151828281518110620001dc57620001db6200068e565b5b602002602001019073ffffffffffffffffffffffffffffffffffffffff16908173ffffffffffffffffffffffffffffffffffffffff168152505080806200022390620006bb565b9150506200019e565b5030818651815181106200024557620002446200068e565b5b602002602001019073ffffffffffffffffffffffffffffffffffffffff16908173ffffffffffffffffffffffffffffffffffffffff1681525050808460025460016040516200029490620003a4565b620002a394939291906200080c565b604051809103905ff080158015620002bd573d5f803e3d5ffd5b5060045f6101000a81548173ffffffffffffffffffffffffffffffffffffffff021916908373ffffffffffffffffffffffffffffffffffffffff16021790555060045f9054906101000a900473ffffffffffffffffffffffffffffffffffffffff1660035f3373ffffffffffffffffffffffffffffffffffffffff1673ffffffffffffffffffffffffffffffffffffffff1681526020019081526020015f205f6101000a81548173ffffffffffffffffffffffffffffffffffffffff021916908373ffffffffffffffffffffffffffffffffffffffff16021790555050505050506200085e565b61222880620066f983390190565b5f604051905090565b5f80fd5b5f80fd5b5f80fd5b5f601f19601f8301169050919050565b7f4e487b71000000000000000000000000000000000000000000000000000000005f52604160045260245ffd5b6200040f82620003c7565b810181811067ffffffffffffffff82111715620004315762000430620003d7565b5b80604052505050565b5f62000445620003b2565b905062000453828262000404565b919050565b5f67ffffffffffffffff821115620004755762000474620003d7565b5b602082029050602081019050919050565b5f80fd5b5f73ffffffffffffffffffffffffffffffffffffffff82169050919050565b5f620004b5826200048a565b9050919050565b620004c781620004a9565b8114620004d2575f80fd5b50565b5f81519050620004e581620004bc565b92915050565b5f62000501620004fb8462000458565b6200043a565b9050808382526020820190506020840283018581111562000527576200052662000486565b5b835b818110156200055457806200053f8882620004d5565b84526020840193505060208101905062000529565b5050509392505050565b5f82601f830112620005755762000574620003c3565b5b815162000587848260208601620004eb565b91505092915050565b5f805f8060808587031215620005ab57620005aa620003bb565b5b5f85015167ffffffffffffffff811115620005cb57620005ca620003bf565b5b620005d9878288016200055e565b9450506020620005ec87828801620004d5565b9350506040620005ff87828801620004d5565b92505060606200061287828801620004d5565b91505092959194509250565b5f819050919050565b7f4e487b71000000000000000000000000000000000000000000000000000000005f52601160045260245ffd5b5f62000660826200061e565b91506200066d836200061e565b925082820190508082111562000688576200068762000627565b5b92915050565b7f4e487b71000000000000000000000000000000000000000000000000000000005f52603260045260245ffd5b5f620006c7826200061e565b91507fffffffffffffffffffffffffffffffffffffffffffffffffffffffffffffffff8203620006fc57620006fb62000627565b5b600182019050919050565b5f81519050919050565b5f82825260208201905092915050565b5f819050602082019050919050565b6200073b81620004a9565b82525050565b5f6200074e838362000730565b60208301905092915050565b5f602082019050919050565b5f620007728262000707565b6200077e818562000711565b93506200078b8362000721565b805f5b83811015620007c1578151620007a5888262000741565b9750620007b2836200075a565b9250506001810190506200078e565b5085935050505092915050565b620007d981620004a9565b82525050565b620007ea816200061e565b82525050565b5f8115159050919050565b6200080681620007f0565b82525050565b5f6080820190508181035f83015262000826818762000766565b9050620008376020830186620007ce565b620008466040830185620007df565b620008556060830184620007fb565b95945050505050565b615e8d806200086c5f395ff3fe60806040526004361062000085575f3560e01c8063cc1e2cb01162000054578063cc1e2cb01462000127578063d83379281462000156578063e770fdef1462000162578063faf924cf14620001a55762000085565b80630b977960146200008957806356ff312214620000cc5780636f93f50614620000fb578063a735df141462000107575b5f80fd5b34801562000095575f80fd5b50620000b46004803603810190620000ae919062000c22565b620001d4565b604051620000c3919062000c6e565b60405180910390f35b348015620000d8575f80fd5b50620000e362000326565b604051620000f2919062000c9a565b60405180910390f35b620001056200058e565b005b6200012560048036038101906200011f919062000c22565b620005aa565b005b34801562000133575f80fd5b506200013e620005ad565b6040516200014d919062000c6e565b60405180910390f35b6200016062000630565b005b3480156200016e575f80fd5b506200018d600480360381019062000187919062000ee4565b6200064c565b6040516200019c919062000c9a565b60405180910390f35b348015620001b1575f80fd5b50620001bc62000a8c565b604051620001cb919062000c9a565b60405180910390f35b5f8073ffffffffffffffffffffffffffffffffffffffff1660075f8473ffffffffffffffffffffffffffffffffffffffff1673ffffffffffffffffffffffffffffffffffffffff1681526020019081526020015f205f9054906101000a900473ffffffffffffffffffffffffffffffffffffffff1673ffffffffffffffffffffffffffffffffffffffff1614620002a2576040517f08c379a0000000000000000000000000000000000000000000000000000000008152600401620002999062000ffc565b60405180910390fd5b3360075f8473ffffffffffffffffffffffffffffffffffffffff1673ffffffffffffffffffffffffffffffffffffffff1681526020019081526020015f205f6101000a81548173ffffffffffffffffffffffffffffffffffffffff021916908373ffffffffffffffffffffffffffffffffffffffff16021790555060019050919050565b5f60045f9054906101000a900473ffffffffffffffffffffffffffffffffffffffff1673ffffffffffffffffffffffffffffffffffffffff166316395120336040518263ffffffff1660e01b815260040162000383919062000c9a565b602060405180830381865afa1580156200039f573d5f803e3d5ffd5b505050506040513d601f19601f82011682018060405250810190620003c591906200104b565b62000407576040517f08c379a0000000000000000000000000000000000000000000000000000000008152600401620003fe90620010c9565b60405180910390fd5b5f60055f3373ffffffffffffffffffffffffffffffffffffffff1673ffffffffffffffffffffffffffffffffffffffff1681526020019081526020015f205f9054906101000a900473ffffffffffffffffffffffffffffffffffffffff1690505f60035f8373ffffffffffffffffffffffffffffffffffffffff1673ffffffffffffffffffffffffffffffffffffffff1681526020019081526020015f205f9054906101000a900473ffffffffffffffffffffffffffffffffffffffff1690508073ffffffffffffffffffffffffffffffffffffffff166316395120336040518263ffffffff1660e01b815260040162000502919062000c9a565b602060405180830381865afa1580156200051e573d5f803e3d5ffd5b505050506040513d601f19601f820116820180604052508101906200054491906200104b565b62000586576040517f08c379a00000000000000000000000000000000000000000000000000000000081526004016200057d9062001137565b60405180910390fd5b819250505090565b34600d5f828254620005a191906200118d565b92505081905550565b50565b5f3360095f3373ffffffffffffffffffffffffffffffffffffffff1673ffffffffffffffffffffffffffffffffffffffff1681526020019081526020015f205f6101000a81548173ffffffffffffffffffffffffffffffffffffffff021916908373ffffffffffffffffffffffffffffffffffffffff1602179055506001905090565b34600c5f8282546200064391906200118d565b92505081905550565b5f8060065f73__gitorg________________________________6368d54aa7886040518263ffffffff1660e01b81526004016200068a91906200124b565b602060405180830381865af4158015620006a6573d5f803e3d5ffd5b505050506040513d601f19601f82011682018060405250810190620006cc9190620012a5565b81526020019081526020015f205490505f811462000721576040517f08c379a0000000000000000000000000000000000000000000000000000000008152600401620007189062001323565b60405180910390fd5b5f86868660085f9054906101000a900473ffffffffffffffffffffffffffffffffffffffff1630604051620007569062000b94565b6200076695949392919062001383565b604051809103905ff08015801562000780573d5f803e3d5ffd5b5090505f88866002546001604051620007999062000ba2565b620007a89493929190620014c4565b604051809103905ff080158015620007c2573d5f803e3d5ffd5b5090508073ffffffffffffffffffffffffffffffffffffffff166316395120336040518263ffffffff1660e01b815260040162000800919062000c9a565b602060405180830381865afa1580156200081c573d5f803e3d5ffd5b505050506040513d601f19601f820116820180604052508101906200084291906200104b565b62000884576040517f08c379a00000000000000000000000000000000000000000000000000000000081526004016200087b9062001564565b60405180910390fd5b8160055f8873ffffffffffffffffffffffffffffffffffffffff1673ffffffffffffffffffffffffffffffffffffffff1681526020019081526020015f205f6101000a81548173ffffffffffffffffffffffffffffffffffffffff021916908373ffffffffffffffffffffffffffffffffffffffff1602179055505f8590508073ffffffffffffffffffffffffffffffffffffffff1663c494a31884848a6040518463ffffffff1660e01b8152600401620009429392919062001584565b5f604051808303815f87803b1580156200095a575f80fd5b505af11580156200096d573d5f803e3d5ffd5b505050508160035f8573ffffffffffffffffffffffffffffffffffffffff1673ffffffffffffffffffffffffffffffffffffffff1681526020019081526020015f205f6101000a81548173ffffffffffffffffffffffffffffffffffffffff021916908373ffffffffffffffffffffffffffffffffffffffff1602179055504260065f73__gitorg________________________________6368d54aa78c6040518263ffffffff1660e01b815260040162000a2991906200124b565b602060405180830381865af415801562000a45573d5f803e3d5ffd5b505050506040513d601f19601f8201168201806040525081019062000a6b9190620012a5565b81526020019081526020015f20819055508294505050505095945050505050565b5f60045f9054906101000a900473ffffffffffffffffffffffffffffffffffffffff1673ffffffffffffffffffffffffffffffffffffffff166316395120336040518263ffffffff1660e01b815260040162000ae9919062000c9a565b602060405180830381865afa15801562000b05573d5f803e3d5ffd5b505050506040513d601f19601f8201168201806040525081019062000b2b91906200104b565b62000b6d576040517f08c379a000000000000000000000000000000000000000000000000000000000815260040162000b64906200160d565b60405180910390fd5b60085f9054906101000a900473ffffffffffffffffffffffffffffffffffffffff16905090565b612602806200162e83390190565b6122288062003c3083390190565b5f604051905090565b5f80fd5b5f80fd5b5f73ffffffffffffffffffffffffffffffffffffffff82169050919050565b5f62000bec8262000bc1565b9050919050565b62000bfe8162000be0565b811462000c09575f80fd5b50565b5f8135905062000c1c8162000bf3565b92915050565b5f6020828403121562000c3a5762000c3962000bb9565b5b5f62000c498482850162000c0c565b91505092915050565b5f8115159050919050565b62000c688162000c52565b82525050565b5f60208201905062000c835f83018462000c5d565b92915050565b62000c948162000be0565b82525050565b5f60208201905062000caf5f83018462000c89565b92915050565b5f80fd5b5f601f19601f8301169050919050565b7f4e487b71000000000000000000000000000000000000000000000000000000005f52604160045260245ffd5b62000d018262000cb9565b810181811067ffffffffffffffff8211171562000d235762000d2262000cc9565b5b80604052505050565b5f62000d3762000bb0565b905062000d45828262000cf6565b919050565b5f67ffffffffffffffff82111562000d675762000d6662000cc9565b5b602082029050602081019050919050565b5f80fd5b5f62000d9262000d8c8462000d4a565b62000d2c565b9050808382526020820190506020840283018581111562000db85762000db762000d78565b5b835b8181101562000de5578062000dd0888262000c0c565b84526020840193505060208101905062000dba565b5050509392505050565b5f82601f83011262000e065762000e0562000cb5565b5b813562000e1884826020860162000d7c565b91505092915050565b5f80fd5b5f67ffffffffffffffff82111562000e425762000e4162000cc9565b5b62000e4d8262000cb9565b9050602081019050919050565b828183375f83830152505050565b5f62000e7e62000e788462000e25565b62000d2c565b90508281526020810184848401111562000e9d5762000e9c62000e21565b5b62000eaa84828562000e5a565b509392505050565b5f82601f83011262000ec95762000ec862000cb5565b5b813562000edb84826020860162000e68565b91505092915050565b5f805f805f60a0868803121562000f005762000eff62000bb9565b5b5f86013567ffffffffffffffff81111562000f205762000f1f62000bbd565b5b62000f2e8882890162000def565b955050602086013567ffffffffffffffff81111562000f525762000f5162000bbd565b5b62000f608882890162000eb2565b945050604086013567ffffffffffffffff81111562000f845762000f8362000bbd565b5b62000f928882890162000eb2565b935050606062000fa58882890162000c0c565b925050608062000fb88882890162000c0c565b9150509295509295909350565b5f82825260208201905092915050565b50565b5f62000fe55f8362000fc5565b915062000ff28262000fd5565b5f82019050919050565b5f6020820190508181035f830152620010158162000fd8565b9050919050565b620010278162000c52565b811462001032575f80fd5b50565b5f8151905062001045816200101c565b92915050565b5f6020828403121562001063576200106262000bb9565b5b5f620010728482850162001035565b91505092915050565b7f72616964000000000000000000000000000000000000000000000000000000005f82015250565b5f620010b160048362000fc5565b9150620010be826200107b565b602082019050919050565b5f6020820190508181035f830152620010e281620010a3565b9050919050565b7f61726964000000000000000000000000000000000000000000000000000000005f82015250565b5f6200111f60048362000fc5565b91506200112c82620010e9565b602082019050919050565b5f6020820190508181035f830152620011508162001111565b9050919050565b5f819050919050565b7f4e487b71000000000000000000000000000000000000000000000000000000005f52601160045260245ffd5b5f620011998262001157565b9150620011a68362001157565b9250828201905080821115620011c157620011c062001160565b5b92915050565b5f81519050919050565b5f82825260208201905092915050565b5f5b8381101562001200578082015181840152602081019050620011e3565b5f8484015250505050565b5f6200121782620011c7565b620012238185620011d1565b935062001235818560208601620011e1565b620012408162000cb9565b840191505092915050565b5f6020820190508181035f8301526200126581846200120b565b905092915050565b5f819050919050565b62001281816200126d565b81146200128c575f80fd5b50565b5f815190506200129f8162001276565b92915050565b5f60208284031215620012bd57620012bc62000bb9565b5b5f620012cc848285016200128f565b91505092915050565b7f7265706f206e6f7420756e6971756500000000000000000000000000000000005f82015250565b5f6200130b600f8362000fc5565b91506200131882620012d5565b602082019050919050565b5f6020820190508181035f8301526200133c81620012fd565b9050919050565b5f6200134f82620011c7565b6200135b818562000fc5565b93506200136d818560208601620011e1565b620013788162000cb9565b840191505092915050565b5f60a0820190508181035f8301526200139d818862001343565b90508181036020830152620013b3818762001343565b9050620013c4604083018662000c89565b620013d3606083018562000c89565b620013e2608083018462000c89565b9695505050505050565b5f81519050919050565b5f82825260208201905092915050565b5f819050602082019050919050565b620014208162000be0565b82525050565b5f62001433838362001415565b60208301905092915050565b5f602082019050919050565b5f6200145782620013ec565b620014638185620013f6565b9350620014708362001406565b805f5b83811015620014a65781516200148a888262001426565b975062001497836200143f565b92505060018101905062001473565b5085935050505092915050565b620014be8162001157565b82525050565b5f6080820190508181035f830152620014de81876200144b565b9050620014ef602083018662000c89565b620014fe6040830185620014b3565b6200150d606083018462000c5d565b95945050505050565b7f67697400000000000000000000000000000000000000000000000000000000005f82015250565b5f6200154c60038362000fc5565b9150620015598262001516565b602082019050919050565b5f6020820190508181035f8301526200157d816200153e565b9050919050565b5f606082019050620015995f83018662000c89565b620015a8602083018562000c89565b620015b7604083018462000c89565b949350505050565b7f626c756666616c6f0000000000000000000000000000000000000000000000005f82015250565b5f620015f560088362000fc5565b91506200160282620015bf565b602082019050919050565b5f6020820190508181035f8301526200162681620015e7565b905091905056fe608060405260405162002602380380620026028339818101604052810190620000299190620004ce565b3373ffffffffffffffffffffffffffffffffffffffff168173ffffffffffffffffffffffffffffffffffffffff161462000079576001600b60146101000a81548160ff0219169083151502179055505b33600b5f6101000a81548173ffffffffffffffffffffffffffffffffffffffff021916908373ffffffffffffffffffffffffffffffffffffffff160217905550845f9081620000c99190620007c7565b508360019081620000db9190620007c7565b508260025f6101000a81548173ffffffffffffffffffffffffffffffffffffffff021916908373ffffffffffffffffffffffffffffffffffffffff1602179055503360045f6101000a81548173ffffffffffffffffffffffffffffffffffffffff021916908373ffffffffffffffffffffffffffffffffffffffff1602179055508160055f6101000a81548173ffffffffffffffffffffffffffffffffffffffff021916908373ffffffffffffffffffffffffffffffffffffffff1602179055503460088190555042600c5f3373ffffffffffffffffffffffffffffffffffffffff1673ffffffffffffffffffffffffffffffffffffffff1681526020019081526020015f208190555042600c5f8573ffffffffffffffffffffffffffffffffffffffff1673ffffffffffffffffffffffffffffffffffffffff1681526020019081526020015f208190555042600c5f600b5f9054906101000a900473ffffffffffffffffffffffffffffffffffffffff1673ffffffffffffffffffffffffffffffffffffffff1673ffffffffffffffffffffffffffffffffffffffff1681526020019081526020015f2081905550600360014233604051602001620002a493929190620009b2565b60405160208183030381529060405280519060200120908060018154018082558091505060019003905f5260205f20015f90919091909150555050505050620009f0565b5f604051905090565b5f80fd5b5f80fd5b5f80fd5b5f80fd5b5f601f19601f8301169050919050565b7f4e487b71000000000000000000000000000000000000000000000000000000005f52604160045260245ffd5b620003498262000301565b810181811067ffffffffffffffff821117156200036b576200036a62000311565b5b80604052505050565b5f6200037f620002e8565b90506200038d82826200033e565b919050565b5f67ffffffffffffffff821115620003af57620003ae62000311565b5b620003ba8262000301565b9050602081019050919050565b5f5b83811015620003e6578082015181840152602081019050620003c9565b5f8484015250505050565b5f62000407620004018462000392565b62000374565b905082815260208101848484011115620004265762000425620002fd565b5b62000433848285620003c7565b509392505050565b5f82601f830112620004525762000451620002f9565b5b815162000464848260208601620003f1565b91505092915050565b5f73ffffffffffffffffffffffffffffffffffffffff82169050919050565b5f62000498826200046d565b9050919050565b620004aa816200048c565b8114620004b5575f80fd5b50565b5f81519050620004c8816200049f565b92915050565b5f805f805f60a08688031215620004ea57620004e9620002f1565b5b5f86015167ffffffffffffffff8111156200050a5762000509620002f5565b5b62000518888289016200043b565b955050602086015167ffffffffffffffff8111156200053c576200053b620002f5565b5b6200054a888289016200043b565b94505060406200055d88828901620004b8565b93505060606200057088828901620004b8565b92505060806200058388828901620004b8565b9150509295509295909350565b5f81519050919050565b7f4e487b71000000000000000000000000000000000000000000000000000000005f52602260045260245ffd5b5f6002820490506001821680620005df57607f821691505b602082108103620005f557620005f46200059a565b5b50919050565b5f819050815f5260205f209050919050565b5f6020601f8301049050919050565b5f82821b905092915050565b5f60088302620006597fffffffffffffffffffffffffffffffffffffffffffffffffffffffffffffffff826200061c565b6200066586836200061c565b95508019841693508086168417925050509392505050565b5f819050919050565b5f819050919050565b5f620006af620006a9620006a3846200067d565b62000686565b6200067d565b9050919050565b5f819050919050565b620006ca836200068f565b620006e2620006d982620006b6565b84845462000628565b825550505050565b5f90565b620006f8620006ea565b62000705818484620006bf565b505050565b5b818110156200072c57620007205f82620006ee565b6001810190506200070b565b5050565b601f8211156200077b576200074581620005fb565b62000750846200060d565b8101602085101562000760578190505b620007786200076f856200060d565b8301826200070a565b50505b505050565b5f82821c905092915050565b5f6200079d5f198460080262000780565b1980831691505092915050565b5f620007b783836200078c565b9150826002028217905092915050565b620007d28262000590565b67ffffffffffffffff811115620007ee57620007ed62000311565b5b620007fa8254620005c7565b6200080782828562000730565b5f60209050601f8311600181146200083d575f841562000828578287015190505b620008348582620007aa565b865550620008a3565b601f1984166200084d86620005fb565b5f5b8281101562000876578489015182556001820191506020850194506020810190506200084f565b8683101562000896578489015162000892601f8916826200078c565b8355505b6001600288020188555050505b505050505050565b5f81905092915050565b5f8154620008c381620005c7565b620008cf8186620008ab565b9450600182165f8114620008ec5760018114620009025762000938565b60ff198316865281151582028601935062000938565b6200090d85620005fb565b5f5b8381101562000930578154818901526001820191506020810190506200090f565b838801955050505b50505092915050565b5f819050919050565b6200095f62000959826200067d565b62000941565b82525050565b5f8160601b9050919050565b5f6200097d8262000965565b9050919050565b5f620009908262000971565b9050919050565b620009ac620009a6826200048c565b62000984565b82525050565b5f620009bf8286620008b5565b9150620009cd82856200094a565b602082019150620009df828462000997565b601482019150819050949350505050565b611c0480620009fe5f395ff3fe6080604052600436106100f2575f3560e01c8063bb82717b11610089578063ed5f07d911610058578063ed5f07d914610338578063f63c82fb14610360578063fc735e991461039c578063ff9913e8146103c6576100f2565b8063bb82717b1461025c578063c05a911c14610298578063d63a8e11146102d4578063e1f21c6714610310576100f2565b80635600f04f116100c55780635600f04f146101905780638da5cb5b146101ba57806395540b26146101e4578063a1f7d4c714610220576100f2565b806306fdde03146100f65780633fa4f245146101205780634ae4aefd1461014a5780634f2be91f14610186575b5f80fd5b348015610101575f80fd5b5061010a6103ee565b6040516101179190611192565b60405180910390f35b34801561012b575f80fd5b50610134610479565b60405161014191906111ca565b60405180910390f35b348015610155575f80fd5b50610170600480360381019061016b919061124e565b61047f565b60405161017d91906111ca565b60405180910390f35b61018e610581565b005b34801561019b575f80fd5b506101a4610693565b6040516101b19190611192565b60405180910390f35b3480156101c5575f80fd5b506101ce61071f565b6040516101db9190611288565b60405180910390f35b3480156101ef575f80fd5b5061020a600480360381019061020591906113f7565b610744565b6040516102179190611469565b60405180910390f35b34801561022b575f80fd5b50610246600480360381019061024191906114bd565b610870565b6040516102539190611469565b60405180910390f35b348015610267575f80fd5b50610282600480360381019061027d9190611536565b610a1d565b60405161028f91906111ca565b60405180910390f35b3480156102a3575f80fd5b506102be60048036038101906102b99190611574565b610b02565b6040516102cb9190611469565b60405180910390f35b3480156102df575f80fd5b506102fa60048036038101906102f5919061124e565b610c1f565b60405161030791906111ca565b60405180910390f35b34801561031b575f80fd5b506103366004803603810190610331919061159f565b610c34565b005b348015610343575f80fd5b5061035e60048036038101906103599190611624565b610d76565b005b34801561036b575f80fd5b5061038660048036038101906103819190611662565b610e95565b60405161039391906111ca565b60405180910390f35b3480156103a7575f80fd5b506103b0611030565b6040516103bd91906116b8565b60405180910390f35b3480156103d1575f80fd5b506103ec60048036038101906103e7919061124e565b611034565b005b5f80546103fa906116fe565b80601f0160208091040260200160405190810160405280929190818152602001828054610426906116fe565b80156104715780601f1061044857610100808354040283529160200191610471565b820191905f5260205f20905b81548152906001019060200180831161045457829003601f168201915b505050505081565b60085481565b5f600d5f3373ffffffffffffffffffffffffffffffffffffffff1673ffffffffffffffffffffffffffffffffffffffff1681526020019081526020015f2054600c5f3373ffffffffffffffffffffffffffffffffffffffff1673ffffffffffffffffffffffffffffffffffffffff1681526020019081526020015f20541161053c576040517f08c379a00000000000000000000000000000000000000000000000000000000081526004016105339061179e565b60405180910390fd5b60065f8373ffffffffffffffffffffffffffffffffffffffff1673ffffffffffffffffffffffffffffffffffffffff1681526020019081526020015f20549050919050565b5f60065f3373ffffffffffffffffffffffffffffffffffffffff1673ffffffffffffffffffffffffffffffffffffffff1681526020019081526020015f20540361062657600733908060018154018082558091505060019003905f5260205f20015f9091909190916101000a81548173ffffffffffffffffffffffffffffffffffffffff021916908373ffffffffffffffffffffffffffffffffffffffff1602179055505b3460065f3373ffffffffffffffffffffffffffffffffffffffff1673ffffffffffffffffffffffffffffffffffffffff1681526020019081526020015f205f82825461067291906117e9565b925050819055503460085f82825461068a91906117e9565b92505081905550565b600180546106a0906116fe565b80601f01602080910402602001604051908101604052809291908181526020018280546106cc906116fe565b80156107175780601f106106ee57610100808354040283529160200191610717565b820191905f5260205f20905b8154815290600101906020018083116106fa57829003601f168201915b505050505081565b60025f9054906101000a900473ffffffffffffffffffffffffffffffffffffffff1681565b5f600d5f3373ffffffffffffffffffffffffffffffffffffffff1673ffffffffffffffffffffffffffffffffffffffff1681526020019081526020015f2054600c5f3373ffffffffffffffffffffffffffffffffffffffff1673ffffffffffffffffffffffffffffffffffffffff1681526020019081526020015f205411610801576040517f08c379a00000000000000000000000000000000000000000000000000000000081526004016107f89061179e565b60405180910390fd5b5f838333604051602001610817939291906118bb565b6040516020818303038152906040528051906020012090507fa61b38417b09bc2bd845412017ff0bbba91d3aea7309c5d2e16bd4e1a125ff9a8160405161085e9190611469565b60405180910390a18091505092915050565b5f600d5f3373ffffffffffffffffffffffffffffffffffffffff1673ffffffffffffffffffffffffffffffffffffffff1681526020019081526020015f2054600c5f3373ffffffffffffffffffffffffffffffffffffffff1673ffffffffffffffffffffffffffffffffffffffff1681526020019081526020015f20541161092d576040517f08c379a00000000000000000000000000000000000000000000000000000000081526004016109249061179e565b60405180910390fd5b600b5f9054906101000a900473ffffffffffffffffffffffffffffffffffffffff1673ffffffffffffffffffffffffffffffffffffffff168373ffffffffffffffffffffffffffffffffffffffff16146109bc576040517f08c379a00000000000000000000000000000000000000000000000000000000081526004016109b390611963565b60405180910390fd5b5f600383815481106109d1576109d0611981565b5b905f5260205f20015490507fa61b38417b09bc2bd845412017ff0bbba91d3aea7309c5d2e16bd4e1a125ff9a81604051610a0b9190611469565b60405180910390a18091505092915050565b5f600983908060018154018082558091505060019003905f5260205f20015f9091909190916101000a81548173ffffffffffffffffffffffffffffffffffffffff021916908373ffffffffffffffffffffffffffffffffffffffff16021790555082600a5f8473ffffffffffffffffffffffffffffffffffffffff1673ffffffffffffffffffffffffffffffffffffffff1681526020019081526020015f205f6101000a81548173ffffffffffffffffffffffffffffffffffffffff021916908373ffffffffffffffffffffffffffffffffffffffff16021790555042905092915050565b5f600d5f3373ffffffffffffffffffffffffffffffffffffffff1673ffffffffffffffffffffffffffffffffffffffff1681526020019081526020015f2054600c5f3373ffffffffffffffffffffffffffffffffffffffff1673ffffffffffffffffffffffffffffffffffffffff1681526020019081526020015f205411610bbf576040517f08c379a0000000000000000000000000000000000000000000000000000000008152600401610bb69061179e565b60405180910390fd5b5f60038381548110610bd457610bd3611981565b5b905f5260205f20015490507fa61b38417b09bc2bd845412017ff0bbba91d3aea7309c5d2e16bd4e1a125ff9a81604051610c0e9190611469565b60405180910390a180915050919050565b600c602052805f5260405f205f915090505481565b600d5f3373ffffffffffffffffffffffffffffffffffffffff1673ffffffffffffffffffffffffffffffffffffffff1681526020019081526020015f2054600c5f3373ffffffffffffffffffffffffffffffffffffffff1673ffffffffffffffffffffffffffffffffffffffff1681526020019081526020015f205411610cf0576040517f08c379a0000000000000000000000000000000000000000000000000000000008152600401610ce79061179e565b60405180910390fd5b5f8390508073ffffffffffffffffffffffffffffffffffffffff1663095ea7b384846040518363ffffffff1660e01b8152600401610d2f929190611a09565b6020604051808303815f875af1158015610d4b573d5f803e3d5ffd5b505050506040513d601f19601f82011682018060405250810190610d6f9190611a44565b5050505050565b60025f9054906101000a900473ffffffffffffffffffffffffffffffffffffffff1673ffffffffffffffffffffffffffffffffffffffff163373ffffffffffffffffffffffffffffffffffffffff1614610e05576040517f08c379a0000000000000000000000000000000000000000000000000000000008152600401610dfc90611ab9565b60405180910390fd5b8015610e4f576001600c5f8473ffffffffffffffffffffffffffffffffffffffff1673ffffffffffffffffffffffffffffffffffffffff1681526020019081526020015f20819055505b42600d5f8473ffffffffffffffffffffffffffffffffffffffff1673ffffffffffffffffffffffffffffffffffffffff1681526020019081526020015f20819055505050565b5f600d5f3373ffffffffffffffffffffffffffffffffffffffff1673ffffffffffffffffffffffffffffffffffffffff1681526020019081526020015f2054600c5f3373ffffffffffffffffffffffffffffffffffffffff1673ffffffffffffffffffffffffffffffffffffffff1681526020019081526020015f205411610f52576040517f08c379a0000000000000000000000000000000000000000000000000000000008152600401610f499061179e565b60405180910390fd5b600373__gitorg________________________________638ee0cd2e8442336040518463ffffffff1660e01b8152600401610f8f93929190611b3d565b602060405180830381865af4158015610faa573d5f803e3d5ffd5b505050506040513d601f19601f82011682018060405250810190610fce9190611ba3565b908060018154018082558091505060019003905f5260205f20015f90919091909150557fcd41a3e784fc947ef5bbb922e2bd57447e5e3b389c45f5d24c210b1f82d7ebcc4260405161102091906111ca565b60405180910390a1429050919050565b5f90565b60025f9054906101000a900473ffffffffffffffffffffffffffffffffffffffff1673ffffffffffffffffffffffffffffffffffffffff163373ffffffffffffffffffffffffffffffffffffffff16146110c3576040517f08c379a00000000000000000000000000000000000000000000000000000000081526004016110ba90611ab9565b60405180910390fd5b42600c5f8373ffffffffffffffffffffffffffffffffffffffff1673ffffffffffffffffffffffffffffffffffffffff1681526020019081526020015f208190555050565b5f81519050919050565b5f82825260208201905092915050565b5f5b8381101561113f578082015181840152602081019050611124565b5f8484015250505050565b5f601f19601f8301169050919050565b5f61116482611108565b61116e8185611112565b935061117e818560208601611122565b6111878161114a565b840191505092915050565b5f6020820190508181035f8301526111aa818461115a565b905092915050565b5f819050919050565b6111c4816111b2565b82525050565b5f6020820190506111dd5f8301846111bb565b92915050565b5f604051905090565b5f80fd5b5f80fd5b5f73ffffffffffffffffffffffffffffffffffffffff82169050919050565b5f61121d826111f4565b9050919050565b61122d81611213565b8114611237575f80fd5b50565b5f8135905061124881611224565b92915050565b5f60208284031215611263576112626111ec565b5b5f6112708482850161123a565b91505092915050565b61128281611213565b82525050565b5f60208201905061129b5f830184611279565b92915050565b5f80fd5b5f80fd5b7f4e487b71000000000000000000000000000000000000000000000000000000005f52604160045260245ffd5b6112df8261114a565b810181811067ffffffffffffffff821117156112fe576112fd6112a9565b5b80604052505050565b5f6113106111e3565b905061131c82826112d6565b919050565b5f67ffffffffffffffff82111561133b5761133a6112a9565b5b6113448261114a565b9050602081019050919050565b828183375f83830152505050565b5f61137161136c84611321565b611307565b90508281526020810184848401111561138d5761138c6112a5565b5b611398848285611351565b509392505050565b5f82601f8301126113b4576113b36112a1565b5b81356113c484826020860161135f565b91505092915050565b6113d6816111b2565b81146113e0575f80fd5b50565b5f813590506113f1816113cd565b92915050565b5f806040838503121561140d5761140c6111ec565b5b5f83013567ffffffffffffffff81111561142a576114296111f0565b5b611436858286016113a0565b9250506020611447858286016113e3565b9150509250929050565b5f819050919050565b61146381611451565b82525050565b5f60208201905061147c5f83018461145a565b92915050565b5f61148c826111f4565b9050919050565b61149c81611482565b81146114a6575f80fd5b50565b5f813590506114b781611493565b92915050565b5f80604083850312156114d3576114d26111ec565b5b5f6114e0858286016114a9565b92505060206114f1858286016113e3565b9150509250929050565b5f61150582611213565b9050919050565b611515816114fb565b811461151f575f80fd5b50565b5f813590506115308161150c565b92915050565b5f806040838503121561154c5761154b6111ec565b5b5f61155985828601611522565b925050602061156a8582860161123a565b9150509250929050565b5f60208284031215611589576115886111ec565b5b5f611596848285016113e3565b91505092915050565b5f805f606084860312156115b6576115b56111ec565b5b5f6115c38682870161123a565b93505060206115d4868287016114a9565b92505060406115e5868287016113e3565b9150509250925092565b5f8115159050919050565b611603816115ef565b811461160d575f80fd5b50565b5f8135905061161e816115fa565b92915050565b5f806040838503121561163a576116396111ec565b5b5f6116478582860161123a565b925050602061165885828601611610565b9150509250929050565b5f60208284031215611677576116766111ec565b5b5f82013567ffffffffffffffff811115611694576116936111f0565b5b6116a0848285016113a0565b91505092915050565b6116b2816115ef565b82525050565b5f6020820190506116cb5f8301846116a9565b92915050565b7f4e487b71000000000000000000000000000000000000000000000000000000005f52602260045260245ffd5b5f600282049050600182168061171557607f821691505b602082108103611728576117276116d1565b5b50919050565b7f7468652073656e64657227732074696d657374616d7020776173207265766f6b5f8201527f6564206d6f726520726563656e746c7900000000000000000000000000000000602082015250565b5f611788603083611112565b91506117938261172e565b604082019050919050565b5f6020820190508181035f8301526117b58161177c565b9050919050565b7f4e487b71000000000000000000000000000000000000000000000000000000005f52601160045260245ffd5b5f6117f3826111b2565b91506117fe836111b2565b9250828201905080821115611816576118156117bc565b5b92915050565b5f81905092915050565b5f61183082611108565b61183a818561181c565b935061184a818560208601611122565b80840191505092915050565b5f819050919050565b61187061186b826111b2565b611856565b82525050565b5f8160601b9050919050565b5f61188c82611876565b9050919050565b5f61189d82611882565b9050919050565b6118b56118b082611213565b611893565b82525050565b5f6118c68286611826565b91506118d2828561185f565b6020820191506118e282846118a4565b601482019150819050949350505050565b7f766572696669636174696f6e2061646472657373206973206e6f7420637265615f8201527f746f720000000000000000000000000000000000000000000000000000000000602082015250565b5f61194d602383611112565b9150611958826118f3565b604082019050919050565b5f6020820190508181035f83015261197a81611941565b9050919050565b7f4e487b71000000000000000000000000000000000000000000000000000000005f52603260045260245ffd5b5f819050919050565b5f6119d16119cc6119c7846111f4565b6119ae565b6111f4565b9050919050565b5f6119e2826119b7565b9050919050565b5f6119f3826119d8565b9050919050565b611a03816119e9565b82525050565b5f604082019050611a1c5f8301856119fa565b611a2960208301846111bb565b9392505050565b5f81519050611a3e816115fa565b92915050565b5f60208284031215611a5957611a586111ec565b5b5f611a6684828501611a30565b91505092915050565b7f6f776e65722061757468206661696c75726500000000000000000000000000005f82015250565b5f611aa3601283611112565b9150611aae82611a6f565b602082019050919050565b5f6020820190508181035f830152611ad081611a97565b9050919050565b5f82825260208201905092915050565b5f611af182611108565b611afb8185611ad7565b9350611b0b818560208601611122565b611b148161114a565b840191505092915050565b611b28816111b2565b82525050565b611b3781611213565b82525050565b5f6060820190508181035f830152611b558186611ae7565b9050611b646020830185611b1f565b611b716040830184611b2e565b949350505050565b611b8281611451565b8114611b8c575f80fd5b50565b5f81519050611b9d81611b79565b92915050565b5f60208284031215611bb857611bb76111ec565b5b5f611bc584828501611b8f565b9150509291505056fea2646970667358221220f34426f768940ccf504c65feb13ea320ef10b58b65f70ea68cfbfcb0d4a64f1a64736f6c63430008140033608060405243600a5534801562000014575f80fd5b50604051620022283803806200222883398181016040528101906200003a919062000533565b335f806101000a81548173ffffffffffffffffffffffffffffffffffffffff021916908373ffffffffffffffffffffffffffffffffffffffff1602179055508260015f6101000a81548173ffffffffffffffffffffffffffffffffffffffff021916908373ffffffffffffffffffffffffffffffffffffffff16021790555060075f9054906101000a900473ffffffffffffffffffffffffffffffffffffffff1660075f6101000a81548173ffffffffffffffffffffffffffffffffffffffff021916908373ffffffffffffffffffffffffffffffffffffffff16021790555080600c5f6101000a81548160ff0219169083151502179055505f600654036200014b57835160068190555062000153565b816006819055505b5f5b845181101562000216574260025f878481518110620001795762000178620005c1565b5b602002602001015173ffffffffffffffffffffffffffffffffffffffff1673ffffffffffffffffffffffffffffffffffffffff1681526020019081526020015f20819055505f60055f3373ffffffffffffffffffffffffffffffffffffffff1673ffffffffffffffffffffffffffffffffffffffff1681526020019081526020015f208190555080806200020d906200061b565b91505062000155565b5083600b90805190602001906200022f9291906200023a565b505050505062000667565b828054828255905f5260205f20908101928215620002b3579160200282015b82811115620002b2578251825f6101000a81548173ffffffffffffffffffffffffffffffffffffffff021916908373ffffffffffffffffffffffffffffffffffffffff1602179055509160200191906001019062000259565b5b509050620002c29190620002c6565b5090565b5b80821115620002df575f815f905550600101620002c7565b5090565b5f604051905090565b5f80fd5b5f80fd5b5f80fd5b5f601f19601f8301169050919050565b7f4e487b71000000000000000000000000000000000000000000000000000000005f52604160045260245ffd5b6200034082620002f8565b810181811067ffffffffffffffff8211171562000362576200036162000308565b5b80604052505050565b5f62000376620002e3565b905062000384828262000335565b919050565b5f67ffffffffffffffff821115620003a657620003a562000308565b5b602082029050602081019050919050565b5f80fd5b5f73ffffffffffffffffffffffffffffffffffffffff82169050919050565b5f620003e682620003bb565b9050919050565b620003f881620003da565b811462000403575f80fd5b50565b5f815190506200041681620003ed565b92915050565b5f620004326200042c8462000389565b6200036b565b90508083825260208201905060208402830185811115620004585762000457620003b7565b5b835b8181101562000485578062000470888262000406565b8452602084019350506020810190506200045a565b5050509392505050565b5f82601f830112620004a657620004a5620002f4565b5b8151620004b88482602086016200041c565b91505092915050565b5f819050919050565b620004d581620004c1565b8114620004e0575f80fd5b50565b5f81519050620004f381620004ca565b92915050565b5f8115159050919050565b6200050f81620004f9565b81146200051a575f80fd5b50565b5f815190506200052d8162000504565b92915050565b5f805f80608085870312156200054e576200054d620002ec565b5b5f85015167ffffffffffffffff8111156200056e576200056d620002f0565b5b6200057c878288016200048f565b94505060206200058f8782880162000406565b9350506040620005a287828801620004e3565b9250506060620005b5878288016200051d565b91505092959194509250565b7f4e487b71000000000000000000000000000000000000000000000000000000005f52603260045260245ffd5b7f4e487b71000000000000000000000000000000000000000000000000000000005f52601160045260245ffd5b5f6200062782620004c1565b91507fffffffffffffffffffffffffffffffffffffffffffffffffffffffffffffffff82036200065c576200065b620005ee565b5b600182019050919050565b611bb380620006755f395ff3fe608060405234801561000f575f80fd5b50600436106100a7575f3560e01c8063825f98d41161006f578063825f98d414610189578063900cf0cf1461019357806393f690e41461019d578063a7f43779146101bb578063cb15de5d146101d9578063e136156d146101f5576100a7565b8063054b0e7d146100ab5780630a3b0a4f146100c957806316395120146100f957806329092d0e1461012957806372686b1714610159575b5f80fd5b6100b3610225565b6040516100c0919061144b565b60405180910390f35b6100e360048036038101906100de91906114cf565b61026c565b6040516100f09190611512565b60405180910390f35b610113600480360381019061010e91906114cf565b61049a565b604051610120919061144b565b60405180910390f35b610143600480360381019061013e91906114cf565b610562565b6040516101509190611512565b60405180910390f35b610173600480360381019061016e91906114cf565b61086d565b6040516101809190611512565b60405180910390f35b610191610a3d565b005b61019b610b00565b005b6101a5610c89565b6040516101b2919061144b565b60405180910390f35b6101c3610c9b565b6040516101d09190611512565b60405180910390f35b6101f360048036038101906101ee919061167b565b610da5565b005b61020f600480360381019061020a919061171b565b6110ef565b60405161021c9190611512565b60405180910390f35b5f8060025f3373ffffffffffffffffffffffffffffffffffffffff1673ffffffffffffffffffffffffffffffffffffffff1681526020019081526020015f20541415905090565b5f8060025f3373ffffffffffffffffffffffffffffffffffffffff1673ffffffffffffffffffffffffffffffffffffffff1681526020019081526020015f2054036102ec576040517f08c379a00000000000000000000000000000000000000000000000000000000081526004016102e3906117b3565b60405180910390fd5b5f60055f3373ffffffffffffffffffffffffffffffffffffffff1673ffffffffffffffffffffffffffffffffffffffff1681526020019081526020015f20541461036b576040517f08c379a00000000000000000000000000000000000000000000000000000000081526004016103629061181b565b60405180910390fd5b4260025f8473ffffffffffffffffffffffffffffffffffffffff1673ffffffffffffffffffffffffffffffffffffffff1681526020019081526020015f2081905550600b82908060018154018082558091505060019003905f5260205f20015f9091909190916101000a81548173ffffffffffffffffffffffffffffffffffffffff021916908373ffffffffffffffffffffffffffffffffffffffff1602179055504260055f3373ffffffffffffffffffffffffffffffffffffffff1673ffffffffffffffffffffffffffffffffffffffff1681526020019081526020015f2081905550600160055f8473ffffffffffffffffffffffffffffffffffffffff1673ffffffffffffffffffffffffffffffffffffffff1681526020019081526020015f2081905550429050919050565b5f8060025f3373ffffffffffffffffffffffffffffffffffffffff1673ffffffffffffffffffffffffffffffffffffffff1681526020019081526020015f20540361051a576040517f08c379a0000000000000000000000000000000000000000000000000000000008152600401610511906117b3565b60405180910390fd5b5f60025f8473ffffffffffffffffffffffffffffffffffffffff1673ffffffffffffffffffffffffffffffffffffffff1681526020019081526020015f205414159050919050565b5f600c5f9054906101000a900460ff161561060b5760015f9054906101000a900473ffffffffffffffffffffffffffffffffffffffff1673ffffffffffffffffffffffffffffffffffffffff163373ffffffffffffffffffffffffffffffffffffffff1614610606576040517f08c379a00000000000000000000000000000000000000000000000000000000081526004016105fd90611883565b60405180910390fd5b6106e3565b60015f9054906101000a900473ffffffffffffffffffffffffffffffffffffffff1673ffffffffffffffffffffffffffffffffffffffff163373ffffffffffffffffffffffffffffffffffffffff1614806106a357505f60025f3373ffffffffffffffffffffffffffffffffffffffff1673ffffffffffffffffffffffffffffffffffffffff1681526020019081526020015f205414155b6106e2576040517f08c379a00000000000000000000000000000000000000000000000000000000081526004016106d9906118eb565b60405180910390fd5b5b5f60055f3373ffffffffffffffffffffffffffffffffffffffff1673ffffffffffffffffffffffffffffffffffffffff1681526020019081526020015f205414610762576040517f08c379a00000000000000000000000000000000000000000000000000000000081526004016107599061181b565b60405180910390fd5b5f60025f8473ffffffffffffffffffffffffffffffffffffffff1673ffffffffffffffffffffffffffffffffffffffff1681526020019081526020015f2054036107e1576040517f08c379a00000000000000000000000000000000000000000000000000000000081526004016107d890611953565b60405180910390fd5b5f60025f8473ffffffffffffffffffffffffffffffffffffffff1673ffffffffffffffffffffffffffffffffffffffff1681526020019081526020015f20819055504260035f8473ffffffffffffffffffffffffffffffffffffffff1673ffffffffffffffffffffffffffffffffffffffff1681526020019081526020015f2081905550429050919050565b5f600c5f9054906101000a900460ff16156109165760015f9054906101000a900473ffffffffffffffffffffffffffffffffffffffff1673ffffffffffffffffffffffffffffffffffffffff163373ffffffffffffffffffffffffffffffffffffffff1614610911576040517f08c379a000000000000000000000000000000000000000000000000000000000815260040161090890611883565b60405180910390fd5b6109ee565b60015f9054906101000a900473ffffffffffffffffffffffffffffffffffffffff1673ffffffffffffffffffffffffffffffffffffffff163373ffffffffffffffffffffffffffffffffffffffff1614806109ae57505f60025f3373ffffffffffffffffffffffffffffffffffffffff1673ffffffffffffffffffffffffffffffffffffffff1681526020019081526020015f205414155b6109ed576040517f08c379a00000000000000000000000000000000000000000000000000000000081526004016109e4906118eb565b60405180910390fd5b5b8160075f6101000a81548173ffffffffffffffffffffffffffffffffffffffff021916908373ffffffffffffffffffffffffffffffffffffffff16021790555042600881905550429050919050565b5f60025f3373ffffffffffffffffffffffffffffffffffffffff1673ffffffffffffffffffffffffffffffffffffffff1681526020019081526020015f205403610abc576040517f08c379a0000000000000000000000000000000000000000000000000000000008152600401610ab3906117b3565b60405180910390fd5b4260045f3373ffffffffffffffffffffffffffffffffffffffff1673ffffffffffffffffffffffffffffffffffffffff1681526020019081526020015f2081905550565b600c5f9054906101000a900460ff1615610ba85760015f9054906101000a900473ffffffffffffffffffffffffffffffffffffffff1673ffffffffffffffffffffffffffffffffffffffff163373ffffffffffffffffffffffffffffffffffffffff1614610ba3576040517f08c379a0000000000000000000000000000000000000000000000000000000008152600401610b9a90611883565b60405180910390fd5b610c80565b60015f9054906101000a900473ffffffffffffffffffffffffffffffffffffffff1673ffffffffffffffffffffffffffffffffffffffff163373ffffffffffffffffffffffffffffffffffffffff161480610c4057505f60025f3373ffffffffffffffffffffffffffffffffffffffff1673ffffffffffffffffffffffffffffffffffffffff1681526020019081526020015f205414155b610c7f576040517f08c379a0000000000000000000000000000000000000000000000000000000008152600401610c76906118eb565b60405180910390fd5b5b43600a81905550565b600c5f9054906101000a900460ff1681565b5f8060025f3373ffffffffffffffffffffffffffffffffffffffff1673ffffffffffffffffffffffffffffffffffffffff1681526020019081526020015f205403610d1b576040517f08c379a0000000000000000000000000000000000000000000000000000000008152600401610d12906119bb565b60405180910390fd5b5f60025f3373ffffffffffffffffffffffffffffffffffffffff1673ffffffffffffffffffffffffffffffffffffffff1681526020019081526020015f20819055504260035f3373ffffffffffffffffffffffffffffffffffffffff1673ffffffffffffffffffffffffffffffffffffffff1681526020019081526020015f208190555042905090565b600c5f9054906101000a900460ff1615610e4d5760015f9054906101000a900473ffffffffffffffffffffffffffffffffffffffff1673ffffffffffffffffffffffffffffffffffffffff163373ffffffffffffffffffffffffffffffffffffffff1614610e48576040517f08c379a0000000000000000000000000000000000000000000000000000000008152600401610e3f90611883565b60405180910390fd5b610f25565b60015f9054906101000a900473ffffffffffffffffffffffffffffffffffffffff1673ffffffffffffffffffffffffffffffffffffffff163373ffffffffffffffffffffffffffffffffffffffff161480610ee557505f60025f3373ffffffffffffffffffffffffffffffffffffffff1673ffffffffffffffffffffffffffffffffffffffff1681526020019081526020015f205414155b610f24576040517f08c379a0000000000000000000000000000000000000000000000000000000008152600401610f1b906118eb565b60405180910390fd5b5b5f5b8251811015611007575f60025f858481518110610f4757610f466119d9565b5b602002602001015173ffffffffffffffffffffffffffffffffffffffff1673ffffffffffffffffffffffffffffffffffffffff1681526020019081526020015f205403610f92575f80fd5b5f60045f858481518110610fa957610fa86119d9565b5b602002602001015173ffffffffffffffffffffffffffffffffffffffff1673ffffffffffffffffffffffffffffffffffffffff1681526020019081526020015f205403610ff4575f80fd5b8080610fff90611a33565b915050610f27565b505f5b81518110156110ea575f60025f84848151811061102a576110296119d9565b5b602002602001015173ffffffffffffffffffffffffffffffffffffffff1673ffffffffffffffffffffffffffffffffffffffff1681526020019081526020015f205403611075575f80fd5b5f60045f84848151811061108c5761108b6119d9565b5b602002602001015173ffffffffffffffffffffffffffffffffffffffff1673ffffffffffffffffffffffffffffffffffffffff1681526020019081526020015f2054146110d7575f80fd5b80806110e290611a33565b91505061100a565b505050565b5f600c5f9054906101000a900460ff16156111985760015f9054906101000a900473ffffffffffffffffffffffffffffffffffffffff1673ffffffffffffffffffffffffffffffffffffffff163373ffffffffffffffffffffffffffffffffffffffff1614611193576040517f08c379a000000000000000000000000000000000000000000000000000000000815260040161118a90611883565b60405180910390fd5b611270565b60015f9054906101000a900473ffffffffffffffffffffffffffffffffffffffff1673ffffffffffffffffffffffffffffffffffffffff163373ffffffffffffffffffffffffffffffffffffffff16148061123057505f60025f3373ffffffffffffffffffffffffffffffffffffffff1673ffffffffffffffffffffffffffffffffffffffff1681526020019081526020015f205414155b61126f576040517f08c379a0000000000000000000000000000000000000000000000000000000008152600401611266906118eb565b60405180910390fd5b5b600b80549050600a54436112849190611a7a565b116112c4576040517f08c379a00000000000000000000000000000000000000000000000000000000081526004016112bb90611af7565b60405180910390fd5b5f60055f3373ffffffffffffffffffffffffffffffffffffffff1673ffffffffffffffffffffffffffffffffffffffff1681526020019081526020015f205414611343576040517f08c379a000000000000000000000000000000000000000000000000000000000815260040161133a9061181b565b60405180910390fd5b600c5f9054906101000a900460ff166113d757600160055f8573ffffffffffffffffffffffffffffffffffffffff1673ffffffffffffffffffffffffffffffffffffffff1681526020019081526020015f2054146113d6576040517f08c379a00000000000000000000000000000000000000000000000000000000081526004016113cd90611b5f565b60405180910390fd5b5b5f60055f8573ffffffffffffffffffffffffffffffffffffffff1673ffffffffffffffffffffffffffffffffffffffff1681526020019081526020015f2081905550811561142857611427610b00565b5b42905092915050565b5f8115159050919050565b61144581611431565b82525050565b5f60208201905061145e5f83018461143c565b92915050565b5f604051905090565b5f80fd5b5f80fd5b5f73ffffffffffffffffffffffffffffffffffffffff82169050919050565b5f61149e82611475565b9050919050565b6114ae81611494565b81146114b8575f80fd5b50565b5f813590506114c9816114a5565b92915050565b5f602082840312156114e4576114e361146d565b5b5f6114f1848285016114bb565b91505092915050565b5f819050919050565b61150c816114fa565b82525050565b5f6020820190506115255f830184611503565b92915050565b5f80fd5b5f601f19601f8301169050919050565b7f4e487b71000000000000000000000000000000000000000000000000000000005f52604160045260245ffd5b6115758261152f565b810181811067ffffffffffffffff821117156115945761159361153f565b5b80604052505050565b5f6115a6611464565b90506115b2828261156c565b919050565b5f67ffffffffffffffff8211156115d1576115d061153f565b5b602082029050602081019050919050565b5f80fd5b5f6115f86115f3846115b7565b61159d565b9050808382526020820190506020840283018581111561161b5761161a6115e2565b5b835b81811015611644578061163088826114bb565b84526020840193505060208101905061161d565b5050509392505050565b5f82601f8301126116625761166161152b565b5b81356116728482602086016115e6565b91505092915050565b5f80604083850312156116915761169061146d565b5b5f83013567ffffffffffffffff8111156116ae576116ad611471565b5b6116ba8582860161164e565b925050602083013567ffffffffffffffff8111156116db576116da611471565b5b6116e78582860161164e565b9150509250929050565b6116fa81611431565b8114611704575f80fd5b50565b5f81359050611715816116f1565b92915050565b5f80604083850312156117315761173061146d565b5b5f61173e858286016114bb565b925050602061174f85828601611707565b9150509250929050565b5f82825260208201905092915050565b7f6d656d62657200000000000000000000000000000000000000000000000000005f82015250565b5f61179d600683611759565b91506117a882611769565b602082019050919050565b5f6020820190508181035f8301526117ca81611791565b9050919050565b7f73746f70706572000000000000000000000000000000000000000000000000005f82015250565b5f611805600783611759565b9150611810826117d1565b602082019050919050565b5f6020820190508181035f830152611832816117f9565b9050919050565b7f636f7270206f776e6572000000000000000000000000000000000000000000005f82015250565b5f61186d600a83611759565b915061187882611839565b602082019050919050565b5f6020820190508181035f83015261189a81611861565b9050919050565b7f6f776e65720000000000000000000000000000000000000000000000000000005f82015250565b5f6118d5600583611759565b91506118e0826118a1565b602082019050919050565b5f6020820190508181035f830152611902816118c9565b9050919050565b7f6465657066616b650000000000000000000000000000000000000000000000005f82015250565b5f61193d600883611759565b915061194882611909565b602082019050919050565b5f6020820190508181035f83015261196a81611931565b9050919050565b7f7265706c6963616e7400000000000000000000000000000000000000000000005f82015250565b5f6119a5600983611759565b91506119b082611971565b602082019050919050565b5f6020820190508181035f8301526119d281611999565b9050919050565b7f4e487b71000000000000000000000000000000000000000000000000000000005f52603260045260245ffd5b7f4e487b71000000000000000000000000000000000000000000000000000000005f52601160045260245ffd5b5f611a3d826114fa565b91507fffffffffffffffffffffffffffffffffffffffffffffffffffffffffffffffff8203611a6f57611a6e611a06565b5b600182019050919050565b5f611a84826114fa565b9150611a8f836114fa565b9250828203905081811115611aa757611aa6611a06565b5b92915050565b7f656d6879720000000000000000000000000000000000000000000000000000005f82015250565b5f611ae1600583611759565b9150611aec82611aad565b602082019050919050565b5f6020820190508181035f830152611b0e81611ad5565b9050919050565b7f74726170000000000000000000000000000000000000000000000000000000005f82015250565b5f611b49600483611759565b9150611b5482611b15565b602082019050919050565b5f6020820190508181035f830152611b7681611b3d565b905091905056fea2646970667358221220126fac7723428ca397a7cefba3809021465a34e17a4aeb6b29f3b0ceba19a9c964736f6c63430008140033a2646970667358221220298b254e169dde3406f574164e9ee6bacec5c97aede5cee3244cb5d9d90103d964736f6c63430008140033608060405243600a5534801562000014575f80fd5b50604051620022283803806200222883398181016040528101906200003a919062000533565b335f806101000a81548173ffffffffffffffffffffffffffffffffffffffff021916908373ffffffffffffffffffffffffffffffffffffffff1602179055508260015f6101000a81548173ffffffffffffffffffffffffffffffffffffffff021916908373ffffffffffffffffffffffffffffffffffffffff16021790555060075f9054906101000a900473ffffffffffffffffffffffffffffffffffffffff1660075f6101000a81548173ffffffffffffffffffffffffffffffffffffffff021916908373ffffffffffffffffffffffffffffffffffffffff16021790555080600c5f6101000a81548160ff0219169083151502179055505f600654036200014b57835160068190555062000153565b816006819055505b5f5b845181101562000216574260025f878481518110620001795762000178620005c1565b5b602002602001015173ffffffffffffffffffffffffffffffffffffffff1673ffffffffffffffffffffffffffffffffffffffff1681526020019081526020015f20819055505f60055f3373ffffffffffffffffffffffffffffffffffffffff1673ffffffffffffffffffffffffffffffffffffffff1681526020019081526020015f208190555080806200020d906200061b565b91505062000155565b5083600b90805190602001906200022f9291906200023a565b505050505062000667565b828054828255905f5260205f20908101928215620002b3579160200282015b82811115620002b2578251825f6101000a81548173ffffffffffffffffffffffffffffffffffffffff021916908373ffffffffffffffffffffffffffffffffffffffff1602179055509160200191906001019062000259565b5b509050620002c29190620002c6565b5090565b5b80821115620002df575f815f905550600101620002c7565b5090565b5f604051905090565b5f80fd5b5f80fd5b5f80fd5b5f601f19601f8301169050919050565b7f4e487b71000000000000000000000000000000000000000000000000000000005f52604160045260245ffd5b6200034082620002f8565b810181811067ffffffffffffffff8211171562000362576200036162000308565b5b80604052505050565b5f62000376620002e3565b905062000384828262000335565b919050565b5f67ffffffffffffffff821115620003a657620003a562000308565b5b602082029050602081019050919050565b5f80fd5b5f73ffffffffffffffffffffffffffffffffffffffff82169050919050565b5f620003e682620003bb565b9050919050565b620003f881620003da565b811462000403575f80fd5b50565b5f815190506200041681620003ed565b92915050565b5f620004326200042c8462000389565b6200036b565b90508083825260208201905060208402830185811115620004585762000457620003b7565b5b835b8181101562000485578062000470888262000406565b8452602084019350506020810190506200045a565b5050509392505050565b5f82601f830112620004a657620004a5620002f4565b5b8151620004b88482602086016200041c565b91505092915050565b5f819050919050565b620004d581620004c1565b8114620004e0575f80fd5b50565b5f81519050620004f381620004ca565b92915050565b5f8115159050919050565b6200050f81620004f9565b81146200051a575f80fd5b50565b5f815190506200052d8162000504565b92915050565b5f805f80608085870312156200054e576200054d620002ec565b5b5f85015167ffffffffffffffff8111156200056e576200056d620002f0565b5b6200057c878288016200048f565b94505060206200058f8782880162000406565b9350506040620005a287828801620004e3565b9250506060620005b5878288016200051d565b91505092959194509250565b7f4e487b71000000000000000000000000000000000000000000000000000000005f52603260045260245ffd5b7f4e487b71000000000000000000000000000000000000000000000000000000005f52601160045260245ffd5b5f6200062782620004c1565b91507fffffffffffffffffffffffffffffffffffffffffffffffffffffffffffffffff82036200065c576200065b620005ee565b5b600182019050919050565b611bb380620006755f395ff3fe608060405234801561000f575f80fd5b50600436106100a7575f3560e01c8063825f98d41161006f578063825f98d414610189578063900cf0cf1461019357806393f690e41461019d578063a7f43779146101bb578063cb15de5d146101d9578063e136156d146101f5576100a7565b8063054b0e7d146100ab5780630a3b0a4f146100c957806316395120146100f957806329092d0e1461012957806372686b1714610159575b5f80fd5b6100b3610225565b6040516100c0919061144b565b60405180910390f35b6100e360048036038101906100de91906114cf565b61026c565b6040516100f09190611512565b60405180910390f35b610113600480360381019061010e91906114cf565b61049a565b604051610120919061144b565b60405180910390f35b610143600480360381019061013e91906114cf565b610562565b6040516101509190611512565b60405180910390f35b610173600480360381019061016e91906114cf565b61086d565b6040516101809190611512565b60405180910390f35b610191610a3d565b005b61019b610b00565b005b6101a5610c89565b6040516101b2919061144b565b60405180910390f35b6101c3610c9b565b6040516101d09190611512565b60405180910390f35b6101f360048036038101906101ee919061167b565b610da5565b005b61020f600480360381019061020a919061171b565b6110ef565b60405161021c9190611512565b60405180910390f35b5f8060025f3373ffffffffffffffffffffffffffffffffffffffff1673ffffffffffffffffffffffffffffffffffffffff1681526020019081526020015f20541415905090565b5f8060025f3373ffffffffffffffffffffffffffffffffffffffff1673ffffffffffffffffffffffffffffffffffffffff1681526020019081526020015f2054036102ec576040517f08c379a00000000000000000000000000000000000000000000000000000000081526004016102e3906117b3565b60405180910390fd5b5f60055f3373ffffffffffffffffffffffffffffffffffffffff1673ffffffffffffffffffffffffffffffffffffffff1681526020019081526020015f20541461036b576040517f08c379a00000000000000000000000000000000000000000000000000000000081526004016103629061181b565b60405180910390fd5b4260025f8473ffffffffffffffffffffffffffffffffffffffff1673ffffffffffffffffffffffffffffffffffffffff1681526020019081526020015f2081905550600b82908060018154018082558091505060019003905f5260205f20015f9091909190916101000a81548173ffffffffffffffffffffffffffffffffffffffff021916908373ffffffffffffffffffffffffffffffffffffffff1602179055504260055f3373ffffffffffffffffffffffffffffffffffffffff1673ffffffffffffffffffffffffffffffffffffffff1681526020019081526020015f2081905550600160055f8473ffffffffffffffffffffffffffffffffffffffff1673ffffffffffffffffffffffffffffffffffffffff1681526020019081526020015f2081905550429050919050565b5f8060025f3373ffffffffffffffffffffffffffffffffffffffff1673ffffffffffffffffffffffffffffffffffffffff1681526020019081526020015f20540361051a576040517f08c379a0000000000000000000000000000000000000000000000000000000008152600401610511906117b3565b60405180910390fd5b5f60025f8473ffffffffffffffffffffffffffffffffffffffff1673ffffffffffffffffffffffffffffffffffffffff1681526020019081526020015f205414159050919050565b5f600c5f9054906101000a900460ff161561060b5760015f9054906101000a900473ffffffffffffffffffffffffffffffffffffffff1673ffffffffffffffffffffffffffffffffffffffff163373ffffffffffffffffffffffffffffffffffffffff1614610606576040517f08c379a00000000000000000000000000000000000000000000000000000000081526004016105fd90611883565b60405180910390fd5b6106e3565b60015f9054906101000a900473ffffffffffffffffffffffffffffffffffffffff1673ffffffffffffffffffffffffffffffffffffffff163373ffffffffffffffffffffffffffffffffffffffff1614806106a357505f60025f3373ffffffffffffffffffffffffffffffffffffffff1673ffffffffffffffffffffffffffffffffffffffff1681526020019081526020015f205414155b6106e2576040517f08c379a00000000000000000000000000000000000000000000000000000000081526004016106d9906118eb565b60405180910390fd5b5b5f60055f3373ffffffffffffffffffffffffffffffffffffffff1673ffffffffffffffffffffffffffffffffffffffff1681526020019081526020015f205414610762576040517f08c379a00000000000000000000000000000000000000000000000000000000081526004016107599061181b565b60405180910390fd5b5f60025f8473ffffffffffffffffffffffffffffffffffffffff1673ffffffffffffffffffffffffffffffffffffffff1681526020019081526020015f2054036107e1576040517f08c379a00000000000000000000000000000000000000000000000000000000081526004016107d890611953565b60405180910390fd5b5f60025f8473ffffffffffffffffffffffffffffffffffffffff1673ffffffffffffffffffffffffffffffffffffffff1681526020019081526020015f20819055504260035f8473ffffffffffffffffffffffffffffffffffffffff1673ffffffffffffffffffffffffffffffffffffffff1681526020019081526020015f2081905550429050919050565b5f600c5f9054906101000a900460ff16156109165760015f9054906101000a900473ffffffffffffffffffffffffffffffffffffffff1673ffffffffffffffffffffffffffffffffffffffff163373ffffffffffffffffffffffffffffffffffffffff1614610911576040517f08c379a000000000000000000000000000000000000000000000000000000000815260040161090890611883565b60405180910390fd5b6109ee565b60015f9054906101000a900473ffffffffffffffffffffffffffffffffffffffff1673ffffffffffffffffffffffffffffffffffffffff163373ffffffffffffffffffffffffffffffffffffffff1614806109ae57505f60025f3373ffffffffffffffffffffffffffffffffffffffff1673ffffffffffffffffffffffffffffffffffffffff1681526020019081526020015f205414155b6109ed576040517f08c379a00000000000000000000000000000000000000000000000000000000081526004016109e4906118eb565b60405180910390fd5b5b8160075f6101000a81548173ffffffffffffffffffffffffffffffffffffffff021916908373ffffffffffffffffffffffffffffffffffffffff16021790555042600881905550429050919050565b5f60025f3373ffffffffffffffffffffffffffffffffffffffff1673ffffffffffffffffffffffffffffffffffffffff1681526020019081526020015f205403610abc576040517f08c379a0000000000000000000000000000000000000000000000000000000008152600401610ab3906117b3565b60405180910390fd5b4260045f3373ffffffffffffffffffffffffffffffffffffffff1673ffffffffffffffffffffffffffffffffffffffff1681526020019081526020015f2081905550565b600c5f9054906101000a900460ff1615610ba85760015f9054906101000a900473ffffffffffffffffffffffffffffffffffffffff1673ffffffffffffffffffffffffffffffffffffffff163373ffffffffffffffffffffffffffffffffffffffff1614610ba3576040517f08c379a0000000000000000000000000000000000000000000000000000000008152600401610b9a90611883565b60405180910390fd5b610c80565b60015f9054906101000a900473ffffffffffffffffffffffffffffffffffffffff1673ffffffffffffffffffffffffffffffffffffffff163373ffffffffffffffffffffffffffffffffffffffff161480610c4057505f60025f3373ffffffffffffffffffffffffffffffffffffffff1673ffffffffffffffffffffffffffffffffffffffff1681526020019081526020015f205414155b610c7f576040517f08c379a0000000000000000000000000000000000000000000000000000000008152600401610c76906118eb565b60405180910390fd5b5b43600a81905550565b600c5f9054906101000a900460ff1681565b5f8060025f3373ffffffffffffffffffffffffffffffffffffffff1673ffffffffffffffffffffffffffffffffffffffff1681526020019081526020015f205403610d1b576040517f08c379a0000000000000000000000000000000000000000000000000000000008152600401610d12906119bb565b60405180910390fd5b5f60025f3373ffffffffffffffffffffffffffffffffffffffff1673ffffffffffffffffffffffffffffffffffffffff1681526020019081526020015f20819055504260035f3373ffffffffffffffffffffffffffffffffffffffff1673ffffffffffffffffffffffffffffffffffffffff1681526020019081526020015f208190555042905090565b600c5f9054906101000a900460ff1615610e4d5760015f9054906101000a900473ffffffffffffffffffffffffffffffffffffffff1673ffffffffffffffffffffffffffffffffffffffff163373ffffffffffffffffffffffffffffffffffffffff1614610e48576040517f08c379a0000000000000000000000000000000000000000000000000000000008152600401610e3f90611883565b60405180910390fd5b610f25565b60015f9054906101000a900473ffffffffffffffffffffffffffffffffffffffff1673ffffffffffffffffffffffffffffffffffffffff163373ffffffffffffffffffffffffffffffffffffffff161480610ee557505f60025f3373ffffffffffffffffffffffffffffffffffffffff1673ffffffffffffffffffffffffffffffffffffffff1681526020019081526020015f205414155b610f24576040517f08c379a0000000000000000000000000000000000000000000000000000000008152600401610f1b906118eb565b60405180910390fd5b5b5f5b8251811015611007575f60025f858481518110610f4757610f466119d9565b5b602002602001015173ffffffffffffffffffffffffffffffffffffffff1673ffffffffffffffffffffffffffffffffffffffff1681526020019081526020015f205403610f92575f80fd5b5f60045f858481518110610fa957610fa86119d9565b5b602002602001015173ffffffffffffffffffffffffffffffffffffffff1673ffffffffffffffffffffffffffffffffffffffff1681526020019081526020015f205403610ff4575f80fd5b8080610fff90611a33565b915050610f27565b505f5b81518110156110ea575f60025f84848151811061102a576110296119d9565b5b602002602001015173ffffffffffffffffffffffffffffffffffffffff1673ffffffffffffffffffffffffffffffffffffffff1681526020019081526020015f205403611075575f80fd5b5f60045f84848151811061108c5761108b6119d9565b5b602002602001015173ffffffffffffffffffffffffffffffffffffffff1673ffffffffffffffffffffffffffffffffffffffff1681526020019081526020015f2054146110d7575f80fd5b80806110e290611a33565b91505061100a565b505050565b5f600c5f9054906101000a900460ff16156111985760015f9054906101000a900473ffffffffffffffffffffffffffffffffffffffff1673ffffffffffffffffffffffffffffffffffffffff163373ffffffffffffffffffffffffffffffffffffffff1614611193576040517f08c379a000000000000000000000000000000000000000000000000000000000815260040161118a90611883565b60405180910390fd5b611270565b60015f9054906101000a900473ffffffffffffffffffffffffffffffffffffffff1673ffffffffffffffffffffffffffffffffffffffff163373ffffffffffffffffffffffffffffffffffffffff16148061123057505f60025f3373ffffffffffffffffffffffffffffffffffffffff1673ffffffffffffffffffffffffffffffffffffffff1681526020019081526020015f205414155b61126f576040517f08c379a0000000000000000000000000000000000000000000000000000000008152600401611266906118eb565b60405180910390fd5b5b600b80549050600a54436112849190611a7a565b116112c4576040517f08c379a00000000000000000000000000000000000000000000000000000000081526004016112bb90611af7565b60405180910390fd5b5f60055f3373ffffffffffffffffffffffffffffffffffffffff1673ffffffffffffffffffffffffffffffffffffffff1681526020019081526020015f205414611343576040517f08c379a000000000000000000000000000000000000000000000000000000000815260040161133a9061181b565b60405180910390fd5b600c5f9054906101000a900460ff166113d757600160055f8573ffffffffffffffffffffffffffffffffffffffff1673ffffffffffffffffffffffffffffffffffffffff1681526020019081526020015f2054146113d6576040517f08c379a00000000000000000000000000000000000000000000000000000000081526004016113cd90611b5f565b60405180910390fd5b5b5f60055f8573ffffffffffffffffffffffffffffffffffffffff1673ffffffffffffffffffffffffffffffffffffffff1681526020019081526020015f2081905550811561142857611427610b00565b5b42905092915050565b5f8115159050919050565b61144581611431565b82525050565b5f60208201905061145e5f83018461143c565b92915050565b5f604051905090565b5f80fd5b5f80fd5b5f73ffffffffffffffffffffffffffffffffffffffff82169050919050565b5f61149e82611475565b9050919050565b6114ae81611494565b81146114b8575f80fd5b50565b5f813590506114c9816114a5565b92915050565b5f602082840312156114e4576114e361146d565b5b5f6114f1848285016114bb565b91505092915050565b5f819050919050565b61150c816114fa565b82525050565b5f6020820190506115255f830184611503565b92915050565b5f80fd5b5f601f19601f8301169050919050565b7f4e487b71000000000000000000000000000000000000000000000000000000005f52604160045260245ffd5b6115758261152f565b810181811067ffffffffffffffff821117156115945761159361153f565b5b80604052505050565b5f6115a6611464565b90506115b2828261156c565b919050565b5f67ffffffffffffffff8211156115d1576115d061153f565b5b602082029050602081019050919050565b5f80fd5b5f6115f86115f3846115b7565b61159d565b9050808382526020820190506020840283018581111561161b5761161a6115e2565b5b835b81811015611644578061163088826114bb565b84526020840193505060208101905061161d565b5050509392505050565b5f82601f8301126116625761166161152b565b5b81356116728482602086016115e6565b91505092915050565b5f80604083850312156116915761169061146d565b5b5f83013567ffffffffffffffff8111156116ae576116ad611471565b5b6116ba8582860161164e565b925050602083013567ffffffffffffffff8111156116db576116da611471565b5b6116e78582860161164e565b9150509250929050565b6116fa81611431565b8114611704575f80fd5b50565b5f81359050611715816116f1565b92915050565b5f80604083850312156117315761173061146d565b5b5f61173e858286016114bb565b925050602061174f85828601611707565b9150509250929050565b5f82825260208201905092915050565b7f6d656d62657200000000000000000000000000000000000000000000000000005f82015250565b5f61179d600683611759565b91506117a882611769565b602082019050919050565b5f6020820190508181035f8301526117ca81611791565b9050919050565b7f73746f70706572000000000000000000000000000000000000000000000000005f82015250565b5f611805600783611759565b9150611810826117d1565b602082019050919050565b5f6020820190508181035f830152611832816117f9565b9050919050565b7f636f7270206f776e6572000000000000000000000000000000000000000000005f82015250565b5f61186d600a83611759565b915061187882611839565b602082019050919050565b5f6020820190508181035f83015261189a81611861565b9050919050565b7f6f776e65720000000000000000000000000000000000000000000000000000005f82015250565b5f6118d5600583611759565b91506118e0826118a1565b602082019050919050565b5f6020820190508181035f830152611902816118c9565b9050919050565b7f6465657066616b650000000000000000000000000000000000000000000000005f82015250565b5f61193d600883611759565b915061194882611909565b602082019050919050565b5f6020820190508181035f83015261196a81611931565b9050919050565b7f7265706c6963616e7400000000000000000000000000000000000000000000005f82015250565b5f6119a5600983611759565b91506119b082611971565b602082019050919050565b5f6020820190508181035f8301526119d281611999565b9050919050565b7f4e487b71000000000000000000000000000000000000000000000000000000005f52603260045260245ffd5b7f4e487b71000000000000000000000000000000000000000000000000000000005f52601160045260245ffd5b5f611a3d826114fa565b91507fffffffffffffffffffffffffffffffffffffffffffffffffffffffffffffffff8203611a6f57611a6e611a06565b5b600182019050919050565b5f611a84826114fa565b9150611a8f836114fa565b9250828203905081811115611aa757611aa6611a06565b5b92915050565b7f656d6879720000000000000000000000000000000000000000000000000000005f82015250565b5f611ae1600583611759565b9150611aec82611aad565b602082019050919050565b5f6020820190508181035f830152611b0e81611ad5565b9050919050565b7f74726170000000000000000000000000000000000000000000000000000000005f82015250565b5f611b49600483611759565b9150611b5482611b15565b602082019050919050565b5f6020820190508181035f830152611b7681611b3d565b905091905056fea2646970667358221220126fac7723428ca397a7cefba3809021465a34e17a4aeb6b29f3b0ceba19a9c964736f6c63430008140033",
  "immutableReferences": {},
  "source": "// SPDX-License-Identifier: BUSL-1.1\npragma solidity >= \"0.8.20\";\nimport \"./giteta.sol\";\nimport \"./ltcgra.sol\";\nimport \"./gitarg.sol\";\nimport \"./argctl.sol\";\nimport \"./objects/Repo.sol\";\n//import \"./objects/Proposal.sol\";\nimport \"./objects/Handshakes.sol\";\nimport \"./libraries/gitorg.sol\";\nimport \"./gitorg.sol\";\n\n// think identity\ncontract gitarray {\n\n  address creator;\n  address owner;\n  uint threshold;\n  mapping(address => Handshakes) signers;\n  Handshakes private handshakes;\n  mapping(address => Repo) repos;\n  mapping(bytes32 => uint) unique;\n  // REVIEW - address only with check\n  mapping(address => argctl) private ctls;\n  address private arg;\n  //address private _argctl;\n  //address public _gitorg;\n  mapping(address => _gitorg) private orgs;\n  argctl private ARGCTL;\n  address private eta;\n  // !IMPORTANT\n  // !!!\n  // REVIEW - threshold divider \n  uint down_;\n  uint tar_;\n  modifier own {\n    require(msg.sender == owner, \"own\");\n    _;\n  }\n  constructor(address[] memory _handshakes, address _owner, address _gitarg, address _giteta) {\n    arg = _gitarg;\n    eta = _giteta;\n    threshold = _handshakes.length;\n    creator = msg.sender;\n    owner = _owner;\n    //_gitorg = gitorg_;\n    // REVIEW - corp var\n    // corp set to true indication of member for isHandshake, but member is already only check - caching?\n    // TODO - corp var should likely be set to false? or is this the setter and handshakes interface? review in GITORG.ORG code\n    // push loop?\n    // ineffecient compare effeciency with seperate addHandshake calls and BL issues with unstopper\n    address[] memory _handshakes_ = new address[](_handshakes.length + 1);\n    for (uint i = 0; i < _handshakes.length; i++) {\n        _handshakes_[i] = _handshakes[i];\n    }\n    _handshakes_[_handshakes.length] = address(this);\n    // owner should be owner address or should be be array address and effect corp var?\n    handshakes = new Handshakes(_handshakes_, _owner, threshold, true);\n    signers[msg.sender] = handshakes;\n\n  }  \n  \n  function proof () public view returns (address) {\n    require(handshakes.isHandshake(msg.sender), \"bluffalo\");\n    return arg;\n  }\n  function repo() public view returns (address) {\n    // handshake in both repo and gitarray list\n\n    require(handshakes.isHandshake(msg.sender), \"raid\");\n    //Repo repo_ = repos[handshake];\n    Repo repo_ = repos[msg.sender];\n    //rar\n    Handshakes handshakes_ = signers[address(repo_)];\n    require(handshakes_.isHandshake(msg.sender), \"arid\");\n    return address(repo_);\n  }\n  // REVIEW - customizable threshold?\n  function repo(address[] memory _handshakes, string memory _name, string memory _url, address _owner, address _argctl) public returns(address) {\n    //require(handshakes.isHandshake(msg.sender), \"array\");\n    // TODO - review handshakes check for gitarray to check if sender is handshake\n    // REVIEW - corp var\n    uint _stamp = unique[gitorg.key(_url)];\n    require(_stamp == 0, \"repo not unique\"); \n    //require(msg.sender != creator);\n    //constructor(string memory _name, string memory _url, address _owner, address _gitarg, address _gitarray) payable \n    Repo _repo = new Repo(_name, _url, _owner, arg, address(this));\n    Handshakes handshakes_ = new Handshakes(_handshakes, _owner, threshold, true);\n    require(handshakes_.isHandshake(msg.sender), \"git\");\n    repos[_owner] = _repo;\n    argctl ctl = argctl(_argctl);\n    ctl.checkin(address(_repo), address(handshakes_), _owner);\n    signers[address(_repo)] = handshakes_;\n    // REVIEW - return repo object or address?\n    unique[gitorg.key(_url)] = block.timestamp;\n    return address(_repo);\n  }\n  function ctl (address handshake) public returns (bool) {\n    // TODO - review handshake check?\n    require(address(ctls[handshake]) == address(0), \"\");\n    //handshakes.add\n    ctls[handshake] = argctl(msg.sender);\n    return true;\n  }\n  function org () public returns (bool) {\n    orgs[msg.sender] = _gitorg(msg.sender);\n    return true;\n  }\n  function tar () public payable {\n    //slow movement to prevent theft\n    tar_ += msg.value;\n  }\n  function git (address _repo) public payable {\n    // require the repo map to the gas type?\n    //called on commit in argctl to drain tar\n  }\n  function down () public payable {\n    //place ether down to prove value\n    down_ += msg.value;\n  }\n  //function isHandshake(address repo, address handshake) public returns (bool) {\n    //require(msg.sender == _argctl, \"the argctl address equals the address of argctl\");\n    //Handshakes _handshakes = signers[handshake];\n    //return _handshakes.isHandshake(handshake);\n  //}\n}\n",
  "sourcePath": "/Users/davidkamer/gitarg_eth_ico/contracts/gitarray.sol",
  "compiler": {
    "name": "solc",
    "version": "0.8.20+commit.a1b79de6.Emscripten.clang"
  },
  "schemaVersion": "3.4.16",
  "updatedAt": "2023-11-15T22:23:30.894Z",
  "networkType": "ethereum",
  "devdoc": {
    "kind": "dev",
    "methods": {},
    "version": 1
  },
  "userdoc": {
    "kind": "user",
    "methods": {},
    "version": 1
  }
}