{
  "contractName": "giteta",
  "abi": [
    {
      "inputs": [
        {
          "internalType": "address",
          "name": "_gitarg",
          "type": "address"
        }
      ],
      "stateMutability": "nonpayable",
      "type": "constructor"
    },
    {
      "anonymous": false,
      "inputs": [
        {
          "indexed": false,
          "internalType": "address",
          "name": "commit",
          "type": "address"
        }
      ],
      "name": "Com",
      "type": "event"
    },
    {
      "anonymous": false,
      "inputs": [
        {
          "components": [
            {
              "internalType": "address",
              "name": "commit",
              "type": "address"
            },
            {
              "internalType": "uint256",
              "name": "timestamp",
              "type": "uint256"
            }
          ],
          "indexed": false,
          "internalType": "struct giteta.Time[]",
          "name": "commits",
          "type": "tuple[]"
        }
      ],
      "name": "Comm",
      "type": "event"
    },
    {
      "anonymous": false,
      "inputs": [
        {
          "indexed": false,
          "internalType": "uint256",
          "name": "value",
          "type": "uint256"
        }
      ],
      "name": "Value",
      "type": "event"
    },
    {
      "inputs": [],
      "name": "Gitarg",
      "outputs": [
        {
          "internalType": "contract gitarg",
          "name": "",
          "type": "address"
        }
      ],
      "stateMutability": "view",
      "type": "function",
      "constant": true
    },
    {
      "inputs": [],
      "name": "arg",
      "outputs": [
        {
          "internalType": "address",
          "name": "",
          "type": "address"
        }
      ],
      "stateMutability": "view",
      "type": "function",
      "constant": true
    },
    {
      "inputs": [],
      "name": "gitargWallet",
      "outputs": [
        {
          "internalType": "address",
          "name": "",
          "type": "address"
        }
      ],
      "stateMutability": "view",
      "type": "function",
      "constant": true
    },
    {
      "inputs": [],
      "name": "service",
      "outputs": [
        {
          "internalType": "uint256",
          "name": "",
          "type": "uint256"
        }
      ],
      "stateMutability": "view",
      "type": "function",
      "constant": true
    },
    {
      "inputs": [
        {
          "internalType": "address",
          "name": "_repo",
          "type": "address"
        },
        {
          "internalType": "string",
          "name": "message",
          "type": "string"
        },
        {
          "internalType": "string",
          "name": "author",
          "type": "string"
        },
        {
          "internalType": "string",
          "name": "date",
          "type": "string"
        },
        {
          "internalType": "uint256",
          "name": "escrow",
          "type": "uint256"
        }
      ],
      "name": "commit",
      "outputs": [
        {
          "internalType": "uint256",
          "name": "",
          "type": "uint256"
        }
      ],
      "stateMutability": "nonpayable",
      "type": "function"
    },
    {
      "inputs": [
        {
          "internalType": "address payable",
          "name": "_commit",
          "type": "address"
        },
        {
          "internalType": "bool",
          "name": "_balance",
          "type": "bool"
        }
      ],
      "name": "up",
      "outputs": [
        {
          "internalType": "uint256",
          "name": "",
          "type": "uint256"
        }
      ],
      "stateMutability": "payable",
      "type": "function",
      "payable": true
    },
    {
      "inputs": [
        {
          "internalType": "address",
          "name": "_repo",
          "type": "address"
        },
        {
          "internalType": "address",
          "name": "_commit",
          "type": "address"
        },
        {
          "internalType": "uint256",
          "name": "bounty",
          "type": "uint256"
        }
      ],
      "name": "down",
      "outputs": [
        {
          "internalType": "uint256",
          "name": "",
          "type": "uint256"
        }
      ],
      "stateMutability": "payable",
      "type": "function",
      "payable": true
    },
    {
      "inputs": [
        {
          "internalType": "uint256",
          "name": "start",
          "type": "uint256"
        },
        {
          "internalType": "uint256",
          "name": "end",
          "type": "uint256"
        },
        {
          "internalType": "address",
          "name": "_repo",
          "type": "address"
        }
      ],
      "name": "drain",
      "outputs": [
        {
          "internalType": "uint256",
          "name": "",
          "type": "uint256"
        }
      ],
      "stateMutability": "payable",
      "type": "function",
      "payable": true
    },
    {
      "inputs": [
        {
          "internalType": "address",
          "name": "_commit",
          "type": "address"
        }
      ],
      "name": "drain",
      "outputs": [
        {
          "internalType": "uint256",
          "name": "",
          "type": "uint256"
        }
      ],
      "stateMutability": "payable",
      "type": "function",
      "payable": true
    },
    {
      "inputs": [
        {
          "internalType": "address",
          "name": "_commit",
          "type": "address"
        }
      ],
      "name": "value",
      "outputs": [
        {
          "internalType": "uint256",
          "name": "",
          "type": "uint256"
        }
      ],
      "stateMutability": "view",
      "type": "function",
      "constant": true
    },
    {
      "inputs": [
        {
          "internalType": "address",
          "name": "_repo",
          "type": "address"
        },
        {
          "internalType": "uint256",
          "name": "start",
          "type": "uint256"
        },
        {
          "internalType": "uint256",
          "name": "end",
          "type": "uint256"
        }
      ],
      "name": "query",
      "outputs": [
        {
          "components": [
            {
              "internalType": "address",
              "name": "commit",
              "type": "address"
            },
            {
              "internalType": "uint256",
              "name": "timestamp",
              "type": "uint256"
            }
          ],
          "internalType": "struct giteta.Time[]",
          "name": "",
          "type": "tuple[]"
        }
      ],
      "stateMutability": "nonpayable",
      "type": "function"
    },
    {
      "inputs": [
        {
          "internalType": "address",
          "name": "repo",
          "type": "address"
        }
      ],
      "name": "query",
      "outputs": [
        {
          "components": [
            {
              "internalType": "address",
              "name": "commit",
              "type": "address"
            },
            {
              "internalType": "uint256",
              "name": "timestamp",
              "type": "uint256"
            }
          ],
          "internalType": "struct giteta.Time[]",
          "name": "",
          "type": "tuple[]"
        }
      ],
      "stateMutability": "view",
      "type": "function",
      "constant": true
    },
    {
      "inputs": [
        {
          "internalType": "uint256",
          "name": "_value",
          "type": "uint256"
        },
        {
          "internalType": "address",
          "name": "_repo",
          "type": "address"
        }
      ],
      "name": "query",
      "outputs": [
        {
          "components": [
            {
              "internalType": "address",
              "name": "commit",
              "type": "address"
            },
            {
              "internalType": "uint256",
              "name": "timestamp",
              "type": "uint256"
            }
          ],
          "internalType": "struct giteta.Time[]",
          "name": "",
          "type": "tuple[]"
        }
      ],
      "stateMutability": "view",
      "type": "function",
      "constant": true
    }
  ],
  "bytecode": "0x608060405234801562000010575f80fd5b5060405162003dd338038062003dd3833981810160405281019062000036919062000161565b8060025f6101000a81548173ffffffffffffffffffffffffffffffffffffffff021916908373ffffffffffffffffffffffffffffffffffffffff1602179055508060015f6101000a81548173ffffffffffffffffffffffffffffffffffffffff021916908373ffffffffffffffffffffffffffffffffffffffff160217905550335f806101000a81548173ffffffffffffffffffffffffffffffffffffffff021916908373ffffffffffffffffffffffffffffffffffffffff1602179055505062000191565b5f80fd5b5f73ffffffffffffffffffffffffffffffffffffffff82169050919050565b5f6200012b8262000100565b9050919050565b6200013d816200011f565b811462000148575f80fd5b50565b5f815190506200015b8162000132565b92915050565b5f60208284031215620001795762000178620000fc565b5b5f62000188848285016200014b565b91505092915050565b613c34806200019f5f395ff3fe608060405260043610620000d3575f3560e01c80637cead520116200008a578063d598d4c91162000060578063d598d4c914620002cf578063e3b139dc14620002fe578063ece531321462000341578063f6ddb5ea146200037757620000d3565b80637cead52014620002135780639b0e045a1462000249578063d4fc9fc6146200028c57620000d3565b80630977c27414620000d7578063307ef604146200010d57806358f7f97e146200013c57806360fb50a5146200016b57806369f9d91c14620001a15780637435e91114620001e4575b5f80fd5b620000f56004803603810190620000ef91906200197b565b620003ba565b604051620001049190620019e5565b60405180910390f35b34801562000119575f80fd5b5062000124620007b5565b60405162000133919062001a11565b60405180910390f35b34801562000148575f80fd5b5062000153620007d8565b60405162000162919062001a93565b60405180910390f35b62000189600480360381019062000183919062001b2a565b620007fd565b604051620001989190620019e5565b60405180910390f35b348015620001ad575f80fd5b50620001cc6004803603810190620001c6919062001b6f565b62000b22565b604051620001db9190620019e5565b60405180910390f35b348015620001f0575f80fd5b50620001fb62000bc8565b6040516200020a919062001a11565b60405180910390f35b6200023160048036038101906200022b919062001b9f565b62000bed565b604051620002409190620019e5565b60405180910390f35b34801562000255575f80fd5b506200027460048036038101906200026e919062001bf8565b62000c58565b60405162000283919062001d5a565b60405180910390f35b34801562000298575f80fd5b50620002b76004803603810190620002b1919062001b6f565b62000ec8565b604051620002c6919062001d5a565b60405180910390f35b348015620002db575f80fd5b50620002e662000fc1565b604051620002f59190620019e5565b60405180910390f35b3480156200030a575f80fd5b5062000329600480360381019062000323919062001ed4565b62000fc7565b604051620003389190620019e5565b60405180910390f35b6200035f600480360381019062000359919062001b6f565b620014bf565b6040516200036e9190620019e5565b60405180910390f35b34801562000383575f80fd5b50620003a260048036038101906200039c919062001fb5565b6200160e565b604051620003b1919062001d5a565b60405180910390f35b5f808490505f8490508173ffffffffffffffffffffffffffffffffffffffff16638da5cb5b6040518163ffffffff1660e01b8152600401602060405180830381865afa1580156200040d573d5f803e3d5ffd5b505050506040513d601f19601f8201168201806040525081019062000433919062002010565b73ffffffffffffffffffffffffffffffffffffffff163373ffffffffffffffffffffffffffffffffffffffff1614620004a3576040517f08c379a00000000000000000000000000000000000000000000000000000000081526004016200049a90620020c4565b60405180910390fd5b8360015f9054906101000a900473ffffffffffffffffffffffffffffffffffffffff1673ffffffffffffffffffffffffffffffffffffffff166370a08231836040518263ffffffff1660e01b815260040162000500919062001a11565b602060405180830381865afa1580156200051c573d5f803e3d5ffd5b505050506040513d601f19601f82011682018060405250810190620005429190620020fa565b101562000586576040517f08c379a00000000000000000000000000000000000000000000000000000000081526004016200057d9062002178565b60405180910390fd5b8073ffffffffffffffffffffffffffffffffffffffff16637e5465ba60015f9054906101000a900473ffffffffffffffffffffffffffffffffffffffff16306040518363ffffffff1660e01b8152600401620005e492919062002198565b5f604051808303815f87803b158015620005fc575f80fd5b505af11580156200060f573d5f803e3d5ffd5b5050505060015f9054906101000a900473ffffffffffffffffffffffffffffffffffffffff1673ffffffffffffffffffffffffffffffffffffffff166323b872dd8688876040518463ffffffff1660e01b81526004016200067393929190620021c3565b6020604051808303815f875af115801562000690573d5f803e3d5ffd5b505050506040513d601f19601f82011682018060405250810190620006b6919062002214565b508360065f8773ffffffffffffffffffffffffffffffffffffffff1673ffffffffffffffffffffffffffffffffffffffff1681526020019081526020015f205f82825462000705919062002271565b9250508190555060015f9054906101000a900473ffffffffffffffffffffffffffffffffffffffff1673ffffffffffffffffffffffffffffffffffffffff166370a08231866040518263ffffffff1660e01b815260040162000768919062001a11565b602060405180830381865afa15801562000784573d5f803e3d5ffd5b505050506040513d601f19601f82011682018060405250810190620007aa9190620020fa565b925050509392505050565b5f8054906101000a900473ffffffffffffffffffffffffffffffffffffffff1681565b60015f9054906101000a900473ffffffffffffffffffffffffffffffffffffffff1681565b5f808390505f60055f8673ffffffffffffffffffffffffffffffffffffffff1673ffffffffffffffffffffffffffffffffffffffff1681526020019081526020015f206040518060400160405290815f82015f9054906101000a900473ffffffffffffffffffffffffffffffffffffffff1673ffffffffffffffffffffffffffffffffffffffff1673ffffffffffffffffffffffffffffffffffffffff16815260200160018201548152505090505f816020015142620008be9190620022ab565b9050841562000990575f60015f9054906101000a900473ffffffffffffffffffffffffffffffffffffffff1673ffffffffffffffffffffffffffffffffffffffff166370a08231886040518263ffffffff1660e01b815260040162000924919062002309565b602060405180830381865afa15801562000940573d5f803e3d5ffd5b505050506040513d601f19601f82011682018060405250810190620009669190620020fa565b90508082101562000975575f91505b8082106200098e5780826200098b9190620022ab565b91505b505b8060015f9054906101000a900473ffffffffffffffffffffffffffffffffffffffff1673ffffffffffffffffffffffffffffffffffffffff166370a08231336040518263ffffffff1660e01b8152600401620009ed919062001a11565b602060405180830381865afa15801562000a09573d5f803e3d5ffd5b505050506040513d601f19601f8201168201806040525081019062000a2f9190620020fa565b1162000a72576040517f08c379a000000000000000000000000000000000000000000000000000000000815260040162000a699062002398565b60405180910390fd5b60015f9054906101000a900473ffffffffffffffffffffffffffffffffffffffff1673ffffffffffffffffffffffffffffffffffffffff166323b872dd3388846040518463ffffffff1660e01b815260040162000ad293929190620023b8565b6020604051808303815f875af115801562000aef573d5f803e3d5ffd5b505050506040513d601f19601f8201168201806040525081019062000b15919062002214565b5080935050505092915050565b5f60015f9054906101000a900473ffffffffffffffffffffffffffffffffffffffff1673ffffffffffffffffffffffffffffffffffffffff166370a08231836040518263ffffffff1660e01b815260040162000b7f919062001a11565b602060405180830381865afa15801562000b9b573d5f803e3d5ffd5b505050506040513d601f19601f8201168201806040525081019062000bc19190620020fa565b9050919050565b60025f9054906101000a900473ffffffffffffffffffffffffffffffffffffffff1681565b5f8062000bfc83868662000c58565b90505f5b815181101562000c4c5762000c3582828151811062000c245762000c23620023f3565b5b60200260200101515f0151620014bf565b50808062000c439062002420565b91505062000c00565b50429150509392505050565b60605f60045f8673ffffffffffffffffffffffffffffffffffffffff1673ffffffffffffffffffffffffffffffffffffffff1681526020019081526020015f20805480602002602001604051908101604052809291908181526020015f905b8282101562000d47578382905f5260205f2090600202016040518060400160405290815f82015f9054906101000a900473ffffffffffffffffffffffffffffffffffffffff1673ffffffffffffffffffffffffffffffffffffffff1673ffffffffffffffffffffffffffffffffffffffff1681526020016001820154815250508152602001906001019062000cb7565b5050505090505f815167ffffffffffffffff81111562000d6c5762000d6b62001d94565b5b60405190808252806020026020018201604052801562000da957816020015b62000d9562001895565b81526020019060019003908162000d8b5790505b5090505f805b835181101562000eba575f84828151811062000dd05762000dcf620023f3565b5b602002602001015190508781602001511015801562000df3575086816020015111155b1562000ea35780848462000e079062002420565b9450848151811062000e1e5762000e1d620023f3565b5b60200260200101819052507f2a27502c345a4cd966daa061d5537f54cd60d2d20b73680b3bf195c91e806a4b816020015160405162000e5e9190620019e5565b60405180910390a17fe5cdffecccd95f02f835c06f9921565feaf02c93c78df945a7f951bb7ef62898815f015160405162000e9a919062001a11565b60405180910390a15b50808062000eb19062002420565b91505062000daf565b508193505050509392505050565b606060045f8373ffffffffffffffffffffffffffffffffffffffff1673ffffffffffffffffffffffffffffffffffffffff1681526020019081526020015f20805480602002602001604051908101604052809291908181526020015f905b8282101562000fb6578382905f5260205f2090600202016040518060400160405290815f82015f9054906101000a900473ffffffffffffffffffffffffffffffffffffffff1673ffffffffffffffffffffffffffffffffffffffff1673ffffffffffffffffffffffffffffffffffffffff1681526020016001820154815250508152602001906001019062000f26565b505050509050919050565b60035481565b5f8160015f9054906101000a900473ffffffffffffffffffffffffffffffffffffffff1673ffffffffffffffffffffffffffffffffffffffff166370a08231336040518263ffffffff1660e01b815260040162001025919062001a11565b602060405180830381865afa15801562001041573d5f803e3d5ffd5b505050506040513d601f19601f82011682018060405250810190620010679190620020fa565b1015620010ab576040517f08c379a0000000000000000000000000000000000000000000000000000000008152600401620010a290620024e0565b60405180910390fd5b8160015f9054906101000a900473ffffffffffffffffffffffffffffffffffffffff1673ffffffffffffffffffffffffffffffffffffffff1663dd62ed3e33306040518363ffffffff1660e01b81526004016200110a92919062002198565b602060405180830381865afa15801562001126573d5f803e3d5ffd5b505050506040513d601f19601f820116820180604052508101906200114c9190620020fa565b101562001157575f80fd5b5f33878787876040516200116b90620018c3565b6200117b95949392919062002574565b604051809103905ff08015801562001195573d5f803e3d5ffd5b509050600160035f828254620011ac919062002271565b9250508190555060015f9054906101000a900473ffffffffffffffffffffffffffffffffffffffff1673ffffffffffffffffffffffffffffffffffffffff166323b872dd3383600187620012019190620022ab565b6040518463ffffffff1660e01b81526004016200122193929190620021c3565b6020604051808303815f875af11580156200123e573d5f803e3d5ffd5b505050506040513d601f19601f8201168201806040525081019062001264919062002214565b505f8790505f60405180604001604052808473ffffffffffffffffffffffffffffffffffffffff16815260200142815250905060045f8373ffffffffffffffffffffffffffffffffffffffff1673ffffffffffffffffffffffffffffffffffffffff1681526020019081526020015f2081908060018154018082558091505060019003905f5260205f2090600202015f909190919091505f820151815f015f6101000a81548173ffffffffffffffffffffffffffffffffffffffff021916908373ffffffffffffffffffffffffffffffffffffffff1602179055506020820151816001015550508060055f8573ffffffffffffffffffffffffffffffffffffffff1673ffffffffffffffffffffffffffffffffffffffff1681526020019081526020015f205f820151815f015f6101000a81548173ffffffffffffffffffffffffffffffffffffffff021916908373ffffffffffffffffffffffffffffffffffffffff160217905550602082015181600101559050507fe5cdffecccd95f02f835c06f9921565feaf02c93c78df945a7f951bb7ef62898836040516200140b919062001a11565b60405180910390a160015f9054906101000a900473ffffffffffffffffffffffffffffffffffffffff1673ffffffffffffffffffffffffffffffffffffffff166370a08231846040518263ffffffff1660e01b81526004016200146f919062001a11565b602060405180830381865afa1580156200148b573d5f803e3d5ffd5b505050506040513d601f19601f82011682018060405250810190620014b19190620020fa565b935050505095945050505050565b5f8060015f9054906101000a900473ffffffffffffffffffffffffffffffffffffffff1673ffffffffffffffffffffffffffffffffffffffff166370a08231846040518263ffffffff1660e01b81526004016200151d919062001a11565b602060405180830381865afa15801562001539573d5f803e3d5ffd5b505050506040513d601f19601f820116820180604052508101906200155f9190620020fa565b905060015f9054906101000a900473ffffffffffffffffffffffffffffffffffffffff1673ffffffffffffffffffffffffffffffffffffffff166323b872dd8430846040518463ffffffff1660e01b8152600401620015c193929190620021c3565b6020604051808303815f875af1158015620015de573d5f803e3d5ffd5b505050506040513d601f19601f8201168201806040525081019062001604919062002214565b5080915050919050565b60605f60045f8473ffffffffffffffffffffffffffffffffffffffff1673ffffffffffffffffffffffffffffffffffffffff1681526020019081526020015f20805480602002602001604051908101604052809291908181526020015f905b82821015620016fd578382905f5260205f2090600202016040518060400160405290815f82015f9054906101000a900473ffffffffffffffffffffffffffffffffffffffff1673ffffffffffffffffffffffffffffffffffffffff1673ffffffffffffffffffffffffffffffffffffffff168152602001600182015481525050815260200190600101906200166d565b5050505090505f815167ffffffffffffffff81111562001722576200172162001d94565b5b6040519080825280602002602001820160405280156200175f57816020015b6200174b62001895565b815260200190600190039081620017415790505b5090505f5b825181101562001889578560015f9054906101000a900473ffffffffffffffffffffffffffffffffffffffff1673ffffffffffffffffffffffffffffffffffffffff166370a08231858481518110620017c257620017c1620023f3565b5b60200260200101515f01516040518263ffffffff1660e01b8152600401620017eb919062001a11565b602060405180830381865afa15801562001807573d5f803e3d5ffd5b505050506040513d601f19601f820116820180604052508101906200182d9190620020fa565b036200187357828181518110620018495762001848620023f3565b5b6020026020010151828281518110620018675762001866620023f3565b5b60200260200101819052505b8080620018809062002420565b91505062001764565b50809250505092915050565b60405180604001604052805f73ffffffffffffffffffffffffffffffffffffffff1681526020015f81525090565b61161a80620025e583390190565b5f604051905090565b5f80fd5b5f80fd5b5f73ffffffffffffffffffffffffffffffffffffffff82169050919050565b5f6200190d82620018e2565b9050919050565b6200191f8162001901565b81146200192a575f80fd5b50565b5f813590506200193d8162001914565b92915050565b5f819050919050565b620019578162001943565b811462001962575f80fd5b50565b5f8135905062001975816200194c565b92915050565b5f805f60608486031215620019955762001994620018da565b5b5f620019a4868287016200192d565b9350506020620019b7868287016200192d565b9250506040620019ca8682870162001965565b9150509250925092565b620019df8162001943565b82525050565b5f602082019050620019fa5f830184620019d4565b92915050565b62001a0b8162001901565b82525050565b5f60208201905062001a265f83018462001a00565b92915050565b5f819050919050565b5f62001a5562001a4f62001a4984620018e2565b62001a2c565b620018e2565b9050919050565b5f62001a688262001a35565b9050919050565b5f62001a7b8262001a5c565b9050919050565b62001a8d8162001a6f565b82525050565b5f60208201905062001aa85f83018462001a82565b92915050565b5f62001aba82620018e2565b9050919050565b62001acc8162001aae565b811462001ad7575f80fd5b50565b5f8135905062001aea8162001ac1565b92915050565b5f8115159050919050565b62001b068162001af0565b811462001b11575f80fd5b50565b5f8135905062001b248162001afb565b92915050565b5f806040838503121562001b435762001b42620018da565b5b5f62001b528582860162001ada565b925050602062001b658582860162001b14565b9150509250929050565b5f6020828403121562001b875762001b86620018da565b5b5f62001b96848285016200192d565b91505092915050565b5f805f6060848603121562001bb95762001bb8620018da565b5b5f62001bc88682870162001965565b935050602062001bdb8682870162001965565b925050604062001bee868287016200192d565b9150509250925092565b5f805f6060848603121562001c125762001c11620018da565b5b5f62001c21868287016200192d565b935050602062001c348682870162001965565b925050604062001c478682870162001965565b9150509250925092565b5f81519050919050565b5f82825260208201905092915050565b5f819050602082019050919050565b62001c858162001901565b82525050565b62001c968162001943565b82525050565b604082015f82015162001cb25f85018262001c7a565b50602082015162001cc7602085018262001c8b565b50505050565b5f62001cda838362001c9c565b60408301905092915050565b5f602082019050919050565b5f62001cfe8262001c51565b62001d0a818562001c5b565b935062001d178362001c6b565b805f5b8381101562001d4d57815162001d31888262001ccd565b975062001d3e8362001ce6565b92505060018101905062001d1a565b5085935050505092915050565b5f6020820190508181035f83015262001d74818462001cf2565b905092915050565b5f80fd5b5f80fd5b5f601f19601f8301169050919050565b7f4e487b71000000000000000000000000000000000000000000000000000000005f52604160045260245ffd5b62001dcc8262001d84565b810181811067ffffffffffffffff8211171562001dee5762001ded62001d94565b5b80604052505050565b5f62001e02620018d1565b905062001e10828262001dc1565b919050565b5f67ffffffffffffffff82111562001e325762001e3162001d94565b5b62001e3d8262001d84565b9050602081019050919050565b828183375f83830152505050565b5f62001e6e62001e688462001e15565b62001df7565b90508281526020810184848401111562001e8d5762001e8c62001d80565b5b62001e9a84828562001e4a565b509392505050565b5f82601f83011262001eb95762001eb862001d7c565b5b813562001ecb84826020860162001e58565b91505092915050565b5f805f805f60a0868803121562001ef05762001eef620018da565b5b5f62001eff888289016200192d565b955050602086013567ffffffffffffffff81111562001f235762001f22620018de565b5b62001f318882890162001ea2565b945050604086013567ffffffffffffffff81111562001f555762001f54620018de565b5b62001f638882890162001ea2565b935050606086013567ffffffffffffffff81111562001f875762001f86620018de565b5b62001f958882890162001ea2565b925050608062001fa88882890162001965565b9150509295509295909350565b5f806040838503121562001fce5762001fcd620018da565b5b5f62001fdd8582860162001965565b925050602062001ff0858286016200192d565b9150509250929050565b5f815190506200200a8162001914565b92915050565b5f60208284031215620020285762002027620018da565b5b5f620020378482850162001ffa565b91505092915050565b5f82825260208201905092915050565b7f7265706f206f776e657220646f65736e2774206d61746368206d73672e73656e5f8201527f6465720000000000000000000000000000000000000000000000000000000000602082015250565b5f620020ac60238362002040565b9150620020b98262002050565b604082019050919050565b5f6020820190508181035f830152620020dd816200209e565b9050919050565b5f81519050620020f4816200194c565b92915050565b5f60208284031215620021125762002111620018da565b5b5f6200212184828501620020e4565b91505092915050565b7f626f756e7479206e6f74206c657373207468616e2062616c616e6365000000005f82015250565b5f62002160601c8362002040565b91506200216d826200212a565b602082019050919050565b5f6020820190508181035f830152620021918162002152565b9050919050565b5f604082019050620021ad5f83018562001a00565b620021bc602083018462001a00565b9392505050565b5f606082019050620021d85f83018662001a00565b620021e7602083018562001a00565b620021f66040830184620019d4565b949350505050565b5f815190506200220e8162001afb565b92915050565b5f602082840312156200222c576200222b620018da565b5b5f6200223b84828501620021fe565b91505092915050565b7f4e487b71000000000000000000000000000000000000000000000000000000005f52601160045260245ffd5b5f6200227d8262001943565b91506200228a8362001943565b9250828201905080821115620022a557620022a462002244565b5b92915050565b5f620022b78262001943565b9150620022c48362001943565b9250828203905081811115620022df57620022de62002244565b5b92915050565b5f620022f18262001a5c565b9050919050565b6200230381620022e5565b82525050565b5f6020820190506200231e5f830184620022f8565b92915050565b7f42616c616e6365206f662077616c6c6574206973206c657373207468616e20745f8201527f686520646966666572656e636520285f76616c75652900000000000000000000602082015250565b5f6200238060368362002040565b91506200238d8262002324565b604082019050919050565b5f6020820190508181035f830152620023b18162002372565b9050919050565b5f606082019050620023cd5f83018662001a00565b620023dc6020830185620022f8565b620023eb6040830184620019d4565b949350505050565b7f4e487b71000000000000000000000000000000000000000000000000000000005f52603260045260245ffd5b5f6200242c8262001943565b91507fffffffffffffffffffffffffffffffffffffffffffffffffffffffffffffffff820362002461576200246062002244565b5b600182019050919050565b7f6e6f7420656e6f75676820657363726f77202d2061726763746c20696e7465725f8201527f6661636500000000000000000000000000000000000000000000000000000000602082015250565b5f620024c860248362002040565b9150620024d5826200246c565b604082019050919050565b5f6020820190508181035f830152620024f981620024ba565b9050919050565b5f81519050919050565b5f5b83811015620025295780820151818401526020810190506200250c565b5f8484015250505050565b5f620025408262002500565b6200254c818562002040565b93506200255e8185602086016200250a565b620025698162001d84565b840191505092915050565b5f60a082019050620025895f83018862001a00565b62002598602083018762001a00565b8181036040830152620025ac818662002534565b90508181036060830152620025c2818562002534565b90508181036080830152620025d8818462002534565b9050969550505050505056fe608060405234801562000010575f80fd5b506040516200161a3803806200161a83398181016040528101906200003691906200036e565b3360075f6101000a81548173ffffffffffffffffffffffffffffffffffffffff021916908373ffffffffffffffffffffffffffffffffffffffff160217905550835f806101000a81548173ffffffffffffffffffffffffffffffffffffffff021916908373ffffffffffffffffffffffffffffffffffffffff16021790555060405180608001604052808673ffffffffffffffffffffffffffffffffffffffff1681526020018481526020018381526020018281525060035f820151815f015f6101000a81548173ffffffffffffffffffffffffffffffffffffffff021916908373ffffffffffffffffffffffffffffffffffffffff160217905550602082015181600101908162000149919062000686565b50604082015181600201908162000161919062000686565b50606082015181600301908162000179919062000686565b5090505050505050506200076a565b5f604051905090565b5f80fd5b5f80fd5b5f73ffffffffffffffffffffffffffffffffffffffff82169050919050565b5f620001c48262000199565b9050919050565b620001d681620001b8565b8114620001e1575f80fd5b50565b5f81519050620001f481620001cb565b92915050565b5f80fd5b5f80fd5b5f601f19601f8301169050919050565b7f4e487b71000000000000000000000000000000000000000000000000000000005f52604160045260245ffd5b6200024a8262000202565b810181811067ffffffffffffffff821117156200026c576200026b62000212565b5b80604052505050565b5f6200028062000188565b90506200028e82826200023f565b919050565b5f67ffffffffffffffff821115620002b057620002af62000212565b5b620002bb8262000202565b9050602081019050919050565b5f5b83811015620002e7578082015181840152602081019050620002ca565b5f8484015250505050565b5f62000308620003028462000293565b62000275565b905082815260208101848484011115620003275762000326620001fe565b5b62000334848285620002c8565b509392505050565b5f82601f830112620003535762000352620001fa565b5b815162000365848260208601620002f2565b91505092915050565b5f805f805f60a086880312156200038a576200038962000191565b5b5f6200039988828901620001e4565b9550506020620003ac88828901620001e4565b945050604086015167ffffffffffffffff811115620003d057620003cf62000195565b5b620003de888289016200033c565b935050606086015167ffffffffffffffff81111562000402576200040162000195565b5b62000410888289016200033c565b925050608086015167ffffffffffffffff81111562000434576200043362000195565b5b62000442888289016200033c565b9150509295509295909350565b5f81519050919050565b7f4e487b71000000000000000000000000000000000000000000000000000000005f52602260045260245ffd5b5f60028204905060018216806200049e57607f821691505b602082108103620004b457620004b362000459565b5b50919050565b5f819050815f5260205f209050919050565b5f6020601f8301049050919050565b5f82821b905092915050565b5f60088302620005187fffffffffffffffffffffffffffffffffffffffffffffffffffffffffffffffff82620004db565b620005248683620004db565b95508019841693508086168417925050509392505050565b5f819050919050565b5f819050919050565b5f6200056e6200056862000562846200053c565b62000545565b6200053c565b9050919050565b5f819050919050565b62000589836200054e565b620005a1620005988262000575565b848454620004e7565b825550505050565b5f90565b620005b7620005a9565b620005c48184846200057e565b505050565b5b81811015620005eb57620005df5f82620005ad565b600181019050620005ca565b5050565b601f8211156200063a576200060481620004ba565b6200060f84620004cc565b810160208510156200061f578190505b620006376200062e85620004cc565b830182620005c9565b50505b505050565b5f82821c905092915050565b5f6200065c5f19846008026200063f565b1980831691505092915050565b5f6200067683836200064b565b9150826002028217905092915050565b62000691826200044f565b67ffffffffffffffff811115620006ad57620006ac62000212565b5b620006b9825462000486565b620006c6828285620005ef565b5f60209050601f831160018114620006fc575f8415620006e7578287015190505b620006f3858262000669565b86555062000762565b601f1984166200070c86620004ba565b5f5b8281101562000735578489015182556001820191506020850194506020810190506200070e565b8683101562000755578489015162000751601f8916826200064b565b8355505b6001600288020188555050505b505050505050565b610ea280620007785f395ff3fe608060405234801561000f575f80fd5b5060043610610055575f3560e01c806302d05d3f146100595780633bc5de301461007757806355a08b9a1461009557806356ff3122146100c55780637e5465ba146100e3575b5f80fd5b6100616100ff565b60405161006e91906106e8565b60405180910390f35b61007f610124565b60405161008c9190610808565b60405180910390f35b6100af60048036038101906100aa9190610965565b61042a565b6040516100bc91906109c4565b60405180910390f35b6100cd610465565b6040516100da91906106e8565b60405180910390f35b6100fd60048036038101906100f89190610a07565b610488565b005b60075f9054906101000a900473ffffffffffffffffffffffffffffffffffffffff1681565b61012c61066c565b3373ffffffffffffffffffffffffffffffffffffffff1660075f9054906101000a900473ffffffffffffffffffffffffffffffffffffffff1673ffffffffffffffffffffffffffffffffffffffff1614806101d557503373ffffffffffffffffffffffffffffffffffffffff1660035f015f9054906101000a900473ffffffffffffffffffffffffffffffffffffffff1673ffffffffffffffffffffffffffffffffffffffff16145b610214576040517f08c379a000000000000000000000000000000000000000000000000000000000815260040161020b90610a9f565b60405180910390fd5b60036040518060800160405290815f82015f9054906101000a900473ffffffffffffffffffffffffffffffffffffffff1673ffffffffffffffffffffffffffffffffffffffff1673ffffffffffffffffffffffffffffffffffffffff16815260200160018201805461028590610aea565b80601f01602080910402602001604051908101604052809291908181526020018280546102b190610aea565b80156102fc5780601f106102d3576101008083540402835291602001916102fc565b820191905f5260205f20905b8154815290600101906020018083116102df57829003601f168201915b5050505050815260200160028201805461031590610aea565b80601f016020809104026020016040519081016040528092919081815260200182805461034190610aea565b801561038c5780601f106103635761010080835404028352916020019161038c565b820191905f5260205f20905b81548152906001019060200180831161036f57829003601f168201915b505050505081526020016003820180546103a590610aea565b80601f01602080910402602001604051908101604052809291908181526020018280546103d190610aea565b801561041c5780601f106103f35761010080835404028352916020019161041c565b820191905f5260205f20905b8154815290600101906020018083116103ff57829003601f168201915b505050505081525050905090565b5f806002805461043990610aea565b905014610444575f80fd5b81600290816104539190610cc1565b50426001819055506001549050919050565b5f8054906101000a900473ffffffffffffffffffffffffffffffffffffffff1681565b3373ffffffffffffffffffffffffffffffffffffffff1660075f9054906101000a900473ffffffffffffffffffffffffffffffffffffffff1673ffffffffffffffffffffffffffffffffffffffff16148061053157503373ffffffffffffffffffffffffffffffffffffffff1660035f015f9054906101000a900473ffffffffffffffffffffffffffffffffffffffff1673ffffffffffffffffffffffffffffffffffffffff16145b610570576040517f08c379a000000000000000000000000000000000000000000000000000000000815260040161056790610a9f565b60405180910390fd5b5f8290508073ffffffffffffffffffffffffffffffffffffffff1663095ea7b3838373ffffffffffffffffffffffffffffffffffffffff166370a08231306040518263ffffffff1660e01b81526004016105ca91906106e8565b602060405180830381865afa1580156105e5573d5f803e3d5ffd5b505050506040513d601f19601f820116820180604052508101906106099190610dba565b6040518363ffffffff1660e01b8152600401610626929190610de5565b6020604051808303815f875af1158015610642573d5f803e3d5ffd5b505050506040513d601f19601f820116820180604052508101906106669190610e41565b50505050565b60405180608001604052805f73ffffffffffffffffffffffffffffffffffffffff1681526020016060815260200160608152602001606081525090565b5f73ffffffffffffffffffffffffffffffffffffffff82169050919050565b5f6106d2826106a9565b9050919050565b6106e2816106c8565b82525050565b5f6020820190506106fb5f8301846106d9565b92915050565b61070a816106c8565b82525050565b5f81519050919050565b5f82825260208201905092915050565b5f5b8381101561074757808201518184015260208101905061072c565b5f8484015250505050565b5f601f19601f8301169050919050565b5f61076c82610710565b610776818561071a565b935061078681856020860161072a565b61078f81610752565b840191505092915050565b5f608083015f8301516107af5f860182610701565b50602083015184820360208601526107c78282610762565b915050604083015184820360408601526107e18282610762565b915050606083015184820360608601526107fb8282610762565b9150508091505092915050565b5f6020820190508181035f830152610820818461079a565b905092915050565b5f604051905090565b5f80fd5b5f80fd5b5f80fd5b5f80fd5b7f4e487b71000000000000000000000000000000000000000000000000000000005f52604160045260245ffd5b61087782610752565b810181811067ffffffffffffffff8211171561089657610895610841565b5b80604052505050565b5f6108a8610828565b90506108b4828261086e565b919050565b5f67ffffffffffffffff8211156108d3576108d2610841565b5b6108dc82610752565b9050602081019050919050565b828183375f83830152505050565b5f610909610904846108b9565b61089f565b9050828152602081018484840111156109255761092461083d565b5b6109308482856108e9565b509392505050565b5f82601f83011261094c5761094b610839565b5b813561095c8482602086016108f7565b91505092915050565b5f6020828403121561097a57610979610831565b5b5f82013567ffffffffffffffff81111561099757610996610835565b5b6109a384828501610938565b91505092915050565b5f819050919050565b6109be816109ac565b82525050565b5f6020820190506109d75f8301846109b5565b92915050565b6109e6816106c8565b81146109f0575f80fd5b50565b5f81359050610a01816109dd565b92915050565b5f8060408385031215610a1d57610a1c610831565b5b5f610a2a858286016109f3565b9250506020610a3b858286016109f3565b9150509250929050565b5f82825260208201905092915050565b7f6e6f6e20617574686f72697a65642075736572000000000000000000000000005f82015250565b5f610a89601383610a45565b9150610a9482610a55565b602082019050919050565b5f6020820190508181035f830152610ab681610a7d565b9050919050565b7f4e487b71000000000000000000000000000000000000000000000000000000005f52602260045260245ffd5b5f6002820490506001821680610b0157607f821691505b602082108103610b1457610b13610abd565b5b50919050565b5f81519050919050565b5f819050815f5260205f209050919050565b5f6020601f8301049050919050565b5f82821b905092915050565b5f60088302610b807fffffffffffffffffffffffffffffffffffffffffffffffffffffffffffffffff82610b45565b610b8a8683610b45565b95508019841693508086168417925050509392505050565b5f819050919050565b5f610bc5610bc0610bbb846109ac565b610ba2565b6109ac565b9050919050565b5f819050919050565b610bde83610bab565b610bf2610bea82610bcc565b848454610b51565b825550505050565b5f90565b610c06610bfa565b610c11818484610bd5565b505050565b5b81811015610c3457610c295f82610bfe565b600181019050610c17565b5050565b601f821115610c7957610c4a81610b24565b610c5384610b36565b81016020851015610c62578190505b610c76610c6e85610b36565b830182610c16565b50505b505050565b5f82821c905092915050565b5f610c995f1984600802610c7e565b1980831691505092915050565b5f610cb18383610c8a565b9150826002028217905092915050565b610cca82610b1a565b67ffffffffffffffff811115610ce357610ce2610841565b5b610ced8254610aea565b610cf8828285610c38565b5f60209050601f831160018114610d29575f8415610d17578287015190505b610d218582610ca6565b865550610d88565b601f198416610d3786610b24565b5f5b82811015610d5e57848901518255600182019150602085019450602081019050610d39565b86831015610d7b5784890151610d77601f891682610c8a565b8355505b6001600288020188555050505b505050505050565b610d99816109ac565b8114610da3575f80fd5b50565b5f81519050610db481610d90565b92915050565b5f60208284031215610dcf57610dce610831565b5b5f610ddc84828501610da6565b91505092915050565b5f604082019050610df85f8301856106d9565b610e0560208301846109b5565b9392505050565b5f8115159050919050565b610e2081610e0c565b8114610e2a575f80fd5b50565b5f81519050610e3b81610e17565b92915050565b5f60208284031215610e5657610e55610831565b5b5f610e6384828501610e2d565b9150509291505056fea26469706673582212202304299c87682d228291e2fd57970a95219d7db0bc614cda10fed6671ad1862f64736f6c63430008140033a264697066735822122041fdaf30bee4133d804bd0261b97860fb344e3d27ee34f61306f859c3b7b55d564736f6c63430008140033",
  "immutableReferences": {},
  "source": "// SPDX-License-Identifier: BUSL-1.1\npragma solidity >= \"0.8.20\";\nimport \"./gitarray.sol\";\nimport \"./gitarg.sol\";\nimport \"./objects/Repo.sol\";\nimport \"./objects/Commit.sol\";\nimport \"./objects/Log.sol\";\n\n// TimeLog handshake string/bytes for blockchain interface\n\ncontract giteta {\n  // REVIEW - wallet changeable with handshakes in gitarray\n  // REVIEW - should we change the modifiers to private\n  address public gitargWallet;\n  gitarg public Gitarg;\n  address public arg;\n\n  uint public service;\n\n  struct Time {\n    address commit;\n    uint timestamp;\n  }\n\n  mapping(Repo => Time[]) private commits;\n  mapping(address => Time) private valuing;\n  mapping(address => uint) private bounties;\n\n  event Com(address commit);\n  event Comm(Time[] commits);\n  event Value(uint value);\n  \n  constructor(address _gitarg) {\n    arg = _gitarg;\n    Gitarg = gitarg(_gitarg);\n    gitargWallet = msg.sender;\n  }\n  // REVIEW - payinto repo?\n  //constructor(address _wallet, address _repo, bytes memory _message, bytes memory _author, bytes memory _date) {\n  function commit (address _repo, string memory message, string memory author, string memory date, uint escrow) public returns (uint) {\n    require(Gitarg.balanceOf(msg.sender) >= escrow, \"not enough escrow - argctl interface\");\n    require(Gitarg.allowance(msg.sender, address(this)) >= escrow);\n    Commit c = new Commit(msg.sender, _repo, message, author, date);\n    //\n    service += 1;\n    Gitarg.transferFrom(msg.sender, address(c), escrow - 1);\n    Repo repo = Repo(_repo);\n    Time memory time = Time(address(c), block.timestamp);\n    commits[repo].push(time);\n    valuing[address(c)] = time;\n    emit Com(address(c));\n    return Gitarg.balanceOf(address(c));\n  }\n  /*\n  function commit(address _repo, string memory message, string memory author, string memory date, uint escrow) public returns (uint) {\n    require(Gitarg.balanceOf(msg.sender) >= escrow, \"not enough escrow\");\n    // REVIEW - should the transfer be placed into the repo?\\\n    Commit c = new Commit(msg.sender, _repo, message, author, date);\n    //\n    service += 1;\n    Gitarg.transferFrom(msg.sender, address(c), escrow - 1);\n    Repo repo = Repo(_repo);\n    Time memory time = Time(address(c), block.timestamp);\n    // REVIEW - should this really be a repo object as a key or the address\n    commits[repo].push(time);\n    valuing[address(c)] = time;\n    emit Com(address(c));\n    return Gitarg.balanceOf(address(c));\n  }\n  */\n  // raise value of commits - called when used successfully by chain\n  function up(address payable _commit, bool _balance) public payable returns (uint) {\n    Commit commit = Commit(_commit);\n    Time memory time = valuing[_commit];\n    uint _value = block.timestamp - time.timestamp;\n    if (_balance) {\n      uint balance = Gitarg.balanceOf(_commit);\n      // REVIEW - should we spit back\n      if (_value < balance) _value = 0; \n      if (_value >= balance) _value -= balance;\n    }\n    require(Gitarg.balanceOf(msg.sender) > _value, \"Balance of wallet is less than the difference (_value)\");\n    Gitarg.transferFrom(msg.sender, _commit, _value);\n    return _value;\n  }\n  // raise value of commits - called when issue is created involving commit\n  // REVIEW - gitarray \n  // TODO - PROPOSAL for unsafe down function for old code maintenance or handshake member\n  function down(address _repo, address _commit, uint bounty) public payable returns (uint) {\n    // TODO - check gitarg token stash of wallet\n    Repo repo = Repo(_repo);\n    Commit commit = Commit(_commit);\n    // TODO - gitorg library to use handshakes\n    // REVIEW - should this be the commit owner? - handshakes\n    require(msg.sender == repo.owner(), \"repo owner doesn't match msg.sender\");\n    require(Gitarg.balanceOf(address(commit)) >= bounty, \"bounty not less than balance\");\n    commit.approve(address(Gitarg), address(this));\n    Gitarg.transferFrom(_commit, _repo, bounty);\n    // REVIEW - bounty needed\n    bounties[_commit] += bounty;\n    // REVIEW - values based on the git token backed?\n    return Gitarg.balanceOf(_commit);\n  }\n  // drain commits per commit, access after down function is called\n  function drain(address _commit) public payable returns (uint) {\n    // TODO - rate gather & msg.value travels?\n    Commit(_commit);\n    uint balance = Gitarg.balanceOf(_commit);\n    Gitarg.transferFrom(_commit, address(this), balance);\n    return balance;\n  }\n  // drain commits in a repo after down allow is called \n  function drain(uint start, uint end, address _repo) public payable returns (uint) {\n    //function query(address _repo, uint start, uint end) public returns (Time[] memory)\n    Time[] memory times = query(_repo, start, end);\n    for (uint i = 0; i < times.length; i++) {\n      drain(times[i].commit);\n    }\n    return block.timestamp;\n  }\n  // query value of commit\n  function value(address _commit) public view returns (uint) {\n    return Gitarg.balanceOf(address(Commit(_commit)));\n  }\n  // query commits by range, repo or value\n  function query(address _repo, uint start, uint end) public returns (Time[] memory) {\n    Time[] memory repo = commits[Repo(_repo)];\n    Time[] memory _commits = new Time[](repo.length);\n    uint j = 0;\n    for (uint i = 0; i < repo.length; i++) {\n      Time memory time = repo[i];\n      if (time.timestamp >= start && time.timestamp <= end) {\n        // _commits.length is 0 when index is 0 for length of 0, 1 when index is 1 for unwritten space\n        _commits[++j] = time;\n        emit Value(time.timestamp);\n        emit Com(time.commit);\n      }\n    }\n    return _commits; \n  }\n  function query(address repo) public view returns (Time[] memory) {\n    return commits[Repo(repo)];\n  }\n  function query(uint _value, address _repo) public view returns (Time[] memory) {\n    Time[] memory repo = commits[Repo(_repo)];\n    Time[] memory _commits = new Time[](repo.length);\n    for (uint i = 0; i < repo.length; i++) {\n      if (Gitarg.balanceOf(repo[i].commit) == _value) {\n        _commits[i] = repo[i];\n      }\n    }\n    return _commits;\n  }\n}\n",
  "sourcePath": "/home/gitarg/gitarg/solidity_ico/contracts/giteta.sol",
  "compiler": {
    "name": "solc",
    "version": "0.8.20+commit.a1b79de6.Emscripten.clang"
  },
  "schemaVersion": "3.4.16",
  "updatedAt": "2024-03-06T12:50:18.485Z",
  "networkType": "ethereum",
  "devdoc": {
    "kind": "dev",
    "methods": {},
    "version": 1
  },
  "userdoc": {
    "kind": "user",
    "methods": {},
    "version": 1
  }
}