{
  "contractName": "gitorg",
  "abi": [
    {
      "inputs": [
        {
          "internalType": "string",
          "name": "_hash",
          "type": "string"
        },
        {
          "internalType": "uint256",
          "name": "timestamp",
          "type": "uint256"
        },
        {
          "internalType": "address",
          "name": "_msgSender",
          "type": "address"
        }
      ],
      "name": "stamp",
      "outputs": [
        {
          "internalType": "bytes32",
          "name": "",
          "type": "bytes32"
        }
      ],
      "stateMutability": "pure",
      "type": "function",
      "constant": true
    },
    {
      "inputs": [
        {
          "internalType": "string",
          "name": "_hash",
          "type": "string"
        }
      ],
      "name": "key",
      "outputs": [
        {
          "internalType": "bytes32",
          "name": "",
          "type": "bytes32"
        }
      ],
      "stateMutability": "pure",
      "type": "function",
      "constant": true
    },
    {
      "inputs": [],
      "name": "stats",
      "outputs": [
        {
          "internalType": "uint256",
          "name": "",
          "type": "uint256"
        }
      ],
      "stateMutability": "pure",
      "type": "function",
      "constant": true
    },
    {
      "inputs": [],
      "name": "pool",
      "outputs": [
        {
          "internalType": "uint256",
          "name": "",
          "type": "uint256"
        }
      ],
      "stateMutability": "pure",
      "type": "function",
      "constant": true
    },
    {
      "inputs": [],
      "name": "poll",
      "outputs": [
        {
          "internalType": "uint256",
          "name": "",
          "type": "uint256"
        }
      ],
      "stateMutability": "pure",
      "type": "function",
      "constant": true
    },
    {
      "inputs": [],
      "name": "search",
      "outputs": [
        {
          "internalType": "address",
          "name": "",
          "type": "address"
        }
      ],
      "stateMutability": "view",
      "type": "function",
      "constant": true
    },
    {
      "inputs": [],
      "name": "timestamp",
      "outputs": [
        {
          "internalType": "uint256",
          "name": "",
          "type": "uint256"
        }
      ],
      "stateMutability": "view",
      "type": "function",
      "constant": true
    }
  ],
  "bytecode": "0x610d7761004e600b8282823980515f1a607314610042577f4e487b71000000000000000000000000000000000000000000000000000000005f525f60045260245ffd5b305f52607381538281f3fe73000000000000000000000000000000000000000030146080604052600436106100a7575f3560e01c80638ee0cd2e1161006f5780638ee0cd2e1461018f578063a1175279146101bf578063b80777ea146101dd578063d80528ae146101fb578063e1f21c6714610219576100a7565b806316f0115b146100ab57806321bea7cc146100c9578063515ec2ab1461010557806368d54aa71461014157806389350daa14610171575b5f80fd5b6100b3610241565b6040516100c09190610629565b60405180910390f35b8180156100d4575f80fd5b506100ef60048036038101906100ea91906106e8565b610245565b6040516100fc9190610740565b60405180910390f35b818015610110575f80fd5b5061012b60048036038101906101269190610783565b610354565b6040516101389190610740565b60405180910390f35b61015b60048036038101906101569190610936565b610511565b6040516101689190610995565b60405180910390f35b610179610540565b60405161018691906109bd565b60405180910390f35b6101a960048036038101906101a491906109d6565b610547565b6040516101b69190610995565b60405180910390f35b6101c761057c565b6040516101d49190610629565b60405180910390f35b6101e5610580565b6040516101f29190610629565b60405180910390f35b610203610587565b6040516102109190610629565b60405180910390f35b818015610224575f80fd5b5061023f600480360381019061023a9190610a42565b61058b565b005b5f90565b5f808290508073ffffffffffffffffffffffffffffffffffffffff166323b872dd3386346040518463ffffffff1660e01b815260040161028793929190610ab0565b6020604051808303815f875af11580156102a3573d5f803e3d5ffd5b505050506040513d601f19601f820116820180604052508101906102c79190610b0f565b505f8373ffffffffffffffffffffffffffffffffffffffff166108fc3490811502906040515f60405180830381858888f19350505050905080610349573373ffffffffffffffffffffffffffffffffffffffff166108fc3490811502906040515f60405180830381858888f19350505050158015610347573d5f803e3d5ffd5b505b809250505092915050565b5f808690505f8690505f8273ffffffffffffffffffffffffffffffffffffffff1663307ef6046040518163ffffffff1660e01b8152600401602060405180830381865afa1580156103a7573d5f803e3d5ffd5b505050506040513d601f19601f820116820180604052508101906103cb9190610b4e565b90508073ffffffffffffffffffffffffffffffffffffffff168573ffffffffffffffffffffffffffffffffffffffff1614610404575f80fd5b8173ffffffffffffffffffffffffffffffffffffffff1663a9059cbb82886040518363ffffffff1660e01b815260040161043f929190610b79565b6020604051808303815f875af115801561045b573d5f803e3d5ffd5b505050506040513d601f19601f8201168201806040525081019061047f9190610b0f565b505f8773ffffffffffffffffffffffffffffffffffffffff166108fc3490811502906040515f60405180830381858888f19350505050905080610501573373ffffffffffffffffffffffffffffffffffffffff166108fc3490811502906040515f60405180830381858888f193505050501580156104ff573d5f803e3d5ffd5b505b8094505050505095945050505050565b5f816040516020016105239190610c0c565b604051602081830303815290604052805190602001209050919050565b5f33905090565b5f83838360405160200161055d93929190610c87565b6040516020818303038152906040528051906020012090509392505050565b5f90565b5f42905090565b5f90565b5f8390508073ffffffffffffffffffffffffffffffffffffffff1663095ea7b384846040518363ffffffff1660e01b81526004016105ca929190610d1a565b6020604051808303815f875af11580156105e6573d5f803e3d5ffd5b505050506040513d601f19601f8201168201806040525081019061060a9190610b0f565b5050505050565b5f819050919050565b61062381610611565b82525050565b5f60208201905061063c5f83018461061a565b92915050565b5f604051905090565b5f80fd5b5f80fd5b5f73ffffffffffffffffffffffffffffffffffffffff82169050919050565b5f61067c82610653565b9050919050565b61068c81610672565b8114610696575f80fd5b50565b5f813590506106a781610683565b92915050565b5f6106b782610653565b9050919050565b6106c7816106ad565b81146106d1575f80fd5b50565b5f813590506106e2816106be565b92915050565b5f80604083850312156106fe576106fd61064b565b5b5f61070b85828601610699565b925050602061071c858286016106d4565b9150509250929050565b5f8115159050919050565b61073a81610726565b82525050565b5f6020820190506107535f830184610731565b92915050565b61076281610611565b811461076c575f80fd5b50565b5f8135905061077d81610759565b92915050565b5f805f805f60a0868803121561079c5761079b61064b565b5b5f6107a988828901610699565b95505060206107ba88828901610699565b94505060406107cb888289016106d4565b93505060606107dc8882890161076f565b92505060806107ed888289016106d4565b9150509295509295909350565b5f80fd5b5f80fd5b5f601f19601f8301169050919050565b7f4e487b71000000000000000000000000000000000000000000000000000000005f52604160045260245ffd5b61084882610802565b810181811067ffffffffffffffff8211171561086757610866610812565b5b80604052505050565b5f610879610642565b9050610885828261083f565b919050565b5f67ffffffffffffffff8211156108a4576108a3610812565b5b6108ad82610802565b9050602081019050919050565b828183375f83830152505050565b5f6108da6108d58461088a565b610870565b9050828152602081018484840111156108f6576108f56107fe565b5b6109018482856108ba565b509392505050565b5f82601f83011261091d5761091c6107fa565b5b813561092d8482602086016108c8565b91505092915050565b5f6020828403121561094b5761094a61064b565b5b5f82013567ffffffffffffffff8111156109685761096761064f565b5b61097484828501610909565b91505092915050565b5f819050919050565b61098f8161097d565b82525050565b5f6020820190506109a85f830184610986565b92915050565b6109b781610672565b82525050565b5f6020820190506109d05f8301846109ae565b92915050565b5f805f606084860312156109ed576109ec61064b565b5b5f84013567ffffffffffffffff811115610a0a57610a0961064f565b5b610a1686828701610909565b9350506020610a278682870161076f565b9250506040610a3886828701610699565b9150509250925092565b5f805f60608486031215610a5957610a5861064b565b5b5f610a6686828701610699565b9350506020610a77868287016106d4565b9250506040610a888682870161076f565b9150509250925092565b610a9b81610672565b82525050565b610aaa81610611565b82525050565b5f606082019050610ac35f830186610a92565b610ad06020830185610a92565b610add6040830184610aa1565b949350505050565b610aee81610726565b8114610af8575f80fd5b50565b5f81519050610b0981610ae5565b92915050565b5f60208284031215610b2457610b2361064b565b5b5f610b3184828501610afb565b91505092915050565b5f81519050610b4881610683565b92915050565b5f60208284031215610b6357610b6261064b565b5b5f610b7084828501610b3a565b91505092915050565b5f604082019050610b8c5f830185610a92565b610b996020830184610aa1565b9392505050565b5f81519050919050565b5f81905092915050565b5f5b83811015610bd1578082015181840152602081019050610bb6565b5f8484015250505050565b5f610be682610ba0565b610bf08185610baa565b9350610c00818560208601610bb4565b80840191505092915050565b5f610c178284610bdc565b915081905092915050565b5f819050919050565b610c3c610c3782610611565b610c22565b82525050565b5f8160601b9050919050565b5f610c5882610c42565b9050919050565b5f610c6982610c4e565b9050919050565b610c81610c7c82610672565b610c5f565b82525050565b5f610c928286610bdc565b9150610c9e8285610c2b565b602082019150610cae8284610c70565b601482019150819050949350505050565b5f819050919050565b5f610ce2610cdd610cd884610653565b610cbf565b610653565b9050919050565b5f610cf382610cc8565b9050919050565b5f610d0482610ce9565b9050919050565b610d1481610cfa565b82525050565b5f604082019050610d2d5f830185610d0b565b610d3a6020830184610aa1565b939250505056fea264697066735822122066b67aa5ad800cf06f3969d89e528081bd794d3dbbdf89df8870463d933ca65b64736f6c63430008140033",
  "immutableReferences": {},
  "source": "// SPDX-License-Identifier: UNLICENSED\npragma solidity >= \"0.8.20\";\nimport \"../giteta.sol\";\nimport \"../gitarg.sol\";\n//import \"../objects/Repo.sol\";\n\n//library so that there is a single point and interface to externals reference\n\n// !!!\n// REVIEW - msg.value may not be available in library functions and might need to be replaced with contract functions\n// REVIEW - msg.value and transfer - if msg.value is not available, transfer/send shouldn't be?\nlibrary gitorg {\n  // TODO - library interface exteranal to gitarg\n  // uses contract addresses to pool/poll versioning data \n  // \"directs traffic\"\n  function stamp (string memory _hash, uint timestamp, address _msgSender) public pure returns (bytes32) {\n    return keccak256(abi.encodePacked(_hash, timestamp, _msgSender));\n  }\n  function key (string memory _hash) public pure returns (bytes32) {\n    // REVIEW - keccak is a rainbow table or one way hash?\n    return keccak256(abi.encodePacked(_hash));\n  }\n  function donate(address _giteta, address payable _gitarg) public returns (bool) {\n    // REVIEW - should msg.sender to commit instead of eta or value split\n    //giteta eta = giteta(_giteta);\n    gitarg arg = gitarg(_gitarg);\n    arg.transferFrom(msg.sender, _giteta, msg.value);\n    bool success = _gitarg.send(msg.value);\n    if (!success) {\n      payable(msg.sender).transfer(msg.value);\n    }\n    return success;\n  }\n  function direct(address _giteta, address _gitarg, address payable _repo, uint stash, address payable _to) public returns (bool) {\n    // REVIEW - recycle to either contract address or escrow wallet to cycle GITARG coin\n    giteta eta = giteta(_giteta);\n    gitarg arg = gitarg(_gitarg);\n    //Repo repo = Repo(_repo);\n    address wallet = eta.gitargWallet();\n    require(_to == wallet);\n    // TODO - stash from msg.value or account stash?\n    //require(stash >= msg.value * 100000); // REVIEW - query for rate on contract? \n    // TODO - use gitarray setter value for inflation deflation control\n    arg.transfer(wallet, stash);\n    //eta.transfer(repo);\n    // TODO - giteta gitarg bridge\n    bool success = _repo.send(msg.value);\n    if (!success) {\n      payable(msg.sender).transfer(msg.value);\n    }\n    return success;\n  }\n  function stats() public pure returns (uint) {\n    return 0;\n  }\n  function pool() public pure returns (uint) {\n    return 0;\n  }\n  function poll() public pure returns (uint) {\n    return 0;\n  }\n  function search() public view returns (address) {\n    return msg.sender;\n  }\n  function timestamp() public view returns (uint) {\n    return block.timestamp;\n  }\n  // TODO - place the argctl command\n  //function argctl()\n  function approve(address _gitarg, address payable _wallet, uint value) public {\n    gitarg Gitarg = gitarg(_gitarg);\n    Gitarg.approve(_wallet, value);\n  }\n  //function \n}\n",
  "sourcePath": "/Users/davidkamer/gitarg_eth_ico/contracts/libraries/gitorg.sol",
  "compiler": {
    "name": "solc",
    "version": "0.8.20+commit.a1b79de6.Emscripten.clang"
  },
  "schemaVersion": "3.4.16",
  "updatedAt": "2023-11-10T08:07:08.541Z",
  "networkType": "ethereum",
  "devdoc": {
    "kind": "dev",
    "methods": {},
    "version": 1
  },
  "userdoc": {
    "kind": "user",
    "methods": {},
    "version": 1
  }
}