{
  "contractName": "Handshakes",
  "abi": [
    {
      "inputs": [
        {
          "internalType": "address[]",
          "name": "_handshakes",
          "type": "address[]"
        },
        {
          "internalType": "address",
          "name": "_owner",
          "type": "address"
        },
        {
          "internalType": "uint256",
          "name": "_threshold",
          "type": "uint256"
        },
        {
          "internalType": "bool",
          "name": "_corp",
          "type": "bool"
        }
      ],
      "stateMutability": "nonpayable",
      "type": "constructor"
    },
    {
      "inputs": [],
      "name": "corp",
      "outputs": [
        {
          "internalType": "bool",
          "name": "",
          "type": "bool"
        }
      ],
      "stateMutability": "view",
      "type": "function",
      "constant": true
    },
    {
      "inputs": [
        {
          "internalType": "address",
          "name": "_proposal",
          "type": "address"
        }
      ],
      "name": "setProposal",
      "outputs": [
        {
          "internalType": "uint256",
          "name": "",
          "type": "uint256"
        }
      ],
      "stateMutability": "nonpayable",
      "type": "function"
    },
    {
      "inputs": [],
      "name": "isHandshake",
      "outputs": [
        {
          "internalType": "bool",
          "name": "",
          "type": "bool"
        }
      ],
      "stateMutability": "view",
      "type": "function",
      "constant": true
    },
    {
      "inputs": [
        {
          "internalType": "address",
          "name": "sender",
          "type": "address"
        }
      ],
      "name": "isHandshake",
      "outputs": [
        {
          "internalType": "bool",
          "name": "",
          "type": "bool"
        }
      ],
      "stateMutability": "view",
      "type": "function",
      "constant": true
    },
    {
      "inputs": [],
      "name": "shake",
      "outputs": [],
      "stateMutability": "nonpayable",
      "type": "function"
    },
    {
      "inputs": [
        {
          "internalType": "address[]",
          "name": "shakes",
          "type": "address[]"
        },
        {
          "internalType": "address[]",
          "name": "noshakes",
          "type": "address[]"
        }
      ],
      "name": "check",
      "outputs": [],
      "stateMutability": "view",
      "type": "function",
      "constant": true
    },
    {
      "inputs": [
        {
          "internalType": "address",
          "name": "handshake",
          "type": "address"
        }
      ],
      "name": "add",
      "outputs": [
        {
          "internalType": "uint256",
          "name": "",
          "type": "uint256"
        }
      ],
      "stateMutability": "nonpayable",
      "type": "function"
    },
    {
      "inputs": [
        {
          "internalType": "address",
          "name": "handshake",
          "type": "address"
        }
      ],
      "name": "remove",
      "outputs": [
        {
          "internalType": "uint256",
          "name": "",
          "type": "uint256"
        }
      ],
      "stateMutability": "nonpayable",
      "type": "function"
    },
    {
      "inputs": [],
      "name": "remove",
      "outputs": [
        {
          "internalType": "uint256",
          "name": "",
          "type": "uint256"
        }
      ],
      "stateMutability": "nonpayable",
      "type": "function"
    },
    {
      "inputs": [
        {
          "internalType": "address",
          "name": "handshake",
          "type": "address"
        },
        {
          "internalType": "bool",
          "name": "_epoch",
          "type": "bool"
        }
      ],
      "name": "unstopper",
      "outputs": [
        {
          "internalType": "uint256",
          "name": "",
          "type": "uint256"
        }
      ],
      "stateMutability": "nonpayable",
      "type": "function"
    },
    {
      "inputs": [],
      "name": "epoch",
      "outputs": [],
      "stateMutability": "nonpayable",
      "type": "function"
    }
  ],
  "bytecode": "0x608060405243600a5534801562000014575f80fd5b5060405162001f5a38038062001f5a83398181016040528101906200003a9190620004f1565b335f806101000a81548173ffffffffffffffffffffffffffffffffffffffff021916908373ffffffffffffffffffffffffffffffffffffffff1602179055508260015f6101000a81548173ffffffffffffffffffffffffffffffffffffffff021916908373ffffffffffffffffffffffffffffffffffffffff16021790555060075f9054906101000a900473ffffffffffffffffffffffffffffffffffffffff1660075f6101000a81548173ffffffffffffffffffffffffffffffffffffffff021916908373ffffffffffffffffffffffffffffffffffffffff16021790555080600c5f6101000a81548160ff0219169083151502179055505f600654036200014b57835160068190555062000153565b816006819055505b5f5b8451811015620001d4574260025f8784815181106200017957620001786200057f565b5b602002602001015173ffffffffffffffffffffffffffffffffffffffff1673ffffffffffffffffffffffffffffffffffffffff1681526020019081526020015f20819055508080620001cb90620005d9565b91505062000155565b5083600b9080519060200190620001ed929190620001f8565b505050505062000625565b828054828255905f5260205f2090810192821562000271579160200282015b8281111562000270578251825f6101000a81548173ffffffffffffffffffffffffffffffffffffffff021916908373ffffffffffffffffffffffffffffffffffffffff1602179055509160200191906001019062000217565b5b50905062000280919062000284565b5090565b5b808211156200029d575f815f90555060010162000285565b5090565b5f604051905090565b5f80fd5b5f80fd5b5f80fd5b5f601f19601f8301169050919050565b7f4e487b71000000000000000000000000000000000000000000000000000000005f52604160045260245ffd5b620002fe82620002b6565b810181811067ffffffffffffffff8211171562000320576200031f620002c6565b5b80604052505050565b5f62000334620002a1565b9050620003428282620002f3565b919050565b5f67ffffffffffffffff821115620003645762000363620002c6565b5b602082029050602081019050919050565b5f80fd5b5f73ffffffffffffffffffffffffffffffffffffffff82169050919050565b5f620003a48262000379565b9050919050565b620003b68162000398565b8114620003c1575f80fd5b50565b5f81519050620003d481620003ab565b92915050565b5f620003f0620003ea8462000347565b62000329565b9050808382526020820190506020840283018581111562000416576200041562000375565b5b835b818110156200044357806200042e8882620003c4565b84526020840193505060208101905062000418565b5050509392505050565b5f82601f830112620004645762000463620002b2565b5b815162000476848260208601620003da565b91505092915050565b5f819050919050565b62000493816200047f565b81146200049e575f80fd5b50565b5f81519050620004b18162000488565b92915050565b5f8115159050919050565b620004cd81620004b7565b8114620004d8575f80fd5b50565b5f81519050620004eb81620004c2565b92915050565b5f805f80608085870312156200050c576200050b620002aa565b5b5f85015167ffffffffffffffff8111156200052c576200052b620002ae565b5b6200053a878288016200044d565b94505060206200054d87828801620003c4565b93505060406200056087828801620004a1565b92505060606200057387828801620004db565b91505092959194509250565b7f4e487b71000000000000000000000000000000000000000000000000000000005f52603260045260245ffd5b7f4e487b71000000000000000000000000000000000000000000000000000000005f52601160045260245ffd5b5f620005e5826200047f565b91507fffffffffffffffffffffffffffffffffffffffffffffffffffffffffffffffff82036200061a5762000619620005ac565b5b600182019050919050565b61192780620006335f395ff3fe608060405234801561000f575f80fd5b50600436106100a7575f3560e01c8063825f98d41161006f578063825f98d414610189578063900cf0cf1461019357806393f690e41461019d578063a7f43779146101bb578063cb15de5d146101d9578063e136156d146101f5576100a7565b8063054b0e7d146100ab5780630a3b0a4f146100c957806316395120146100f957806329092d0e1461012957806372686b1714610159575b5f80fd5b6100b3610225565b6040516100c091906113c7565b60405180910390f35b6100e360048036038101906100de919061144b565b61026c565b6040516100f0919061148e565b60405180910390f35b610113600480360381019061010e919061144b565b61059b565b60405161012091906113c7565b60405180910390f35b610143600480360381019061013e919061144b565b61062c565b604051610150919061148e565b60405180910390f35b610173600480360381019061016e919061144b565b610900565b604051610180919061148e565b60405180910390f35b610191610ad0565b005b61019b610b5c565b005b6101a5610ce5565b6040516101b291906113c7565b60405180910390f35b6101c3610cf7565b6040516101d0919061148e565b60405180910390f35b6101f360048036038101906101ee91906115f7565b610dca565b005b61020f600480360381019061020a9190611697565b611114565b60405161021c919061148e565b60405180910390f35b5f8060025f3373ffffffffffffffffffffffffffffffffffffffff1673ffffffffffffffffffffffffffffffffffffffff1681526020019081526020015f20541415905090565b5f600c5f9054906101000a900460ff16156103155760015f9054906101000a900473ffffffffffffffffffffffffffffffffffffffff1673ffffffffffffffffffffffffffffffffffffffff163373ffffffffffffffffffffffffffffffffffffffff1614610310576040517f08c379a00000000000000000000000000000000000000000000000000000000081526004016103079061172f565b60405180910390fd5b6103ed565b60015f9054906101000a900473ffffffffffffffffffffffffffffffffffffffff1673ffffffffffffffffffffffffffffffffffffffff163373ffffffffffffffffffffffffffffffffffffffff1614806103ad57505f60025f3373ffffffffffffffffffffffffffffffffffffffff1673ffffffffffffffffffffffffffffffffffffffff1681526020019081526020015f205414155b6103ec576040517f08c379a00000000000000000000000000000000000000000000000000000000081526004016103e390611797565b60405180910390fd5b5b5f60055f3373ffffffffffffffffffffffffffffffffffffffff1673ffffffffffffffffffffffffffffffffffffffff1681526020019081526020015f20541461046c576040517f08c379a0000000000000000000000000000000000000000000000000000000008152600401610463906117ff565b60405180910390fd5b4260025f8473ffffffffffffffffffffffffffffffffffffffff1673ffffffffffffffffffffffffffffffffffffffff1681526020019081526020015f2081905550600b82908060018154018082558091505060019003905f5260205f20015f9091909190916101000a81548173ffffffffffffffffffffffffffffffffffffffff021916908373ffffffffffffffffffffffffffffffffffffffff1602179055504260055f3373ffffffffffffffffffffffffffffffffffffffff1673ffffffffffffffffffffffffffffffffffffffff1681526020019081526020015f2081905550600160055f8473ffffffffffffffffffffffffffffffffffffffff1673ffffffffffffffffffffffffffffffffffffffff1681526020019081526020015f2081905550429050919050565b5f8060025f3373ffffffffffffffffffffffffffffffffffffffff1673ffffffffffffffffffffffffffffffffffffffff1681526020019081526020015f2054036105e4575f80fd5b5f60025f8473ffffffffffffffffffffffffffffffffffffffff1673ffffffffffffffffffffffffffffffffffffffff1681526020019081526020015f205414159050919050565b5f600c5f9054906101000a900460ff16156106d55760015f9054906101000a900473ffffffffffffffffffffffffffffffffffffffff1673ffffffffffffffffffffffffffffffffffffffff163373ffffffffffffffffffffffffffffffffffffffff16146106d0576040517f08c379a00000000000000000000000000000000000000000000000000000000081526004016106c79061172f565b60405180910390fd5b6107ad565b60015f9054906101000a900473ffffffffffffffffffffffffffffffffffffffff1673ffffffffffffffffffffffffffffffffffffffff163373ffffffffffffffffffffffffffffffffffffffff16148061076d57505f60025f3373ffffffffffffffffffffffffffffffffffffffff1673ffffffffffffffffffffffffffffffffffffffff1681526020019081526020015f205414155b6107ac576040517f08c379a00000000000000000000000000000000000000000000000000000000081526004016107a390611797565b60405180910390fd5b5b5f60055f3373ffffffffffffffffffffffffffffffffffffffff1673ffffffffffffffffffffffffffffffffffffffff1681526020019081526020015f20541461082c576040517f08c379a0000000000000000000000000000000000000000000000000000000008152600401610823906117ff565b60405180910390fd5b5f60025f8473ffffffffffffffffffffffffffffffffffffffff1673ffffffffffffffffffffffffffffffffffffffff1681526020019081526020015f205403610874575f80fd5b5f60025f8473ffffffffffffffffffffffffffffffffffffffff1673ffffffffffffffffffffffffffffffffffffffff1681526020019081526020015f20819055504260035f8473ffffffffffffffffffffffffffffffffffffffff1673ffffffffffffffffffffffffffffffffffffffff1681526020019081526020015f2081905550429050919050565b5f600c5f9054906101000a900460ff16156109a95760015f9054906101000a900473ffffffffffffffffffffffffffffffffffffffff1673ffffffffffffffffffffffffffffffffffffffff163373ffffffffffffffffffffffffffffffffffffffff16146109a4576040517f08c379a000000000000000000000000000000000000000000000000000000000815260040161099b9061172f565b60405180910390fd5b610a81565b60015f9054906101000a900473ffffffffffffffffffffffffffffffffffffffff1673ffffffffffffffffffffffffffffffffffffffff163373ffffffffffffffffffffffffffffffffffffffff161480610a4157505f60025f3373ffffffffffffffffffffffffffffffffffffffff1673ffffffffffffffffffffffffffffffffffffffff1681526020019081526020015f205414155b610a80576040517f08c379a0000000000000000000000000000000000000000000000000000000008152600401610a7790611797565b60405180910390fd5b5b8160075f6101000a81548173ffffffffffffffffffffffffffffffffffffffff021916908373ffffffffffffffffffffffffffffffffffffffff16021790555042600881905550429050919050565b5f60025f3373ffffffffffffffffffffffffffffffffffffffff1673ffffffffffffffffffffffffffffffffffffffff1681526020019081526020015f205403610b18575f80fd5b4260045f3373ffffffffffffffffffffffffffffffffffffffff1673ffffffffffffffffffffffffffffffffffffffff1681526020019081526020015f2081905550565b600c5f9054906101000a900460ff1615610c045760015f9054906101000a900473ffffffffffffffffffffffffffffffffffffffff1673ffffffffffffffffffffffffffffffffffffffff163373ffffffffffffffffffffffffffffffffffffffff1614610bff576040517f08c379a0000000000000000000000000000000000000000000000000000000008152600401610bf69061172f565b60405180910390fd5b610cdc565b60015f9054906101000a900473ffffffffffffffffffffffffffffffffffffffff1673ffffffffffffffffffffffffffffffffffffffff163373ffffffffffffffffffffffffffffffffffffffff161480610c9c57505f60025f3373ffffffffffffffffffffffffffffffffffffffff1673ffffffffffffffffffffffffffffffffffffffff1681526020019081526020015f205414155b610cdb576040517f08c379a0000000000000000000000000000000000000000000000000000000008152600401610cd290611797565b60405180910390fd5b5b43600a81905550565b600c5f9054906101000a900460ff1681565b5f8060025f3373ffffffffffffffffffffffffffffffffffffffff1673ffffffffffffffffffffffffffffffffffffffff1681526020019081526020015f205403610d40575f80fd5b5f60025f3373ffffffffffffffffffffffffffffffffffffffff1673ffffffffffffffffffffffffffffffffffffffff1681526020019081526020015f20819055504260035f3373ffffffffffffffffffffffffffffffffffffffff1673ffffffffffffffffffffffffffffffffffffffff1681526020019081526020015f208190555042905090565b600c5f9054906101000a900460ff1615610e725760015f9054906101000a900473ffffffffffffffffffffffffffffffffffffffff1673ffffffffffffffffffffffffffffffffffffffff163373ffffffffffffffffffffffffffffffffffffffff1614610e6d576040517f08c379a0000000000000000000000000000000000000000000000000000000008152600401610e649061172f565b60405180910390fd5b610f4a565b60015f9054906101000a900473ffffffffffffffffffffffffffffffffffffffff1673ffffffffffffffffffffffffffffffffffffffff163373ffffffffffffffffffffffffffffffffffffffff161480610f0a57505f60025f3373ffffffffffffffffffffffffffffffffffffffff1673ffffffffffffffffffffffffffffffffffffffff1681526020019081526020015f205414155b610f49576040517f08c379a0000000000000000000000000000000000000000000000000000000008152600401610f4090611797565b60405180910390fd5b5b5f5b825181101561102c575f60025f858481518110610f6c57610f6b61181d565b5b602002602001015173ffffffffffffffffffffffffffffffffffffffff1673ffffffffffffffffffffffffffffffffffffffff1681526020019081526020015f205403610fb7575f80fd5b5f60045f858481518110610fce57610fcd61181d565b5b602002602001015173ffffffffffffffffffffffffffffffffffffffff1673ffffffffffffffffffffffffffffffffffffffff1681526020019081526020015f205403611019575f80fd5b808061102490611877565b915050610f4c565b505f5b815181101561110f575f60025f84848151811061104f5761104e61181d565b5b602002602001015173ffffffffffffffffffffffffffffffffffffffff1673ffffffffffffffffffffffffffffffffffffffff1681526020019081526020015f20540361109a575f80fd5b5f60045f8484815181106110b1576110b061181d565b5b602002602001015173ffffffffffffffffffffffffffffffffffffffff1673ffffffffffffffffffffffffffffffffffffffff1681526020019081526020015f2054146110fc575f80fd5b808061110790611877565b91505061102f565b505050565b5f600c5f9054906101000a900460ff16156111bd5760015f9054906101000a900473ffffffffffffffffffffffffffffffffffffffff1673ffffffffffffffffffffffffffffffffffffffff163373ffffffffffffffffffffffffffffffffffffffff16146111b8576040517f08c379a00000000000000000000000000000000000000000000000000000000081526004016111af9061172f565b60405180910390fd5b611295565b60015f9054906101000a900473ffffffffffffffffffffffffffffffffffffffff1673ffffffffffffffffffffffffffffffffffffffff163373ffffffffffffffffffffffffffffffffffffffff16148061125557505f60025f3373ffffffffffffffffffffffffffffffffffffffff1673ffffffffffffffffffffffffffffffffffffffff1681526020019081526020015f205414155b611294576040517f08c379a000000000000000000000000000000000000000000000000000000000815260040161128b90611797565b60405180910390fd5b5b600b80549050600a54436112a991906118be565b116112b2575f80fd5b600160055f8573ffffffffffffffffffffffffffffffffffffffff1673ffffffffffffffffffffffffffffffffffffffff1681526020019081526020015f2054146112fb575f80fd5b5f60055f8573ffffffffffffffffffffffffffffffffffffffff1673ffffffffffffffffffffffffffffffffffffffff1681526020019081526020015f2081905550818015611396575060015f9054906101000a900473ffffffffffffffffffffffffffffffffffffffff1673ffffffffffffffffffffffffffffffffffffffff163373ffffffffffffffffffffffffffffffffffffffff16145b156113a4576113a3610b5c565b5b42905092915050565b5f8115159050919050565b6113c1816113ad565b82525050565b5f6020820190506113da5f8301846113b8565b92915050565b5f604051905090565b5f80fd5b5f80fd5b5f73ffffffffffffffffffffffffffffffffffffffff82169050919050565b5f61141a826113f1565b9050919050565b61142a81611410565b8114611434575f80fd5b50565b5f8135905061144581611421565b92915050565b5f602082840312156114605761145f6113e9565b5b5f61146d84828501611437565b91505092915050565b5f819050919050565b61148881611476565b82525050565b5f6020820190506114a15f83018461147f565b92915050565b5f80fd5b5f601f19601f8301169050919050565b7f4e487b71000000000000000000000000000000000000000000000000000000005f52604160045260245ffd5b6114f1826114ab565b810181811067ffffffffffffffff821117156115105761150f6114bb565b5b80604052505050565b5f6115226113e0565b905061152e82826114e8565b919050565b5f67ffffffffffffffff82111561154d5761154c6114bb565b5b602082029050602081019050919050565b5f80fd5b5f61157461156f84611533565b611519565b905080838252602082019050602084028301858111156115975761159661155e565b5b835b818110156115c057806115ac8882611437565b845260208401935050602081019050611599565b5050509392505050565b5f82601f8301126115de576115dd6114a7565b5b81356115ee848260208601611562565b91505092915050565b5f806040838503121561160d5761160c6113e9565b5b5f83013567ffffffffffffffff81111561162a576116296113ed565b5b611636858286016115ca565b925050602083013567ffffffffffffffff811115611657576116566113ed565b5b611663858286016115ca565b9150509250929050565b611676816113ad565b8114611680575f80fd5b50565b5f813590506116918161166d565b92915050565b5f80604083850312156116ad576116ac6113e9565b5b5f6116ba85828601611437565b92505060206116cb85828601611683565b9150509250929050565b5f82825260208201905092915050565b7f636f7270206f776e6572000000000000000000000000000000000000000000005f82015250565b5f611719600a836116d5565b9150611724826116e5565b602082019050919050565b5f6020820190508181035f8301526117468161170d565b9050919050565b7f6f776e65720000000000000000000000000000000000000000000000000000005f82015250565b5f6117816005836116d5565b915061178c8261174d565b602082019050919050565b5f6020820190508181035f8301526117ae81611775565b9050919050565b7f73746f70706572000000000000000000000000000000000000000000000000005f82015250565b5f6117e96007836116d5565b91506117f4826117b5565b602082019050919050565b5f6020820190508181035f830152611816816117dd565b9050919050565b7f4e487b71000000000000000000000000000000000000000000000000000000005f52603260045260245ffd5b7f4e487b71000000000000000000000000000000000000000000000000000000005f52601160045260245ffd5b5f61188182611476565b91507fffffffffffffffffffffffffffffffffffffffffffffffffffffffffffffffff82036118b3576118b261184a565b5b600182019050919050565b5f6118c882611476565b91506118d383611476565b92508282039050818111156118eb576118ea61184a565b5b9291505056fea2646970667358221220447ffc941fbc59f4ab11dce56b1c29382193ec27329f433bc0b7c987dba9a7d664736f6c63430008140033",
  "immutableReferences": {},
  "source": "// SPDX-License-Identifier: BUSL-1.1\npragma solidity >= \"0.8.20\";\n\ncontract Handshakes {\n  address private creator;\n  address private owner;\n  mapping(address => uint) private handshakes;\n  mapping(address => uint) private removed;\n  mapping(address => uint) private shook;\n  mapping(address => uint) private stopper;\n\n  uint private threshold;\n\n  address private proposal;\n  uint private proposalTime;\n\n  //uint private epoch;\n  uint private placement;\n  uint private stopperEpoch = block.number;\n\n  address[] private shakeList;\n\n  bool public corp;\n\n  // timing linearly related to the length of a list\n  modifier rhyme () {\n    // x - f(x) or f(y) = f(x) - x or f(y) = -x ~RE~VIEW~\n    require(block.number - stopperEpoch > shakeList.length);\n    _;\n  }\n\n  modifier own () {\n    if (corp) {\n      require(msg.sender == owner, \"corp owner\");\n    } else {\n      require(msg.sender == owner || handshakes[msg.sender] != 0, \"owner\");\n    }\n    _;\n  }\n\n  modifier stop () {\n    require(stopper[msg.sender] == 0, \"stopper\");\n    _;\n  }\n\n  modifier member () {\n    require(handshakes[msg.sender] != 0);\n    _; \n    // TODO - explore - we can execute post-middlewear -  require(handshakes[msg.sender] != 0);\n  }\n  constructor(address[] memory _handshakes, address _owner, uint _threshold, bool _corp) {\n    creator = msg.sender;\n    owner = _owner;\n    proposal = proposal;\n    corp = _corp;\n    if (threshold == 0) {\n      threshold = _handshakes.length;\n    } else {\n      threshold = _threshold;\n    }\n    for (uint i = 0; i < _handshakes.length; i++) {\n      handshakes[_handshakes[i]] = block.timestamp;\n    }\n    shakeList = _handshakes;\n  }\n  function setProposal(address _proposal) public own returns(uint) {\n    proposal = _proposal;\n    proposalTime = block.timestamp;\n    return block.timestamp;\n  }\n  function isHandshake(address sender) public view member returns(bool) {\n    // review - owner and creator or just owner\n    //require(creator == msg.sender || owner == msg.sender);\n    return handshakes[sender] != 0;\n  }\n  function isHandshake() public view returns(bool) {\n    return handshakes[msg.sender] != 0;\n  }\n  function shake() public member {\n    shook[msg.sender] = block.timestamp;\n  }\n  // TODO - expiry on handshake check with greaterthan\n  function check(address[] memory shakes, address[] memory noshakes) public view own {\n    for (uint i = 0; i < shakes.length; i++) {\n      require(handshakes[shakes[i]] != 0);\n      require(shook[shakes[i]] != 0);\n    }\n    for (uint i = 0; i < noshakes.length; i++) {\n      require(handshakes[noshakes[i]] != 0);\n      require(shook[noshakes[i]] == 0);\n    }\n  }\n  // handshake add resembles a chain of addresses (linked list)\n  function add(address handshake) public own stop returns (uint) {\n    handshakes[handshake] = block.timestamp;\n    shakeList.push(handshake);\n    stopper[msg.sender] = block.timestamp;\n    stopper[handshake] = 1;\n    return block.timestamp;\n  }\n  // removing a handshake leaves a trace of the handshake\n  function remove() public returns (uint) {\n    // TODO - remove from shakeList?\n    require(handshakes[msg.sender] != 0);\n    handshakes[msg.sender] = 0;\n    removed[msg.sender] = block.timestamp;\n    return block.timestamp;\n  }\n  // REVIEW - restrict to owner (own review) for handshake address-is own handshake check too?\n  function remove(address handshake) public own stop returns (uint) {\n    // TODO - remove from shakeList? - shakeList only used for length\n    require(handshakes[handshake] != 0);\n    handshakes[handshake] = 0;\n    removed[handshake] = block.timestamp;\n    return block.timestamp;\n  }\n  function unstopper(address handshake, bool _epoch) public own rhyme returns (uint) {\n    // REVIEW - should stopperEpoch have a different adder\n    // TODO - multiply by thresholdDivider or another multiplier?\n    require(stopper[handshake] == 1);\n    stopper[handshake] = 0;\n    if (_epoch && msg.sender == owner) epoch();\n    return block.timestamp;\n  }\n  function epoch () public own {\n    stopperEpoch = block.number;\n  }\n}\n",
  "sourcePath": "/Users/davidkamer/gitarg_eth_ico/contracts/objects/Handshakes.sol",
  "compiler": {
    "name": "solc",
    "version": "0.8.20+commit.a1b79de6.Emscripten.clang"
  },
  "schemaVersion": "3.4.16",
  "updatedAt": "2023-10-11T03:20:24.479Z",
  "networkType": "ethereum",
  "devdoc": {
    "kind": "dev",
    "methods": {},
    "version": 1
  },
  "userdoc": {
    "kind": "user",
    "methods": {},
    "version": 1
  }
}