{
  "contractName": "Handshakes",
  "abi": [
    {
      "inputs": [
        {
          "internalType": "address[]",
          "name": "_handshakes",
          "type": "address[]"
        },
        {
          "internalType": "address",
          "name": "_owner",
          "type": "address"
        },
        {
          "internalType": "uint256",
          "name": "_threshold",
          "type": "uint256"
        },
        {
          "internalType": "bool",
          "name": "_corp",
          "type": "bool"
        }
      ],
      "stateMutability": "nonpayable",
      "type": "constructor"
    },
    {
      "inputs": [],
      "name": "corp",
      "outputs": [
        {
          "internalType": "bool",
          "name": "",
          "type": "bool"
        }
      ],
      "stateMutability": "view",
      "type": "function",
      "constant": true
    },
    {
      "inputs": [
        {
          "internalType": "address",
          "name": "_proposal",
          "type": "address"
        }
      ],
      "name": "setProposal",
      "outputs": [
        {
          "internalType": "uint256",
          "name": "",
          "type": "uint256"
        }
      ],
      "stateMutability": "nonpayable",
      "type": "function"
    },
    {
      "inputs": [],
      "name": "isHandshake",
      "outputs": [
        {
          "internalType": "bool",
          "name": "",
          "type": "bool"
        }
      ],
      "stateMutability": "view",
      "type": "function",
      "constant": true
    },
    {
      "inputs": [
        {
          "internalType": "address",
          "name": "handshake",
          "type": "address"
        }
      ],
      "name": "isHandshake",
      "outputs": [
        {
          "internalType": "bool",
          "name": "",
          "type": "bool"
        }
      ],
      "stateMutability": "view",
      "type": "function",
      "constant": true
    },
    {
      "inputs": [],
      "name": "shake",
      "outputs": [],
      "stateMutability": "nonpayable",
      "type": "function"
    },
    {
      "inputs": [
        {
          "internalType": "address[]",
          "name": "shakes",
          "type": "address[]"
        },
        {
          "internalType": "address[]",
          "name": "noshakes",
          "type": "address[]"
        }
      ],
      "name": "check",
      "outputs": [],
      "stateMutability": "view",
      "type": "function",
      "constant": true
    },
    {
      "inputs": [
        {
          "internalType": "address",
          "name": "handshake",
          "type": "address"
        }
      ],
      "name": "add",
      "outputs": [
        {
          "internalType": "uint256",
          "name": "",
          "type": "uint256"
        }
      ],
      "stateMutability": "nonpayable",
      "type": "function"
    },
    {
      "inputs": [
        {
          "internalType": "address",
          "name": "handshake",
          "type": "address"
        }
      ],
      "name": "remove",
      "outputs": [
        {
          "internalType": "uint256",
          "name": "",
          "type": "uint256"
        }
      ],
      "stateMutability": "nonpayable",
      "type": "function"
    },
    {
      "inputs": [],
      "name": "remove",
      "outputs": [
        {
          "internalType": "uint256",
          "name": "",
          "type": "uint256"
        }
      ],
      "stateMutability": "nonpayable",
      "type": "function"
    },
    {
      "inputs": [
        {
          "internalType": "address",
          "name": "handshake",
          "type": "address"
        },
        {
          "internalType": "bool",
          "name": "_epoch",
          "type": "bool"
        }
      ],
      "name": "unstopper",
      "outputs": [
        {
          "internalType": "uint256",
          "name": "",
          "type": "uint256"
        }
      ],
      "stateMutability": "nonpayable",
      "type": "function"
    },
    {
      "inputs": [],
      "name": "epoch",
      "outputs": [],
      "stateMutability": "nonpayable",
      "type": "function"
    }
  ],
  "bytecode": "0x608060405243600a5534801562000014575f80fd5b50604051620022283803806200222883398181016040528101906200003a919062000533565b335f806101000a81548173ffffffffffffffffffffffffffffffffffffffff021916908373ffffffffffffffffffffffffffffffffffffffff1602179055508260015f6101000a81548173ffffffffffffffffffffffffffffffffffffffff021916908373ffffffffffffffffffffffffffffffffffffffff16021790555060075f9054906101000a900473ffffffffffffffffffffffffffffffffffffffff1660075f6101000a81548173ffffffffffffffffffffffffffffffffffffffff021916908373ffffffffffffffffffffffffffffffffffffffff16021790555080600c5f6101000a81548160ff0219169083151502179055505f600654036200014b57835160068190555062000153565b816006819055505b5f5b845181101562000216574260025f878481518110620001795762000178620005c1565b5b602002602001015173ffffffffffffffffffffffffffffffffffffffff1673ffffffffffffffffffffffffffffffffffffffff1681526020019081526020015f20819055505f60055f3373ffffffffffffffffffffffffffffffffffffffff1673ffffffffffffffffffffffffffffffffffffffff1681526020019081526020015f208190555080806200020d906200061b565b91505062000155565b5083600b90805190602001906200022f9291906200023a565b505050505062000667565b828054828255905f5260205f20908101928215620002b3579160200282015b82811115620002b2578251825f6101000a81548173ffffffffffffffffffffffffffffffffffffffff021916908373ffffffffffffffffffffffffffffffffffffffff1602179055509160200191906001019062000259565b5b509050620002c29190620002c6565b5090565b5b80821115620002df575f815f905550600101620002c7565b5090565b5f604051905090565b5f80fd5b5f80fd5b5f80fd5b5f601f19601f8301169050919050565b7f4e487b71000000000000000000000000000000000000000000000000000000005f52604160045260245ffd5b6200034082620002f8565b810181811067ffffffffffffffff8211171562000362576200036162000308565b5b80604052505050565b5f62000376620002e3565b905062000384828262000335565b919050565b5f67ffffffffffffffff821115620003a657620003a562000308565b5b602082029050602081019050919050565b5f80fd5b5f73ffffffffffffffffffffffffffffffffffffffff82169050919050565b5f620003e682620003bb565b9050919050565b620003f881620003da565b811462000403575f80fd5b50565b5f815190506200041681620003ed565b92915050565b5f620004326200042c8462000389565b6200036b565b90508083825260208201905060208402830185811115620004585762000457620003b7565b5b835b8181101562000485578062000470888262000406565b8452602084019350506020810190506200045a565b5050509392505050565b5f82601f830112620004a657620004a5620002f4565b5b8151620004b88482602086016200041c565b91505092915050565b5f819050919050565b620004d581620004c1565b8114620004e0575f80fd5b50565b5f81519050620004f381620004ca565b92915050565b5f8115159050919050565b6200050f81620004f9565b81146200051a575f80fd5b50565b5f815190506200052d8162000504565b92915050565b5f805f80608085870312156200054e576200054d620002ec565b5b5f85015167ffffffffffffffff8111156200056e576200056d620002f0565b5b6200057c878288016200048f565b94505060206200058f8782880162000406565b9350506040620005a287828801620004e3565b9250506060620005b5878288016200051d565b91505092959194509250565b7f4e487b71000000000000000000000000000000000000000000000000000000005f52603260045260245ffd5b7f4e487b71000000000000000000000000000000000000000000000000000000005f52601160045260245ffd5b5f6200062782620004c1565b91507fffffffffffffffffffffffffffffffffffffffffffffffffffffffffffffffff82036200065c576200065b620005ee565b5b600182019050919050565b611bb380620006755f395ff3fe608060405234801561000f575f80fd5b50600436106100a7575f3560e01c8063825f98d41161006f578063825f98d414610189578063900cf0cf1461019357806393f690e41461019d578063a7f43779146101bb578063cb15de5d146101d9578063e136156d146101f5576100a7565b8063054b0e7d146100ab5780630a3b0a4f146100c957806316395120146100f957806329092d0e1461012957806372686b1714610159575b5f80fd5b6100b3610225565b6040516100c0919061144b565b60405180910390f35b6100e360048036038101906100de91906114cf565b61026c565b6040516100f09190611512565b60405180910390f35b610113600480360381019061010e91906114cf565b61049a565b604051610120919061144b565b60405180910390f35b610143600480360381019061013e91906114cf565b610562565b6040516101509190611512565b60405180910390f35b610173600480360381019061016e91906114cf565b61086d565b6040516101809190611512565b60405180910390f35b610191610a3d565b005b61019b610b00565b005b6101a5610c89565b6040516101b2919061144b565b60405180910390f35b6101c3610c9b565b6040516101d09190611512565b60405180910390f35b6101f360048036038101906101ee919061167b565b610da5565b005b61020f600480360381019061020a919061171b565b6110ef565b60405161021c9190611512565b60405180910390f35b5f8060025f3373ffffffffffffffffffffffffffffffffffffffff1673ffffffffffffffffffffffffffffffffffffffff1681526020019081526020015f20541415905090565b5f8060025f3373ffffffffffffffffffffffffffffffffffffffff1673ffffffffffffffffffffffffffffffffffffffff1681526020019081526020015f2054036102ec576040517f08c379a00000000000000000000000000000000000000000000000000000000081526004016102e3906117b3565b60405180910390fd5b5f60055f3373ffffffffffffffffffffffffffffffffffffffff1673ffffffffffffffffffffffffffffffffffffffff1681526020019081526020015f20541461036b576040517f08c379a00000000000000000000000000000000000000000000000000000000081526004016103629061181b565b60405180910390fd5b4260025f8473ffffffffffffffffffffffffffffffffffffffff1673ffffffffffffffffffffffffffffffffffffffff1681526020019081526020015f2081905550600b82908060018154018082558091505060019003905f5260205f20015f9091909190916101000a81548173ffffffffffffffffffffffffffffffffffffffff021916908373ffffffffffffffffffffffffffffffffffffffff1602179055504260055f3373ffffffffffffffffffffffffffffffffffffffff1673ffffffffffffffffffffffffffffffffffffffff1681526020019081526020015f2081905550600160055f8473ffffffffffffffffffffffffffffffffffffffff1673ffffffffffffffffffffffffffffffffffffffff1681526020019081526020015f2081905550429050919050565b5f8060025f3373ffffffffffffffffffffffffffffffffffffffff1673ffffffffffffffffffffffffffffffffffffffff1681526020019081526020015f20540361051a576040517f08c379a0000000000000000000000000000000000000000000000000000000008152600401610511906117b3565b60405180910390fd5b5f60025f8473ffffffffffffffffffffffffffffffffffffffff1673ffffffffffffffffffffffffffffffffffffffff1681526020019081526020015f205414159050919050565b5f600c5f9054906101000a900460ff161561060b5760015f9054906101000a900473ffffffffffffffffffffffffffffffffffffffff1673ffffffffffffffffffffffffffffffffffffffff163373ffffffffffffffffffffffffffffffffffffffff1614610606576040517f08c379a00000000000000000000000000000000000000000000000000000000081526004016105fd90611883565b60405180910390fd5b6106e3565b60015f9054906101000a900473ffffffffffffffffffffffffffffffffffffffff1673ffffffffffffffffffffffffffffffffffffffff163373ffffffffffffffffffffffffffffffffffffffff1614806106a357505f60025f3373ffffffffffffffffffffffffffffffffffffffff1673ffffffffffffffffffffffffffffffffffffffff1681526020019081526020015f205414155b6106e2576040517f08c379a00000000000000000000000000000000000000000000000000000000081526004016106d9906118eb565b60405180910390fd5b5b5f60055f3373ffffffffffffffffffffffffffffffffffffffff1673ffffffffffffffffffffffffffffffffffffffff1681526020019081526020015f205414610762576040517f08c379a00000000000000000000000000000000000000000000000000000000081526004016107599061181b565b60405180910390fd5b5f60025f8473ffffffffffffffffffffffffffffffffffffffff1673ffffffffffffffffffffffffffffffffffffffff1681526020019081526020015f2054036107e1576040517f08c379a00000000000000000000000000000000000000000000000000000000081526004016107d890611953565b60405180910390fd5b5f60025f8473ffffffffffffffffffffffffffffffffffffffff1673ffffffffffffffffffffffffffffffffffffffff1681526020019081526020015f20819055504260035f8473ffffffffffffffffffffffffffffffffffffffff1673ffffffffffffffffffffffffffffffffffffffff1681526020019081526020015f2081905550429050919050565b5f600c5f9054906101000a900460ff16156109165760015f9054906101000a900473ffffffffffffffffffffffffffffffffffffffff1673ffffffffffffffffffffffffffffffffffffffff163373ffffffffffffffffffffffffffffffffffffffff1614610911576040517f08c379a000000000000000000000000000000000000000000000000000000000815260040161090890611883565b60405180910390fd5b6109ee565b60015f9054906101000a900473ffffffffffffffffffffffffffffffffffffffff1673ffffffffffffffffffffffffffffffffffffffff163373ffffffffffffffffffffffffffffffffffffffff1614806109ae57505f60025f3373ffffffffffffffffffffffffffffffffffffffff1673ffffffffffffffffffffffffffffffffffffffff1681526020019081526020015f205414155b6109ed576040517f08c379a00000000000000000000000000000000000000000000000000000000081526004016109e4906118eb565b60405180910390fd5b5b8160075f6101000a81548173ffffffffffffffffffffffffffffffffffffffff021916908373ffffffffffffffffffffffffffffffffffffffff16021790555042600881905550429050919050565b5f60025f3373ffffffffffffffffffffffffffffffffffffffff1673ffffffffffffffffffffffffffffffffffffffff1681526020019081526020015f205403610abc576040517f08c379a0000000000000000000000000000000000000000000000000000000008152600401610ab3906117b3565b60405180910390fd5b4260045f3373ffffffffffffffffffffffffffffffffffffffff1673ffffffffffffffffffffffffffffffffffffffff1681526020019081526020015f2081905550565b600c5f9054906101000a900460ff1615610ba85760015f9054906101000a900473ffffffffffffffffffffffffffffffffffffffff1673ffffffffffffffffffffffffffffffffffffffff163373ffffffffffffffffffffffffffffffffffffffff1614610ba3576040517f08c379a0000000000000000000000000000000000000000000000000000000008152600401610b9a90611883565b60405180910390fd5b610c80565b60015f9054906101000a900473ffffffffffffffffffffffffffffffffffffffff1673ffffffffffffffffffffffffffffffffffffffff163373ffffffffffffffffffffffffffffffffffffffff161480610c4057505f60025f3373ffffffffffffffffffffffffffffffffffffffff1673ffffffffffffffffffffffffffffffffffffffff1681526020019081526020015f205414155b610c7f576040517f08c379a0000000000000000000000000000000000000000000000000000000008152600401610c76906118eb565b60405180910390fd5b5b43600a81905550565b600c5f9054906101000a900460ff1681565b5f8060025f3373ffffffffffffffffffffffffffffffffffffffff1673ffffffffffffffffffffffffffffffffffffffff1681526020019081526020015f205403610d1b576040517f08c379a0000000000000000000000000000000000000000000000000000000008152600401610d12906119bb565b60405180910390fd5b5f60025f3373ffffffffffffffffffffffffffffffffffffffff1673ffffffffffffffffffffffffffffffffffffffff1681526020019081526020015f20819055504260035f3373ffffffffffffffffffffffffffffffffffffffff1673ffffffffffffffffffffffffffffffffffffffff1681526020019081526020015f208190555042905090565b600c5f9054906101000a900460ff1615610e4d5760015f9054906101000a900473ffffffffffffffffffffffffffffffffffffffff1673ffffffffffffffffffffffffffffffffffffffff163373ffffffffffffffffffffffffffffffffffffffff1614610e48576040517f08c379a0000000000000000000000000000000000000000000000000000000008152600401610e3f90611883565b60405180910390fd5b610f25565b60015f9054906101000a900473ffffffffffffffffffffffffffffffffffffffff1673ffffffffffffffffffffffffffffffffffffffff163373ffffffffffffffffffffffffffffffffffffffff161480610ee557505f60025f3373ffffffffffffffffffffffffffffffffffffffff1673ffffffffffffffffffffffffffffffffffffffff1681526020019081526020015f205414155b610f24576040517f08c379a0000000000000000000000000000000000000000000000000000000008152600401610f1b906118eb565b60405180910390fd5b5b5f5b8251811015611007575f60025f858481518110610f4757610f466119d9565b5b602002602001015173ffffffffffffffffffffffffffffffffffffffff1673ffffffffffffffffffffffffffffffffffffffff1681526020019081526020015f205403610f92575f80fd5b5f60045f858481518110610fa957610fa86119d9565b5b602002602001015173ffffffffffffffffffffffffffffffffffffffff1673ffffffffffffffffffffffffffffffffffffffff1681526020019081526020015f205403610ff4575f80fd5b8080610fff90611a33565b915050610f27565b505f5b81518110156110ea575f60025f84848151811061102a576110296119d9565b5b602002602001015173ffffffffffffffffffffffffffffffffffffffff1673ffffffffffffffffffffffffffffffffffffffff1681526020019081526020015f205403611075575f80fd5b5f60045f84848151811061108c5761108b6119d9565b5b602002602001015173ffffffffffffffffffffffffffffffffffffffff1673ffffffffffffffffffffffffffffffffffffffff1681526020019081526020015f2054146110d7575f80fd5b80806110e290611a33565b91505061100a565b505050565b5f600c5f9054906101000a900460ff16156111985760015f9054906101000a900473ffffffffffffffffffffffffffffffffffffffff1673ffffffffffffffffffffffffffffffffffffffff163373ffffffffffffffffffffffffffffffffffffffff1614611193576040517f08c379a000000000000000000000000000000000000000000000000000000000815260040161118a90611883565b60405180910390fd5b611270565b60015f9054906101000a900473ffffffffffffffffffffffffffffffffffffffff1673ffffffffffffffffffffffffffffffffffffffff163373ffffffffffffffffffffffffffffffffffffffff16148061123057505f60025f3373ffffffffffffffffffffffffffffffffffffffff1673ffffffffffffffffffffffffffffffffffffffff1681526020019081526020015f205414155b61126f576040517f08c379a0000000000000000000000000000000000000000000000000000000008152600401611266906118eb565b60405180910390fd5b5b600b80549050600a54436112849190611a7a565b116112c4576040517f08c379a00000000000000000000000000000000000000000000000000000000081526004016112bb90611af7565b60405180910390fd5b5f60055f3373ffffffffffffffffffffffffffffffffffffffff1673ffffffffffffffffffffffffffffffffffffffff1681526020019081526020015f205414611343576040517f08c379a000000000000000000000000000000000000000000000000000000000815260040161133a9061181b565b60405180910390fd5b600c5f9054906101000a900460ff166113d757600160055f8573ffffffffffffffffffffffffffffffffffffffff1673ffffffffffffffffffffffffffffffffffffffff1681526020019081526020015f2054146113d6576040517f08c379a00000000000000000000000000000000000000000000000000000000081526004016113cd90611b5f565b60405180910390fd5b5b5f60055f8573ffffffffffffffffffffffffffffffffffffffff1673ffffffffffffffffffffffffffffffffffffffff1681526020019081526020015f2081905550811561142857611427610b00565b5b42905092915050565b5f8115159050919050565b61144581611431565b82525050565b5f60208201905061145e5f83018461143c565b92915050565b5f604051905090565b5f80fd5b5f80fd5b5f73ffffffffffffffffffffffffffffffffffffffff82169050919050565b5f61149e82611475565b9050919050565b6114ae81611494565b81146114b8575f80fd5b50565b5f813590506114c9816114a5565b92915050565b5f602082840312156114e4576114e361146d565b5b5f6114f1848285016114bb565b91505092915050565b5f819050919050565b61150c816114fa565b82525050565b5f6020820190506115255f830184611503565b92915050565b5f80fd5b5f601f19601f8301169050919050565b7f4e487b71000000000000000000000000000000000000000000000000000000005f52604160045260245ffd5b6115758261152f565b810181811067ffffffffffffffff821117156115945761159361153f565b5b80604052505050565b5f6115a6611464565b90506115b2828261156c565b919050565b5f67ffffffffffffffff8211156115d1576115d061153f565b5b602082029050602081019050919050565b5f80fd5b5f6115f86115f3846115b7565b61159d565b9050808382526020820190506020840283018581111561161b5761161a6115e2565b5b835b81811015611644578061163088826114bb565b84526020840193505060208101905061161d565b5050509392505050565b5f82601f8301126116625761166161152b565b5b81356116728482602086016115e6565b91505092915050565b5f80604083850312156116915761169061146d565b5b5f83013567ffffffffffffffff8111156116ae576116ad611471565b5b6116ba8582860161164e565b925050602083013567ffffffffffffffff8111156116db576116da611471565b5b6116e78582860161164e565b9150509250929050565b6116fa81611431565b8114611704575f80fd5b50565b5f81359050611715816116f1565b92915050565b5f80604083850312156117315761173061146d565b5b5f61173e858286016114bb565b925050602061174f85828601611707565b9150509250929050565b5f82825260208201905092915050565b7f6d656d62657200000000000000000000000000000000000000000000000000005f82015250565b5f61179d600683611759565b91506117a882611769565b602082019050919050565b5f6020820190508181035f8301526117ca81611791565b9050919050565b7f73746f70706572000000000000000000000000000000000000000000000000005f82015250565b5f611805600783611759565b9150611810826117d1565b602082019050919050565b5f6020820190508181035f830152611832816117f9565b9050919050565b7f636f7270206f776e6572000000000000000000000000000000000000000000005f82015250565b5f61186d600a83611759565b915061187882611839565b602082019050919050565b5f6020820190508181035f83015261189a81611861565b9050919050565b7f6f776e65720000000000000000000000000000000000000000000000000000005f82015250565b5f6118d5600583611759565b91506118e0826118a1565b602082019050919050565b5f6020820190508181035f830152611902816118c9565b9050919050565b7f6465657066616b650000000000000000000000000000000000000000000000005f82015250565b5f61193d600883611759565b915061194882611909565b602082019050919050565b5f6020820190508181035f83015261196a81611931565b9050919050565b7f7265706c6963616e7400000000000000000000000000000000000000000000005f82015250565b5f6119a5600983611759565b91506119b082611971565b602082019050919050565b5f6020820190508181035f8301526119d281611999565b9050919050565b7f4e487b71000000000000000000000000000000000000000000000000000000005f52603260045260245ffd5b7f4e487b71000000000000000000000000000000000000000000000000000000005f52601160045260245ffd5b5f611a3d826114fa565b91507fffffffffffffffffffffffffffffffffffffffffffffffffffffffffffffffff8203611a6f57611a6e611a06565b5b600182019050919050565b5f611a84826114fa565b9150611a8f836114fa565b9250828203905081811115611aa757611aa6611a06565b5b92915050565b7f656d6879720000000000000000000000000000000000000000000000000000005f82015250565b5f611ae1600583611759565b9150611aec82611aad565b602082019050919050565b5f6020820190508181035f830152611b0e81611ad5565b9050919050565b7f74726170000000000000000000000000000000000000000000000000000000005f82015250565b5f611b49600483611759565b9150611b5482611b15565b602082019050919050565b5f6020820190508181035f830152611b7681611b3d565b905091905056fea2646970667358221220126fac7723428ca397a7cefba3809021465a34e17a4aeb6b29f3b0ceba19a9c964736f6c63430008140033",
  "immutableReferences": {},
  "source": "// SPDX-License-Identifier: BUSL-1.1\npragma solidity >= \"0.8.20\";\n\ncontract Handshakes {\n  // TODO - review creator/owner hostage scenario\n  address private creator;\n  address private owner;\n  mapping(address => uint) private handshakes;\n  mapping(address => uint) private removed;\n  mapping(address => uint) private shook;\n  mapping(address => uint) private stopper;\n\n  uint private threshold;\n\n  address private proposal;\n  uint private proposalTime;\n\n  //uint private epoch;\n  uint private placement;\n  uint private stopperEpoch = block.number;\n\n  address[] private shakeList;\n\n  bool public corp;\n\n  // timing linearly related to the length of a list\n  modifier rhyme () {\n    // x - f(x) or f(y) = f(x) - x or f(y) = -x ~RE~VIEW~\n    // 12 - 5 > 16\n    require(block.number - stopperEpoch > shakeList.length, \"emhyr\");\n    //slant ryhme - just based on the epoch, less than (slugging) you have to predict the epochs\n    _;\n  }\n\n  modifier own () {\n    if (corp) {\n      require(msg.sender == owner, \"corp owner\");\n    } else {\n      require(msg.sender == owner || handshakes[msg.sender] != 0, \"owner\");\n    }\n    _;\n  }\n\n  modifier stop () {\n    require(stopper[msg.sender] == 0, \"stopper\");\n    _;\n  }\n\n  modifier member () {\n    require(handshakes[msg.sender] != 0, \"member\");\n    _; \n    // TODO - explore - we can execute post-middlewear -  require(handshakes[msg.sender] != 0);\n  }\n  constructor(address[] memory _handshakes, address _owner, uint _threshold, bool _corp) {\n    creator = msg.sender;\n    owner = _owner;\n    proposal = proposal;\n    corp = _corp;\n    if (threshold == 0) {\n      threshold = _handshakes.length;\n    } else {\n      threshold = _threshold;\n    }\n    for (uint i = 0; i < _handshakes.length; i++) {\n      handshakes[_handshakes[i]] = block.timestamp;\n      stopper[msg.sender] = 0;\n    }\n    shakeList = _handshakes;\n  }\n  function setProposal(address _proposal) public own returns(uint) {\n    proposal = _proposal;\n    proposalTime = block.timestamp;\n    return block.timestamp;\n  }\n  function isHandshake() public view returns(bool) {\n    return handshakes[msg.sender] != 0;\n  }\n  function isHandshake(address handshake) public view member returns(bool) {\n    // review - owner and creator or just owner\n    //require(creator == msg.sender || owner == msg.sender);\n    return handshakes[handshake] != 0;\n  }\n  \n  function shake() public member {\n    shook[msg.sender] = block.timestamp;\n  }\n  // TODO - expiry on handshake check with greaterthan\n  function check(address[] memory shakes, address[] memory noshakes) public view own {\n    for (uint i = 0; i < shakes.length; i++) {\n      require(handshakes[shakes[i]] != 0);\n      require(shook[shakes[i]] != 0);\n    }\n    for (uint i = 0; i < noshakes.length; i++) {\n      require(handshakes[noshakes[i]] != 0);\n      require(shook[noshakes[i]] == 0);\n    }\n  }\n  // handshake add resembles a chain of addresses (linked list)\n  function add(address handshake) public member stop returns (uint) {\n    handshakes[handshake] = block.timestamp;\n    shakeList.push(handshake);\n    stopper[msg.sender] = block.timestamp;\n    stopper[handshake] = 1;\n    return block.timestamp;\n  }\n  // removing a handshake leaves a trace of the handshake\n  function remove() public returns (uint) {\n    // TODO - remove from shakeList?\n    require(handshakes[msg.sender] != 0, \"replicant\");\n    handshakes[msg.sender] = 0;\n    removed[msg.sender] = block.timestamp;\n    return block.timestamp;\n  }\n  // REVIEW - restrict to owner (own review) for handshake address-is own handshake check too?\n  function remove(address handshake) public own stop returns (uint) {\n    // TODO - remove from shakeList? - shakeList only used for length\n    require(handshakes[handshake] != 0, \"deepfake\");\n    handshakes[handshake] = 0;\n    removed[handshake] = block.timestamp;\n    return block.timestamp;\n  }\n  // unstopper pseudo ownership of add address for dictatorship\n  function unstopper(address handshake, bool _epoch) public own rhyme stop returns (uint) {\n    // REVIEW - should stopperEpoch have a different adder\n    // TODO - multiply by thresholdDivider or another multiplier?\n\n    if (!corp) require(stopper[handshake] == 1, \"trap\");\n    //require(stopper[handshake] == 1, \"trap\");\n    stopper[handshake] = 0;\n    if (_epoch) epoch();\n    return block.timestamp;\n  }\n  function epoch () public own {\n    stopperEpoch = block.number;\n  }\n}\n",
  "sourcePath": "/home/gitarg/gitarg/solidity_ico/contracts/objects/Handshakes.sol",
  "compiler": {
    "name": "solc",
    "version": "0.8.20+commit.a1b79de6.Emscripten.clang"
  },
  "schemaVersion": "3.4.16",
  "updatedAt": "2024-02-26T21:52:38.875Z",
  "networkType": "ethereum",
  "devdoc": {
    "kind": "dev",
    "methods": {},
    "version": 1
  },
  "userdoc": {
    "kind": "user",
    "methods": {},
    "version": 1
  }
}