{
  "contractName": "ita",
  "abi": [
    {
      "inputs": [
        {
          "internalType": "address[]",
          "name": "_owners",
          "type": "address[]"
        }
      ],
      "stateMutability": "nonpayable",
      "type": "constructor"
    },
    {
      "inputs": [],
      "name": "creation",
      "outputs": [
        {
          "internalType": "uint256",
          "name": "",
          "type": "uint256"
        }
      ],
      "stateMutability": "view",
      "type": "function"
    },
    {
      "inputs": [
        {
          "internalType": "address",
          "name": "token",
          "type": "address"
        },
        {
          "internalType": "uint256",
          "name": "amount",
          "type": "uint256"
        }
      ],
      "name": "allow",
      "outputs": [
        {
          "internalType": "bool",
          "name": "",
          "type": "bool"
        }
      ],
      "stateMutability": "nonpayable",
      "type": "function"
    }
  ],
  "bytecode": "0x608060405234801562000010575f80fd5b506040516200092138038062000921833981810160405281019062000036919062000373565b80600290805190602001906200004e929190620000ec565b508051426200005e9190620003f8565b6001819055505f5b8151811015620000e457425f8084848151811062000089576200008862000432565b5b602002602001015173ffffffffffffffffffffffffffffffffffffffff1673ffffffffffffffffffffffffffffffffffffffff1681526020019081526020015f20819055508080620000db906200045f565b91505062000066565b5050620004ab565b828054828255905f5260205f2090810192821562000165579160200282015b8281111562000164578251825f6101000a81548173ffffffffffffffffffffffffffffffffffffffff021916908373ffffffffffffffffffffffffffffffffffffffff160217905550916020019190600101906200010b565b5b50905062000174919062000178565b5090565b5b8082111562000191575f815f90555060010162000179565b5090565b5f604051905090565b5f80fd5b5f80fd5b5f80fd5b5f601f19601f8301169050919050565b7f4e487b71000000000000000000000000000000000000000000000000000000005f52604160045260245ffd5b620001f282620001aa565b810181811067ffffffffffffffff82111715620002145762000213620001ba565b5b80604052505050565b5f6200022862000195565b9050620002368282620001e7565b919050565b5f67ffffffffffffffff821115620002585762000257620001ba565b5b602082029050602081019050919050565b5f80fd5b5f73ffffffffffffffffffffffffffffffffffffffff82169050919050565b5f62000298826200026d565b9050919050565b620002aa816200028c565b8114620002b5575f80fd5b50565b5f81519050620002c8816200029f565b92915050565b5f620002e4620002de846200023b565b6200021d565b905080838252602082019050602084028301858111156200030a576200030962000269565b5b835b81811015620003375780620003228882620002b8565b8452602084019350506020810190506200030c565b5050509392505050565b5f82601f830112620003585762000357620001a6565b5b81516200036a848260208601620002ce565b91505092915050565b5f602082840312156200038b576200038a6200019e565b5b5f82015167ffffffffffffffff811115620003ab57620003aa620001a2565b5b620003b98482850162000341565b91505092915050565b5f819050919050565b7f4e487b71000000000000000000000000000000000000000000000000000000005f52601160045260245ffd5b5f6200040482620003c2565b91506200041183620003c2565b92508282019050808211156200042c576200042b620003cb565b5b92915050565b7f4e487b71000000000000000000000000000000000000000000000000000000005f52603260045260245ffd5b5f6200046b82620003c2565b91507fffffffffffffffffffffffffffffffffffffffffffffffffffffffffffffffff8203620004a0576200049f620003cb565b5b600182019050919050565b61046880620004b95f395ff3fe608060405234801561000f575f80fd5b5060043610610034575f3560e01c806313845d2f146100385780636c6f31f214610056575b5f80fd5b610040610086565b60405161004d91906101bd565b60405180910390f35b610070600480360381019061006b919061025e565b61008c565b60405161007d91906102b6565b60405180910390f35b60015481565b5f6002805490506001546100a091906102fc565b5f803373ffffffffffffffffffffffffffffffffffffffff1673ffffffffffffffffffffffffffffffffffffffff1681526020019081526020015f20541461011d576040517f08c379a000000000000000000000000000000000000000000000000000000000815260040161011490610389565b60405180910390fd5b5f8390508073ffffffffffffffffffffffffffffffffffffffff1663095ea7b333856040518363ffffffff1660e01b815260040161015c9291906103b6565b6020604051808303815f875af1158015610178573d5f803e3d5ffd5b505050506040513d601f19601f8201168201806040525081019061019c9190610407565b91505092915050565b5f819050919050565b6101b7816101a5565b82525050565b5f6020820190506101d05f8301846101ae565b92915050565b5f80fd5b5f73ffffffffffffffffffffffffffffffffffffffff82169050919050565b5f610203826101da565b9050919050565b610213816101f9565b811461021d575f80fd5b50565b5f8135905061022e8161020a565b92915050565b61023d816101a5565b8114610247575f80fd5b50565b5f8135905061025881610234565b92915050565b5f8060408385031215610274576102736101d6565b5b5f61028185828601610220565b92505060206102928582860161024a565b9150509250929050565b5f8115159050919050565b6102b08161029c565b82525050565b5f6020820190506102c95f8301846102a7565b92915050565b7f4e487b71000000000000000000000000000000000000000000000000000000005f52601160045260245ffd5b5f610306826101a5565b9150610311836101a5565b9250828203905081811115610329576103286102cf565b5b92915050565b5f82825260208201905092915050565b7f6f776e00000000000000000000000000000000000000000000000000000000005f82015250565b5f61037360038361032f565b915061037e8261033f565b602082019050919050565b5f6020820190508181035f8301526103a081610367565b9050919050565b6103b0816101f9565b82525050565b5f6040820190506103c95f8301856103a7565b6103d660208301846101ae565b9392505050565b6103e68161029c565b81146103f0575f80fd5b50565b5f81519050610401816103dd565b92915050565b5f6020828403121561041c5761041b6101d6565b5b5f610429848285016103f3565b9150509291505056fea2646970667358221220a1fb359facc7842b7881ae9b5417b9172636c6a6dab105de33d5a6bf6b7b4f4a64736f6c63430008140033",
  "immutableReferences": {},
  "source": "// SPDX-License-Identifier: BUSL-1.1\npragma solidity >= \"0.8.20\";\n\ninterface ERC20 {\n  //function allowance(address _owner, address _spender) external view returns (uint256 remaining);\n  function approve(address _spender, uint amount) external returns (bool);\n} \n\ncontract ita {\n  mapping(address => uint) private owners;\n  uint public creation;\n  address[] private owners_;\n  constructor (address[] memory _owners) {\n    owners_ = _owners;\n    creation = block.timestamp + _owners.length;\n    for (uint i = 0; i < _owners.length; i++) {\n      owners[_owners[i]] = block.timestamp;\n    }\n  }\n\n  function allow (address token, uint amount) public returns (bool) {\n    require(owners[msg.sender] == creation - owners_.length, \"own\");\n    ERC20 erc20 = ERC20(token);\n    return erc20.approve(msg.sender, amount);\n  }\n}\n",
  "sourcePath": "/home/gitarg/gitarg/solidity_ico/contracts/ita.sol",
  "compiler": {
    "name": "solc",
    "version": "0.8.20+commit.a1b79de6.Emscripten.clang"
  },
  "schemaVersion": "3.4.16",
  "updatedAt": "2024-02-26T21:42:43.556Z",
  "devdoc": {
    "kind": "dev",
    "methods": {},
    "version": 1
  },
  "userdoc": {
    "kind": "user",
    "methods": {},
    "version": 1
  }
}