{
  "contractName": "Log",
  "abi": [
    {
      "inputs": [
        {
          "internalType": "bytes",
          "name": "_commit",
          "type": "bytes"
        },
        {
          "internalType": "bytes",
          "name": "_author",
          "type": "bytes"
        },
        {
          "internalType": "bytes",
          "name": "_date",
          "type": "bytes"
        },
        {
          "internalType": "bytes",
          "name": "_message",
          "type": "bytes"
        }
      ],
      "stateMutability": "nonpayable",
      "type": "constructor"
    },
    {
      "inputs": [],
      "name": "author",
      "outputs": [
        {
          "internalType": "bytes",
          "name": "",
          "type": "bytes"
        }
      ],
      "stateMutability": "view",
      "type": "function"
    },
    {
      "inputs": [],
      "name": "commit",
      "outputs": [
        {
          "internalType": "bytes",
          "name": "",
          "type": "bytes"
        }
      ],
      "stateMutability": "view",
      "type": "function"
    },
    {
      "inputs": [],
      "name": "date",
      "outputs": [
        {
          "internalType": "bytes",
          "name": "",
          "type": "bytes"
        }
      ],
      "stateMutability": "view",
      "type": "function"
    },
    {
      "inputs": [],
      "name": "message",
      "outputs": [
        {
          "internalType": "bytes",
          "name": "",
          "type": "bytes"
        }
      ],
      "stateMutability": "view",
      "type": "function"
    },
    {
      "inputs": [],
      "name": "wallet",
      "outputs": [
        {
          "internalType": "address",
          "name": "",
          "type": "address"
        }
      ],
      "stateMutability": "view",
      "type": "function"
    },
    {
      "inputs": [],
      "name": "getWallet",
      "outputs": [
        {
          "internalType": "address",
          "name": "",
          "type": "address"
        }
      ],
      "stateMutability": "view",
      "type": "function"
    },
    {
      "inputs": [],
      "name": "getCommit",
      "outputs": [
        {
          "internalType": "bytes",
          "name": "",
          "type": "bytes"
        }
      ],
      "stateMutability": "view",
      "type": "function"
    },
    {
      "inputs": [],
      "name": "getMessage",
      "outputs": [
        {
          "internalType": "bytes",
          "name": "",
          "type": "bytes"
        }
      ],
      "stateMutability": "view",
      "type": "function"
    },
    {
      "inputs": [],
      "name": "getAuthor",
      "outputs": [
        {
          "internalType": "bytes",
          "name": "",
          "type": "bytes"
        }
      ],
      "stateMutability": "view",
      "type": "function"
    },
    {
      "inputs": [],
      "name": "getDate",
      "outputs": [
        {
          "internalType": "bytes",
          "name": "",
          "type": "bytes"
        }
      ],
      "stateMutability": "view",
      "type": "function"
    }
  ],
  "bytecode": "0x608060405234801562000010575f80fd5b5060405162000e7b38038062000e7b83398181016040528101906200003691906200024c565b335f806101000a81548173ffffffffffffffffffffffffffffffffffffffff021916908373ffffffffffffffffffffffffffffffffffffffff16021790555083600190816200008691906200056e565b5080600290816200009891906200056e565b508260039081620000aa91906200056e565b508160049081620000bc91906200056e565b505050505062000652565b5f604051905090565b5f80fd5b5f80fd5b5f80fd5b5f80fd5b5f601f19601f8301169050919050565b7f4e487b71000000000000000000000000000000000000000000000000000000005f52604160045260245ffd5b6200012882620000e0565b810181811067ffffffffffffffff821117156200014a5762000149620000f0565b5b80604052505050565b5f6200015e620000c7565b90506200016c82826200011d565b919050565b5f67ffffffffffffffff8211156200018e576200018d620000f0565b5b6200019982620000e0565b9050602081019050919050565b5f5b83811015620001c5578082015181840152602081019050620001a8565b5f8484015250505050565b5f620001e6620001e08462000171565b62000153565b905082815260208101848484011115620002055762000204620000dc565b5b62000212848285620001a6565b509392505050565b5f82601f830112620002315762000230620000d8565b5b815162000243848260208601620001d0565b91505092915050565b5f805f8060808587031215620002675762000266620000d0565b5b5f85015167ffffffffffffffff811115620002875762000286620000d4565b5b62000295878288016200021a565b945050602085015167ffffffffffffffff811115620002b957620002b8620000d4565b5b620002c7878288016200021a565b935050604085015167ffffffffffffffff811115620002eb57620002ea620000d4565b5b620002f9878288016200021a565b925050606085015167ffffffffffffffff8111156200031d576200031c620000d4565b5b6200032b878288016200021a565b91505092959194509250565b5f81519050919050565b7f4e487b71000000000000000000000000000000000000000000000000000000005f52602260045260245ffd5b5f60028204905060018216806200038657607f821691505b6020821081036200039c576200039b62000341565b5b50919050565b5f819050815f5260205f209050919050565b5f6020601f8301049050919050565b5f82821b905092915050565b5f60088302620004007fffffffffffffffffffffffffffffffffffffffffffffffffffffffffffffffff82620003c3565b6200040c8683620003c3565b95508019841693508086168417925050509392505050565b5f819050919050565b5f819050919050565b5f62000456620004506200044a8462000424565b6200042d565b62000424565b9050919050565b5f819050919050565b620004718362000436565b6200048962000480826200045d565b848454620003cf565b825550505050565b5f90565b6200049f62000491565b620004ac81848462000466565b505050565b5b81811015620004d357620004c75f8262000495565b600181019050620004b2565b5050565b601f8211156200052257620004ec81620003a2565b620004f784620003b4565b8101602085101562000507578190505b6200051f6200051685620003b4565b830182620004b1565b50505b505050565b5f82821c905092915050565b5f620005445f198460080262000527565b1980831691505092915050565b5f6200055e838362000533565b9150826002028217905092915050565b620005798262000337565b67ffffffffffffffff811115620005955762000594620000f0565b5b620005a182546200036e565b620005ae828285620004d7565b5f60209050601f831160018114620005e4575f8415620005cf578287015190505b620005db858262000551565b8655506200064a565b601f198416620005f486620003a2565b5f5b828110156200061d57848901518255600182019150602085019450602081019050620005f6565b868310156200063d578489015162000639601f89168262000533565b8355505b6001600288020188555050505b505050505050565b61081b80620006605f395ff3fe608060405234801561000f575f80fd5b506004361061009c575f3560e01c80636fea10fd116100645780636fea10fd14610136578063a5faa12514610154578063a6c3e6b914610172578063ce6d41de14610190578063e21f37ce146101ae5761009c565b806313299604146100a0578063323046b1146100be5780633c7a3aff146100dc578063430fe9c1146100fa578063521eb27314610118575b5f80fd5b6100a86101cc565b6040516100b591906106c5565b60405180910390f35b6100c66101f3565b6040516100d39190610768565b60405180910390f35b6100e461027f565b6040516100f19190610768565b60405180910390f35b61010261030b565b60405161010f9190610768565b60405180910390f35b61012061039b565b60405161012d91906106c5565b60405180910390f35b61013e6103be565b60405161014b9190610768565b60405180910390f35b61015c61044e565b6040516101699190610768565b60405180910390f35b61017a6104de565b6040516101879190610768565b60405180910390f35b61019861056a565b6040516101a59190610768565b60405180910390f35b6101b66105fa565b6040516101c39190610768565b60405180910390f35b5f805f9054906101000a900473ffffffffffffffffffffffffffffffffffffffff16905090565b60048054610200906107b5565b80601f016020809104026020016040519081016040528092919081815260200182805461022c906107b5565b80156102775780601f1061024e57610100808354040283529160200191610277565b820191905f5260205f20905b81548152906001019060200180831161025a57829003601f168201915b505050505081565b6001805461028c906107b5565b80601f01602080910402602001604051908101604052809291908181526020018280546102b8906107b5565b80156103035780601f106102da57610100808354040283529160200191610303565b820191905f5260205f20905b8154815290600101906020018083116102e657829003601f168201915b505050505081565b60606004805461031a906107b5565b80601f0160208091040260200160405190810160405280929190818152602001828054610346906107b5565b80156103915780601f1061036857610100808354040283529160200191610391565b820191905f5260205f20905b81548152906001019060200180831161037457829003601f168201915b5050505050905090565b5f8054906101000a900473ffffffffffffffffffffffffffffffffffffffff1681565b6060600180546103cd906107b5565b80601f01602080910402602001604051908101604052809291908181526020018280546103f9906107b5565b80156104445780601f1061041b57610100808354040283529160200191610444565b820191905f5260205f20905b81548152906001019060200180831161042757829003601f168201915b5050505050905090565b60606003805461045d906107b5565b80601f0160208091040260200160405190810160405280929190818152602001828054610489906107b5565b80156104d45780601f106104ab576101008083540402835291602001916104d4565b820191905f5260205f20905b8154815290600101906020018083116104b757829003601f168201915b5050505050905090565b600380546104eb906107b5565b80601f0160208091040260200160405190810160405280929190818152602001828054610517906107b5565b80156105625780601f1061053957610100808354040283529160200191610562565b820191905f5260205f20905b81548152906001019060200180831161054557829003601f168201915b505050505081565b606060028054610579906107b5565b80601f01602080910402602001604051908101604052809291908181526020018280546105a5906107b5565b80156105f05780601f106105c7576101008083540402835291602001916105f0565b820191905f5260205f20905b8154815290600101906020018083116105d357829003601f168201915b5050505050905090565b60028054610607906107b5565b80601f0160208091040260200160405190810160405280929190818152602001828054610633906107b5565b801561067e5780601f106106555761010080835404028352916020019161067e565b820191905f5260205f20905b81548152906001019060200180831161066157829003601f168201915b505050505081565b5f73ffffffffffffffffffffffffffffffffffffffff82169050919050565b5f6106af82610686565b9050919050565b6106bf816106a5565b82525050565b5f6020820190506106d85f8301846106b6565b92915050565b5f81519050919050565b5f82825260208201905092915050565b5f5b838110156107155780820151818401526020810190506106fa565b5f8484015250505050565b5f601f19601f8301169050919050565b5f61073a826106de565b61074481856106e8565b93506107548185602086016106f8565b61075d81610720565b840191505092915050565b5f6020820190508181035f8301526107808184610730565b905092915050565b7f4e487b71000000000000000000000000000000000000000000000000000000005f52602260045260245ffd5b5f60028204905060018216806107cc57607f821691505b6020821081036107df576107de610788565b5b5091905056fea264697066735822122039895e388ce5bc34cdef2c6395761fb190b9e08bca9b97941784766e6a22606e64736f6c63430008140033",
  "immutableReferences": {},
  "source": "// SPDX-License-Identifier: UNLICENSED\npragma solidity >= \"0.8.18\";\n\ncontract Log {\n  address public wallet;\n  bytes public commit;\n  bytes public message;\n  bytes public author;\n  bytes public date;\n  constructor(bytes memory _commit, bytes memory _author, bytes memory _date, bytes memory _message) {\n    wallet = msg.sender;\n    commit = _commit;\n    message = _message;\n    author = _author;\n    date = _date;\n  }\n  function getWallet() public view returns (address) {\n    return wallet;\n  }\n  function getCommit() public view returns (bytes memory) {\n    return commit;\n  }\n  function getMessage() public view returns (bytes memory) {\n    return message;\n  }\n  function getAuthor() public view returns (bytes memory) {\n    return author;\n  }\n  function getDate() public view returns (bytes memory) {\n    return date;\n  } \n}\n",
  "sourcePath": "/Users/davidkamer/gitarg_eth_ico/contracts/objects/Log.sol",
  "compiler": {
    "name": "solc",
    "version": "0.8.20+commit.a1b79de6.Emscripten.clang"
  },
  "schemaVersion": "3.4.16",
  "updatedAt": "2023-10-11T02:18:38.736Z",
  "devdoc": {
    "kind": "dev",
    "methods": {},
    "version": 1
  },
  "userdoc": {
    "kind": "user",
    "methods": {},
    "version": 1
  }
}