{
  "contractName": "ltcgra",
  "abi": [
    {
      "inputs": [
        {
          "internalType": "address",
          "name": "handshakes_",
          "type": "address"
        },
        {
          "internalType": "address",
          "name": "_gitorg",
          "type": "address"
        },
        {
          "internalType": "address",
          "name": "_gitarg",
          "type": "address"
        }
      ],
      "stateMutability": "nonpayable",
      "type": "constructor"
    },
    {
      "inputs": [],
      "name": "gram",
      "outputs": [],
      "stateMutability": "nonpayable",
      "type": "function"
    }
  ],
  "bytecode": "0x608060405234801561000f575f80fd5b5060405161015d38038061015d83398181016040528101906100319190610097565b5050506100e7565b5f80fd5b5f73ffffffffffffffffffffffffffffffffffffffff82169050919050565b5f6100668261003d565b9050919050565b6100768161005c565b8114610080575f80fd5b50565b5f815190506100918161006d565b92915050565b5f805f606084860312156100ae576100ad610039565b5b5f6100bb86828701610083565b93505060206100cc86828701610083565b92505060406100dd86828701610083565b9150509250925092565b606a806100f35f395ff3fe6080604052348015600e575f80fd5b50600436106026575f3560e01c80630f8e0bf214602a575b5f80fd5b60306032565b005b56fea2646970667358221220af24d2f42f0b7a2523f889611d210abb1cd36be1c0276f2c663e8da5340885dc64736f6c63430008140033",
  "immutableReferences": {},
  "source": "// SPDX-License-Identifier: BUSL-1.1\npragma solidity >= \"0.8.20\";\nimport \"./T.sol\";\n\n// because the bumbles wants the rumbles in the tumbles\ncontract ltcgra {\n  mapping(address => T) t;\n  constructor (address handshakes_, address _gitorg, address _gitarg) {\n  }\n  function gram () public {\n  }\n}\n",
  "sourcePath": "/Users/davidkamer/gitarg_eth_ico/contracts/ltcgra.sol",
  "compiler": {
    "name": "solc",
    "version": "0.8.20+commit.a1b79de6.Emscripten.clang"
  },
  "schemaVersion": "3.4.16",
  "updatedAt": "2023-10-29T04:17:00.495Z",
  "devdoc": {
    "kind": "dev",
    "methods": {},
    "version": 1
  },
  "userdoc": {
    "kind": "user",
    "methods": {},
    "version": 1
  }
}