{
  "contractName": "ltcgra",
  "abi": [
    {
      "inputs": [
        {
          "internalType": "address",
          "name": "handshakes_",
          "type": "address"
        },
        {
          "internalType": "address",
          "name": "_gitorg",
          "type": "address"
        },
        {
          "internalType": "address",
          "name": "_gitarg",
          "type": "address"
        }
      ],
      "stateMutability": "nonpayable",
      "type": "constructor"
    },
    {
      "inputs": [],
      "name": "gram",
      "outputs": [],
      "stateMutability": "nonpayable",
      "type": "function"
    }
  ],
  "bytecode": "0x608060405234801561000f575f80fd5b5060405161078938038061078983398181016040528101906100319190610196565b8260015f6101000a81548173ffffffffffffffffffffffffffffffffffffffff021916908373ffffffffffffffffffffffffffffffffffffffff1602179055508160025f6101000a81548173ffffffffffffffffffffffffffffffffffffffff021916908373ffffffffffffffffffffffffffffffffffffffff1602179055508060035f6101000a81548173ffffffffffffffffffffffffffffffffffffffff021916908373ffffffffffffffffffffffffffffffffffffffff160217905550335f806101000a81548173ffffffffffffffffffffffffffffffffffffffff021916908373ffffffffffffffffffffffffffffffffffffffff1602179055505050506101e6565b5f80fd5b5f73ffffffffffffffffffffffffffffffffffffffff82169050919050565b5f6101658261013c565b9050919050565b6101758161015b565b811461017f575f80fd5b50565b5f815190506101908161016c565b92915050565b5f805f606084860312156101ad576101ac610138565b5b5f6101ba86828701610182565b93505060206101cb86828701610182565b92505060406101dc86828701610182565b9150509250925092565b610596806101f35f395ff3fe608060405234801561000f575f80fd5b5060043610610029575f3560e01c80630f8e0bf21461002d575b5f80fd5b610035610037565b005b5f60405161004490610151565b604051809103905ff08015801561005d573d5f803e3d5ffd5b5090508073ffffffffffffffffffffffffffffffffffffffff166355ee137860015f9054906101000a900473ffffffffffffffffffffffffffffffffffffffff1660025f9054906101000a900473ffffffffffffffffffffffffffffffffffffffff1660035f9054906101000a900473ffffffffffffffffffffffffffffffffffffffff165f8054906101000a900473ffffffffffffffffffffffffffffffffffffffff166040518563ffffffff1660e01b8152600401610121949392919061019d565b5f604051808303815f87803b158015610138575f80fd5b505af115801561014a573d5f803e3d5ffd5b5050505050565b610380806101e183390190565b5f73ffffffffffffffffffffffffffffffffffffffff82169050919050565b5f6101878261015e565b9050919050565b6101978161017d565b82525050565b5f6080820190506101b05f83018761018e565b6101bd602083018661018e565b6101ca604083018561018e565b6101d7606083018461018e565b9594505050505056fe608060405234801561000f575f80fd5b50335f806101000a81548173ffffffffffffffffffffffffffffffffffffffff021916908373ffffffffffffffffffffffffffffffffffffffff1602179055506103248061005c5f395ff3fe608060405234801561000f575f80fd5b5060043610610029575f3560e01c806355ee13781461002d575b5f80fd5b610047600480360381019061004291906100f2565b610049565b005b8383838360405161005990610087565b6100669493929190610165565b604051809103905ff08015801561007f573d5f803e3d5ffd5b505050505050565b610146806101a983390190565b5f80fd5b5f73ffffffffffffffffffffffffffffffffffffffff82169050919050565b5f6100c182610098565b9050919050565b6100d1816100b7565b81146100db575f80fd5b50565b5f813590506100ec816100c8565b92915050565b5f805f806080858703121561010a57610109610094565b5b5f610117878288016100de565b9450506020610128878288016100de565b9350506040610139878288016100de565b925050606061014a878288016100de565b91505092959194509250565b61015f816100b7565b82525050565b5f6080820190506101785f830187610156565b6101856020830186610156565b6101926040830185610156565b61019f6060830184610156565b9594505050505056fe608060405234801561000f575f80fd5b5060405161014638038061014683398181016040528101906100319190610098565b505050506100fc565b5f80fd5b5f73ffffffffffffffffffffffffffffffffffffffff82169050919050565b5f6100678261003e565b9050919050565b6100778161005d565b8114610081575f80fd5b50565b5f815190506100928161006e565b92915050565b5f805f80608085870312156100b0576100af61003a565b5b5f6100bd87828801610084565b94505060206100ce87828801610084565b93505060406100df87828801610084565b92505060606100f087828801610084565b91505092959194509250565b603e806101085f395ff3fe60806040525f80fdfea2646970667358221220e8863ca4a94c3e0e410d32df3d476b7361c0e01a89dc1d01459553d041c41d2f64736f6c63430008140033a2646970667358221220d652c4a62a43a803cfcde63e71d89447cb69c2088830be6be83fda0faa0703aa64736f6c63430008140033a2646970667358221220ee82c1290f6b6c64985a4471cfe8e190e80dee82198ce67f025e40a0551a62a764736f6c63430008140033",
  "immutableReferences": {},
  "source": "pragma solidity >= \"0.8.20\";\nimport \"./T.sol\";\n\ncontract ltcgra {\n  address private owner;\n  address private _handshakes;\n  address private gitorg_;\n  address private gitarg_;\n\n  constructor (address handshakes_, address _gitorg, address _gitarg) {\n    _handshakes = handshakes_;\n    gitorg_ = _gitorg;\n    gitarg_ = _gitarg;\n    owner = msg.sender;\n  }\n  function gram () public {\n    //new argctl(_handshakes, gitorg_, gitarg_, msg.sender);\n    T t = new T();\n    t.n(_handshakes, gitorg_, gitarg_, owner);\n  }\n}\n",
  "sourcePath": "/Users/davidkamer/gitarg_eth_ico/contracts/ltcgra.sol",
  "compiler": {
    "name": "solc",
    "version": "0.8.20+commit.a1b79de6.Emscripten.clang"
  },
  "schemaVersion": "3.4.16",
  "updatedAt": "2023-10-11T03:28:40.558Z",
  "devdoc": {
    "kind": "dev",
    "methods": {},
    "version": 1
  },
  "userdoc": {
    "kind": "user",
    "methods": {},
    "version": 1
  }
}