{
  "contractName": "Proposal",
  "abi": [
    {
      "inputs": [
        {
          "internalType": "address",
          "name": "_object",
          "type": "address"
        }
      ],
      "stateMutability": "nonpayable",
      "type": "constructor"
    },
    {
      "inputs": [],
      "name": "safeMode",
      "outputs": [
        {
          "internalType": "bool",
          "name": "",
          "type": "bool"
        }
      ],
      "stateMutability": "view",
      "type": "function"
    },
    {
      "inputs": [],
      "name": "disableSafeMode",
      "outputs": [
        {
          "internalType": "uint256",
          "name": "",
          "type": "uint256"
        }
      ],
      "stateMutability": "nonpayable",
      "type": "function"
    },
    {
      "inputs": [],
      "name": "getObject",
      "outputs": [
        {
          "internalType": "address",
          "name": "",
          "type": "address"
        }
      ],
      "stateMutability": "view",
      "type": "function"
    }
  ],
  "bytecode": "0x608060405260018060146101000a81548160ff021916908315150217905550348015610029575f80fd5b506040516104f13803806104f1833981810160405281019061004b919061012e565b3360015f6101000a81548173ffffffffffffffffffffffffffffffffffffffff021916908373ffffffffffffffffffffffffffffffffffffffff160217905550805f806101000a81548173ffffffffffffffffffffffffffffffffffffffff021916908373ffffffffffffffffffffffffffffffffffffffff16021790555050610159565b5f80fd5b5f73ffffffffffffffffffffffffffffffffffffffff82169050919050565b5f6100fd826100d4565b9050919050565b61010d816100f3565b8114610117575f80fd5b50565b5f8151905061012881610104565b92915050565b5f60208284031215610143576101426100d0565b5b5f6101508482850161011a565b91505092915050565b61038b806101665f395ff3fe608060405234801561000f575f80fd5b506004361061003f575f3560e01c80632b2e00d314610043578063abe3219c14610061578063e514fe551461007f575b5f80fd5b61004b61009d565b60405161005891906102d8565b60405180910390f35b61006961019f565b604051610076919061030b565b60405180910390f35b6100876101b2565b604051610094919061033c565b60405180910390f35b5f600160149054906101000a900460ff161561010c5760015f9054906101000a900473ffffffffffffffffffffffffffffffffffffffff1673ffffffffffffffffffffffffffffffffffffffff163373ffffffffffffffffffffffffffffffffffffffff161461010b575f80fd5b5b600160149054906101000a900460ff161561017a5760015f9054906101000a900473ffffffffffffffffffffffffffffffffffffffff1673ffffffffffffffffffffffffffffffffffffffff163373ffffffffffffffffffffffffffffffffffffffff1614610179575f80fd5b5b5f8054906101000a900473ffffffffffffffffffffffffffffffffffffffff16905090565b600160149054906101000a900460ff1681565b5f600160149054906101000a900460ff16156102215760015f9054906101000a900473ffffffffffffffffffffffffffffffffffffffff1673ffffffffffffffffffffffffffffffffffffffff163373ffffffffffffffffffffffffffffffffffffffff1614610220575f80fd5b5b60015f9054906101000a900473ffffffffffffffffffffffffffffffffffffffff1673ffffffffffffffffffffffffffffffffffffffff163373ffffffffffffffffffffffffffffffffffffffff1614610279575f80fd5b5f600160146101000a81548160ff02191690831515021790555042905090565b5f73ffffffffffffffffffffffffffffffffffffffff82169050919050565b5f6102c282610299565b9050919050565b6102d2816102b8565b82525050565b5f6020820190506102eb5f8301846102c9565b92915050565b5f8115159050919050565b610305816102f1565b82525050565b5f60208201905061031e5f8301846102fc565b92915050565b5f819050919050565b61033681610324565b82525050565b5f60208201905061034f5f83018461032d565b9291505056fea26469706673582212200f60d7b254f283f1e7d5653a1c284eb971fccaede40fd91441cf0b7ba6b2dc8064736f6c63430008140033",
  "immutableReferences": {},
  "source": "// SPDX-License-Identifier: BUSL-1.1\npragma solidity >= \"0.8.18\";\n\ncontract Proposal {\n  address private object;\n  address private creator;\n  bool public safeMode = true;\n\n  modifier safe () {\n    if (safeMode) require(msg.sender == creator);\n    _;\n  }\n\n  // TODO - review if we should have a (public) name attached\n  constructor(address _object) {\n    creator = msg.sender;  \n    object = _object;\n  }\n  function disableSafeMode() public safe returns(uint)  {\n    require(msg.sender == creator);\n    safeMode = false;\n    return block.timestamp;\n  }\n  function getObject() public view safe returns(address) {\n    if (safeMode) require(msg.sender == creator);\n    return object;\n  }\n}\n",
  "sourcePath": "/Users/davidkamer/gitarg_eth_ico/contracts/objects/Proposal.sol",
  "compiler": {
    "name": "solc",
    "version": "0.8.20+commit.a1b79de6.Emscripten.clang"
  },
  "schemaVersion": "3.4.16",
  "updatedAt": "2023-10-29T04:17:00.508Z",
  "devdoc": {
    "kind": "dev",
    "methods": {},
    "version": 1
  },
  "userdoc": {
    "kind": "user",
    "methods": {},
    "version": 1
  }
}