{
  "contractName": "ratig",
  "abi": [
    {
      "inputs": [
        {
          "internalType": "address",
          "name": "_gitarg",
          "type": "address"
        },
        {
          "internalType": "address",
          "name": "_gitar",
          "type": "address"
        }
      ],
      "stateMutability": "nonpayable",
      "type": "constructor"
    },
    {
      "inputs": [],
      "name": "GITAR",
      "outputs": [
        {
          "internalType": "address",
          "name": "",
          "type": "address"
        }
      ],
      "stateMutability": "view",
      "type": "function",
      "constant": true
    },
    {
      "inputs": [],
      "name": "GITARG",
      "outputs": [
        {
          "internalType": "address",
          "name": "",
          "type": "address"
        }
      ],
      "stateMutability": "view",
      "type": "function",
      "constant": true
    },
    {
      "inputs": [],
      "name": "owner",
      "outputs": [
        {
          "internalType": "address",
          "name": "",
          "type": "address"
        }
      ],
      "stateMutability": "view",
      "type": "function",
      "constant": true
    },
    {
      "inputs": [
        {
          "internalType": "uint256",
          "name": "amount",
          "type": "uint256"
        },
        {
          "internalType": "address",
          "name": "_erc20",
          "type": "address"
        },
        {
          "internalType": "address",
          "name": "_to",
          "type": "address"
        }
      ],
      "name": "g",
      "outputs": [
        {
          "internalType": "bool",
          "name": "",
          "type": "bool"
        }
      ],
      "stateMutability": "nonpayable",
      "type": "function"
    }
  ],
  "bytecode": "0x608060405234801561000f575f80fd5b50604051610ac0380380610ac0833981810160405281019061003191906101d5565b335f806101000a81548173ffffffffffffffffffffffffffffffffffffffff021916908373ffffffffffffffffffffffffffffffffffffffff1602179055508160015f6101000a81548173ffffffffffffffffffffffffffffffffffffffff021916908373ffffffffffffffffffffffffffffffffffffffff1602179055508060025f6101000a81548173ffffffffffffffffffffffffffffffffffffffff021916908373ffffffffffffffffffffffffffffffffffffffff1602179055508160035f6101000a81548173ffffffffffffffffffffffffffffffffffffffff021916908373ffffffffffffffffffffffffffffffffffffffff1602179055508060045f6101000a81548173ffffffffffffffffffffffffffffffffffffffff021916908373ffffffffffffffffffffffffffffffffffffffff1602179055505050610213565b5f80fd5b5f73ffffffffffffffffffffffffffffffffffffffff82169050919050565b5f6101a48261017b565b9050919050565b6101b48161019a565b81146101be575f80fd5b50565b5f815190506101cf816101ab565b92915050565b5f80604083850312156101eb576101ea610177565b5b5f6101f8858286016101c1565b9250506020610209858286016101c1565b9150509250929050565b6108a0806102205f395ff3fe608060405234801561000f575f80fd5b506004361061004a575f3560e01c80630c4db6a11461004e5780634755eff31461006c5780638da5cb5b1461009c578063b9f90405146100ba575b5f80fd5b6100566100d8565b6040516100639190610526565b60405180910390f35b610086600480360381019061008191906105a0565b6100fd565b604051610093919061060a565b60405180910390f35b6100a461049f565b6040516100b19190610526565b60405180910390f35b6100c26104c2565b6040516100cf9190610526565b60405180910390f35b60015f9054906101000a900473ffffffffffffffffffffffffffffffffffffffff1681565b5f80839050848173ffffffffffffffffffffffffffffffffffffffff1663dd62ed3e85306040518363ffffffff1660e01b815260040161013e929190610623565b602060405180830381865afa158015610159573d5f803e3d5ffd5b505050506040513d601f19601f8201168201806040525081019061017d919061065e565b10156101be576040517f08c379a00000000000000000000000000000000000000000000000000000000081526004016101b5906106e3565b60405180910390fd5b8460035f9054906101000a900473ffffffffffffffffffffffffffffffffffffffff1673ffffffffffffffffffffffffffffffffffffffff1663dd62ed3e33306040518363ffffffff1660e01b815260040161021b929190610623565b602060405180830381865afa158015610236573d5f803e3d5ffd5b505050506040513d601f19601f8201168201806040525081019061025a919061065e565b101561029b576040517f08c379a00000000000000000000000000000000000000000000000000000000081526004016102929061074b565b60405180910390fd5b8460045f9054906101000a900473ffffffffffffffffffffffffffffffffffffffff1673ffffffffffffffffffffffffffffffffffffffff16631ff3cc52336040518263ffffffff1660e01b81526004016102f69190610526565b602060405180830381865afa158015610311573d5f803e3d5ffd5b505050506040513d601f19601f82011682018060405250810190610335919061065e565b1015610376576040517f08c379a000000000000000000000000000000000000000000000000000000000815260040161036d906107b3565b60405180910390fd5b60035f9054906101000a900473ffffffffffffffffffffffffffffffffffffffff1673ffffffffffffffffffffffffffffffffffffffff166323b872dd3385886040518463ffffffff1660e01b81526004016103d4939291906107e0565b6020604051808303815f875af11580156103f0573d5f803e3d5ffd5b505050506040513d601f19601f82011682018060405250810190610414919061083f565b508073ffffffffffffffffffffffffffffffffffffffff166323b872dd8433886040518463ffffffff1660e01b8152600401610452939291906107e0565b6020604051808303815f875af115801561046e573d5f803e3d5ffd5b505050506040513d601f19601f82011682018060405250810190610492919061083f565b5060019150509392505050565b5f8054906101000a900473ffffffffffffffffffffffffffffffffffffffff1681565b60025f9054906101000a900473ffffffffffffffffffffffffffffffffffffffff1681565b5f73ffffffffffffffffffffffffffffffffffffffff82169050919050565b5f610510826104e7565b9050919050565b61052081610506565b82525050565b5f6020820190506105395f830184610517565b92915050565b5f80fd5b5f819050919050565b61055581610543565b811461055f575f80fd5b50565b5f813590506105708161054c565b92915050565b61057f81610506565b8114610589575f80fd5b50565b5f8135905061059a81610576565b92915050565b5f805f606084860312156105b7576105b661053f565b5b5f6105c486828701610562565b93505060206105d58682870161058c565b92505060406105e68682870161058c565b9150509250925092565b5f8115159050919050565b610604816105f0565b82525050565b5f60208201905061061d5f8301846105fb565b92915050565b5f6040820190506106365f830185610517565b6106436020830184610517565b9392505050565b5f815190506106588161054c565b92915050565b5f602082840312156106735761067261053f565b5b5f6106808482850161064a565b91505092915050565b5f82825260208201905092915050565b7f616d6f756e7400000000000000000000000000000000000000000000000000005f82015250565b5f6106cd600683610689565b91506106d882610699565b602082019050919050565b5f6020820190508181035f8301526106fa816106c1565b9050919050565b7f74617200000000000000000000000000000000000000000000000000000000005f82015250565b5f610735600383610689565b915061074082610701565b602082019050919050565b5f6020820190508181035f83015261076281610729565b9050919050565b7f72617400000000000000000000000000000000000000000000000000000000005f82015250565b5f61079d600383610689565b91506107a882610769565b602082019050919050565b5f6020820190508181035f8301526107ca81610791565b9050919050565b6107da81610543565b82525050565b5f6060820190506107f35f830186610517565b6108006020830185610517565b61080d60408301846107d1565b949350505050565b61081e816105f0565b8114610828575f80fd5b50565b5f8151905061083981610815565b92915050565b5f602082840312156108545761085361053f565b5b5f6108618482850161082b565b9150509291505056fea2646970667358221220c8d91e7833969ee758452849b92ead81c9091fbd9465687810f70b155adfdf3f64736f6c63430008140033",
  "immutableReferences": {},
  "source": "// SPDX-License-Identifier: BUSL-1.1\npragma solidity >= \"0.8.20\";\nimport \"./gitarg.sol\";\nimport \"./gitar.sol\";\n\ninterface ERC20 {\n  function blanaceOf(address account) external view returns (uint256);\n  function allowance(address _owner, address _spender) external view returns (uint256 remaining);\n  function transferFrom(address _from, address _to, uint256 _value) external returns (bool success);\n}\n\ncontract ratig {\n  address public owner;\n  address public GITARG;\n  address public GITAR;\n  gitarg private arg;\n  gitar private tar;\n  constructor (address _gitarg, address _gitar) {\n    owner = msg.sender;\n    GITARG = _gitarg;\n    GITAR = _gitar;\n    arg = gitarg(_gitarg);\n    tar = gitar(_gitar);\n  } \n  function g (uint amount, address _erc20, address _to) public returns (bool) {\n    ERC20 erc20 = ERC20(_erc20);\n    require(erc20.allowance(_to, address(this)) >= amount, \"amount\");\n    require(arg.allowance(msg.sender, address(this)) >= amount, \"tar\");\n    require(tar.gg(msg.sender) >= amount, \"rat\");\n    arg.transferFrom(msg.sender, _to, amount);\n    erc20.transferFrom(_to, msg.sender, amount);\n    return true;\n  }\n}\n",
  "sourcePath": "/home/gitarg/gitarg/solidity_ico/contracts/ratig.sol",
  "compiler": {
    "name": "solc",
    "version": "0.8.20+commit.a1b79de6.Emscripten.clang"
  },
  "schemaVersion": "3.4.16",
  "updatedAt": "2024-03-06T12:50:18.536Z",
  "networkType": "ethereum",
  "devdoc": {
    "kind": "dev",
    "methods": {},
    "version": 1
  },
  "userdoc": {
    "kind": "user",
    "methods": {},
    "version": 1
  }
}