{
  "contractName": "ratig",
  "abi": [
    {
      "inputs": [
        {
          "internalType": "address",
          "name": "_gitarg",
          "type": "address"
        },
        {
          "internalType": "address",
          "name": "_gitar",
          "type": "address"
        }
      ],
      "stateMutability": "nonpayable",
      "type": "constructor"
    },
    {
      "inputs": [],
      "name": "GITAR",
      "outputs": [
        {
          "internalType": "address",
          "name": "",
          "type": "address"
        }
      ],
      "stateMutability": "view",
      "type": "function",
      "constant": true
    },
    {
      "inputs": [],
      "name": "GITARG",
      "outputs": [
        {
          "internalType": "address",
          "name": "",
          "type": "address"
        }
      ],
      "stateMutability": "view",
      "type": "function",
      "constant": true
    },
    {
      "inputs": [],
      "name": "owner",
      "outputs": [
        {
          "internalType": "address",
          "name": "",
          "type": "address"
        }
      ],
      "stateMutability": "view",
      "type": "function",
      "constant": true
    },
    {
      "inputs": [
        {
          "internalType": "uint256",
          "name": "amount",
          "type": "uint256"
        },
        {
          "internalType": "address",
          "name": "_erc20",
          "type": "address"
        },
        {
          "internalType": "address",
          "name": "_to",
          "type": "address"
        }
      ],
      "name": "g",
      "outputs": [
        {
          "internalType": "bool",
          "name": "",
          "type": "bool"
        }
      ],
      "stateMutability": "nonpayable",
      "type": "function"
    }
  ],
  "bytecode": "0x608060405234801561000f575f80fd5b50604051610ac1380380610ac1833981810160405281019061003191906101d5565b335f806101000a81548173ffffffffffffffffffffffffffffffffffffffff021916908373ffffffffffffffffffffffffffffffffffffffff1602179055508160015f6101000a81548173ffffffffffffffffffffffffffffffffffffffff021916908373ffffffffffffffffffffffffffffffffffffffff1602179055508060025f6101000a81548173ffffffffffffffffffffffffffffffffffffffff021916908373ffffffffffffffffffffffffffffffffffffffff1602179055508160035f6101000a81548173ffffffffffffffffffffffffffffffffffffffff021916908373ffffffffffffffffffffffffffffffffffffffff1602179055508060045f6101000a81548173ffffffffffffffffffffffffffffffffffffffff021916908373ffffffffffffffffffffffffffffffffffffffff1602179055505050610213565b5f80fd5b5f73ffffffffffffffffffffffffffffffffffffffff82169050919050565b5f6101a48261017b565b9050919050565b6101b48161019a565b81146101be575f80fd5b50565b5f815190506101cf816101ab565b92915050565b5f80604083850312156101eb576101ea610177565b5b5f6101f8858286016101c1565b9250506020610209858286016101c1565b9150509250929050565b6108a1806102205f395ff3fe608060405234801561000f575f80fd5b506004361061004a575f3560e01c80630c4db6a11461004e5780634755eff31461006c5780638da5cb5b1461009c578063b9f90405146100ba575b5f80fd5b6100566100d8565b6040516100639190610527565b60405180910390f35b610086600480360381019061008191906105a1565b6100fd565b604051610093919061060b565b60405180910390f35b6100a46104a0565b6040516100b19190610527565b60405180910390f35b6100c26104c3565b6040516100cf9190610527565b60405180910390f35b60015f9054906101000a900473ffffffffffffffffffffffffffffffffffffffff1681565b5f80839050848173ffffffffffffffffffffffffffffffffffffffff1663dd62ed3e85306040518363ffffffff1660e01b815260040161013e929190610624565b602060405180830381865afa158015610159573d5f803e3d5ffd5b505050506040513d601f19601f8201168201806040525081019061017d919061065f565b10156101be576040517f08c379a00000000000000000000000000000000000000000000000000000000081526004016101b5906106e4565b60405180910390fd5b8460035f9054906101000a900473ffffffffffffffffffffffffffffffffffffffff1673ffffffffffffffffffffffffffffffffffffffff1663dd62ed3e33306040518363ffffffff1660e01b815260040161021b929190610624565b602060405180830381865afa158015610236573d5f803e3d5ffd5b505050506040513d601f19601f8201168201806040525081019061025a919061065f565b101561029b576040517f08c379a00000000000000000000000000000000000000000000000000000000081526004016102929061074c565b60405180910390fd5b8460045f9054906101000a900473ffffffffffffffffffffffffffffffffffffffff1673ffffffffffffffffffffffffffffffffffffffff16631ff3cc52336040518263ffffffff1660e01b81526004016102f69190610527565b6020604051808303815f875af1158015610312573d5f803e3d5ffd5b505050506040513d601f19601f82011682018060405250810190610336919061065f565b1015610377576040517f08c379a000000000000000000000000000000000000000000000000000000000815260040161036e906107b4565b60405180910390fd5b60035f9054906101000a900473ffffffffffffffffffffffffffffffffffffffff1673ffffffffffffffffffffffffffffffffffffffff166323b872dd3385886040518463ffffffff1660e01b81526004016103d5939291906107e1565b6020604051808303815f875af11580156103f1573d5f803e3d5ffd5b505050506040513d601f19601f820116820180604052508101906104159190610840565b508073ffffffffffffffffffffffffffffffffffffffff166323b872dd8433886040518463ffffffff1660e01b8152600401610453939291906107e1565b6020604051808303815f875af115801561046f573d5f803e3d5ffd5b505050506040513d601f19601f820116820180604052508101906104939190610840565b5060019150509392505050565b5f8054906101000a900473ffffffffffffffffffffffffffffffffffffffff1681565b60025f9054906101000a900473ffffffffffffffffffffffffffffffffffffffff1681565b5f73ffffffffffffffffffffffffffffffffffffffff82169050919050565b5f610511826104e8565b9050919050565b61052181610507565b82525050565b5f60208201905061053a5f830184610518565b92915050565b5f80fd5b5f819050919050565b61055681610544565b8114610560575f80fd5b50565b5f813590506105718161054d565b92915050565b61058081610507565b811461058a575f80fd5b50565b5f8135905061059b81610577565b92915050565b5f805f606084860312156105b8576105b7610540565b5b5f6105c586828701610563565b93505060206105d68682870161058d565b92505060406105e78682870161058d565b9150509250925092565b5f8115159050919050565b610605816105f1565b82525050565b5f60208201905061061e5f8301846105fc565b92915050565b5f6040820190506106375f830185610518565b6106446020830184610518565b9392505050565b5f815190506106598161054d565b92915050565b5f6020828403121561067457610673610540565b5b5f6106818482850161064b565b91505092915050565b5f82825260208201905092915050565b7f616d6f756e7400000000000000000000000000000000000000000000000000005f82015250565b5f6106ce60068361068a565b91506106d98261069a565b602082019050919050565b5f6020820190508181035f8301526106fb816106c2565b9050919050565b7f74617200000000000000000000000000000000000000000000000000000000005f82015250565b5f61073660038361068a565b915061074182610702565b602082019050919050565b5f6020820190508181035f8301526107638161072a565b9050919050565b7f72617400000000000000000000000000000000000000000000000000000000005f82015250565b5f61079e60038361068a565b91506107a98261076a565b602082019050919050565b5f6020820190508181035f8301526107cb81610792565b9050919050565b6107db81610544565b82525050565b5f6060820190506107f45f830186610518565b6108016020830185610518565b61080e60408301846107d2565b949350505050565b61081f816105f1565b8114610829575f80fd5b50565b5f8151905061083a81610816565b92915050565b5f6020828403121561085557610854610540565b5b5f6108628482850161082c565b9150509291505056fea2646970667358221220386b297d43dd66a67da92881dd576ed41cfe5fec1c59a63fafba9167a459346264736f6c63430008140033",
  "immutableReferences": {},
  "source": "// SPDX-License-Identifier: BUSL-1.1\npragma solidity >= \"0.8.20\";\nimport \"./gitarg.sol\";\nimport \"./gitar.sol\";\n\ninterface ERC20 {\n  function blanaceOf(address account) external view returns (uint256);\n  function allowance(address _owner, address _spender) external view returns (uint256 remaining);\n  function transferFrom(address _from, address _to, uint256 _value) external returns (bool success);\n}\n\ncontract ratig {\n  address public owner;\n  address public GITARG;\n  address public GITAR;\n  gitarg private arg;\n  gitar private tar;\n  constructor (address _gitarg, address _gitar) {\n    owner = msg.sender;\n    GITARG = _gitarg;\n    GITAR = _gitar;\n    arg = gitarg(_gitarg);\n    tar = gitar(_gitar);\n  } \n  function g (uint amount, address _erc20, address _to) public returns (bool) {\n    ERC20 erc20 = ERC20(_erc20);\n    require(erc20.allowance(_to, address(this)) >= amount, \"amount\");\n    require(arg.allowance(msg.sender, address(this)) >= amount, \"tar\");\n    require(tar.gg(msg.sender) >= amount, \"rat\");\n    arg.transferFrom(msg.sender, _to, amount);\n    erc20.transferFrom(_to, msg.sender, amount);\n    return true;\n  }\n}\n",
  "sourcePath": "/Users/davidkamer/gitarg_eth_ico/contracts/ratig.sol",
  "compiler": {
    "name": "solc",
    "version": "0.8.20+commit.a1b79de6.Emscripten.clang"
  },
  "schemaVersion": "3.4.16",
  "updatedAt": "2023-11-15T22:23:30.929Z",
  "networkType": "ethereum",
  "devdoc": {
    "kind": "dev",
    "methods": {},
    "version": 1
  },
  "userdoc": {
    "kind": "user",
    "methods": {},
    "version": 1
  }
}