{
  "contractName": "Repo",
  "abi": [
    {
      "inputs": [
        {
          "internalType": "string",
          "name": "_name",
          "type": "string"
        },
        {
          "internalType": "string",
          "name": "_url",
          "type": "string"
        },
        {
          "internalType": "address",
          "name": "_owner",
          "type": "address"
        },
        {
          "internalType": "address",
          "name": "_gitarg",
          "type": "address"
        },
        {
          "internalType": "address",
          "name": "_gitarray",
          "type": "address"
        }
      ],
      "stateMutability": "payable",
      "type": "constructor",
      "payable": true
    },
    {
      "anonymous": false,
      "inputs": [
        {
          "indexed": false,
          "internalType": "bytes32",
          "name": "hash",
          "type": "bytes32"
        }
      ],
      "name": "Stamp",
      "type": "event"
    },
    {
      "anonymous": false,
      "inputs": [
        {
          "indexed": false,
          "internalType": "uint256",
          "name": "timestamp",
          "type": "uint256"
        }
      ],
      "name": "Timestamp",
      "type": "event"
    },
    {
      "inputs": [
        {
          "internalType": "address",
          "name": "",
          "type": "address"
        }
      ],
      "name": "allowed",
      "outputs": [
        {
          "internalType": "uint256",
          "name": "",
          "type": "uint256"
        }
      ],
      "stateMutability": "view",
      "type": "function",
      "constant": true
    },
    {
      "inputs": [],
      "name": "name",
      "outputs": [
        {
          "internalType": "string",
          "name": "",
          "type": "string"
        }
      ],
      "stateMutability": "view",
      "type": "function",
      "constant": true
    },
    {
      "inputs": [],
      "name": "owner",
      "outputs": [
        {
          "internalType": "address",
          "name": "",
          "type": "address"
        }
      ],
      "stateMutability": "view",
      "type": "function",
      "constant": true
    },
    {
      "inputs": [],
      "name": "url",
      "outputs": [
        {
          "internalType": "string",
          "name": "",
          "type": "string"
        }
      ],
      "stateMutability": "view",
      "type": "function",
      "constant": true
    },
    {
      "inputs": [],
      "name": "value",
      "outputs": [
        {
          "internalType": "uint256",
          "name": "",
          "type": "uint256"
        }
      ],
      "stateMutability": "view",
      "type": "function",
      "constant": true
    },
    {
      "inputs": [
        {
          "internalType": "address",
          "name": "_allow",
          "type": "address"
        }
      ],
      "name": "allow",
      "outputs": [],
      "stateMutability": "nonpayable",
      "type": "function"
    },
    {
      "inputs": [
        {
          "internalType": "address",
          "name": "_disallow",
          "type": "address"
        },
        {
          "internalType": "bool",
          "name": "clean",
          "type": "bool"
        }
      ],
      "name": "revoke",
      "outputs": [],
      "stateMutability": "nonpayable",
      "type": "function"
    },
    {
      "inputs": [
        {
          "internalType": "string",
          "name": "_hash",
          "type": "string"
        }
      ],
      "name": "stamp",
      "outputs": [
        {
          "internalType": "uint256",
          "name": "",
          "type": "uint256"
        }
      ],
      "stateMutability": "nonpayable",
      "type": "function"
    },
    {
      "inputs": [
        {
          "internalType": "string",
          "name": "_hash",
          "type": "string"
        },
        {
          "internalType": "uint256",
          "name": "timestamp",
          "type": "uint256"
        }
      ],
      "name": "_stamp",
      "outputs": [
        {
          "internalType": "bytes32",
          "name": "",
          "type": "bytes32"
        }
      ],
      "stateMutability": "nonpayable",
      "type": "function"
    },
    {
      "inputs": [
        {
          "internalType": "address payable",
          "name": "_gitarray",
          "type": "address"
        },
        {
          "internalType": "uint256",
          "name": "iteration",
          "type": "uint256"
        }
      ],
      "name": "verification",
      "outputs": [
        {
          "internalType": "bytes32",
          "name": "",
          "type": "bytes32"
        }
      ],
      "stateMutability": "nonpayable",
      "type": "function"
    },
    {
      "inputs": [
        {
          "internalType": "uint256",
          "name": "iteration",
          "type": "uint256"
        }
      ],
      "name": "verification",
      "outputs": [
        {
          "internalType": "bytes32",
          "name": "",
          "type": "bytes32"
        }
      ],
      "stateMutability": "nonpayable",
      "type": "function"
    },
    {
      "inputs": [],
      "name": "verify",
      "outputs": [
        {
          "internalType": "bool",
          "name": "",
          "type": "bool"
        }
      ],
      "stateMutability": "view",
      "type": "function",
      "constant": true
    },
    {
      "inputs": [
        {
          "internalType": "contract Commit",
          "name": "_commit",
          "type": "address"
        },
        {
          "internalType": "address",
          "name": "sender",
          "type": "address"
        }
      ],
      "name": "commit",
      "outputs": [
        {
          "internalType": "uint256",
          "name": "",
          "type": "uint256"
        }
      ],
      "stateMutability": "nonpayable",
      "type": "function"
    },
    {
      "inputs": [],
      "name": "add",
      "outputs": [],
      "stateMutability": "payable",
      "type": "function",
      "payable": true
    },
    {
      "inputs": [
        {
          "internalType": "address",
          "name": "buyer",
          "type": "address"
        }
      ],
      "name": "_buyerContributions",
      "outputs": [
        {
          "internalType": "uint256",
          "name": "",
          "type": "uint256"
        }
      ],
      "stateMutability": "view",
      "type": "function",
      "constant": true
    },
    {
      "inputs": [
        {
          "internalType": "address",
          "name": "_gitarg",
          "type": "address"
        },
        {
          "internalType": "address payable",
          "name": "_wallet",
          "type": "address"
        },
        {
          "internalType": "uint256",
          "name": "value",
          "type": "uint256"
        }
      ],
      "name": "approve",
      "outputs": [],
      "stateMutability": "nonpayable",
      "type": "function"
    }
  ],
  "bytecode": "0x608060405260405162002602380380620026028339818101604052810190620000299190620004ce565b3373ffffffffffffffffffffffffffffffffffffffff168173ffffffffffffffffffffffffffffffffffffffff161462000079576001600b60146101000a81548160ff0219169083151502179055505b33600b5f6101000a81548173ffffffffffffffffffffffffffffffffffffffff021916908373ffffffffffffffffffffffffffffffffffffffff160217905550845f9081620000c99190620007c7565b508360019081620000db9190620007c7565b508260025f6101000a81548173ffffffffffffffffffffffffffffffffffffffff021916908373ffffffffffffffffffffffffffffffffffffffff1602179055503360045f6101000a81548173ffffffffffffffffffffffffffffffffffffffff021916908373ffffffffffffffffffffffffffffffffffffffff1602179055508160055f6101000a81548173ffffffffffffffffffffffffffffffffffffffff021916908373ffffffffffffffffffffffffffffffffffffffff1602179055503460088190555042600c5f3373ffffffffffffffffffffffffffffffffffffffff1673ffffffffffffffffffffffffffffffffffffffff1681526020019081526020015f208190555042600c5f8573ffffffffffffffffffffffffffffffffffffffff1673ffffffffffffffffffffffffffffffffffffffff1681526020019081526020015f208190555042600c5f600b5f9054906101000a900473ffffffffffffffffffffffffffffffffffffffff1673ffffffffffffffffffffffffffffffffffffffff1673ffffffffffffffffffffffffffffffffffffffff1681526020019081526020015f2081905550600360014233604051602001620002a493929190620009b2565b60405160208183030381529060405280519060200120908060018154018082558091505060019003905f5260205f20015f90919091909150555050505050620009f0565b5f604051905090565b5f80fd5b5f80fd5b5f80fd5b5f80fd5b5f601f19601f8301169050919050565b7f4e487b71000000000000000000000000000000000000000000000000000000005f52604160045260245ffd5b620003498262000301565b810181811067ffffffffffffffff821117156200036b576200036a62000311565b5b80604052505050565b5f6200037f620002e8565b90506200038d82826200033e565b919050565b5f67ffffffffffffffff821115620003af57620003ae62000311565b5b620003ba8262000301565b9050602081019050919050565b5f5b83811015620003e6578082015181840152602081019050620003c9565b5f8484015250505050565b5f62000407620004018462000392565b62000374565b905082815260208101848484011115620004265762000425620002fd565b5b62000433848285620003c7565b509392505050565b5f82601f830112620004525762000451620002f9565b5b815162000464848260208601620003f1565b91505092915050565b5f73ffffffffffffffffffffffffffffffffffffffff82169050919050565b5f62000498826200046d565b9050919050565b620004aa816200048c565b8114620004b5575f80fd5b50565b5f81519050620004c8816200049f565b92915050565b5f805f805f60a08688031215620004ea57620004e9620002f1565b5b5f86015167ffffffffffffffff8111156200050a5762000509620002f5565b5b62000518888289016200043b565b955050602086015167ffffffffffffffff8111156200053c576200053b620002f5565b5b6200054a888289016200043b565b94505060406200055d88828901620004b8565b93505060606200057088828901620004b8565b92505060806200058388828901620004b8565b9150509295509295909350565b5f81519050919050565b7f4e487b71000000000000000000000000000000000000000000000000000000005f52602260045260245ffd5b5f6002820490506001821680620005df57607f821691505b602082108103620005f557620005f46200059a565b5b50919050565b5f819050815f5260205f209050919050565b5f6020601f8301049050919050565b5f82821b905092915050565b5f60088302620006597fffffffffffffffffffffffffffffffffffffffffffffffffffffffffffffffff826200061c565b6200066586836200061c565b95508019841693508086168417925050509392505050565b5f819050919050565b5f819050919050565b5f620006af620006a9620006a3846200067d565b62000686565b6200067d565b9050919050565b5f819050919050565b620006ca836200068f565b620006e2620006d982620006b6565b84845462000628565b825550505050565b5f90565b620006f8620006ea565b62000705818484620006bf565b505050565b5b818110156200072c57620007205f82620006ee565b6001810190506200070b565b5050565b601f8211156200077b576200074581620005fb565b62000750846200060d565b8101602085101562000760578190505b620007786200076f856200060d565b8301826200070a565b50505b505050565b5f82821c905092915050565b5f6200079d5f198460080262000780565b1980831691505092915050565b5f620007b783836200078c565b9150826002028217905092915050565b620007d28262000590565b67ffffffffffffffff811115620007ee57620007ed62000311565b5b620007fa8254620005c7565b6200080782828562000730565b5f60209050601f8311600181146200083d575f841562000828578287015190505b620008348582620007aa565b865550620008a3565b601f1984166200084d86620005fb565b5f5b8281101562000876578489015182556001820191506020850194506020810190506200084f565b8683101562000896578489015162000892601f8916826200078c565b8355505b6001600288020188555050505b505050505050565b5f81905092915050565b5f8154620008c381620005c7565b620008cf8186620008ab565b9450600182165f8114620008ec5760018114620009025762000938565b60ff198316865281151582028601935062000938565b6200090d85620005fb565b5f5b8381101562000930578154818901526001820191506020810190506200090f565b838801955050505b50505092915050565b5f819050919050565b6200095f62000959826200067d565b62000941565b82525050565b5f8160601b9050919050565b5f6200097d8262000965565b9050919050565b5f620009908262000971565b9050919050565b620009ac620009a6826200048c565b62000984565b82525050565b5f620009bf8286620008b5565b9150620009cd82856200094a565b602082019150620009df828462000997565b601482019150819050949350505050565b611c0480620009fe5f395ff3fe6080604052600436106100f2575f3560e01c8063bb82717b11610089578063ed5f07d911610058578063ed5f07d914610338578063f63c82fb14610360578063fc735e991461039c578063ff9913e8146103c6576100f2565b8063bb82717b1461025c578063c05a911c14610298578063d63a8e11146102d4578063e1f21c6714610310576100f2565b80635600f04f116100c55780635600f04f146101905780638da5cb5b146101ba57806395540b26146101e4578063a1f7d4c714610220576100f2565b806306fdde03146100f65780633fa4f245146101205780634ae4aefd1461014a5780634f2be91f14610186575b5f80fd5b348015610101575f80fd5b5061010a6103ee565b6040516101179190611192565b60405180910390f35b34801561012b575f80fd5b50610134610479565b60405161014191906111ca565b60405180910390f35b348015610155575f80fd5b50610170600480360381019061016b919061124e565b61047f565b60405161017d91906111ca565b60405180910390f35b61018e610581565b005b34801561019b575f80fd5b506101a4610693565b6040516101b19190611192565b60405180910390f35b3480156101c5575f80fd5b506101ce61071f565b6040516101db9190611288565b60405180910390f35b3480156101ef575f80fd5b5061020a600480360381019061020591906113f7565b610744565b6040516102179190611469565b60405180910390f35b34801561022b575f80fd5b50610246600480360381019061024191906114bd565b610870565b6040516102539190611469565b60405180910390f35b348015610267575f80fd5b50610282600480360381019061027d9190611536565b610a1d565b60405161028f91906111ca565b60405180910390f35b3480156102a3575f80fd5b506102be60048036038101906102b99190611574565b610b02565b6040516102cb9190611469565b60405180910390f35b3480156102df575f80fd5b506102fa60048036038101906102f5919061124e565b610c1f565b60405161030791906111ca565b60405180910390f35b34801561031b575f80fd5b506103366004803603810190610331919061159f565b610c34565b005b348015610343575f80fd5b5061035e60048036038101906103599190611624565b610d76565b005b34801561036b575f80fd5b5061038660048036038101906103819190611662565b610e95565b60405161039391906111ca565b60405180910390f35b3480156103a7575f80fd5b506103b0611030565b6040516103bd91906116b8565b60405180910390f35b3480156103d1575f80fd5b506103ec60048036038101906103e7919061124e565b611034565b005b5f80546103fa906116fe565b80601f0160208091040260200160405190810160405280929190818152602001828054610426906116fe565b80156104715780601f1061044857610100808354040283529160200191610471565b820191905f5260205f20905b81548152906001019060200180831161045457829003601f168201915b505050505081565b60085481565b5f600d5f3373ffffffffffffffffffffffffffffffffffffffff1673ffffffffffffffffffffffffffffffffffffffff1681526020019081526020015f2054600c5f3373ffffffffffffffffffffffffffffffffffffffff1673ffffffffffffffffffffffffffffffffffffffff1681526020019081526020015f20541161053c576040517f08c379a00000000000000000000000000000000000000000000000000000000081526004016105339061179e565b60405180910390fd5b60065f8373ffffffffffffffffffffffffffffffffffffffff1673ffffffffffffffffffffffffffffffffffffffff1681526020019081526020015f20549050919050565b5f60065f3373ffffffffffffffffffffffffffffffffffffffff1673ffffffffffffffffffffffffffffffffffffffff1681526020019081526020015f20540361062657600733908060018154018082558091505060019003905f5260205f20015f9091909190916101000a81548173ffffffffffffffffffffffffffffffffffffffff021916908373ffffffffffffffffffffffffffffffffffffffff1602179055505b3460065f3373ffffffffffffffffffffffffffffffffffffffff1673ffffffffffffffffffffffffffffffffffffffff1681526020019081526020015f205f82825461067291906117e9565b925050819055503460085f82825461068a91906117e9565b92505081905550565b600180546106a0906116fe565b80601f01602080910402602001604051908101604052809291908181526020018280546106cc906116fe565b80156107175780601f106106ee57610100808354040283529160200191610717565b820191905f5260205f20905b8154815290600101906020018083116106fa57829003601f168201915b505050505081565b60025f9054906101000a900473ffffffffffffffffffffffffffffffffffffffff1681565b5f600d5f3373ffffffffffffffffffffffffffffffffffffffff1673ffffffffffffffffffffffffffffffffffffffff1681526020019081526020015f2054600c5f3373ffffffffffffffffffffffffffffffffffffffff1673ffffffffffffffffffffffffffffffffffffffff1681526020019081526020015f205411610801576040517f08c379a00000000000000000000000000000000000000000000000000000000081526004016107f89061179e565b60405180910390fd5b5f838333604051602001610817939291906118bb565b6040516020818303038152906040528051906020012090507fa61b38417b09bc2bd845412017ff0bbba91d3aea7309c5d2e16bd4e1a125ff9a8160405161085e9190611469565b60405180910390a18091505092915050565b5f600d5f3373ffffffffffffffffffffffffffffffffffffffff1673ffffffffffffffffffffffffffffffffffffffff1681526020019081526020015f2054600c5f3373ffffffffffffffffffffffffffffffffffffffff1673ffffffffffffffffffffffffffffffffffffffff1681526020019081526020015f20541161092d576040517f08c379a00000000000000000000000000000000000000000000000000000000081526004016109249061179e565b60405180910390fd5b600b5f9054906101000a900473ffffffffffffffffffffffffffffffffffffffff1673ffffffffffffffffffffffffffffffffffffffff168373ffffffffffffffffffffffffffffffffffffffff16146109bc576040517f08c379a00000000000000000000000000000000000000000000000000000000081526004016109b390611963565b60405180910390fd5b5f600383815481106109d1576109d0611981565b5b905f5260205f20015490507fa61b38417b09bc2bd845412017ff0bbba91d3aea7309c5d2e16bd4e1a125ff9a81604051610a0b9190611469565b60405180910390a18091505092915050565b5f600983908060018154018082558091505060019003905f5260205f20015f9091909190916101000a81548173ffffffffffffffffffffffffffffffffffffffff021916908373ffffffffffffffffffffffffffffffffffffffff16021790555082600a5f8473ffffffffffffffffffffffffffffffffffffffff1673ffffffffffffffffffffffffffffffffffffffff1681526020019081526020015f205f6101000a81548173ffffffffffffffffffffffffffffffffffffffff021916908373ffffffffffffffffffffffffffffffffffffffff16021790555042905092915050565b5f600d5f3373ffffffffffffffffffffffffffffffffffffffff1673ffffffffffffffffffffffffffffffffffffffff1681526020019081526020015f2054600c5f3373ffffffffffffffffffffffffffffffffffffffff1673ffffffffffffffffffffffffffffffffffffffff1681526020019081526020015f205411610bbf576040517f08c379a0000000000000000000000000000000000000000000000000000000008152600401610bb69061179e565b60405180910390fd5b5f60038381548110610bd457610bd3611981565b5b905f5260205f20015490507fa61b38417b09bc2bd845412017ff0bbba91d3aea7309c5d2e16bd4e1a125ff9a81604051610c0e9190611469565b60405180910390a180915050919050565b600c602052805f5260405f205f915090505481565b600d5f3373ffffffffffffffffffffffffffffffffffffffff1673ffffffffffffffffffffffffffffffffffffffff1681526020019081526020015f2054600c5f3373ffffffffffffffffffffffffffffffffffffffff1673ffffffffffffffffffffffffffffffffffffffff1681526020019081526020015f205411610cf0576040517f08c379a0000000000000000000000000000000000000000000000000000000008152600401610ce79061179e565b60405180910390fd5b5f8390508073ffffffffffffffffffffffffffffffffffffffff1663095ea7b384846040518363ffffffff1660e01b8152600401610d2f929190611a09565b6020604051808303815f875af1158015610d4b573d5f803e3d5ffd5b505050506040513d601f19601f82011682018060405250810190610d6f9190611a44565b5050505050565b60025f9054906101000a900473ffffffffffffffffffffffffffffffffffffffff1673ffffffffffffffffffffffffffffffffffffffff163373ffffffffffffffffffffffffffffffffffffffff1614610e05576040517f08c379a0000000000000000000000000000000000000000000000000000000008152600401610dfc90611ab9565b60405180910390fd5b8015610e4f576001600c5f8473ffffffffffffffffffffffffffffffffffffffff1673ffffffffffffffffffffffffffffffffffffffff1681526020019081526020015f20819055505b42600d5f8473ffffffffffffffffffffffffffffffffffffffff1673ffffffffffffffffffffffffffffffffffffffff1681526020019081526020015f20819055505050565b5f600d5f3373ffffffffffffffffffffffffffffffffffffffff1673ffffffffffffffffffffffffffffffffffffffff1681526020019081526020015f2054600c5f3373ffffffffffffffffffffffffffffffffffffffff1673ffffffffffffffffffffffffffffffffffffffff1681526020019081526020015f205411610f52576040517f08c379a0000000000000000000000000000000000000000000000000000000008152600401610f499061179e565b60405180910390fd5b600373__gitorg________________________________638ee0cd2e8442336040518463ffffffff1660e01b8152600401610f8f93929190611b3d565b602060405180830381865af4158015610faa573d5f803e3d5ffd5b505050506040513d601f19601f82011682018060405250810190610fce9190611ba3565b908060018154018082558091505060019003905f5260205f20015f90919091909150557fcd41a3e784fc947ef5bbb922e2bd57447e5e3b389c45f5d24c210b1f82d7ebcc4260405161102091906111ca565b60405180910390a1429050919050565b5f90565b60025f9054906101000a900473ffffffffffffffffffffffffffffffffffffffff1673ffffffffffffffffffffffffffffffffffffffff163373ffffffffffffffffffffffffffffffffffffffff16146110c3576040517f08c379a00000000000000000000000000000000000000000000000000000000081526004016110ba90611ab9565b60405180910390fd5b42600c5f8373ffffffffffffffffffffffffffffffffffffffff1673ffffffffffffffffffffffffffffffffffffffff1681526020019081526020015f208190555050565b5f81519050919050565b5f82825260208201905092915050565b5f5b8381101561113f578082015181840152602081019050611124565b5f8484015250505050565b5f601f19601f8301169050919050565b5f61116482611108565b61116e8185611112565b935061117e818560208601611122565b6111878161114a565b840191505092915050565b5f6020820190508181035f8301526111aa818461115a565b905092915050565b5f819050919050565b6111c4816111b2565b82525050565b5f6020820190506111dd5f8301846111bb565b92915050565b5f604051905090565b5f80fd5b5f80fd5b5f73ffffffffffffffffffffffffffffffffffffffff82169050919050565b5f61121d826111f4565b9050919050565b61122d81611213565b8114611237575f80fd5b50565b5f8135905061124881611224565b92915050565b5f60208284031215611263576112626111ec565b5b5f6112708482850161123a565b91505092915050565b61128281611213565b82525050565b5f60208201905061129b5f830184611279565b92915050565b5f80fd5b5f80fd5b7f4e487b71000000000000000000000000000000000000000000000000000000005f52604160045260245ffd5b6112df8261114a565b810181811067ffffffffffffffff821117156112fe576112fd6112a9565b5b80604052505050565b5f6113106111e3565b905061131c82826112d6565b919050565b5f67ffffffffffffffff82111561133b5761133a6112a9565b5b6113448261114a565b9050602081019050919050565b828183375f83830152505050565b5f61137161136c84611321565b611307565b90508281526020810184848401111561138d5761138c6112a5565b5b611398848285611351565b509392505050565b5f82601f8301126113b4576113b36112a1565b5b81356113c484826020860161135f565b91505092915050565b6113d6816111b2565b81146113e0575f80fd5b50565b5f813590506113f1816113cd565b92915050565b5f806040838503121561140d5761140c6111ec565b5b5f83013567ffffffffffffffff81111561142a576114296111f0565b5b611436858286016113a0565b9250506020611447858286016113e3565b9150509250929050565b5f819050919050565b61146381611451565b82525050565b5f60208201905061147c5f83018461145a565b92915050565b5f61148c826111f4565b9050919050565b61149c81611482565b81146114a6575f80fd5b50565b5f813590506114b781611493565b92915050565b5f80604083850312156114d3576114d26111ec565b5b5f6114e0858286016114a9565b92505060206114f1858286016113e3565b9150509250929050565b5f61150582611213565b9050919050565b611515816114fb565b811461151f575f80fd5b50565b5f813590506115308161150c565b92915050565b5f806040838503121561154c5761154b6111ec565b5b5f61155985828601611522565b925050602061156a8582860161123a565b9150509250929050565b5f60208284031215611589576115886111ec565b5b5f611596848285016113e3565b91505092915050565b5f805f606084860312156115b6576115b56111ec565b5b5f6115c38682870161123a565b93505060206115d4868287016114a9565b92505060406115e5868287016113e3565b9150509250925092565b5f8115159050919050565b611603816115ef565b811461160d575f80fd5b50565b5f8135905061161e816115fa565b92915050565b5f806040838503121561163a576116396111ec565b5b5f6116478582860161123a565b925050602061165885828601611610565b9150509250929050565b5f60208284031215611677576116766111ec565b5b5f82013567ffffffffffffffff811115611694576116936111f0565b5b6116a0848285016113a0565b91505092915050565b6116b2816115ef565b82525050565b5f6020820190506116cb5f8301846116a9565b92915050565b7f4e487b71000000000000000000000000000000000000000000000000000000005f52602260045260245ffd5b5f600282049050600182168061171557607f821691505b602082108103611728576117276116d1565b5b50919050565b7f7468652073656e64657227732074696d657374616d7020776173207265766f6b5f8201527f6564206d6f726520726563656e746c7900000000000000000000000000000000602082015250565b5f611788603083611112565b91506117938261172e565b604082019050919050565b5f6020820190508181035f8301526117b58161177c565b9050919050565b7f4e487b71000000000000000000000000000000000000000000000000000000005f52601160045260245ffd5b5f6117f3826111b2565b91506117fe836111b2565b9250828201905080821115611816576118156117bc565b5b92915050565b5f81905092915050565b5f61183082611108565b61183a818561181c565b935061184a818560208601611122565b80840191505092915050565b5f819050919050565b61187061186b826111b2565b611856565b82525050565b5f8160601b9050919050565b5f61188c82611876565b9050919050565b5f61189d82611882565b9050919050565b6118b56118b082611213565b611893565b82525050565b5f6118c68286611826565b91506118d2828561185f565b6020820191506118e282846118a4565b601482019150819050949350505050565b7f766572696669636174696f6e2061646472657373206973206e6f7420637265615f8201527f746f720000000000000000000000000000000000000000000000000000000000602082015250565b5f61194d602383611112565b9150611958826118f3565b604082019050919050565b5f6020820190508181035f83015261197a81611941565b9050919050565b7f4e487b71000000000000000000000000000000000000000000000000000000005f52603260045260245ffd5b5f819050919050565b5f6119d16119cc6119c7846111f4565b6119ae565b6111f4565b9050919050565b5f6119e2826119b7565b9050919050565b5f6119f3826119d8565b9050919050565b611a03816119e9565b82525050565b5f604082019050611a1c5f8301856119fa565b611a2960208301846111bb565b9392505050565b5f81519050611a3e816115fa565b92915050565b5f60208284031215611a5957611a586111ec565b5b5f611a6684828501611a30565b91505092915050565b7f6f776e65722061757468206661696c75726500000000000000000000000000005f82015250565b5f611aa3601283611112565b9150611aae82611a6f565b602082019050919050565b5f6020820190508181035f830152611ad081611a97565b9050919050565b5f82825260208201905092915050565b5f611af182611108565b611afb8185611ad7565b9350611b0b818560208601611122565b611b148161114a565b840191505092915050565b611b28816111b2565b82525050565b611b3781611213565b82525050565b5f6060820190508181035f830152611b558186611ae7565b9050611b646020830185611b1f565b611b716040830184611b2e565b949350505050565b611b8281611451565b8114611b8c575f80fd5b50565b5f81519050611b9d81611b79565b92915050565b5f60208284031215611bb857611bb76111ec565b5b5f611bc584828501611b8f565b9150509291505056fea26469706673582212208fdaf7cab841c42b24afd66a325be7966fb2feef07c878ff086ef9d2e9f0bced64736f6c63430008140033",
  "immutableReferences": {},
  "source": "// SPDX-License-Identifier: UNLICENSED\n// REVIEW - change to unlicense (unlinsenced?) \n// Public Information Transaction System(s)\n// Content/Media Distribution Placement/Network\npragma solidity >= \"0.8.18\";\n\nimport \"../gitarray.sol\";\nimport \"../gitarg.sol\";\n\nimport \"./Commit.sol\";\nimport \"../libraries/gitorg.sol\";\n\ncontract Repo {\n\n  string public name;\n  string public url;\n  address public owner;\n  bytes32[] private hash;\n  address private array;\n  address private arg;\n  mapping(address => uint) private buyerContributions;\n  address[] private buyers;\n  uint public value;\n  Commit[] commits;\n  mapping (address => Commit) contributorCommits;\n\n  // \n  address private creator; \n  bool private flag;\n  mapping(address => uint) public allowed;\n  // workers rights\n  mapping(address => uint) private revoked;\n\n  event Stamp(bytes32 hash);\n  event Timestamp(uint timestamp);\n\n  modifier seller (address payable _seller) {\n    require(msg.sender == owner && _seller == owner, \"owner-seller auth failure\");\n    _;\n  }\n  modifier owned () {\n    require(msg.sender == owner, \"owner auth failure\");\n    _;\n  }\n  modifier created () {\n    require(msg.sender == creator, \"creator auth failure\");\n    _;\n  }\n  modifier auth () {\n    // \n    require(allowed[msg.sender] > revoked[msg.sender], \"the sender's timestamp was revoked more recently\");\n    _;\n  }\n  function allow (address _allow) public owned  {\n    allowed[_allow] = block.timestamp;\n  }\n  function revoke (address _disallow, bool clean) public owned {\n    if (clean) allowed[_disallow] = 1; // 1 makes them still appear on the list if queried directly for the name\n    revoked[_disallow] = block.timestamp;\n  }\n  constructor(string memory _name, string memory _url, address _owner, address _gitarg, address _gitarray) payable {\n    gitarray(_gitarray);\n    if(_gitarray != msg.sender) flag = true;\n    creator = msg.sender;\n    name = _name;\n    url = _url;\n    owner = _owner;\n    array = msg.sender;\n    arg = _gitarg;\n    value = msg.value;\n    // TODO - gitarray compare for url\n    allowed[msg.sender] = block.timestamp;\n    allowed[_owner] = block.timestamp;\n    allowed[creator] = block.timestamp;\n    hash.push(keccak256(abi.encodePacked(url, block.timestamp, msg.sender)));\n  }\n  // REVIEW - should the stamp check for gitarray\n  function stamp(string memory _hash) public auth returns (uint) {\n    hash.push(gitorg.stamp(_hash, block.timestamp, msg.sender));\n    emit Timestamp(block.timestamp);\n    return block.timestamp;\n  }\n  function _stamp(string memory _hash, uint timestamp) public auth returns (bytes32) {\n    bytes32 hash_ = keccak256(abi.encodePacked(_hash, timestamp, msg.sender));\n    emit Stamp(hash_);\n    return hash_;\n  }\n  // defaults to 0\n  function verification(uint iteration) public auth returns (bytes32) {\n    // REVIEW - can call gitarg directly?\n    bytes32 hash_ = hash[iteration];\n    emit Stamp(hash_);\n    return hash_;\n  }\n  // verify with gitarray address also verified\n  function verification(address payable _gitarray, uint iteration) public auth returns (bytes32) {\n    require(_gitarray == creator, \"verification address is not creator\");\n    // REVIEW - can call gitarg directly?\n    bytes32 hash_ = hash[iteration];\n    emit Stamp(hash_);\n    return hash_;\n  }\n  function verify() public view returns (bool) {\n    return false;\n  }\n  function commit(Commit _commit, address sender) public returns(uint) {\n    commits.push(_commit);//i\n    contributorCommits[sender] = _commit;\n    return block.timestamp;\n  }\n  /*\n  function _sell(address _owner, address payable _seller, uint _value) internal {\n    require(_value <= value, \"value transfer is less than amount in contract\");\n    // REVIEW - ledger should be enough - gitarg integration may change this in layer 4-5\n    for (uint i = 0; i < buyers.length; i++) {\n      buyerContributions[buyers[i]] = 0;\n    }\n    delete buyers;\n    value -= _value;\n    _seller.transfer(_value);\n    owner = _owner;\n  }\n  // TODO - ?\n  function sell(address _owner, address payable _seller, uint _value) public seller(_seller) {\n    _sell(_owner, _seller, _value);\n  }\n  */\n  // if it is a bid change from += to = for [msg.sender]\n  function add() payable public {\n    if(buyerContributions[msg.sender] == 0) buyers.push(msg.sender);\n    buyerContributions[msg.sender] += msg.value; \n    value += msg.value;\n  }\n  /*\n  // sell by value of buyer (_owner)\n  function safeSell(address _owner, address payable _seller, uint _value) public seller(_seller) {\n    for(uint i = 0; i < buyers.length; i++) {\n      uint amount = buyerContributions[buyers[i]];\n      if (_value == amount) {\n        require(buyers[i] == _owner);\n        _sell(_owner, _seller, _value);\n        break;\n      }\n    }   \n  }\n  // REVIEW - query functions in different standard?\n  // REVIEW - private?\n  function high() public view returns (uint) {\n    uint _amount;\n    for(uint i = 0; i < buyers.length; i++) {\n      uint amount = buyerContributions[buyers[i]];\n      if (amount >= _amount) {\n        _amount = amount;\n      }\n    }\n    return _amount;\n  }\n  // REVIEW - ethics\n  function high(address payable _seller) public view seller(_seller) returns (address) {\n    uint _amount;\n    address _owner;\n    for(uint i = 0; i < buyers.length; i++) {\n      uint amount = buyerContributions[buyers[i]];\n      if (_amount < amount) {\n        _amount = amount;\n        _owner = buyers[i];\n      }\n    }\n    return _owner;\n  }\n  // sell by highest value\n  function highSell(address payable _seller) public seller(_seller) {\n    uint _amount;\n    address _owner;\n    for(uint i = 0; i < buyers.length; i++) {\n      uint amount = buyerContributions[buyers[i]];\n      if (_amount < amount) {\n        _amount = amount;\n        _owner = buyers[i];\n      }\n    }\n    // we don't care about the bid, just the highest value\n    _sell(_owner, _seller, _amount);\n  }\n  */\n  function _buyerContributions(address buyer) public view auth returns (uint) {\n    return buyerContributions[buyer];\n  }\n  //function approve(address _gitarg, address payable _wallet) public auth {\n  function approve(address _gitarg, address payable _wallet, uint value) public auth {\n    //gitorg.approve(_gitarg, _wallet, value);\n    gitarg Gitarg = gitarg(_gitarg);\n    Gitarg.approve(_wallet, value);\n  }\n  // TODO - move the buying/selling repo to gitarray\n  // TODO - add approve syntax for worker/coder/repo cycle\n}\n",
  "sourcePath": "/Users/davidkamer/gitarg_eth_ico/contracts/objects/Repo.sol",
  "compiler": {
    "name": "solc",
    "version": "0.8.20+commit.a1b79de6.Emscripten.clang"
  },
  "schemaVersion": "3.4.16",
  "updatedAt": "2023-11-10T08:07:08.513Z",
  "networkType": "ethereum",
  "devdoc": {
    "kind": "dev",
    "methods": {},
    "version": 1
  },
  "userdoc": {
    "kind": "user",
    "methods": {},
    "version": 1
  }
}