{
  "contractName": "rig",
  "abi": [
    {
      "inputs": [
        {
          "internalType": "address",
          "name": "_gitarg",
          "type": "address"
        },
        {
          "internalType": "uint256",
          "name": "_buy",
          "type": "uint256"
        },
        {
          "internalType": "uint256",
          "name": "_sell",
          "type": "uint256"
        }
      ],
      "stateMutability": "nonpayable",
      "type": "constructor"
    },
    {
      "anonymous": false,
      "inputs": [
        {
          "indexed": false,
          "internalType": "bool",
          "name": "compare",
          "type": "bool"
        }
      ],
      "name": "Bool",
      "type": "event"
    },
    {
      "anonymous": false,
      "inputs": [
        {
          "indexed": false,
          "internalType": "uint256",
          "name": "gas",
          "type": "uint256"
        }
      ],
      "name": "Debug",
      "type": "event"
    },
    {
      "inputs": [
        {
          "internalType": "address",
          "name": "",
          "type": "address"
        }
      ],
      "name": "buffer",
      "outputs": [
        {
          "internalType": "uint256",
          "name": "",
          "type": "uint256"
        }
      ],
      "stateMutability": "view",
      "type": "function",
      "constant": true
    },
    {
      "inputs": [],
      "name": "buy",
      "outputs": [
        {
          "internalType": "uint256",
          "name": "",
          "type": "uint256"
        }
      ],
      "stateMutability": "view",
      "type": "function",
      "constant": true
    },
    {
      "inputs": [],
      "name": "creator",
      "outputs": [
        {
          "internalType": "address",
          "name": "",
          "type": "address"
        }
      ],
      "stateMutability": "view",
      "type": "function",
      "constant": true
    },
    {
      "inputs": [
        {
          "internalType": "address",
          "name": "",
          "type": "address"
        }
      ],
      "name": "gate",
      "outputs": [
        {
          "internalType": "uint256",
          "name": "",
          "type": "uint256"
        }
      ],
      "stateMutability": "view",
      "type": "function",
      "constant": true
    },
    {
      "inputs": [],
      "name": "gitar_",
      "outputs": [
        {
          "internalType": "address",
          "name": "",
          "type": "address"
        }
      ],
      "stateMutability": "view",
      "type": "function",
      "constant": true
    },
    {
      "inputs": [],
      "name": "gitarg_",
      "outputs": [
        {
          "internalType": "address",
          "name": "",
          "type": "address"
        }
      ],
      "stateMutability": "view",
      "type": "function",
      "constant": true
    },
    {
      "inputs": [],
      "name": "sell",
      "outputs": [
        {
          "internalType": "uint256",
          "name": "",
          "type": "uint256"
        }
      ],
      "stateMutability": "view",
      "type": "function",
      "constant": true
    },
    {
      "inputs": [],
      "name": "stakem",
      "outputs": [
        {
          "internalType": "uint256",
          "name": "",
          "type": "uint256"
        }
      ],
      "stateMutability": "view",
      "type": "function",
      "constant": true
    },
    {
      "inputs": [],
      "name": "fund",
      "outputs": [
        {
          "internalType": "uint256",
          "name": "",
          "type": "uint256"
        }
      ],
      "stateMutability": "nonpayable",
      "type": "function"
    },
    {
      "inputs": [
        {
          "internalType": "uint256",
          "name": "amount",
          "type": "uint256"
        },
        {
          "internalType": "uint256",
          "name": "stiphen",
          "type": "uint256"
        }
      ],
      "name": "port",
      "outputs": [
        {
          "internalType": "uint256",
          "name": "",
          "type": "uint256"
        }
      ],
      "stateMutability": "payable",
      "type": "function",
      "payable": true
    },
    {
      "inputs": [
        {
          "internalType": "uint256",
          "name": "amount",
          "type": "uint256"
        },
        {
          "internalType": "uint256",
          "name": "stiphen",
          "type": "uint256"
        }
      ],
      "name": "star",
      "outputs": [
        {
          "internalType": "uint256",
          "name": "",
          "type": "uint256"
        }
      ],
      "stateMutability": "payable",
      "type": "function",
      "payable": true
    }
  ],
  "bytecode": "0x608060405234801562000010575f80fd5b5060405162003f2c38038062003f2c83398181016040528101906200003691906200060f565b335f806101000a81548173ffffffffffffffffffffffffffffffffffffffff021916908373ffffffffffffffffffffffffffffffffffffffff160217905550806001819055506001548210620000c3576040517f08c379a0000000000000000000000000000000000000000000000000000000008152600401620000ba90620006c6565b60405180910390fd5b8273ffffffffffffffffffffffffffffffffffffffff165f73ffffffffffffffffffffffffffffffffffffffff1603620001c657604051620001059062000556565b604051809103905ff0801580156200011f573d5f803e3d5ffd5b5060055f6101000a81548173ffffffffffffffffffffffffffffffffffffffff021916908373ffffffffffffffffffffffffffffffffffffffff16021790555060055f9054906101000a900473ffffffffffffffffffffffffffffffffffffffff1660075f6101000a81548173ffffffffffffffffffffffffffffffffffffffff021916908373ffffffffffffffffffffffffffffffffffffffff16021790555062000247565b8260055f6101000a81548173ffffffffffffffffffffffffffffffffffffffff021916908373ffffffffffffffffffffffffffffffffffffffff1602179055508260075f6101000a81548173ffffffffffffffffffffffffffffffffffffffff021916908373ffffffffffffffffffffffffffffffffffffffff1602179055505b60075f9054906101000a900473ffffffffffffffffffffffffffffffffffffffff16600154600360055f9054906101000a900473ffffffffffffffffffffffffffffffffffffffff1673ffffffffffffffffffffffffffffffffffffffff166318160ddd6040518163ffffffff1660e01b8152600401602060405180830381865afa158015620002d9573d5f803e3d5ffd5b505050506040513d601f19601f82011682018060405250810190620002ff9190620006e6565b6200030b919062000743565b60036040516200031b9062000564565b6200032a9493929190620007e6565b604051809103905ff08015801562000344573d5f803e3d5ffd5b5060045f6101000a81548173ffffffffffffffffffffffffffffffffffffffff021916908373ffffffffffffffffffffffffffffffffffffffff16021790555060045f9054906101000a900473ffffffffffffffffffffffffffffffffffffffff1660065f6101000a81548173ffffffffffffffffffffffffffffffffffffffff021916908373ffffffffffffffffffffffffffffffffffffffff1602179055508160028190555060055f9054906101000a900473ffffffffffffffffffffffffffffffffffffffff1673ffffffffffffffffffffffffffffffffffffffff1663095ea7b360045f9054906101000a900473ffffffffffffffffffffffffffffffffffffffff16600360055f9054906101000a900473ffffffffffffffffffffffffffffffffffffffff1673ffffffffffffffffffffffffffffffffffffffff166318160ddd6040518163ffffffff1660e01b8152600401602060405180830381865afa158015620004b8573d5f803e3d5ffd5b505050506040513d601f19601f82011682018060405250810190620004de9190620006e6565b620004ea919062000743565b6040518363ffffffff1660e01b81526004016200050992919062000831565b6020604051808303815f875af115801562000526573d5f803e3d5ffd5b505050506040513d601f19601f820116820180604052508101906200054c919062000896565b50505050620008c6565b6112ce8062001e9683390190565b610dc8806200316483390190565b5f80fd5b5f73ffffffffffffffffffffffffffffffffffffffff82169050919050565b5f620005a18262000576565b9050919050565b620005b38162000595565b8114620005be575f80fd5b50565b5f81519050620005d181620005a8565b92915050565b5f819050919050565b620005eb81620005d7565b8114620005f6575f80fd5b50565b5f815190506200060981620005e0565b92915050565b5f805f6060848603121562000629576200062862000572565b5b5f6200063886828701620005c1565b93505060206200064b86828701620005f9565b92505060406200065e86828701620005f9565b9150509250925092565b5f82825260208201905092915050565b7f63686573740000000000000000000000000000000000000000000000000000005f82015250565b5f620006ae60058362000668565b9150620006bb8262000678565b602082019050919050565b5f6020820190508181035f830152620006df81620006a0565b9050919050565b5f60208284031215620006fe57620006fd62000572565b5b5f6200070d84828501620005f9565b91505092915050565b7f4e487b71000000000000000000000000000000000000000000000000000000005f52601260045260245ffd5b5f6200074f82620005d7565b91506200075c83620005d7565b9250826200076f576200076e62000716565b5b828204905092915050565b620007858162000595565b82525050565b6200079681620005d7565b82525050565b5f819050919050565b5f819050919050565b5f620007ce620007c8620007c2846200079c565b620007a5565b620005d7565b9050919050565b620007e081620007ae565b82525050565b5f608082019050620007fb5f8301876200077a565b6200080a60208301866200078b565b6200081960408301856200078b565b620008286060830184620007d5565b95945050505050565b5f604082019050620008465f8301856200077a565b6200085560208301846200078b565b9392505050565b5f8115159050919050565b62000872816200085c565b81146200087d575f80fd5b50565b5f81519050620008908162000867565b92915050565b5f60208284031215620008ae57620008ad62000572565b5b5f620008bd8482850162000880565b91505092915050565b6115c280620008d45f395ff3fe60806040526004361061009b575f3560e01c8063a6f2ae3a11610063578063a6f2ae3a14610183578063ae42362c146101ad578063b60d4288146101dd578063d6640ca814610207578063dbdd26f214610243578063e31a9011146102735761009b565b806302d05d3f1461009f57806326385f38146100c957806328231c55146100f3578063457100741461011d57806372e3ddaa14610147575b5f80fd5b3480156100aa575f80fd5b506100b361029d565b6040516100c09190610e7a565b60405180910390f35b3480156100d4575f80fd5b506100dd6102c0565b6040516100ea9190610eab565b60405180910390f35b3480156100fe575f80fd5b506101076102c6565b6040516101149190610e7a565b60405180910390f35b348015610128575f80fd5b506101316102eb565b60405161013e9190610eab565b60405180910390f35b348015610152575f80fd5b5061016d60048036038101906101689190610ef2565b6102f1565b60405161017a9190610eab565b60405180910390f35b34801561018e575f80fd5b50610197610306565b6040516101a49190610eab565b60405180910390f35b6101c760048036038101906101c29190610f47565b61030c565b6040516101d49190610eab565b60405180910390f35b3480156101e8575f80fd5b506101f16108a0565b6040516101fe9190610eab565b60405180910390f35b348015610212575f80fd5b5061022d60048036038101906102289190610ef2565b610a02565b60405161023a9190610eab565b60405180910390f35b61025d60048036038101906102589190610f47565b610a17565b60405161026a9190610eab565b60405180910390f35b34801561027e575f80fd5b50610287610e16565b6040516102949190610e7a565b60405180910390f35b5f8054906101000a900473ffffffffffffffffffffffffffffffffffffffff1681565b60035481565b60065f9054906101000a900473ffffffffffffffffffffffffffffffffffffffff1681565b60015481565b6008602052805f5260405f205f915090505481565b60025481565b5f81805a11610350576040517f08c379a000000000000000000000000000000000000000000000000000000000815260040161034790610fdf565b60405180910390fd5b5f60085f3373ffffffffffffffffffffffffffffffffffffffff1673ffffffffffffffffffffffffffffffffffffffff1681526020019081526020015f205490505f848261039e919061102a565b116103de576040517f08c379a00000000000000000000000000000000000000000000000000000000081526004016103d5906110a7565b60405180910390fd5b5f84600254876103ee91906110c5565b6103f89190611106565b90508482610406919061102a565b60085f3373ffffffffffffffffffffffffffffffffffffffff1673ffffffffffffffffffffffffffffffffffffffff1681526020019081526020015f20819055505f60095f3373ffffffffffffffffffffffffffffffffffffffff1673ffffffffffffffffffffffffffffffffffffffff1681526020019081526020015f205414801561049e57506001858361049c919061102a565b145b1561057e5760045f9054906101000a900473ffffffffffffffffffffffffffffffffffffffff1673ffffffffffffffffffffffffffffffffffffffff16631ff3cc52336040518263ffffffff1660e01b81526004016104fd9190610e7a565b602060405180830381865afa158015610518573d5f803e3d5ffd5b505050506040513d601f19601f8201168201806040525081019061053c919061114d565b60095f3373ffffffffffffffffffffffffffffffffffffffff1673ffffffffffffffffffffffffffffffffffffffff1681526020019081526020015f20819055505b8560095f3373ffffffffffffffffffffffffffffffffffffffff1673ffffffffffffffffffffffffffffffffffffffff1681526020019081526020015f205f8282546105ca919061102a565b925050819055505f60095f3373ffffffffffffffffffffffffffffffffffffffff1673ffffffffffffffffffffffffffffffffffffffff1681526020019081526020015f20541015610651576040517f08c379a0000000000000000000000000000000000000000000000000000000008152600401610648906111c2565b60405180910390fd5b3373ffffffffffffffffffffffffffffffffffffffff166108fc8290811502906040515f60405180830381858888f19350505050158015610694573d5f803e3d5ffd5b5060055f9054906101000a900473ffffffffffffffffffffffffffffffffffffffff1673ffffffffffffffffffffffffffffffffffffffff166323b872dd60045f9054906101000a900473ffffffffffffffffffffffffffffffffffffffff1673ffffffffffffffffffffffffffffffffffffffff16638da5cb5b6040518163ffffffff1660e01b8152600401602060405180830381865afa15801561073c573d5f803e3d5ffd5b505050506040513d601f19601f8201168201806040525081019061076091906111f4565b33886040518463ffffffff1660e01b81526004016107809392919061121f565b6020604051808303815f875af115801561079c573d5f803e3d5ffd5b505050506040513d601f19601f820116820180604052508101906107c09190611289565b50600160085f3373ffffffffffffffffffffffffffffffffffffffff1673ffffffffffffffffffffffffffffffffffffffff1681526020019081526020015f205f82825461080e919061102a565b92505081905550845a10610857576040517f08c379a000000000000000000000000000000000000000000000000000000000815260040161084e906112fe565b60405180910390fd5b60085f3373ffffffffffffffffffffffffffffffffffffffff1673ffffffffffffffffffffffffffffffffffffffff1681526020019081526020015f2054935050505092915050565b5f805f9054906101000a900473ffffffffffffffffffffffffffffffffffffffff1673ffffffffffffffffffffffffffffffffffffffff163373ffffffffffffffffffffffffffffffffffffffff161461092f576040517f08c379a000000000000000000000000000000000000000000000000000000000815260040161092690611366565b60405180910390fd5b60045f9054906101000a900473ffffffffffffffffffffffffffffffffffffffff1673ffffffffffffffffffffffffffffffffffffffff1663cf3090126040518163ffffffff1660e01b8152600401602060405180830381865afa158015610999573d5f803e3d5ffd5b505050506040513d601f19601f820116820180604052508101906109bd9190611289565b6109fc576040517f08c379a00000000000000000000000000000000000000000000000000000000081526004016109f3906113ce565b60405180910390fd5b42905090565b6009602052805f5260405f205f915090505481565b5f81805a11610a5b576040517f08c379a0000000000000000000000000000000000000000000000000000000008152600401610a5290610fdf565b60405180910390fd5b5f60045f9054906101000a900473ffffffffffffffffffffffffffffffffffffffff1673ffffffffffffffffffffffffffffffffffffffff16631ff3cc52336040518263ffffffff1660e01b8152600401610ab69190610e7a565b602060405180830381865afa158015610ad1573d5f803e3d5ffd5b505050506040513d601f19601f82011682018060405250810190610af5919061114d565b905084811015610b3a576040517f08c379a0000000000000000000000000000000000000000000000000000000008152600401610b3190611436565b60405180910390fd5b5f60085f3373ffffffffffffffffffffffffffffffffffffffff1673ffffffffffffffffffffffffffffffffffffffff1681526020019081526020015f20541480610c0a575060085f3373ffffffffffffffffffffffffffffffffffffffff1673ffffffffffffffffffffffffffffffffffffffff1681526020019081526020015f20548510158015610c0957505f60085f3373ffffffffffffffffffffffffffffffffffffffff1673ffffffffffffffffffffffffffffffffffffffff1681526020019081526020015f2054145b5b610c49576040517f08c379a0000000000000000000000000000000000000000000000000000000008152600401610c409061149e565b60405180910390fd5b84600254600154610c5a919061102a565b610c6491906110c5565b60085f3373ffffffffffffffffffffffffffffffffffffffff1673ffffffffffffffffffffffffffffffffffffffff1681526020019081526020015f20819055505f60085f3373ffffffffffffffffffffffffffffffffffffffff1673ffffffffffffffffffffffffffffffffffffffff1681526020019081526020015f20549050848586610cf391906110c5565b610cfd919061102a565b8110610d3e576040517f08c379a0000000000000000000000000000000000000000000000000000000008152600401610d3590611506565b60405180910390fd5b8485610d4a91906110c5565b3414610d8b576040517f08c379a0000000000000000000000000000000000000000000000000000000008152600401610d829061156e565b60405180910390fd5b845a10610dcd576040517f08c379a0000000000000000000000000000000000000000000000000000000008152600401610dc4906112fe565b60405180910390fd5b60085f3373ffffffffffffffffffffffffffffffffffffffff1673ffffffffffffffffffffffffffffffffffffffff1681526020019081526020015f2054935050505092915050565b60075f9054906101000a900473ffffffffffffffffffffffffffffffffffffffff1681565b5f73ffffffffffffffffffffffffffffffffffffffff82169050919050565b5f610e6482610e3b565b9050919050565b610e7481610e5a565b82525050565b5f602082019050610e8d5f830184610e6b565b92915050565b5f819050919050565b610ea581610e93565b82525050565b5f602082019050610ebe5f830184610e9c565b92915050565b5f80fd5b610ed181610e5a565b8114610edb575f80fd5b50565b5f81359050610eec81610ec8565b92915050565b5f60208284031215610f0757610f06610ec4565b5b5f610f1484828501610ede565b91505092915050565b610f2681610e93565b8114610f30575f80fd5b50565b5f81359050610f4181610f1d565b92915050565b5f8060408385031215610f5d57610f5c610ec4565b5b5f610f6a85828601610f33565b9250506020610f7b85828601610f33565b9150509250929050565b5f82825260208201905092915050565b7f67617320746f20737461727400000000000000000000000000000000000000005f82015250565b5f610fc9600c83610f85565b9150610fd482610f95565b602082019050919050565b5f6020820190508181035f830152610ff681610fbd565b9050919050565b7f4e487b71000000000000000000000000000000000000000000000000000000005f52601160045260245ffd5b5f61103482610e93565b915061103f83610e93565b925082820390508181111561105757611056610ffd565b5b92915050565b7f73616665207374697068656e20666f7220636f6e7472616374000000000000005f82015250565b5f611091601983610f85565b915061109c8261105d565b602082019050919050565b5f6020820190508181035f8301526110be81611085565b9050919050565b5f6110cf82610e93565b91506110da83610e93565b92508282026110e881610e93565b915082820484148315176110ff576110fe610ffd565b5b5092915050565b5f61111082610e93565b915061111b83610e93565b925082820190508082111561113357611132610ffd565b5b92915050565b5f8151905061114781610f1d565b92915050565b5f6020828403121561116257611161610ec4565b5b5f61116f84828501611139565b91505092915050565b7f636c6f73656400000000000000000000000000000000000000000000000000005f82015250565b5f6111ac600683610f85565b91506111b782611178565b602082019050919050565b5f6020820190508181035f8301526111d9816111a0565b9050919050565b5f815190506111ee81610ec8565b92915050565b5f6020828403121561120957611208610ec4565b5b5f611216848285016111e0565b91505092915050565b5f6060820190506112325f830186610e6b565b61123f6020830185610e6b565b61124c6040830184610e9c565b949350505050565b5f8115159050919050565b61126881611254565b8114611272575f80fd5b50565b5f815190506112838161125f565b92915050565b5f6020828403121561129e5761129d610ec4565b5b5f6112ab84828501611275565b91505092915050565b7f67617320746f2073746f700000000000000000000000000000000000000000005f82015250565b5f6112e8600b83610f85565b91506112f3826112b4565b602082019050919050565b5f6020820190508181035f830152611315816112dc565b9050919050565b7f6f7267616e20666c7573680000000000000000000000000000000000000000005f82015250565b5f611350600b83610f85565b915061135b8261131c565b602082019050919050565b5f6020820190508181035f83015261137d81611344565b9050919050565b7f7361696c206f76657200000000000000000000000000000000000000000000005f82015250565b5f6113b8600983610f85565b91506113c382611384565b602082019050919050565b5f6020820190508181035f8301526113e5816113ac565b9050919050565b7f74726561737572652063686573740000000000000000000000000000000000005f82015250565b5f611420600e83610f85565b915061142b826113ec565b602082019050919050565b5f6020820190508181035f83015261144d81611414565b9050919050565b7f706172726f742773206b656570000000000000000000000000000000000000005f82015250565b5f611488600d83610f85565b915061149382611454565b602082019050919050565b5f6020820190508181035f8301526114b58161147c565b9050919050565b7f6f726500000000000000000000000000000000000000000000000000000000005f82015250565b5f6114f0600383610f85565b91506114fb826114bc565b602082019050919050565b5f6020820190508181035f83015261151d816114e4565b9050919050565b7f67617300000000000000000000000000000000000000000000000000000000005f82015250565b5f611558600383610f85565b915061156382611524565b602082019050919050565b5f6020820190508181035f8301526115858161154c565b905091905056fea2646970667358221220a70adb4e03e00e644e7436caadb48db1ccf4ece19b58a909d4d7d80f1c1af73964736f6c634300081400336080604052683635c9adc5dea0000060035534801561001c575f80fd5b5060035460015f3373ffffffffffffffffffffffffffffffffffffffff1673ffffffffffffffffffffffffffffffffffffffff1681526020019081526020015f20819055506112608061006e5f395ff3fe608060405234801561000f575f80fd5b50600436106100a7575f3560e01c806370a082311161006f57806370a082311461016557806395d89b4114610195578063a69df4b5146101b3578063a9059cbb146101d1578063dd62ed3e14610201578063f83d08ba14610231576100a7565b806306fdde03146100ab578063095ea7b3146100c957806318160ddd146100f957806323b872dd14610117578063313ce56714610147575b5f80fd5b6100b361024f565b6040516100c09190610f60565b60405180910390f35b6100e360048036038101906100de9190611011565b61028c565b6040516100f09190611069565b60405180910390f35b61010161041e565b60405161010e9190611091565b60405180910390f35b610131600480360381019061012c91906110aa565b610427565b60405161013e9190611069565b60405180910390f35b61014f61086f565b60405161015c9190611115565b60405180910390f35b61017f600480360381019061017a919061112e565b610877565b60405161018c9190611091565b60405180910390f35b61019d610963565b6040516101aa9190610f60565b60405180910390f35b6101bb6109a0565b6040516101c89190611069565b60405180910390f35b6101eb60048036038101906101e69190611011565b610a44565b6040516101f89190611069565b60405180910390f35b61021b60048036038101906102169190611159565b610cb7565b6040516102289190611091565b60405180910390f35b610239610e31565b6040516102469190611069565b60405180910390f35b60606040518060400160405280600681526020017f6769746172670000000000000000000000000000000000000000000000000000815250905090565b5f60025f3373ffffffffffffffffffffffffffffffffffffffff1673ffffffffffffffffffffffffffffffffffffffff1681526020019081526020015f205f9054906101000a900460ff1615801561032b575060025f8473ffffffffffffffffffffffffffffffffffffffff1673ffffffffffffffffffffffffffffffffffffffff1681526020019081526020015f205f9054906101000a900460ff16155b610333575f80fd5b815f803373ffffffffffffffffffffffffffffffffffffffff1673ffffffffffffffffffffffffffffffffffffffff1681526020019081526020015f205f8573ffffffffffffffffffffffffffffffffffffffff1673ffffffffffffffffffffffffffffffffffffffff1681526020019081526020015f20819055508273ffffffffffffffffffffffffffffffffffffffff163373ffffffffffffffffffffffffffffffffffffffff167f8c5be1e5ebec7d5bd14f71427d1e84f3dd0314c0f7b2291e5b200ac8c7c3b9258460405161040c9190611091565b60405180910390a36001905092915050565b5f600354905090565b5f60025f3373ffffffffffffffffffffffffffffffffffffffff1673ffffffffffffffffffffffffffffffffffffffff1681526020019081526020015f205f9054906101000a900460ff161580156104c6575060025f8573ffffffffffffffffffffffffffffffffffffffff1673ffffffffffffffffffffffffffffffffffffffff1681526020019081526020015f205f9054906101000a900460ff16155b8015610519575060025f8473ffffffffffffffffffffffffffffffffffffffff1673ffffffffffffffffffffffffffffffffffffffff1681526020019081526020015f205f9054906101000a900460ff16155b610521575f80fd5b60015f8573ffffffffffffffffffffffffffffffffffffffff1673ffffffffffffffffffffffffffffffffffffffff1681526020019081526020015f205482111561056a575f80fd5b5f808573ffffffffffffffffffffffffffffffffffffffff1673ffffffffffffffffffffffffffffffffffffffff1681526020019081526020015f205f3373ffffffffffffffffffffffffffffffffffffffff1673ffffffffffffffffffffffffffffffffffffffff1681526020019081526020015f20548211156105ed575f80fd5b8160015f8673ffffffffffffffffffffffffffffffffffffffff1673ffffffffffffffffffffffffffffffffffffffff1681526020019081526020015f205461063691906111c4565b60015f8673ffffffffffffffffffffffffffffffffffffffff1673ffffffffffffffffffffffffffffffffffffffff1681526020019081526020015f2081905550815f808673ffffffffffffffffffffffffffffffffffffffff1673ffffffffffffffffffffffffffffffffffffffff1681526020019081526020015f205f3373ffffffffffffffffffffffffffffffffffffffff1673ffffffffffffffffffffffffffffffffffffffff1681526020019081526020015f20546106fa91906111c4565b5f808673ffffffffffffffffffffffffffffffffffffffff1673ffffffffffffffffffffffffffffffffffffffff1681526020019081526020015f205f3373ffffffffffffffffffffffffffffffffffffffff1673ffffffffffffffffffffffffffffffffffffffff1681526020019081526020015f20819055508160015f8573ffffffffffffffffffffffffffffffffffffffff1673ffffffffffffffffffffffffffffffffffffffff1681526020019081526020015f20546107be91906111f7565b60015f8573ffffffffffffffffffffffffffffffffffffffff1673ffffffffffffffffffffffffffffffffffffffff1681526020019081526020015f20819055508273ffffffffffffffffffffffffffffffffffffffff168473ffffffffffffffffffffffffffffffffffffffff167fddf252ad1be2c89b69c2b068fc378daa952ba7f163c4a11628f55a4df523b3ef8460405161085c9190611091565b60405180910390a3600190509392505050565b5f6006905090565b5f60025f3373ffffffffffffffffffffffffffffffffffffffff1673ffffffffffffffffffffffffffffffffffffffff1681526020019081526020015f205f9054906101000a900460ff16158015610916575060025f8373ffffffffffffffffffffffffffffffffffffffff1673ffffffffffffffffffffffffffffffffffffffff1681526020019081526020015f205f9054906101000a900460ff16155b61091e575f80fd5b60015f8373ffffffffffffffffffffffffffffffffffffffff1673ffffffffffffffffffffffffffffffffffffffff1681526020019081526020015f20549050919050565b60606040518060400160405280600381526020017f4749540000000000000000000000000000000000000000000000000000000000815250905090565b5f8060025f3373ffffffffffffffffffffffffffffffffffffffff1673ffffffffffffffffffffffffffffffffffffffff1681526020019081526020015f205f6101000a81548160ff02191690831515021790555060025f3373ffffffffffffffffffffffffffffffffffffffff1673ffffffffffffffffffffffffffffffffffffffff1681526020019081526020015f205f9054906101000a900460ff16905090565b5f60025f3373ffffffffffffffffffffffffffffffffffffffff1673ffffffffffffffffffffffffffffffffffffffff1681526020019081526020015f205f9054906101000a900460ff16158015610ae3575060025f8473ffffffffffffffffffffffffffffffffffffffff1673ffffffffffffffffffffffffffffffffffffffff1681526020019081526020015f205f9054906101000a900460ff16155b610aeb575f80fd5b60015f3373ffffffffffffffffffffffffffffffffffffffff1673ffffffffffffffffffffffffffffffffffffffff1681526020019081526020015f2054821115610b34575f80fd5b8160015f3373ffffffffffffffffffffffffffffffffffffffff1673ffffffffffffffffffffffffffffffffffffffff1681526020019081526020015f2054610b7d91906111c4565b60015f3373ffffffffffffffffffffffffffffffffffffffff1673ffffffffffffffffffffffffffffffffffffffff1681526020019081526020015f20819055508160015f8573ffffffffffffffffffffffffffffffffffffffff1673ffffffffffffffffffffffffffffffffffffffff1681526020019081526020015f2054610c0791906111f7565b60015f8573ffffffffffffffffffffffffffffffffffffffff1673ffffffffffffffffffffffffffffffffffffffff1681526020019081526020015f20819055508273ffffffffffffffffffffffffffffffffffffffff163373ffffffffffffffffffffffffffffffffffffffff167fddf252ad1be2c89b69c2b068fc378daa952ba7f163c4a11628f55a4df523b3ef84604051610ca59190611091565b60405180910390a36001905092915050565b5f60025f3373ffffffffffffffffffffffffffffffffffffffff1673ffffffffffffffffffffffffffffffffffffffff1681526020019081526020015f205f9054906101000a900460ff16158015610d56575060025f8473ffffffffffffffffffffffffffffffffffffffff1673ffffffffffffffffffffffffffffffffffffffff1681526020019081526020015f205f9054906101000a900460ff16155b8015610da9575060025f8373ffffffffffffffffffffffffffffffffffffffff1673ffffffffffffffffffffffffffffffffffffffff1681526020019081526020015f205f9054906101000a900460ff16155b610db1575f80fd5b5f808473ffffffffffffffffffffffffffffffffffffffff1673ffffffffffffffffffffffffffffffffffffffff1681526020019081526020015f205f8373ffffffffffffffffffffffffffffffffffffffff1673ffffffffffffffffffffffffffffffffffffffff1681526020019081526020015f2054905092915050565b5f600160025f3373ffffffffffffffffffffffffffffffffffffffff1673ffffffffffffffffffffffffffffffffffffffff1681526020019081526020015f205f6101000a81548160ff02191690831515021790555060025f3373ffffffffffffffffffffffffffffffffffffffff1673ffffffffffffffffffffffffffffffffffffffff1681526020019081526020015f205f9054906101000a900460ff16905090565b5f81519050919050565b5f82825260208201905092915050565b5f5b83811015610f0d578082015181840152602081019050610ef2565b5f8484015250505050565b5f601f19601f8301169050919050565b5f610f3282610ed6565b610f3c8185610ee0565b9350610f4c818560208601610ef0565b610f5581610f18565b840191505092915050565b5f6020820190508181035f830152610f788184610f28565b905092915050565b5f80fd5b5f73ffffffffffffffffffffffffffffffffffffffff82169050919050565b5f610fad82610f84565b9050919050565b610fbd81610fa3565b8114610fc7575f80fd5b50565b5f81359050610fd881610fb4565b92915050565b5f819050919050565b610ff081610fde565b8114610ffa575f80fd5b50565b5f8135905061100b81610fe7565b92915050565b5f806040838503121561102757611026610f80565b5b5f61103485828601610fca565b925050602061104585828601610ffd565b9150509250929050565b5f8115159050919050565b6110638161104f565b82525050565b5f60208201905061107c5f83018461105a565b92915050565b61108b81610fde565b82525050565b5f6020820190506110a45f830184611082565b92915050565b5f805f606084860312156110c1576110c0610f80565b5b5f6110ce86828701610fca565b93505060206110df86828701610fca565b92505060406110f086828701610ffd565b9150509250925092565b5f60ff82169050919050565b61110f816110fa565b82525050565b5f6020820190506111285f830184611106565b92915050565b5f6020828403121561114357611142610f80565b5b5f61115084828501610fca565b91505092915050565b5f806040838503121561116f5761116e610f80565b5b5f61117c85828601610fca565b925050602061118d85828601610fca565b9150509250929050565b7f4e487b71000000000000000000000000000000000000000000000000000000005f52601160045260245ffd5b5f6111ce82610fde565b91506111d983610fde565b92508282039050818111156111f1576111f0611197565b5b92915050565b5f61120182610fde565b915061120c83610fde565b925082820190508082111561122457611223611197565b5b9291505056fea2646970667358221220c7e0233ef730a0a72ccaba3fbf041786084a502beea248823c4c6a054f190e9164736f6c6343000814003360806040525f60045f6101000a81548160ff0219169083151502179055505f600460016101000a81548160ff02191690831515021790555034801562000043575f80fd5b5060405162000dc838038062000dc883398181016040528101906200006991906200020b565b806006819055508360025f6101000a81548173ffffffffffffffffffffffffffffffffffffffff021916908373ffffffffffffffffffffffffffffffffffffffff16021790555060036006541015620000d757600160045f6101000a81548160ff0219169083151502179055505b335f806101000a81548173ffffffffffffffffffffffffffffffffffffffff021916908373ffffffffffffffffffffffffffffffffffffffff1602179055508360015f6101000a81548173ffffffffffffffffffffffffffffffffffffffff021916908373ffffffffffffffffffffffffffffffffffffffff1602179055508260038190555081600581905550505050506200027a565b5f80fd5b5f73ffffffffffffffffffffffffffffffffffffffff82169050919050565b5f6200019d8262000172565b9050919050565b620001af8162000191565b8114620001ba575f80fd5b50565b5f81519050620001cd81620001a4565b92915050565b5f819050919050565b620001e781620001d3565b8114620001f2575f80fd5b50565b5f815190506200020581620001dc565b92915050565b5f805f80608085870312156200022657620002256200016e565b5b5f6200023587828801620001bd565b94505060206200024887828801620001f5565b93505060406200025b87828801620001f5565b92505060606200026e87828801620001f5565b91505092959194509250565b610b4080620002885f395ff3fe608060405260043610610085575f3560e01c806371ca337d1161005857806371ca337d146101435780638da5cb5b1461016d578063a035b1fe14610197578063cf309012146101c1578063e420264a146101eb57610085565b806303f2d8fe14610089578063186f0354146100b35780631ff3cc52146100dd57806342cde4e814610119575b5f80fd5b348015610094575f80fd5b5061009d61021b565b6040516100aa9190610739565b60405180910390f35b3480156100be575f80fd5b506100c7610240565b6040516100d4919061076c565b60405180910390f35b3480156100e8575f80fd5b5061010360048036038101906100fe91906107b3565b610252565b60405161011091906107f6565b60405180910390f35b348015610124575f80fd5b5061012d610298565b60405161013a91906107f6565b60405180910390f35b34801561014e575f80fd5b5061015761029e565b60405161016491906107f6565b60405180910390f35b348015610178575f80fd5b506101816102a4565b60405161018e9190610739565b60405180910390f35b3480156101a2575f80fd5b506101ab6102c7565b6040516101b891906107f6565b60405180910390f35b3480156101cc575f80fd5b506101d56102cd565b6040516101e2919061076c565b60405180910390f35b61020560048036038101906102009190610839565b6102e0565b604051610212919061076c565b60405180910390f35b60015f9054906101000a900473ffffffffffffffffffffffffffffffffffffffff1681565b60045f9054906101000a900460ff1681565b5f60075f8373ffffffffffffffffffffffffffffffffffffffff1673ffffffffffffffffffffffffffffffffffffffff1681526020019081526020015f20549050919050565b60055481565b60065481565b5f8054906101000a900473ffffffffffffffffffffffffffffffffffffffff1681565b60035481565b600460019054906101000a900460ff1681565b5f600460019054906101000a900460ff1615610331576040517f08c379a0000000000000000000000000000000000000000000000000000000008152600401610328906108be565b60405180910390fd5b60055460025f9054906101000a900473ffffffffffffffffffffffffffffffffffffffff1673ffffffffffffffffffffffffffffffffffffffff166370a082315f8054906101000a900473ffffffffffffffffffffffffffffffffffffffff166040518263ffffffff1660e01b81526004016103ad9190610739565b602060405180830381865afa1580156103c8573d5f803e3d5ffd5b505050506040513d601f19601f820116820180604052508101906103ec91906108f0565b1015610402576103fa6106bf565b5f90506106ba565b5f600354836104119190610948565b9050803414610455576040517f08c379a000000000000000000000000000000000000000000000000000000000815260040161044c906109d3565b60405180910390fd5b8260025f9054906101000a900473ffffffffffffffffffffffffffffffffffffffff1673ffffffffffffffffffffffffffffffffffffffff1663dd62ed3e5f8054906101000a900473ffffffffffffffffffffffffffffffffffffffff16306040518363ffffffff1660e01b81526004016104d19291906109f1565b602060405180830381865afa1580156104ec573d5f803e3d5ffd5b505050506040513d601f19601f8201168201806040525081019061051091906108f0565b1015610551576040517f08c379a000000000000000000000000000000000000000000000000000000000815260040161054890610a62565b60405180910390fd5b60025f9054906101000a900473ffffffffffffffffffffffffffffffffffffffff1673ffffffffffffffffffffffffffffffffffffffff166323b872dd5f8054906101000a900473ffffffffffffffffffffffffffffffffffffffff1633866040518463ffffffff1660e01b81526004016105ce93929190610a80565b6020604051808303815f875af11580156105ea573d5f803e3d5ffd5b505050506040513d601f19601f8201168201806040525081019061060e9190610adf565b505f8054906101000a900473ffffffffffffffffffffffffffffffffffffffff1673ffffffffffffffffffffffffffffffffffffffff166108fc3490811502906040515f60405180830381858888f19350505050158015610671573d5f803e3d5ffd5b508260075f3373ffffffffffffffffffffffffffffffffffffffff1673ffffffffffffffffffffffffffffffffffffffff1681526020019081526020015f208190555060019150505b919050565b600460019054906101000a900460ff16156106dd576106dc6106bf565b5b6001600460016101000a81548160ff021916908315150217905550565b5f73ffffffffffffffffffffffffffffffffffffffff82169050919050565b5f610723826106fa565b9050919050565b61073381610719565b82525050565b5f60208201905061074c5f83018461072a565b92915050565b5f8115159050919050565b61076681610752565b82525050565b5f60208201905061077f5f83018461075d565b92915050565b5f80fd5b61079281610719565b811461079c575f80fd5b50565b5f813590506107ad81610789565b92915050565b5f602082840312156107c8576107c7610785565b5b5f6107d58482850161079f565b91505092915050565b5f819050919050565b6107f0816107de565b82525050565b5f6020820190506108095f8301846107e7565b92915050565b610818816107de565b8114610822575f80fd5b50565b5f813590506108338161080f565b92915050565b5f6020828403121561084e5761084d610785565b5b5f61085b84828501610825565b91505092915050565b5f82825260208201905092915050565b7f4c6f636b650000000000000000000000000000000000000000000000000000005f82015250565b5f6108a8600583610864565b91506108b382610874565b602082019050919050565b5f6020820190508181035f8301526108d58161089c565b9050919050565b5f815190506108ea8161080f565b92915050565b5f6020828403121561090557610904610785565b5b5f610912848285016108dc565b91505092915050565b7f4e487b71000000000000000000000000000000000000000000000000000000005f52601160045260245ffd5b5f610952826107de565b915061095d836107de565b925082820261096b816107de565b915082820484148315176109825761098161091b565b5b5092915050565b7f70726963650000000000000000000000000000000000000000000000000000005f82015250565b5f6109bd600583610864565b91506109c882610989565b602082019050919050565b5f6020820190508181035f8301526109ea816109b1565b9050919050565b5f604082019050610a045f83018561072a565b610a11602083018461072a565b9392505050565b7f616c6c6f77616e636500000000000000000000000000000000000000000000005f82015250565b5f610a4c600983610864565b9150610a5782610a18565b602082019050919050565b5f6020820190508181035f830152610a7981610a40565b9050919050565b5f606082019050610a935f83018661072a565b610aa0602083018561072a565b610aad60408301846107e7565b949350505050565b610abe81610752565b8114610ac8575f80fd5b50565b5f81519050610ad981610ab5565b92915050565b5f60208284031215610af457610af3610785565b5b5f610b0184828501610acb565b9150509291505056fea2646970667358221220287c07d6df23f5cd3ae63ca682e6e0bd0b0c3ac2d91247961e9005b867159c4264736f6c63430008140033",
  "immutableReferences": {},
  "source": "// ISC\n// control token\n// there's a point of convergance where the buffer converges with the gas cover stipend\n// the value is the transaction capability and there is always slightly more backbone\n// this is due to the gas relation function and buffer (acts as program counter)\npragma solidity >= \"0.8.20\";\nimport \"./gitar.sol\";\nimport \"./gitarg.sol\";\nimport \"./libraries/gas.sol\";\n\n// use escrow to pay gas for spread of 0.90 - 1.20 (as an example). \n// rig like an oil rig\ncontract rig {\n    address public creator;\n    uint public sell;\n    uint public buy;\n    uint public stakem;\n    gitar tar; // REVIEW - access modifier\n    gitarg arg;\n    address public gitar_;\n    address public gitarg_;\n    // REVIEW - struct for transaction, probably not\n    mapping(address => uint) public buffer; // homework - what will buffer do?\n    mapping(address => uint) public gate; // gates close\n    // buffer rollover - remaining buffer used in gitar limiter\n    // booty can be for me or for you - max or min\n    // TODO - can I create a token interface for generic erc?\n    event Debug(uint gas);\n    event Bool(bool compare);\n    // await deployer.deploy(rig, arg.address, 90000, 100000)\n    constructor (address _gitarg, uint _buy, uint _sell) {\n        creator = msg.sender;\n        sell = _sell;\n        require(_buy < sell, \"chest\");\n        if (address(0) == _gitarg) {\n          arg = new gitarg();\n          gitarg_ = address(arg);\n        } else {\n          arg = gitarg(_gitarg);\n          gitarg_ = _gitarg;\n        }\n        // totalSupply is a variable to the network or chain (id)\n        tar = new gitar(gitarg_, sell, arg.totalSupply() / 3, 3);\n        gitar_ = address(tar);\n        buy = _buy;\n        // real code\n        arg.approve(address(tar), arg.totalSupply() / 3);\n        // test\n        //arg.approve(address(tar), arg.totalSupply());\n        // TODO - initiate gitar contract\n        // booty is the max take for the stake\n        // aaarrrggg\n    }\n    modifier start (uint stiphon) {\n        //bool gascheck = gas.check(uint(int(gasleft())), uint(int(tx.gasprice)), stiphon);\n        require(gasleft() > stiphon, \"gas to start\");\n        _;\n    }\n    function fund () public returns (uint) {\n      require(msg.sender == creator, \"organ flush\"); \n      require(tar.locked(), \"sail over\");\n      return block.timestamp;\n    }\n    function port (uint amount, uint stiphen) public payable start(stiphen) returns (uint) {\n        // left side, sell\n        // cannons return loot\n        //uint s = gasleft() * tx.gasprice;\n        uint purchased = tar.gg(msg.sender);\n        require(purchased >= amount, \"treasure chest\");\n        require(buffer[msg.sender] == 0 || (!(amount < buffer[msg.sender]) && buffer[msg.sender] == 0), \"parrot's keep\");\n        // (3 - 1) * 10 = 20 \n        buffer[msg.sender] = (sell - buy) * amount; // REVIEW - multiplier\n        uint buff = buffer[msg.sender];\n        //  3, 6\n        // gas minimization is profitability for node runner, if gas isn't directly paid to node runner\n        require(buff < (stiphen * stiphen) - stiphen, \"ore\"); // bridge level deflation mechanic\n        require(msg.value == stiphen * stiphen, \"gas\"); //U\n        require(gasleft() < stiphen, \"gas to stop\");\n        return buffer[msg.sender];\n    }\n\n    function star (uint amount, uint stiphen) public payable start(stiphen) returns (uint) {\n        // right side, buy\n        // balls rerun shoot\n        uint buff = buffer[msg.sender];\n        // if we use 1 as a flag in the buffer then we can lock the account\n        require(buff - stiphen > 0, \"safe stiphen for contract\"); //opens us up to higher prices for higher transacts - fight large sum instability problem\n        uint cost = (amount * buy) + stiphen; // contract (me) cost\n        // TODO - amount is in token and the buffer is the token number\n        // TODO - buy the token amount for the price, return the gas cost buffer in token ???\n        buffer[msg.sender] = buff - stiphen; // the stiphen is sent as gitarg token\n        // we haven't set the gate, buffer < s^2 - s, then can buffer - s == 1 to set the gate \n        if (gate[msg.sender] == 0 && (buff - stiphen) == 1) gate[msg.sender] = tar.gg(msg.sender);\n        // (s(g)^2 - s(g)) - s(g) ?= 1 if s(g) = s(x1) < g(x2);\n        gate[msg.sender] -= amount;\n        require(gate[msg.sender] >= 0, \"closed\");\n        payable(msg.sender).transfer(cost);\n        arg.transferFrom(tar.owner(), msg.sender, stiphen);\n        buffer[msg.sender] -= 1;\n        //require(gasleft() * tx.gasprice < tx.gasprice * 2);\n        require(gasleft() < stiphen, \"gas to stop\");\n        return buffer[msg.sender];\n    }\n} // rig, where mean and median converge\n",
  "sourcePath": "/home/gitarg/gitarg/solidity_ico/contracts/rig.sol",
  "compiler": {
    "name": "solc",
    "version": "0.8.20+commit.a1b79de6.Emscripten.clang"
  },
  "schemaVersion": "3.4.16",
  "updatedAt": "2024-03-06T12:50:18.540Z",
  "networkType": "ethereum",
  "devdoc": {
    "kind": "dev",
    "methods": {},
    "version": 1
  },
  "userdoc": {
    "kind": "user",
    "methods": {},
    "version": 1
  }
}