{
  "contractName": "rig",
  "abi": [
    {
      "inputs": [
        {
          "internalType": "uint256",
          "name": "_buy",
          "type": "uint256"
        },
        {
          "internalType": "uint256",
          "name": "_sell",
          "type": "uint256"
        },
        {
          "internalType": "address",
          "name": "_gitar",
          "type": "address"
        }
      ],
      "stateMutability": "nonpayable",
      "type": "constructor"
    },
    {
      "anonymous": false,
      "inputs": [
        {
          "indexed": false,
          "internalType": "bool",
          "name": "compare",
          "type": "bool"
        }
      ],
      "name": "Bool",
      "type": "event"
    },
    {
      "anonymous": false,
      "inputs": [
        {
          "indexed": false,
          "internalType": "uint256",
          "name": "gas",
          "type": "uint256"
        }
      ],
      "name": "Debug",
      "type": "event"
    },
    {
      "inputs": [],
      "name": "buy",
      "outputs": [
        {
          "internalType": "uint256",
          "name": "",
          "type": "uint256"
        }
      ],
      "stateMutability": "view",
      "type": "function",
      "constant": true
    },
    {
      "inputs": [],
      "name": "gitar_",
      "outputs": [
        {
          "internalType": "address",
          "name": "",
          "type": "address"
        }
      ],
      "stateMutability": "view",
      "type": "function",
      "constant": true
    },
    {
      "inputs": [],
      "name": "gitarg_",
      "outputs": [
        {
          "internalType": "address",
          "name": "",
          "type": "address"
        }
      ],
      "stateMutability": "view",
      "type": "function",
      "constant": true
    },
    {
      "inputs": [],
      "name": "sell",
      "outputs": [
        {
          "internalType": "uint256",
          "name": "",
          "type": "uint256"
        }
      ],
      "stateMutability": "view",
      "type": "function",
      "constant": true
    },
    {
      "inputs": [],
      "name": "stakem",
      "outputs": [
        {
          "internalType": "uint256",
          "name": "",
          "type": "uint256"
        }
      ],
      "stateMutability": "view",
      "type": "function",
      "constant": true
    },
    {
      "inputs": [
        {
          "internalType": "uint256",
          "name": "amount",
          "type": "uint256"
        },
        {
          "internalType": "uint256",
          "name": "stiphen",
          "type": "uint256"
        }
      ],
      "name": "port",
      "outputs": [
        {
          "internalType": "uint256",
          "name": "",
          "type": "uint256"
        }
      ],
      "stateMutability": "payable",
      "type": "function",
      "payable": true
    },
    {
      "inputs": [
        {
          "internalType": "uint256",
          "name": "amount",
          "type": "uint256"
        },
        {
          "internalType": "uint256",
          "name": "stiphen",
          "type": "uint256"
        }
      ],
      "name": "star",
      "outputs": [
        {
          "internalType": "uint256",
          "name": "",
          "type": "uint256"
        }
      ],
      "stateMutability": "payable",
      "type": "function",
      "payable": true
    }
  ],
  "bytecode": "0x608060405234801562000010575f80fd5b50604051620015fe380380620015fe8339818101604052810190620000369190620002df565b8183106200007b576040517f08c379a0000000000000000000000000000000000000000000000000000000008152600401620000729062000396565b60405180910390fd5b8060055f6101000a81548173ffffffffffffffffffffffffffffffffffffffff021916908373ffffffffffffffffffffffffffffffffffffffff1602179055508060035f6101000a81548173ffffffffffffffffffffffffffffffffffffffff021916908373ffffffffffffffffffffffffffffffffffffffff16021790555060035f9054906101000a900473ffffffffffffffffffffffffffffffffffffffff1673ffffffffffffffffffffffffffffffffffffffff166303f2d8fe6040518163ffffffff1660e01b8152600401602060405180830381865afa15801562000166573d5f803e3d5ffd5b505050506040513d601f19601f820116820180604052508101906200018c9190620003b6565b60065f6101000a81548173ffffffffffffffffffffffffffffffffffffffff021916908373ffffffffffffffffffffffffffffffffffffffff16021790555060065f9054906101000a900473ffffffffffffffffffffffffffffffffffffffff1660045f6101000a81548173ffffffffffffffffffffffffffffffffffffffff021916908373ffffffffffffffffffffffffffffffffffffffff160217905550815f8190555082600181905550505050620003e6565b5f80fd5b5f819050919050565b6200025a8162000246565b811462000265575f80fd5b50565b5f8151905062000278816200024f565b92915050565b5f73ffffffffffffffffffffffffffffffffffffffff82169050919050565b5f620002a9826200027e565b9050919050565b620002bb816200029d565b8114620002c6575f80fd5b50565b5f81519050620002d981620002b0565b92915050565b5f805f60608486031215620002f957620002f862000242565b5b5f620003088682870162000268565b93505060206200031b8682870162000268565b92505060406200032e86828701620002c9565b9150509250925092565b5f82825260208201905092915050565b7f63686573740000000000000000000000000000000000000000000000000000005f82015250565b5f6200037e60058362000338565b91506200038b8262000348565b602082019050919050565b5f6020820190508181035f830152620003af8162000370565b9050919050565b5f60208284031215620003ce57620003cd62000242565b5b5f620003dd84828501620002c9565b91505092915050565b61120a80620003f45f395ff3fe60806040526004361061006f575f3560e01c8063a6f2ae3a1161004d578063a6f2ae3a146100f1578063ae42362c1461011b578063dbdd26f21461014b578063e31a90111461017b5761006f565b806326385f381461007357806328231c551461009d57806345710074146100c7575b5f80fd5b34801561007e575f80fd5b506100876101a5565b6040516100949190610baa565b60405180910390f35b3480156100a8575f80fd5b506100b16101ab565b6040516100be9190610c02565b60405180910390f35b3480156100d2575f80fd5b506100db6101d0565b6040516100e89190610baa565b60405180910390f35b3480156100fc575f80fd5b506101056101d5565b6040516101129190610baa565b60405180910390f35b61013560048036038101906101309190610c49565b6101db565b6040516101429190610baa565b60405180910390f35b61016560048036038101906101609190610c49565b61076f565b6040516101729190610baa565b60405180910390f35b348015610186575f80fd5b5061018f610b6d565b60405161019c9190610c02565b60405180910390f35b60025481565b60055f9054906101000a900473ffffffffffffffffffffffffffffffffffffffff1681565b5f5481565b60015481565b5f81805a1161021f576040517f08c379a000000000000000000000000000000000000000000000000000000000815260040161021690610ce1565b60405180910390fd5b5f60075f3373ffffffffffffffffffffffffffffffffffffffff1673ffffffffffffffffffffffffffffffffffffffff1681526020019081526020015f205490505f848261026d9190610d2c565b116102ad576040517f08c379a00000000000000000000000000000000000000000000000000000000081526004016102a490610da9565b60405180910390fd5b5f84600154876102bd9190610dc7565b6102c79190610e08565b905084826102d59190610d2c565b60075f3373ffffffffffffffffffffffffffffffffffffffff1673ffffffffffffffffffffffffffffffffffffffff1681526020019081526020015f20819055505f60085f3373ffffffffffffffffffffffffffffffffffffffff1673ffffffffffffffffffffffffffffffffffffffff1681526020019081526020015f205414801561036d57506001858361036b9190610d2c565b145b1561044d5760035f9054906101000a900473ffffffffffffffffffffffffffffffffffffffff1673ffffffffffffffffffffffffffffffffffffffff16631ff3cc52336040518263ffffffff1660e01b81526004016103cc9190610c02565b602060405180830381865afa1580156103e7573d5f803e3d5ffd5b505050506040513d601f19601f8201168201806040525081019061040b9190610e4f565b60085f3373ffffffffffffffffffffffffffffffffffffffff1673ffffffffffffffffffffffffffffffffffffffff1681526020019081526020015f20819055505b8560085f3373ffffffffffffffffffffffffffffffffffffffff1673ffffffffffffffffffffffffffffffffffffffff1681526020019081526020015f205f8282546104999190610d2c565b925050819055505f60085f3373ffffffffffffffffffffffffffffffffffffffff1673ffffffffffffffffffffffffffffffffffffffff1681526020019081526020015f20541015610520576040517f08c379a000000000000000000000000000000000000000000000000000000000815260040161051790610ec4565b60405180910390fd5b3373ffffffffffffffffffffffffffffffffffffffff166108fc8290811502906040515f60405180830381858888f19350505050158015610563573d5f803e3d5ffd5b5060045f9054906101000a900473ffffffffffffffffffffffffffffffffffffffff1673ffffffffffffffffffffffffffffffffffffffff166323b872dd60035f9054906101000a900473ffffffffffffffffffffffffffffffffffffffff1673ffffffffffffffffffffffffffffffffffffffff16638da5cb5b6040518163ffffffff1660e01b8152600401602060405180830381865afa15801561060b573d5f803e3d5ffd5b505050506040513d601f19601f8201168201806040525081019061062f9190610f0c565b33886040518463ffffffff1660e01b815260040161064f93929190610f37565b6020604051808303815f875af115801561066b573d5f803e3d5ffd5b505050506040513d601f19601f8201168201806040525081019061068f9190610fa1565b50600160075f3373ffffffffffffffffffffffffffffffffffffffff1673ffffffffffffffffffffffffffffffffffffffff1681526020019081526020015f205f8282546106dd9190610d2c565b92505081905550845a10610726576040517f08c379a000000000000000000000000000000000000000000000000000000000815260040161071d90611016565b60405180910390fd5b60075f3373ffffffffffffffffffffffffffffffffffffffff1673ffffffffffffffffffffffffffffffffffffffff1681526020019081526020015f2054935050505092915050565b5f81805a116107b3576040517f08c379a00000000000000000000000000000000000000000000000000000000081526004016107aa90610ce1565b60405180910390fd5b5f60035f9054906101000a900473ffffffffffffffffffffffffffffffffffffffff1673ffffffffffffffffffffffffffffffffffffffff16631ff3cc52336040518263ffffffff1660e01b815260040161080e9190610c02565b602060405180830381865afa158015610829573d5f803e3d5ffd5b505050506040513d601f19601f8201168201806040525081019061084d9190610e4f565b905084811015610892576040517f08c379a00000000000000000000000000000000000000000000000000000000081526004016108899061107e565b60405180910390fd5b5f60075f3373ffffffffffffffffffffffffffffffffffffffff1673ffffffffffffffffffffffffffffffffffffffff1681526020019081526020015f20541480610962575060075f3373ffffffffffffffffffffffffffffffffffffffff1673ffffffffffffffffffffffffffffffffffffffff1681526020019081526020015f2054851015801561096157505f60075f3373ffffffffffffffffffffffffffffffffffffffff1673ffffffffffffffffffffffffffffffffffffffff1681526020019081526020015f2054145b5b6109a1576040517f08c379a0000000000000000000000000000000000000000000000000000000008152600401610998906110e6565b60405180910390fd5b846001545f546109b19190610d2c565b6109bb9190610dc7565b60075f3373ffffffffffffffffffffffffffffffffffffffff1673ffffffffffffffffffffffffffffffffffffffff1681526020019081526020015f20819055505f60075f3373ffffffffffffffffffffffffffffffffffffffff1673ffffffffffffffffffffffffffffffffffffffff1681526020019081526020015f20549050848586610a4a9190610dc7565b610a549190610d2c565b8110610a95576040517f08c379a0000000000000000000000000000000000000000000000000000000008152600401610a8c9061114e565b60405180910390fd5b8485610aa19190610dc7565b3414610ae2576040517f08c379a0000000000000000000000000000000000000000000000000000000008152600401610ad9906111b6565b60405180910390fd5b845a10610b24576040517f08c379a0000000000000000000000000000000000000000000000000000000008152600401610b1b90611016565b60405180910390fd5b60075f3373ffffffffffffffffffffffffffffffffffffffff1673ffffffffffffffffffffffffffffffffffffffff1681526020019081526020015f2054935050505092915050565b60065f9054906101000a900473ffffffffffffffffffffffffffffffffffffffff1681565b5f819050919050565b610ba481610b92565b82525050565b5f602082019050610bbd5f830184610b9b565b92915050565b5f73ffffffffffffffffffffffffffffffffffffffff82169050919050565b5f610bec82610bc3565b9050919050565b610bfc81610be2565b82525050565b5f602082019050610c155f830184610bf3565b92915050565b5f80fd5b610c2881610b92565b8114610c32575f80fd5b50565b5f81359050610c4381610c1f565b92915050565b5f8060408385031215610c5f57610c5e610c1b565b5b5f610c6c85828601610c35565b9250506020610c7d85828601610c35565b9150509250929050565b5f82825260208201905092915050565b7f67617320746f20737461727400000000000000000000000000000000000000005f82015250565b5f610ccb600c83610c87565b9150610cd682610c97565b602082019050919050565b5f6020820190508181035f830152610cf881610cbf565b9050919050565b7f4e487b71000000000000000000000000000000000000000000000000000000005f52601160045260245ffd5b5f610d3682610b92565b9150610d4183610b92565b9250828203905081811115610d5957610d58610cff565b5b92915050565b7f73616665207374697068656e20666f7220636f6e7472616374000000000000005f82015250565b5f610d93601983610c87565b9150610d9e82610d5f565b602082019050919050565b5f6020820190508181035f830152610dc081610d87565b9050919050565b5f610dd182610b92565b9150610ddc83610b92565b9250828202610dea81610b92565b91508282048414831517610e0157610e00610cff565b5b5092915050565b5f610e1282610b92565b9150610e1d83610b92565b9250828201905080821115610e3557610e34610cff565b5b92915050565b5f81519050610e4981610c1f565b92915050565b5f60208284031215610e6457610e63610c1b565b5b5f610e7184828501610e3b565b91505092915050565b7f636c6f73656400000000000000000000000000000000000000000000000000005f82015250565b5f610eae600683610c87565b9150610eb982610e7a565b602082019050919050565b5f6020820190508181035f830152610edb81610ea2565b9050919050565b610eeb81610be2565b8114610ef5575f80fd5b50565b5f81519050610f0681610ee2565b92915050565b5f60208284031215610f2157610f20610c1b565b5b5f610f2e84828501610ef8565b91505092915050565b5f606082019050610f4a5f830186610bf3565b610f576020830185610bf3565b610f646040830184610b9b565b949350505050565b5f8115159050919050565b610f8081610f6c565b8114610f8a575f80fd5b50565b5f81519050610f9b81610f77565b92915050565b5f60208284031215610fb657610fb5610c1b565b5b5f610fc384828501610f8d565b91505092915050565b7f67617320746f2073746f700000000000000000000000000000000000000000005f82015250565b5f611000600b83610c87565b915061100b82610fcc565b602082019050919050565b5f6020820190508181035f83015261102d81610ff4565b9050919050565b7f74726561737572652063686573740000000000000000000000000000000000005f82015250565b5f611068600e83610c87565b915061107382611034565b602082019050919050565b5f6020820190508181035f8301526110958161105c565b9050919050565b7f706172726f742773206b656570000000000000000000000000000000000000005f82015250565b5f6110d0600d83610c87565b91506110db8261109c565b602082019050919050565b5f6020820190508181035f8301526110fd816110c4565b9050919050565b7f6f726500000000000000000000000000000000000000000000000000000000005f82015250565b5f611138600383610c87565b915061114382611104565b602082019050919050565b5f6020820190508181035f8301526111658161112c565b9050919050565b7f67617300000000000000000000000000000000000000000000000000000000005f82015250565b5f6111a0600383610c87565b91506111ab8261116c565b602082019050919050565b5f6020820190508181035f8301526111cd81611194565b905091905056fea264697066735822122022abf4d725bbbd931d661213af932f808bae10684ed66f82804caa8b5dcdc4ee64736f6c63430008140033",
  "immutableReferences": {},
  "source": "// control token\n// there's a point of convergance where the buffer converges with the gas cover stipend\n// the value is the transaction capability and there is always slightly more backbone\n// this is due to the gas relation function and buffer (acts as program counter)\npragma solidity >= \"0.8.20\";\nimport \"./gitar.sol\";\nimport \"./gitarg.sol\";\nimport \"./libraries/gas.sol\";\n\n// use escrow to pay gas for spread of 0.90 - 1.20 (as an example). \n// rig like an oil rig\ncontract rig {\n    uint public sell;\n    uint public buy;\n    uint public stakem;\n    gitar tar; // REVIEW - access modifier\n    gitarg arg;\n    address public gitar_;\n    address public gitarg_;\n    // REVIEW - struct for transaction, probably not\n    mapping(address => uint) buffer; // homework - what will buffer do?\n    mapping(address => uint) gate; // gates close\n    // buffer rollover - remaining buffer used in gitar limiter\n    // booty can be for me or for you - max or min\n    // TODO - can I create a token interface for generic erc?\n    event Debug(uint gas);\n    event Bool(bool compare);\n    constructor (uint _buy, uint _sell, address _gitar) {\n        require(_buy < _sell, \"chest\");\n        gitar_ = _gitar;\n        tar = gitar(_gitar);\n        gitarg_ = tar._gitarg();\n        arg = gitarg(gitarg_);\n        sell = _sell;\n        buy = _buy;\n        \n        // TODO - initiate gitar contract\n        // booty is the max take for the stake\n        // aaarrrggg\n    }\n    modifier start (uint stiphon) {\n        //bool gascheck = gas.check(uint(int(gasleft())), uint(int(tx.gasprice)), stiphon);\n        require(gasleft() > stiphon, \"gas to start\");\n        _;\n    }\n    function port (uint amount, uint stiphen) public payable start(stiphen) returns (uint) {\n        // left side, sell\n        // cannons return loot\n        //uint s = gasleft() * tx.gasprice;\n\n        uint purchased = tar.gg(msg.sender);\n        require(purchased >= amount, \"treasure chest\");\n        require(buffer[msg.sender] == 0 || (!(amount < buffer[msg.sender]) && buffer[msg.sender] == 0), \"parrot's keep\");\n        // (3 - 1) * 10 = 20 \n        buffer[msg.sender] = (sell - buy) * amount; // REVIEW - multiplier\n        uint buff = buffer[msg.sender];\n        //  3, 6\n        // gas minimization is profitability for node runner, if gas isn't directly paid to node runner\n        require(buff < (stiphen * stiphen) - stiphen, \"ore\"); // bridge level deflation mechanic\n        require(msg.value == stiphen * stiphen, \"gas\"); //U\n        require(gasleft() < stiphen, \"gas to stop\");\n        return buffer[msg.sender];\n    }\n\n    function star (uint amount, uint stiphen) public payable start(stiphen) returns (uint) {\n        // right side, buy\n        // balls rerun shoot\n        uint buff = buffer[msg.sender];\n        // if we use 1 as a flag in the buffer then we can lock the account\n        require(buff - stiphen > 0, \"safe stiphen for contract\"); //opens us up to higher prices for higher transacts - fight large sum instability problem\n        uint cost = (amount * buy) + stiphen; // contract (me) cost\n        // TODO - amount is in token and the buffer is the token number\n        // TODO - buy the token amount for the price, return the gas cost buffer in token\n        buffer[msg.sender] = buff - stiphen; // the stiphen is sent as gitarg token\n        // we haven't set the gate, buffer < s^2 - s, then can buffer - s == 1 to set the gate \n        if (gate[msg.sender] == 0 && (buff - stiphen) == 1) gate[msg.sender] = tar.gg(msg.sender);\n        // (s(g)^2 - s(g)) - s(g) ?= 1 if s(g) = s(x1) < g(x2);\n        gate[msg.sender] -= amount;\n        require(gate[msg.sender] >= 0, \"closed\");\n        payable(msg.sender).transfer(cost);\n        arg.transferFrom(tar.owner(), msg.sender, stiphen);\n        buffer[msg.sender] -= 1;\n        //require(gasleft() * tx.gasprice < tx.gasprice * 2);\n        require(gasleft() < stiphen, \"gas to stop\");\n        return buffer[msg.sender];\n    }\n} // rig, where mean and median converge\n",
  "sourcePath": "/home/gitarg/gitarg/solidity_ico/contracts/rig.sol",
  "compiler": {
    "name": "solc",
    "version": "0.8.20+commit.a1b79de6.Emscripten.clang"
  },
  "schemaVersion": "3.4.16",
  "updatedAt": "2024-02-26T21:52:38.908Z",
  "networkType": "ethereum",
  "devdoc": {
    "kind": "dev",
    "methods": {},
    "version": 1
  },
  "userdoc": {
    "kind": "user",
    "methods": {},
    "version": 1
  }
}