{
  "contractName": "T",
  "abi": [
    {
      "inputs": [
        {
          "internalType": "string",
          "name": "_ticker",
          "type": "string"
        },
        {
          "internalType": "string",
          "name": "ticker_",
          "type": "string"
        },
        {
          "internalType": "uint256",
          "name": "_rate",
          "type": "uint256"
        },
        {
          "internalType": "uint256",
          "name": "rate_",
          "type": "uint256"
        }
      ],
      "stateMutability": "nonpayable",
      "type": "constructor"
    },
    {
      "inputs": [],
      "name": "n",
      "outputs": [],
      "stateMutability": "nonpayable",
      "type": "function"
    }
  ],
  "bytecode": "0x608060405234801561000f575f80fd5b5060405161066838038061066883398181016040528101906100319190610283565b335f806101000a81548173ffffffffffffffffffffffffffffffffffffffff021916908373ffffffffffffffffffffffffffffffffffffffff16021790555060405180604001604052808581526020018381525060015f820151815f01908161009a9190610523565b506020820151816001015590505060405180604001604052808481526020018281525060035f820151815f0190816100d29190610523565b5060208201518160010155905050505050506105f2565b5f604051905090565b5f80fd5b5f80fd5b5f80fd5b5f80fd5b5f601f19601f8301169050919050565b7f4e487b71000000000000000000000000000000000000000000000000000000005f52604160045260245ffd5b61014882610102565b810181811067ffffffffffffffff8211171561016757610166610112565b5b80604052505050565b5f6101796100e9565b9050610185828261013f565b919050565b5f67ffffffffffffffff8211156101a4576101a3610112565b5b6101ad82610102565b9050602081019050919050565b5f5b838110156101d75780820151818401526020810190506101bc565b5f8484015250505050565b5f6101f46101ef8461018a565b610170565b9050828152602081018484840111156102105761020f6100fe565b5b61021b8482856101ba565b509392505050565b5f82601f830112610237576102366100fa565b5b81516102478482602086016101e2565b91505092915050565b5f819050919050565b61026281610250565b811461026c575f80fd5b50565b5f8151905061027d81610259565b92915050565b5f805f806080858703121561029b5761029a6100f2565b5b5f85015167ffffffffffffffff8111156102b8576102b76100f6565b5b6102c487828801610223565b945050602085015167ffffffffffffffff8111156102e5576102e46100f6565b5b6102f187828801610223565b93505060406103028782880161026f565b92505060606103138782880161026f565b91505092959194509250565b5f81519050919050565b7f4e487b71000000000000000000000000000000000000000000000000000000005f52602260045260245ffd5b5f600282049050600182168061036d57607f821691505b6020821081036103805761037f610329565b5b50919050565b5f819050815f5260205f209050919050565b5f6020601f8301049050919050565b5f82821b905092915050565b5f600883026103e27fffffffffffffffffffffffffffffffffffffffffffffffffffffffffffffffff826103a7565b6103ec86836103a7565b95508019841693508086168417925050509392505050565b5f819050919050565b5f61042761042261041d84610250565b610404565b610250565b9050919050565b5f819050919050565b6104408361040d565b61045461044c8261042e565b8484546103b3565b825550505050565b5f90565b61046861045c565b610473818484610437565b505050565b5b818110156104965761048b5f82610460565b600181019050610479565b5050565b601f8211156104db576104ac81610386565b6104b584610398565b810160208510156104c4578190505b6104d86104d085610398565b830182610478565b50505b505050565b5f82821c905092915050565b5f6104fb5f19846008026104e0565b1980831691505092915050565b5f61051383836104ec565b9150826002028217905092915050565b61052c8261031f565b67ffffffffffffffff81111561054557610544610112565b5b61054f8254610356565b61055a82828561049a565b5f60209050601f83116001811461058b575f8415610579578287015190505b6105838582610508565b8655506105ea565b601f19841661059986610386565b5f5b828110156105c05784890151825560018201915060208501945060208101905061059b565b868310156105dd57848901516105d9601f8916826104ec565b8355505b6001600288020188555050505b505050505050565b606a806105fe5f395ff3fe6080604052348015600e575f80fd5b50600436106026575f3560e01c80632e52d60614602a575b5f80fd5b60306032565b005b56fea2646970667358221220e5ad536ddde57fd93fa1c731dbf0ec0b58a52d6150d5fac202a06189b8c2642764736f6c63430008140033",
  "immutableReferences": {},
  "source": "pragma solidity >= \"0.8.20\";\nimport \"./ltcgra.sol\";\n//import \"./tar.sol\";\n\ncontract T {\n  address private _ltcgra;\n  struct I {\n    string ticker;\n    uint rate;\n  }\n\n  I _i;\n  I i_;\n  constructor (string memory _ticker, string memory ticker_, uint _rate, uint rate_) {\n    _ltcgra = msg.sender;\n    _i = I(_ticker, _rate);\n    i_ = I(ticker_, rate_);\n  }\n  function n () public {\n  }\n}\n",
  "sourcePath": "/Users/davidkamer/gitarg_eth_ico/contracts/T.sol",
  "compiler": {
    "name": "solc",
    "version": "0.8.20+commit.a1b79de6.Emscripten.clang"
  },
  "schemaVersion": "3.4.16",
  "updatedAt": "2023-10-29T04:17:00.458Z",
  "devdoc": {
    "kind": "dev",
    "methods": {},
    "version": 1
  },
  "userdoc": {
    "kind": "user",
    "methods": {},
    "version": 1
  }
}